{
  "contractName": "DogeStaking",
  "abi": [
    {
      "inputs": [
        {
          "internalType": "address",
          "name": "_dogeToken",
          "type": "address"
        },
        {
          "internalType": "uint256",
          "name": "_rewardRate",
          "type": "uint256"
        }
      ],
      "stateMutability": "nonpayable",
      "type": "constructor"
    },
    {
      "anonymous": false,
      "inputs": [
        {
          "indexed": true,
          "internalType": "address",
          "name": "user",
          "type": "address"
        },
        {
          "indexed": false,
          "internalType": "uint256",
          "name": "reward",
          "type": "uint256"
        }
      ],
      "name": "RewardPaid",
      "type": "event"
    },
    {
      "anonymous": false,
      "inputs": [
        {
          "indexed": true,
          "internalType": "address",
          "name": "user",
          "type": "address"
        },
        {
          "indexed": false,
          "internalType": "uint256",
          "name": "amount",
          "type": "uint256"
        }
      ],
      "name": "Staked",
      "type": "event"
    },
    {
      "anonymous": false,
      "inputs": [
        {
          "indexed": true,
          "internalType": "address",
          "name": "user",
          "type": "address"
        },
        {
          "indexed": false,
          "internalType": "uint256",
          "name": "amount",
          "type": "uint256"
        }
      ],
      "name": "Unstaked",
      "type": "event"
    },
    {
      "inputs": [],
      "name": "dogeToken",
      "outputs": [
        {
          "internalType": "contract IERC20",
          "name": "",
          "type": "address"
        }
      ],
      "stateMutability": "view",
      "type": "function"
    },
    {
      "inputs": [],
      "name": "owner",
      "outputs": [
        {
          "internalType": "address",
          "name": "",
          "type": "address"
        }
      ],
      "stateMutability": "view",
      "type": "function"
    },
    {
      "inputs": [],
      "name": "rewardRate",
      "outputs": [
        {
          "internalType": "uint256",
          "name": "",
          "type": "uint256"
        }
      ],
      "stateMutability": "view",
      "type": "function"
    },
    {
      "inputs": [
        {
          "internalType": "address",
          "name": "",
          "type": "address"
        }
      ],
      "name": "stakers",
      "outputs": [
        {
          "internalType": "uint256",
          "name": "amountStaked",
          "type": "uint256"
        },
        {
          "internalType": "uint256",
          "name": "rewardDebt",
          "type": "uint256"
        },
        {
          "internalType": "uint256",
          "name": "lastUpdateBlock",
          "type": "uint256"
        }
      ],
      "stateMutability": "view",
      "type": "function"
    },
    {
      "inputs": [],
      "name": "totalStaked",
      "outputs": [
        {
          "internalType": "uint256",
          "name": "",
          "type": "uint256"
        }
      ],
      "stateMutability": "view",
      "type": "function"
    },
    {
      "inputs": [
        {
          "internalType": "uint256",
          "name": "amount",
          "type": "uint256"
        }
      ],
      "name": "stake",
      "outputs": [],
      "stateMutability": "nonpayable",
      "type": "function"
    },
    {
      "inputs": [
        {
          "internalType": "uint256",
          "name": "amount",
          "type": "uint256"
        }
      ],
      "name": "unstake",
      "outputs": [],
      "stateMutability": "nonpayable",
      "type": "function"
    },
    {
      "inputs": [],
      "name": "claimReward",
      "outputs": [],
      "stateMutability": "nonpayable",
      "type": "function"
    },
    {
      "inputs": [
        {
          "internalType": "uint256",
          "name": "newRewardRate",
          "type": "uint256"
        }
      ],
      "name": "setRewardRate",
      "outputs": [],
      "stateMutability": "nonpayable",
      "type": "function"
    },
    {
      "inputs": [
        {
          "internalType": "uint256",
          "name": "amount",
          "type": "uint256"
        }
      ],
      "name": "withdrawExcess",
      "outputs": [],
      "stateMutability": "nonpayable",
      "type": "function"
    },
    {
      "inputs": [
        {
          "internalType": "address",
          "name": "stakerAddress",
          "type": "address"
        }
      ],
      "name": "checkReward",
      "outputs": [
        {
          "internalType": "uint256",
          "name": "",
          "type": "uint256"
        }
      ],
      "stateMutability": "view",
      "type": "function"
    }
  ],
  "bytecode": "0x608060405234801562000010575f80fd5b506040516200146e3803806200146e833981810160405281019062000036919062000161565b815f806101000a81548173ffffffffffffffffffffffffffffffffffffffff021916908373ffffffffffffffffffffffffffffffffffffffff160217905550806002819055503360015f6101000a81548173ffffffffffffffffffffffffffffffffffffffff021916908373ffffffffffffffffffffffffffffffffffffffff1602179055505050620001a6565b5f80fd5b5f73ffffffffffffffffffffffffffffffffffffffff82169050919050565b5f620000f382620000c8565b9050919050565b6200010581620000e7565b811462000110575f80fd5b50565b5f815190506200012381620000fa565b92915050565b5f819050919050565b6200013d8162000129565b811462000148575f80fd5b50565b5f815190506200015b8162000132565b92915050565b5f80604083850312156200017a5762000179620000c4565b5b5f620001898582860162000113565b92505060206200019c858286016200014b565b9150509250929050565b6112ba80620001b45f395ff3fe608060405234801561000f575f80fd5b50600436106100a7575f3560e01c80639168ae721161006f5780639168ae721461013f5780639e447fc614610171578063a694fc3a1461018d578063b88a802f146101a9578063c3c90e64146101b3578063e755ddd7146101e3576100a7565b806322d31977146100ab5780632e17de78146100c95780637b0a47ee146100e5578063817b1cd2146101035780638da5cb5b14610121575b5f80fd5b6100b36101ff565b6040516100c09190610c4c565b60405180910390f35b6100e360048036038101906100de9190610c9c565b610222565b005b6100ed610411565b6040516100fa9190610cd6565b60405180910390f35b61010b610417565b6040516101189190610cd6565b60405180910390f35b61012961041d565b6040516101369190610d0f565b60405180910390f35b61015960048036038101906101549190610d52565b610442565b60405161016893929190610d7d565b60405180910390f35b61018b60048036038101906101869190610c9c565b610468565b005b6101a760048036038101906101a29190610c9c565b610501565b005b6101b16106ac565b005b6101cd60048036038101906101c89190610d52565b610835565b6040516101da9190610cd6565b60405180910390f35b6101fd60048036038101906101f89190610c9c565b6108f7565b005b5f8054906101000a900473ffffffffffffffffffffffffffffffffffffffff1681565b5f8111610264576040517f08c379a000000000000000000000000000000000000000000000000000000000815260040161025b90610e0c565b60405180910390fd5b5f60045f3373ffffffffffffffffffffffffffffffffffffffff1673ffffffffffffffffffffffffffffffffffffffff1681526020019081526020015f20905081815f015410156102ea576040517f08c379a00000000000000000000000000000000000000000000000000000000081526004016102e190610e74565b60405180910390fd5b6102f333610b1e565b81815f015f8282546103059190610ebf565b925050819055508160035f82825461031d9190610ebf565b925050819055505f8054906101000a900473ffffffffffffffffffffffffffffffffffffffff1673ffffffffffffffffffffffffffffffffffffffff1663a9059cbb33846040518363ffffffff1660e01b815260040161037e929190610ef2565b6020604051808303815f875af115801561039a573d5f803e3d5ffd5b505050506040513d601f19601f820116820180604052508101906103be9190610f4e565b503373ffffffffffffffffffffffffffffffffffffffff167f0f5bb82176feb1b5e747e28471aa92156a04d9f3ab9f45f28e2d704232b93f75836040516104059190610cd6565b60405180910390a25050565b60025481565b60035481565b60015f9054906101000a900473ffffffffffffffffffffffffffffffffffffffff1681565b6004602052805f5260405f205f91509050805f0154908060010154908060020154905083565b60015f9054906101000a900473ffffffffffffffffffffffffffffffffffffffff1673ffffffffffffffffffffffffffffffffffffffff163373ffffffffffffffffffffffffffffffffffffffff16146104f7576040517f08c379a00000000000000000000000000000000000000000000000000000000081526004016104ee90610fe9565b60405180910390fd5b8060028190555050565b5f8111610543576040517f08c379a000000000000000000000000000000000000000000000000000000000815260040161053a90611051565b60405180910390fd5b5f8054906101000a900473ffffffffffffffffffffffffffffffffffffffff1673ffffffffffffffffffffffffffffffffffffffff166323b872dd3330846040518463ffffffff1660e01b815260040161059f9392919061106f565b6020604051808303815f875af11580156105bb573d5f803e3d5ffd5b505050506040513d601f19601f820116820180604052508101906105df9190610f4e565b505f60045f3373ffffffffffffffffffffffffffffffffffffffff1673ffffffffffffffffffffffffffffffffffffffff1681526020019081526020015f20905061062933610b1e565b81815f015f82825461063b91906110a4565b925050819055508160035f82825461065391906110a4565b925050819055503373ffffffffffffffffffffffffffffffffffffffff167f9e71bc8eea02a63969f509818f2dafb9254532904319f9dbda79b67bd34a5f3d836040516106a09190610cd6565b60405180910390a25050565b5f60045f3373ffffffffffffffffffffffffffffffffffffffff1673ffffffffffffffffffffffffffffffffffffffff1681526020019081526020015f2090506106f533610b1e565b5f816001015490505f811161073f576040517f08c379a000000000000000000000000000000000000000000000000000000000815260040161073690611121565b60405180910390fd5b5f82600101819055505f8054906101000a900473ffffffffffffffffffffffffffffffffffffffff1673ffffffffffffffffffffffffffffffffffffffff1663a9059cbb33836040518363ffffffff1660e01b81526004016107a2929190610ef2565b6020604051808303815f875af11580156107be573d5f803e3d5ffd5b505050506040513d601f19601f820116820180604052508101906107e29190610f4e565b503373ffffffffffffffffffffffffffffffffffffffff167fe2403640ba68fed3a2f88b7557551d1993f84b99bb10ff833f0cf8db0c5e0486826040516108299190610cd6565b60405180910390a25050565b5f8060045f8473ffffffffffffffffffffffffffffffffffffffff1673ffffffffffffffffffffffffffffffffffffffff1681526020019081526020015f206040518060600160405290815f82015481526020016001820154815260200160028201548152505090505f8160400151436108af9190610ebf565b90505f600354835f0151600254846108c7919061113f565b6108d1919061113f565b6108db91906111ad565b90508083602001516108ed91906110a4565b9350505050919050565b60015f9054906101000a900473ffffffffffffffffffffffffffffffffffffffff1673ffffffffffffffffffffffffffffffffffffffff163373ffffffffffffffffffffffffffffffffffffffff1614610986576040517f08c379a000000000000000000000000000000000000000000000000000000000815260040161097d90610fe9565b60405180910390fd5b805f8054906101000a900473ffffffffffffffffffffffffffffffffffffffff1673ffffffffffffffffffffffffffffffffffffffff166370a08231306040518263ffffffff1660e01b81526004016109df9190610d0f565b602060405180830381865afa1580156109fa573d5f803e3d5ffd5b505050506040513d601f19601f82011682018060405250810190610a1e91906111f1565b1015610a5f576040517f08c379a0000000000000000000000000000000000000000000000000000000008152600401610a5690611266565b60405180910390fd5b5f8054906101000a900473ffffffffffffffffffffffffffffffffffffffff1673ffffffffffffffffffffffffffffffffffffffff1663a9059cbb60015f9054906101000a900473ffffffffffffffffffffffffffffffffffffffff16836040518363ffffffff1660e01b8152600401610ada929190610ef2565b6020604051808303815f875af1158015610af6573d5f803e3d5ffd5b505050506040513d601f19601f82011682018060405250810190610b1a9190610f4e565b5050565b5f60045f8373ffffffffffffffffffffffffffffffffffffffff1673ffffffffffffffffffffffffffffffffffffffff1681526020019081526020015f2090505f815f01541115610bc5575f816002015443610b7a9190610ebf565b90505f600354835f015460025484610b92919061113f565b610b9c919061113f565b610ba691906111ad565b905080836001015f828254610bbb91906110a4565b9250508190555050505b4381600201819055505050565b5f73ffffffffffffffffffffffffffffffffffffffff82169050919050565b5f819050919050565b5f610c14610c0f610c0a84610bd2565b610bf1565b610bd2565b9050919050565b5f610c2582610bfa565b9050919050565b5f610c3682610c1b565b9050919050565b610c4681610c2c565b82525050565b5f602082019050610c5f5f830184610c3d565b92915050565b5f80fd5b5f819050919050565b610c7b81610c69565b8114610c85575f80fd5b50565b5f81359050610c9681610c72565b92915050565b5f60208284031215610cb157610cb0610c65565b5b5f610cbe84828501610c88565b91505092915050565b610cd081610c69565b82525050565b5f602082019050610ce95f830184610cc7565b92915050565b5f610cf982610bd2565b9050919050565b610d0981610cef565b82525050565b5f602082019050610d225f830184610d00565b92915050565b610d3181610cef565b8114610d3b575f80fd5b50565b5f81359050610d4c81610d28565b92915050565b5f60208284031215610d6757610d66610c65565b5b5f610d7484828501610d3e565b91505092915050565b5f606082019050610d905f830186610cc7565b610d9d6020830185610cc7565b610daa6040830184610cc7565b949350505050565b5f82825260208201905092915050565b7f43616e6e6f7420756e7374616b65203020746f6b656e730000000000000000005f82015250565b5f610df6601783610db2565b9150610e0182610dc2565b602082019050919050565b5f6020820190508181035f830152610e2381610dea565b9050919050565b7f4e6f7420656e6f756768207374616b65642062616c616e6365000000000000005f82015250565b5f610e5e601983610db2565b9150610e6982610e2a565b602082019050919050565b5f6020820190508181035f830152610e8b81610e52565b9050919050565b7f4e487b71000000000000000000000000000000000000000000000000000000005f52601160045260245ffd5b5f610ec982610c69565b9150610ed483610c69565b9250828203905081811115610eec57610eeb610e92565b5b92915050565b5f604082019050610f055f830185610d00565b610f126020830184610cc7565b9392505050565b5f8115159050919050565b610f2d81610f19565b8114610f37575f80fd5b50565b5f81519050610f4881610f24565b92915050565b5f60208284031215610f6357610f62610c65565b5b5f610f7084828501610f3a565b91505092915050565b7f4f6e6c79206f776e65722063616e20706572666f726d207468697320616374695f8201527f6f6e000000000000000000000000000000000000000000000000000000000000602082015250565b5f610fd3602283610db2565b9150610fde82610f79565b604082019050919050565b5f6020820190508181035f83015261100081610fc7565b9050919050565b7f43616e6e6f74207374616b65203020746f6b656e7300000000000000000000005f82015250565b5f61103b601583610db2565b915061104682611007565b602082019050919050565b5f6020820190508181035f8301526110688161102f565b9050919050565b5f6060820190506110825f830186610d00565b61108f6020830185610d00565b61109c6040830184610cc7565b949350505050565b5f6110ae82610c69565b91506110b983610c69565b92508282019050808211156110d1576110d0610e92565b5b92915050565b7f4e6f207265776172647320746f20636c61696d000000000000000000000000005f82015250565b5f61110b601383610db2565b9150611116826110d7565b602082019050919050565b5f6020820190508181035f830152611138816110ff565b9050919050565b5f61114982610c69565b915061115483610c69565b925082820261116281610c69565b9150828204841483151761117957611178610e92565b5b5092915050565b7f4e487b71000000000000000000000000000000000000000000000000000000005f52601260045260245ffd5b5f6111b782610c69565b91506111c283610c69565b9250826111d2576111d1611180565b5b828204905092915050565b5f815190506111eb81610c72565b92915050565b5f6020828403121561120657611205610c65565b5b5f611213848285016111dd565b91505092915050565b7f4e6f7420656e6f7567682062616c616e636500000000000000000000000000005f82015250565b5f611250601283610db2565b915061125b8261121c565b602082019050919050565b5f6020820190508181035f83015261127d81611244565b905091905056fea26469706673582212201fd52047b1e69a44b929bd9fbfd87ebf275a427700404d6f8f889f20bd5ddceb64736f6c63430008140033",
  "immutableReferences": {},
  "source": "// SPDX-License-Identifier: MIT\npragma solidity ^0.8.0;\n\ninterface IERC20 {\n    function totalSupply() external view returns (uint256);\n    function balanceOf(address account) external view returns (uint256);\n    function transfer(address recipient, uint256 amount) external returns (bool);\n    function approve(address spender, uint256 amount) external returns (bool);\n    function transferFrom(address sender, address recipient, uint256 amount) external returns (bool);\n}\n\ncontract DogeStaking {\n    IERC20 public dogeToken; // DOGE token address\n    address public owner;\n    uint256 public rewardRate; // rate at which rewards are given, in terms of DOGE per block\n    uint256 public totalStaked;\n\n    // Struct for storing staking information\n    struct Staker {\n        uint256 amountStaked;\n        uint256 rewardDebt; // Tracks the amount of reward the staker is entitled to\n        uint256 lastUpdateBlock; // Last block when rewards were calculated for this staker\n    }\n\n    // Mapping from staker address to staking information\n    mapping(address => Staker) public stakers;\n\n    // Events\n    event Staked(address indexed user, uint256 amount);\n    event Unstaked(address indexed user, uint256 amount);\n    event RewardPaid(address indexed user, uint256 reward);\n\n    modifier onlyOwner() {\n        require(msg.sender == owner, \"Only owner can perform this action\");\n        _;\n    }\n\n    constructor(address _dogeToken, uint256 _rewardRate) {\n        dogeToken = IERC20(_dogeToken);\n        rewardRate = _rewardRate;\n        owner = msg.sender;\n    }\n\n    // Function to stake DOGE tokens\n    function stake(uint256 amount) external {\n        require(amount > 0, \"Cannot stake 0 tokens\");\n        \n        // Transfer DOGE tokens from the user to the contract\n        dogeToken.transferFrom(msg.sender, address(this), amount);\n\n        // Update staker's info\n        Staker storage staker = stakers[msg.sender];\n        _updateReward(msg.sender);\n\n        // Add the new staked amount to their balance\n        staker.amountStaked += amount;\n        totalStaked += amount;\n\n        emit Staked(msg.sender, amount);\n    }\n\n    // Function to unstake DOGE tokens\n    function unstake(uint256 amount) external {\n        require(amount > 0, \"Cannot unstake 0 tokens\");\n        \n        // Ensure the user has enough staked balance\n        Staker storage staker = stakers[msg.sender];\n        require(staker.amountStaked >= amount, \"Not enough staked balance\");\n\n        // Update the staker's reward and staked amount\n        _updateReward(msg.sender);\n\n        // Decrease the staked balance\n        staker.amountStaked -= amount;\n        totalStaked -= amount;\n\n        // Transfer the DOGE tokens back to the user\n        dogeToken.transfer(msg.sender, amount);\n\n        emit Unstaked(msg.sender, amount);\n    }\n\n    // Function to claim rewards\n    function claimReward() external {\n        Staker storage staker = stakers[msg.sender];\n        _updateReward(msg.sender);\n        \n        uint256 reward = staker.rewardDebt;\n        require(reward > 0, \"No rewards to claim\");\n\n        // Reset the reward debt\n        staker.rewardDebt = 0;\n\n        // Transfer the reward to the user\n        dogeToken.transfer(msg.sender, reward);\n\n        emit RewardPaid(msg.sender, reward);\n    }\n\n    // Internal function to update the reward debt\n    function _updateReward(address stakerAddress) internal {\n        Staker storage staker = stakers[stakerAddress];\n        if (staker.amountStaked > 0) {\n            // Calculate rewards based on blocks passed\n            uint256 blocksStaked = block.number - staker.lastUpdateBlock;\n            uint256 reward = blocksStaked * rewardRate * staker.amountStaked / totalStaked;\n            staker.rewardDebt += reward;\n        }\n        staker.lastUpdateBlock = block.number;\n    }\n\n    // Set a new reward rate (only owner can do this)\n    function setRewardRate(uint256 newRewardRate) external onlyOwner {\n        rewardRate = newRewardRate;\n    }\n\n    // Withdraw any excess DOGE tokens from the contract (only owner can do this)\n    function withdrawExcess(uint256 amount) external onlyOwner {\n        require(dogeToken.balanceOf(address(this)) >= amount, \"Not enough balance\");\n        dogeToken.transfer(owner, amount);\n    }\n\n    // View function to check the current rewards for a staker\n    function checkReward(address stakerAddress) external view returns (uint256) {\n        Staker memory staker = stakers[stakerAddress];\n        uint256 blocksStaked = block.number - staker.lastUpdateBlock;\n        uint256 reward = blocksStaked * rewardRate * staker.amountStaked / totalStaked;\n        return staker.rewardDebt + reward;\n    }\n}\n",
  "sourcePath": "/Users/johngulbronson/DetroitArt/gods.work/apps/web3/contracts/DogeStake.sol",
  "compiler": {
    "name": "solc",
    "version": "0.8.20+commit.a1b79de6.Emscripten.clang"
  },
  "schemaVersion": "3.4.16",
  "updatedAt": "2024-11-28T03:06:47.098Z",
  "devdoc": {
    "kind": "dev",
    "methods": {},
    "version": 1
  },
  "userdoc": {
    "kind": "user",
    "methods": {},
    "version": 1
  }
}