{
  "contractName": "DogeStaking",
  "abi": [
    {
      "inputs": [
        {
          "internalType": "address",
          "name": "_dogeToken",
          "type": "address"
        },
        {
          "internalType": "address",
          "name": "_xnbcToken",
          "type": "address"
        },
        {
          "internalType": "uint256",
          "name": "_rewardRate",
          "type": "uint256"
        }
      ],
      "stateMutability": "nonpayable",
      "type": "constructor"
    },
    {
      "anonymous": false,
      "inputs": [
        {
          "indexed": true,
          "internalType": "address",
          "name": "user",
          "type": "address"
        },
        {
          "indexed": false,
          "internalType": "uint256",
          "name": "reward",
          "type": "uint256"
        }
      ],
      "name": "RewardPaid",
      "type": "event"
    },
    {
      "anonymous": false,
      "inputs": [
        {
          "indexed": true,
          "internalType": "address",
          "name": "user",
          "type": "address"
        },
        {
          "indexed": false,
          "internalType": "uint256",
          "name": "amount",
          "type": "uint256"
        }
      ],
      "name": "Staked",
      "type": "event"
    },
    {
      "anonymous": false,
      "inputs": [
        {
          "indexed": true,
          "internalType": "address",
          "name": "user",
          "type": "address"
        },
        {
          "indexed": false,
          "internalType": "uint256",
          "name": "amount",
          "type": "uint256"
        }
      ],
      "name": "Unstaked",
      "type": "event"
    },
    {
      "inputs": [],
      "name": "dogeToken",
      "outputs": [
        {
          "internalType": "contract IERC20",
          "name": "",
          "type": "address"
        }
      ],
      "stateMutability": "view",
      "type": "function"
    },
    {
      "inputs": [],
      "name": "owner",
      "outputs": [
        {
          "internalType": "address",
          "name": "",
          "type": "address"
        }
      ],
      "stateMutability": "view",
      "type": "function"
    },
    {
      "inputs": [],
      "name": "rewardRate",
      "outputs": [
        {
          "internalType": "uint256",
          "name": "",
          "type": "uint256"
        }
      ],
      "stateMutability": "view",
      "type": "function"
    },
    {
      "inputs": [
        {
          "internalType": "address",
          "name": "",
          "type": "address"
        }
      ],
      "name": "stakers",
      "outputs": [
        {
          "internalType": "uint256",
          "name": "amountStaked",
          "type": "uint256"
        },
        {
          "internalType": "uint256",
          "name": "rewardDebt",
          "type": "uint256"
        },
        {
          "internalType": "uint256",
          "name": "lastUpdateBlock",
          "type": "uint256"
        }
      ],
      "stateMutability": "view",
      "type": "function"
    },
    {
      "inputs": [],
      "name": "totalStaked",
      "outputs": [
        {
          "internalType": "uint256",
          "name": "",
          "type": "uint256"
        }
      ],
      "stateMutability": "view",
      "type": "function"
    },
    {
      "inputs": [],
      "name": "xnbcToken",
      "outputs": [
        {
          "internalType": "contract XNBC",
          "name": "",
          "type": "address"
        }
      ],
      "stateMutability": "view",
      "type": "function"
    },
    {
      "inputs": [
        {
          "internalType": "uint256",
          "name": "amount",
          "type": "uint256"
        }
      ],
      "name": "stake",
      "outputs": [],
      "stateMutability": "nonpayable",
      "type": "function"
    },
    {
      "inputs": [
        {
          "internalType": "uint256",
          "name": "amount",
          "type": "uint256"
        }
      ],
      "name": "unstake",
      "outputs": [],
      "stateMutability": "nonpayable",
      "type": "function"
    },
    {
      "inputs": [],
      "name": "claimReward",
      "outputs": [],
      "stateMutability": "nonpayable",
      "type": "function"
    },
    {
      "inputs": [
        {
          "internalType": "uint256",
          "name": "newRewardRate",
          "type": "uint256"
        }
      ],
      "name": "setRewardRate",
      "outputs": [],
      "stateMutability": "nonpayable",
      "type": "function"
    },
    {
      "inputs": [
        {
          "internalType": "uint256",
          "name": "amount",
          "type": "uint256"
        }
      ],
      "name": "withdrawExcess",
      "outputs": [],
      "stateMutability": "nonpayable",
      "type": "function"
    },
    {
      "inputs": [
        {
          "internalType": "address",
          "name": "stakerAddress",
          "type": "address"
        }
      ],
      "name": "checkReward",
      "outputs": [
        {
          "internalType": "uint256",
          "name": "",
          "type": "uint256"
        }
      ],
      "stateMutability": "view",
      "type": "function"
    }
  ],
  "bytecode": "0x608060405234801562000010575f80fd5b5060405162001538380380620015388339818101604052810190620000369190620001a2565b825f806101000a81548173ffffffffffffffffffffffffffffffffffffffff021916908373ffffffffffffffffffffffffffffffffffffffff1602179055508160015f6101000a81548173ffffffffffffffffffffffffffffffffffffffff021916908373ffffffffffffffffffffffffffffffffffffffff160217905550806003819055503360025f6101000a81548173ffffffffffffffffffffffffffffffffffffffff021916908373ffffffffffffffffffffffffffffffffffffffff160217905550505050620001fb565b5f80fd5b5f73ffffffffffffffffffffffffffffffffffffffff82169050919050565b5f620001348262000109565b9050919050565b620001468162000128565b811462000151575f80fd5b50565b5f8151905062000164816200013b565b92915050565b5f819050919050565b6200017e816200016a565b811462000189575f80fd5b50565b5f815190506200019c8162000173565b92915050565b5f805f60608486031215620001bc57620001bb62000105565b5b5f620001cb8682870162000154565b9350506020620001de8682870162000154565b9250506040620001f1868287016200018c565b9150509250925092565b61132f80620002095f395ff3fe608060405234801561000f575f80fd5b50600436106100b2575f3560e01c80639168ae721161006f5780639168ae72146101685780639e447fc61461019a578063a694fc3a146101b6578063b88a802f146101d2578063c3c90e64146101dc578063e755ddd71461020c576100b2565b806322d31977146100b65780632e17de78146100d4578063631bd005146100f05780637b0a47ee1461010e578063817b1cd21461012c5780638da5cb5b1461014a575b5f80fd5b6100be610228565b6040516100cb9190610c88565b60405180910390f35b6100ee60048036038101906100e99190610cd8565b61024b565b005b6100f861043a565b6040516101059190610d23565b60405180910390f35b61011661045f565b6040516101239190610d4b565b60405180910390f35b610134610465565b6040516101419190610d4b565b60405180910390f35b61015261046b565b60405161015f9190610d84565b60405180910390f35b610182600480360381019061017d9190610dc7565b610490565b60405161019193929190610df2565b60405180910390f35b6101b460048036038101906101af9190610cd8565b6104b6565b005b6101d060048036038101906101cb9190610cd8565b61054f565b005b6101da6106fa565b005b6101f660048036038101906101f19190610dc7565b610871565b6040516102039190610d4b565b60405180910390f35b61022660048036038101906102219190610cd8565b610933565b005b5f8054906101000a900473ffffffffffffffffffffffffffffffffffffffff1681565b5f811161028d576040517f08c379a000000000000000000000000000000000000000000000000000000000815260040161028490610e81565b60405180910390fd5b5f60055f3373ffffffffffffffffffffffffffffffffffffffff1673ffffffffffffffffffffffffffffffffffffffff1681526020019081526020015f20905081815f01541015610313576040517f08c379a000000000000000000000000000000000000000000000000000000000815260040161030a90610ee9565b60405180910390fd5b61031c33610b5a565b81815f015f82825461032e9190610f34565b925050819055508160045f8282546103469190610f34565b925050819055505f8054906101000a900473ffffffffffffffffffffffffffffffffffffffff1673ffffffffffffffffffffffffffffffffffffffff1663a9059cbb33846040518363ffffffff1660e01b81526004016103a7929190610f67565b6020604051808303815f875af11580156103c3573d5f803e3d5ffd5b505050506040513d601f19601f820116820180604052508101906103e79190610fc3565b503373ffffffffffffffffffffffffffffffffffffffff167f0f5bb82176feb1b5e747e28471aa92156a04d9f3ab9f45f28e2d704232b93f758360405161042e9190610d4b565b60405180910390a25050565b60015f9054906101000a900473ffffffffffffffffffffffffffffffffffffffff1681565b60035481565b60045481565b60025f9054906101000a900473ffffffffffffffffffffffffffffffffffffffff1681565b6005602052805f5260405f205f91509050805f0154908060010154908060020154905083565b60025f9054906101000a900473ffffffffffffffffffffffffffffffffffffffff1673ffffffffffffffffffffffffffffffffffffffff163373ffffffffffffffffffffffffffffffffffffffff1614610545576040517f08c379a000000000000000000000000000000000000000000000000000000000815260040161053c9061105e565b60405180910390fd5b8060038190555050565b5f8111610591576040517f08c379a0000000000000000000000000000000000000000000000000000000008152600401610588906110c6565b60405180910390fd5b5f8054906101000a900473ffffffffffffffffffffffffffffffffffffffff1673ffffffffffffffffffffffffffffffffffffffff166323b872dd3330846040518463ffffffff1660e01b81526004016105ed939291906110e4565b6020604051808303815f875af1158015610609573d5f803e3d5ffd5b505050506040513d601f19601f8201168201806040525081019061062d9190610fc3565b505f60055f3373ffffffffffffffffffffffffffffffffffffffff1673ffffffffffffffffffffffffffffffffffffffff1681526020019081526020015f20905061067733610b5a565b81815f015f8282546106899190611119565b925050819055508160045f8282546106a19190611119565b925050819055503373ffffffffffffffffffffffffffffffffffffffff167f9e71bc8eea02a63969f509818f2dafb9254532904319f9dbda79b67bd34a5f3d836040516106ee9190610d4b565b60405180910390a25050565b5f60055f3373ffffffffffffffffffffffffffffffffffffffff1673ffffffffffffffffffffffffffffffffffffffff1681526020019081526020015f20905061074333610b5a565b5f816001015490505f811161078d576040517f08c379a000000000000000000000000000000000000000000000000000000000815260040161078490611196565b60405180910390fd5b5f826001018190555060015f9054906101000a900473ffffffffffffffffffffffffffffffffffffffff1673ffffffffffffffffffffffffffffffffffffffff166340c10f1933836040518363ffffffff1660e01b81526004016107f2929190610f67565b5f604051808303815f87803b158015610809575f80fd5b505af115801561081b573d5f803e3d5ffd5b505050503373ffffffffffffffffffffffffffffffffffffffff167fe2403640ba68fed3a2f88b7557551d1993f84b99bb10ff833f0cf8db0c5e0486826040516108659190610d4b565b60405180910390a25050565b5f8060055f8473ffffffffffffffffffffffffffffffffffffffff1673ffffffffffffffffffffffffffffffffffffffff1681526020019081526020015f206040518060600160405290815f82015481526020016001820154815260200160028201548152505090505f8160400151436108eb9190610f34565b90505f600454835f01516003548461090391906111b4565b61090d91906111b4565b6109179190611222565b90508083602001516109299190611119565b9350505050919050565b60025f9054906101000a900473ffffffffffffffffffffffffffffffffffffffff1673ffffffffffffffffffffffffffffffffffffffff163373ffffffffffffffffffffffffffffffffffffffff16146109c2576040517f08c379a00000000000000000000000000000000000000000000000000000000081526004016109b99061105e565b60405180910390fd5b805f8054906101000a900473ffffffffffffffffffffffffffffffffffffffff1673ffffffffffffffffffffffffffffffffffffffff166370a08231306040518263ffffffff1660e01b8152600401610a1b9190610d84565b602060405180830381865afa158015610a36573d5f803e3d5ffd5b505050506040513d601f19601f82011682018060405250810190610a5a9190611266565b1015610a9b576040517f08c379a0000000000000000000000000000000000000000000000000000000008152600401610a92906112db565b60405180910390fd5b5f8054906101000a900473ffffffffffffffffffffffffffffffffffffffff1673ffffffffffffffffffffffffffffffffffffffff1663a9059cbb60025f9054906101000a900473ffffffffffffffffffffffffffffffffffffffff16836040518363ffffffff1660e01b8152600401610b16929190610f67565b6020604051808303815f875af1158015610b32573d5f803e3d5ffd5b505050506040513d601f19601f82011682018060405250810190610b569190610fc3565b5050565b5f60055f8373ffffffffffffffffffffffffffffffffffffffff1673ffffffffffffffffffffffffffffffffffffffff1681526020019081526020015f2090505f815f01541115610c01575f816002015443610bb69190610f34565b90505f600454835f015460035484610bce91906111b4565b610bd891906111b4565b610be29190611222565b905080836001015f828254610bf79190611119565b9250508190555050505b4381600201819055505050565b5f73ffffffffffffffffffffffffffffffffffffffff82169050919050565b5f819050919050565b5f610c50610c4b610c4684610c0e565b610c2d565b610c0e565b9050919050565b5f610c6182610c36565b9050919050565b5f610c7282610c57565b9050919050565b610c8281610c68565b82525050565b5f602082019050610c9b5f830184610c79565b92915050565b5f80fd5b5f819050919050565b610cb781610ca5565b8114610cc1575f80fd5b50565b5f81359050610cd281610cae565b92915050565b5f60208284031215610ced57610cec610ca1565b5b5f610cfa84828501610cc4565b91505092915050565b5f610d0d82610c57565b9050919050565b610d1d81610d03565b82525050565b5f602082019050610d365f830184610d14565b92915050565b610d4581610ca5565b82525050565b5f602082019050610d5e5f830184610d3c565b92915050565b5f610d6e82610c0e565b9050919050565b610d7e81610d64565b82525050565b5f602082019050610d975f830184610d75565b92915050565b610da681610d64565b8114610db0575f80fd5b50565b5f81359050610dc181610d9d565b92915050565b5f60208284031215610ddc57610ddb610ca1565b5b5f610de984828501610db3565b91505092915050565b5f606082019050610e055f830186610d3c565b610e126020830185610d3c565b610e1f6040830184610d3c565b949350505050565b5f82825260208201905092915050565b7f43616e6e6f7420756e7374616b65203020746f6b656e730000000000000000005f82015250565b5f610e6b601783610e27565b9150610e7682610e37565b602082019050919050565b5f6020820190508181035f830152610e9881610e5f565b9050919050565b7f4e6f7420656e6f756768207374616b65642062616c616e6365000000000000005f82015250565b5f610ed3601983610e27565b9150610ede82610e9f565b602082019050919050565b5f6020820190508181035f830152610f0081610ec7565b9050919050565b7f4e487b71000000000000000000000000000000000000000000000000000000005f52601160045260245ffd5b5f610f3e82610ca5565b9150610f4983610ca5565b9250828203905081811115610f6157610f60610f07565b5b92915050565b5f604082019050610f7a5f830185610d75565b610f876020830184610d3c565b9392505050565b5f8115159050919050565b610fa281610f8e565b8114610fac575f80fd5b50565b5f81519050610fbd81610f99565b92915050565b5f60208284031215610fd857610fd7610ca1565b5b5f610fe584828501610faf565b91505092915050565b7f4f6e6c79206f776e65722063616e20706572666f726d207468697320616374695f8201527f6f6e000000000000000000000000000000000000000000000000000000000000602082015250565b5f611048602283610e27565b915061105382610fee565b604082019050919050565b5f6020820190508181035f8301526110758161103c565b9050919050565b7f43616e6e6f74207374616b65203020746f6b656e7300000000000000000000005f82015250565b5f6110b0601583610e27565b91506110bb8261107c565b602082019050919050565b5f6020820190508181035f8301526110dd816110a4565b9050919050565b5f6060820190506110f75f830186610d75565b6111046020830185610d75565b6111116040830184610d3c565b949350505050565b5f61112382610ca5565b915061112e83610ca5565b925082820190508082111561114657611145610f07565b5b92915050565b7f4e6f207265776172647320746f20636c61696d000000000000000000000000005f82015250565b5f611180601383610e27565b915061118b8261114c565b602082019050919050565b5f6020820190508181035f8301526111ad81611174565b9050919050565b5f6111be82610ca5565b91506111c983610ca5565b92508282026111d781610ca5565b915082820484148315176111ee576111ed610f07565b5b5092915050565b7f4e487b71000000000000000000000000000000000000000000000000000000005f52601260045260245ffd5b5f61122c82610ca5565b915061123783610ca5565b925082611247576112466111f5565b5b828204905092915050565b5f8151905061126081610cae565b92915050565b5f6020828403121561127b5761127a610ca1565b5b5f61128884828501611252565b91505092915050565b7f4e6f7420656e6f7567682062616c616e636500000000000000000000000000005f82015250565b5f6112c5601283610e27565b91506112d082611291565b602082019050919050565b5f6020820190508181035f8301526112f2816112b9565b905091905056fea2646970667358221220be1824faf71a3bbaeceda06626cdde8841a1a4684d9dca7e28c670f2f972058164736f6c63430008140033",
  "immutableReferences": {},
  "source": "// SPDX-License-Identifier: MIT\npragma solidity ^0.8.0;\n\nimport \"@openzeppelin/contracts/token/ERC20/IERC20.sol\";\nimport \"./XNBC.sol\";\n\ncontract DogeStaking {\n    IERC20 public dogeToken; // DOGE token address\n    XNBC public xnbcToken;   // XNBC token address\n    address public owner;\n    uint256 public rewardRate; // rate at which XNBC rewards are minted per block\n    uint256 public totalStaked;\n\n    // Struct for storing staking information\n    struct Staker {\n        uint256 amountStaked;\n        uint256 rewardDebt; // Tracks the amount of XNBC the staker is entitled to\n        uint256 lastUpdateBlock; // Last block when rewards were calculated for this staker\n    }\n\n    // Mapping from staker address to staking information\n    mapping(address => Staker) public stakers;\n\n    // Events\n    event Staked(address indexed user, uint256 amount);\n    event Unstaked(address indexed user, uint256 amount);\n    event RewardPaid(address indexed user, uint256 reward);\n\n    modifier onlyOwner() {\n        require(msg.sender == owner, \"Only owner can perform this action\");\n        _;\n    }\n\n    constructor(address _dogeToken, address _xnbcToken, uint256 _rewardRate) {\n        dogeToken = IERC20(_dogeToken);\n        xnbcToken = XNBC(_xnbcToken);\n        rewardRate = _rewardRate;\n        owner = msg.sender;\n    }\n\n    // Function to stake DOGE tokens\n    function stake(uint256 amount) external {\n        require(amount > 0, \"Cannot stake 0 tokens\");\n        \n        // Transfer DOGE tokens from the user to the contract\n        dogeToken.transferFrom(msg.sender, address(this), amount);\n\n        // Update staker's info\n        Staker storage staker = stakers[msg.sender];\n        _updateReward(msg.sender);\n\n        // Add the new staked amount to their balance\n        staker.amountStaked += amount;\n        totalStaked += amount;\n\n        emit Staked(msg.sender, amount);\n    }\n\n    // Function to unstake DOGE tokens\n    function unstake(uint256 amount) external {\n        require(amount > 0, \"Cannot unstake 0 tokens\");\n        \n        // Ensure the user has enough staked balance\n        Staker storage staker = stakers[msg.sender];\n        require(staker.amountStaked >= amount, \"Not enough staked balance\");\n\n        // Update the staker's reward and staked amount\n        _updateReward(msg.sender);\n\n        // Decrease the staked balance\n        staker.amountStaked -= amount;\n        totalStaked -= amount;\n\n        // Transfer the DOGE tokens back to the user\n        dogeToken.transfer(msg.sender, amount);\n\n        emit Unstaked(msg.sender, amount);\n    }\n\n    // Function to claim XNBC rewards\n    function claimReward() external {\n        Staker storage staker = stakers[msg.sender];\n        _updateReward(msg.sender);\n        \n        uint256 reward = staker.rewardDebt;\n        require(reward > 0, \"No rewards to claim\");\n\n        // Reset the reward debt\n        staker.rewardDebt = 0;\n\n        // Mint XNBC tokens to the user\n        xnbcToken.mint(msg.sender, reward);\n\n        emit RewardPaid(msg.sender, reward);\n    }\n\n    // Internal function to update the reward debt\n    function _updateReward(address stakerAddress) internal {\n        Staker storage staker = stakers[stakerAddress];\n        if (staker.amountStaked > 0) {\n            // Calculate rewards based on blocks passed\n            uint256 blocksStaked = block.number - staker.lastUpdateBlock;\n            uint256 reward = blocksStaked * rewardRate * staker.amountStaked / totalStaked;\n            staker.rewardDebt += reward;\n        }\n        staker.lastUpdateBlock = block.number;\n    }\n\n    // Set a new reward rate (only owner can do this)\n    function setRewardRate(uint256 newRewardRate) external onlyOwner {\n        rewardRate = newRewardRate;\n    }\n\n    // Withdraw any excess DOGE tokens from the contract (only owner can do this)\n    function withdrawExcess(uint256 amount) external onlyOwner {\n        require(dogeToken.balanceOf(address(this)) >= amount, \"Not enough balance\");\n        dogeToken.transfer(owner, amount);\n    }\n\n    // View function to check the current rewards for a staker\n    function checkReward(address stakerAddress) external view returns (uint256) {\n        Staker memory staker = stakers[stakerAddress];\n        uint256 blocksStaked = block.number - staker.lastUpdateBlock;\n        uint256 reward = blocksStaked * rewardRate * staker.amountStaked / totalStaked;\n        return staker.rewardDebt + reward;\n    }\n}\n",
  "sourcePath": "/Users/johngulbronson/DetroitArt/gods.work/apps/web3/contracts/DogeStake.sol",
  "compiler": {
    "name": "solc",
    "version": "0.8.20+commit.a1b79de6.Emscripten.clang"
  },
  "schemaVersion": "3.4.16",
  "updatedAt": "2024-12-17T15:40:31.969Z",
  "devdoc": {
    "kind": "dev",
    "methods": {},
    "version": 1
  },
  "userdoc": {
    "kind": "user",
    "methods": {},
    "version": 1
  }
}