{
  "contractName": "InvestorRegistry",
  "abi": [
    {
      "inputs": [],
      "stateMutability": "nonpayable",
      "type": "constructor"
    },
    {
      "anonymous": false,
      "inputs": [
        {
          "indexed": true,
          "internalType": "address",
          "name": "investor",
          "type": "address"
        }
      ],
      "name": "InvestorRegistered",
      "type": "event"
    },
    {
      "anonymous": false,
      "inputs": [
        {
          "indexed": true,
          "internalType": "address",
          "name": "investor",
          "type": "address"
        }
      ],
      "name": "InvestorRemoved",
      "type": "event"
    },
    {
      "anonymous": false,
      "inputs": [
        {
          "indexed": true,
          "internalType": "address",
          "name": "investor",
          "type": "address"
        },
        {
          "indexed": true,
          "internalType": "address",
          "name": "verifier",
          "type": "address"
        },
        {
          "indexed": false,
          "internalType": "uint256",
          "name": "timestamp",
          "type": "uint256"
        }
      ],
      "name": "InvestorVerified",
      "type": "event"
    },
    {
      "anonymous": false,
      "inputs": [
        {
          "indexed": true,
          "internalType": "address",
          "name": "newOwner",
          "type": "address"
        }
      ],
      "name": "OwnershipTransferred",
      "type": "event"
    },
    {
      "anonymous": false,
      "inputs": [
        {
          "indexed": true,
          "internalType": "address",
          "name": "verifier",
          "type": "address"
        }
      ],
      "name": "VerifierAuthorized",
      "type": "event"
    },
    {
      "anonymous": false,
      "inputs": [
        {
          "indexed": true,
          "internalType": "address",
          "name": "verifier",
          "type": "address"
        }
      ],
      "name": "VerifierRemoved",
      "type": "event"
    },
    {
      "inputs": [],
      "name": "owner",
      "outputs": [
        {
          "internalType": "address",
          "name": "",
          "type": "address"
        }
      ],
      "stateMutability": "view",
      "type": "function"
    },
    {
      "inputs": [
        {
          "internalType": "address",
          "name": "newOwner",
          "type": "address"
        }
      ],
      "name": "transferOwnership",
      "outputs": [],
      "stateMutability": "nonpayable",
      "type": "function"
    },
    {
      "inputs": [
        {
          "internalType": "address",
          "name": "verifier",
          "type": "address"
        }
      ],
      "name": "authorizeVerifier",
      "outputs": [],
      "stateMutability": "nonpayable",
      "type": "function"
    },
    {
      "inputs": [
        {
          "internalType": "address",
          "name": "verifier",
          "type": "address"
        }
      ],
      "name": "removeVerifier",
      "outputs": [],
      "stateMutability": "nonpayable",
      "type": "function"
    },
    {
      "inputs": [
        {
          "internalType": "string",
          "name": "name",
          "type": "string"
        }
      ],
      "name": "registerInvestor",
      "outputs": [],
      "stateMutability": "nonpayable",
      "type": "function"
    },
    {
      "inputs": [
        {
          "internalType": "address",
          "name": "investor",
          "type": "address"
        },
        {
          "internalType": "string",
          "name": "name",
          "type": "string"
        }
      ],
      "name": "registerInvestorByOwner",
      "outputs": [],
      "stateMutability": "nonpayable",
      "type": "function"
    },
    {
      "inputs": [
        {
          "internalType": "address",
          "name": "investor",
          "type": "address"
        }
      ],
      "name": "removeInvestor",
      "outputs": [],
      "stateMutability": "nonpayable",
      "type": "function"
    },
    {
      "inputs": [
        {
          "internalType": "address",
          "name": "investor",
          "type": "address"
        }
      ],
      "name": "verifyInvestor",
      "outputs": [],
      "stateMutability": "nonpayable",
      "type": "function"
    },
    {
      "inputs": [
        {
          "internalType": "address",
          "name": "investor",
          "type": "address"
        }
      ],
      "name": "isRegisteredInvestor",
      "outputs": [
        {
          "internalType": "bool",
          "name": "",
          "type": "bool"
        }
      ],
      "stateMutability": "view",
      "type": "function"
    },
    {
      "inputs": [
        {
          "internalType": "address",
          "name": "investor",
          "type": "address"
        }
      ],
      "name": "isVerifiedInvestor",
      "outputs": [
        {
          "internalType": "bool",
          "name": "",
          "type": "bool"
        }
      ],
      "stateMutability": "view",
      "type": "function"
    },
    {
      "inputs": [
        {
          "internalType": "address",
          "name": "investor",
          "type": "address"
        }
      ],
      "name": "getInvestorDetails",
      "outputs": [
        {
          "components": [
            {
              "internalType": "bool",
              "name": "isRegistered",
              "type": "bool"
            },
            {
              "internalType": "bool",
              "name": "isVerified",
              "type": "bool"
            },
            {
              "internalType": "address",
              "name": "verifier",
              "type": "address"
            },
            {
              "internalType": "uint256",
              "name": "verificationTimestamp",
              "type": "uint256"
            },
            {
              "internalType": "string",
              "name": "name",
              "type": "string"
            },
            {
              "internalType": "address",
              "name": "investor",
              "type": "address"
            }
          ],
          "internalType": "struct InvestorRegistry.InvestorDetails",
          "name": "",
          "type": "tuple"
        }
      ],
      "stateMutability": "view",
      "type": "function"
    },
    {
      "inputs": [
        {
          "internalType": "address",
          "name": "verifier",
          "type": "address"
        }
      ],
      "name": "isAuthorizedVerifier",
      "outputs": [
        {
          "internalType": "bool",
          "name": "",
          "type": "bool"
        }
      ],
      "stateMutability": "view",
      "type": "function"
    },
    {
      "inputs": [],
      "name": "getAllInvestors",
      "outputs": [
        {
          "internalType": "address[]",
          "name": "",
          "type": "address[]"
        }
      ],
      "stateMutability": "view",
      "type": "function"
    },
    {
      "inputs": [],
      "name": "getAllInvestorsDetails",
      "outputs": [
        {
          "components": [
            {
              "internalType": "bool",
              "name": "isRegistered",
              "type": "bool"
            },
            {
              "internalType": "bool",
              "name": "isVerified",
              "type": "bool"
            },
            {
              "internalType": "address",
              "name": "verifier",
              "type": "address"
            },
            {
              "internalType": "uint256",
              "name": "verificationTimestamp",
              "type": "uint256"
            },
            {
              "internalType": "string",
              "name": "name",
              "type": "string"
            },
            {
              "internalType": "address",
              "name": "investor",
              "type": "address"
            }
          ],
          "internalType": "struct InvestorRegistry.InvestorDetails[]",
          "name": "",
          "type": "tuple[]"
        }
      ],
      "stateMutability": "view",
      "type": "function"
    },
    {
      "inputs": [],
      "name": "getAuthorizedVerifiers",
      "outputs": [
        {
          "internalType": "address[]",
          "name": "",
          "type": "address[]"
        }
      ],
      "stateMutability": "view",
      "type": "function"
    }
  ],
  "bytecode": "0x608060405234801561000f575f80fd5b503360045f6101000a81548173ffffffffffffffffffffffffffffffffffffffff021916908373ffffffffffffffffffffffffffffffffffffffff1602179055506130e18061005d5f395ff3fe608060405234801561000f575f80fd5b50600436106100f3575f3560e01c80639f3d07ea11610095578063d84dbdc311610064578063d84dbdc31461026f578063ec3246a21461028b578063efab1e50146102a7578063f2fde38b146102d7576100f3565b80639f3d07ea146101e7578063a0bc51cf14610217578063ca2dfd0a14610235578063d0a2f2c414610251576100f3565b806342714978116100d157806342714978146101615780635f5883ab1461017d5780636cacbf30146101995780638da5cb5b146101c9576100f3565b8063155eaacf146100f75780631fa1b60c1461011557806320ad8cab14610145575b5f80fd5b6100ff6102f3565b60405161010c919061227f565b60405180910390f35b61012f600480360381019061012a91906122da565b61037e565b60405161013c919061231f565b60405180910390f35b61015f600480360381019061015a91906122da565b6103d2565b005b61017b600480360381019061017691906122da565b610654565b005b61019760048036038101906101929190612474565b610a65565b005b6101b360048036038101906101ae91906122da565b610e5c565b6040516101c0919061231f565b60405180910390f35b6101d1610eae565b6040516101de91906124dd565b60405180910390f35b61020160048036038101906101fc91906122da565b610ed3565b60405161020e919061231f565b60405180910390f35b61021f610f26565b60405161022c91906126d8565b60405180910390f35b61024f600480360381019061024a91906122da565b6111c5565b005b610259611565565b604051610266919061227f565b60405180910390f35b610289600480360381019061028491906122da565b6115f0565b005b6102a560048036038101906102a091906126f8565b61197d565b005b6102c160048036038101906102bc91906122da565b611c76565b6040516102ce91906127c5565b60405180910390f35b6102f160048036038101906102ec91906122da565b611f3b565b005b6060600380548060200260200160405190810160405280929190818152602001828054801561037457602002820191905f5260205f20905b815f9054906101000a900473ffffffffffffffffffffffffffffffffffffffff1673ffffffffffffffffffffffffffffffffffffffff168152602001906001019080831161032b575b5050505050905090565b5f805f8373ffffffffffffffffffffffffffffffffffffffff1673ffffffffffffffffffffffffffffffffffffffff1681526020019081526020015f205f0160019054906101000a900460ff169050919050565b60045f9054906101000a900473ffffffffffffffffffffffffffffffffffffffff1673ffffffffffffffffffffffffffffffffffffffff163373ffffffffffffffffffffffffffffffffffffffff1614610461576040517f08c379a000000000000000000000000000000000000000000000000000000000815260040161045890612865565b60405180910390fd5b5f73ffffffffffffffffffffffffffffffffffffffff168173ffffffffffffffffffffffffffffffffffffffff16036104cf576040517f08c379a00000000000000000000000000000000000000000000000000000000081526004016104c6906128cd565b60405180910390fd5b60025f8273ffffffffffffffffffffffffffffffffffffffff1673ffffffffffffffffffffffffffffffffffffffff1681526020019081526020015f205f9054906101000a900460ff1615610559576040517f08c379a000000000000000000000000000000000000000000000000000000000815260040161055090612935565b60405180910390fd5b600160025f8373ffffffffffffffffffffffffffffffffffffffff1673ffffffffffffffffffffffffffffffffffffffff1681526020019081526020015f205f6101000a81548160ff021916908315150217905550600381908060018154018082558091505060019003905f5260205f20015f9091909190916101000a81548173ffffffffffffffffffffffffffffffffffffffff021916908373ffffffffffffffffffffffffffffffffffffffff1602179055508073ffffffffffffffffffffffffffffffffffffffff167f40f8611cb3470e9d255c7ea6d08e5625d635123c46e7c303e5321b1fb69bb8c960405160405180910390a250565b60045f9054906101000a900473ffffffffffffffffffffffffffffffffffffffff1673ffffffffffffffffffffffffffffffffffffffff163373ffffffffffffffffffffffffffffffffffffffff16146106e3576040517f08c379a00000000000000000000000000000000000000000000000000000000081526004016106da90612865565b60405180910390fd5b5f73ffffffffffffffffffffffffffffffffffffffff168173ffffffffffffffffffffffffffffffffffffffff1603610751576040517f08c379a00000000000000000000000000000000000000000000000000000000081526004016107489061299d565b60405180910390fd5b5f808273ffffffffffffffffffffffffffffffffffffffff1673ffffffffffffffffffffffffffffffffffffffff1681526020019081526020015f205f015f9054906101000a900460ff166107db576040517f08c379a00000000000000000000000000000000000000000000000000000000081526004016107d290612a05565b60405180910390fd5b5f5b600180549050811015610958578173ffffffffffffffffffffffffffffffffffffffff166001828154811061081557610814612a23565b5b905f5260205f20015f9054906101000a900473ffffffffffffffffffffffffffffffffffffffff1673ffffffffffffffffffffffffffffffffffffffff160361094557600180808054905061086a9190612a7d565b8154811061087b5761087a612a23565b5b905f5260205f20015f9054906101000a900473ffffffffffffffffffffffffffffffffffffffff16600182815481106108b7576108b6612a23565b5b905f5260205f20015f6101000a81548173ffffffffffffffffffffffffffffffffffffffff021916908373ffffffffffffffffffffffffffffffffffffffff160217905550600180548061090e5761090d612ab0565b5b600190038181905f5260205f20015f6101000a81549073ffffffffffffffffffffffffffffffffffffffff02191690559055610958565b808061095090612add565b9150506107dd565b505f808273ffffffffffffffffffffffffffffffffffffffff1673ffffffffffffffffffffffffffffffffffffffff1681526020019081526020015f205f8082015f6101000a81549060ff02191690555f820160016101000a81549060ff02191690555f820160026101000a81549073ffffffffffffffffffffffffffffffffffffffff0219169055600182015f9055600282015f6109f791906120df565b600382015f6101000a81549073ffffffffffffffffffffffffffffffffffffffff021916905550508073ffffffffffffffffffffffffffffffffffffffff167fba0013628ccb89af5bb18edf764d3a7b35c07b894848b8e6fd3434719de39c7d60405160405180910390a250565b60045f9054906101000a900473ffffffffffffffffffffffffffffffffffffffff1673ffffffffffffffffffffffffffffffffffffffff163373ffffffffffffffffffffffffffffffffffffffff1614610af4576040517f08c379a0000000000000000000000000000000000000000000000000000000008152600401610aeb90612865565b60405180910390fd5b5f73ffffffffffffffffffffffffffffffffffffffff168273ffffffffffffffffffffffffffffffffffffffff1603610b62576040517f08c379a0000000000000000000000000000000000000000000000000000000008152600401610b599061299d565b60405180910390fd5b5f808373ffffffffffffffffffffffffffffffffffffffff1673ffffffffffffffffffffffffffffffffffffffff1681526020019081526020015f205f015f9054906101000a900460ff1615610bed576040517f08c379a0000000000000000000000000000000000000000000000000000000008152600401610be490612b6e565b60405180910390fd5b5f815111610c30576040517f08c379a0000000000000000000000000000000000000000000000000000000008152600401610c2790612bd6565b60405180910390fd5b6040518060c001604052806001151581526020015f151581526020015f73ffffffffffffffffffffffffffffffffffffffff1681526020015f81526020018281526020018373ffffffffffffffffffffffffffffffffffffffff168152505f808473ffffffffffffffffffffffffffffffffffffffff1673ffffffffffffffffffffffffffffffffffffffff1681526020019081526020015f205f820151815f015f6101000a81548160ff0219169083151502179055506020820151815f0160016101000a81548160ff0219169083151502179055506040820151815f0160026101000a81548173ffffffffffffffffffffffffffffffffffffffff021916908373ffffffffffffffffffffffffffffffffffffffff160217905550606082015181600101556080820151816002019081610d6b9190612dee565b5060a0820151816003015f6101000a81548173ffffffffffffffffffffffffffffffffffffffff021916908373ffffffffffffffffffffffffffffffffffffffff160217905550905050600182908060018154018082558091505060019003905f5260205f20015f9091909190916101000a81548173ffffffffffffffffffffffffffffffffffffffff021916908373ffffffffffffffffffffffffffffffffffffffff1602179055508173ffffffffffffffffffffffffffffffffffffffff167f01e428601546e19350993364c26c5a618b33ef987abc24525c998748ae96429460405160405180910390a25050565b5f60025f8373ffffffffffffffffffffffffffffffffffffffff1673ffffffffffffffffffffffffffffffffffffffff1681526020019081526020015f205f9054906101000a900460ff169050919050565b60045f9054906101000a900473ffffffffffffffffffffffffffffffffffffffff1681565b5f805f8373ffffffffffffffffffffffffffffffffffffffff1673ffffffffffffffffffffffffffffffffffffffff1681526020019081526020015f205f015f9054906101000a900460ff169050919050565b60605f60018054905067ffffffffffffffff811115610f4857610f47612350565b5b604051908082528060200260200182016040528015610f8157816020015b610f6e61211c565b815260200190600190039081610f665790505b5090505f5b6001805490508110156111bd575f8060018381548110610fa957610fa8612a23565b5b905f5260205f20015f9054906101000a900473ffffffffffffffffffffffffffffffffffffffff1673ffffffffffffffffffffffffffffffffffffffff1673ffffffffffffffffffffffffffffffffffffffff1681526020019081526020015f206040518060c00160405290815f82015f9054906101000a900460ff161515151581526020015f820160019054906101000a900460ff161515151581526020015f820160029054906101000a900473ffffffffffffffffffffffffffffffffffffffff1673ffffffffffffffffffffffffffffffffffffffff1673ffffffffffffffffffffffffffffffffffffffff168152602001600182015481526020016002820180546110b790612c21565b80601f01602080910402602001604051908101604052809291908181526020018280546110e390612c21565b801561112e5780601f106111055761010080835404028352916020019161112e565b820191905f5260205f20905b81548152906001019060200180831161111157829003601f168201915b50505050508152602001600382015f9054906101000a900473ffffffffffffffffffffffffffffffffffffffff1673ffffffffffffffffffffffffffffffffffffffff1673ffffffffffffffffffffffffffffffffffffffff168152505082828151811061119f5761119e612a23565b5b602002602001018190525080806111b590612add565b915050610f86565b508091505090565b60045f9054906101000a900473ffffffffffffffffffffffffffffffffffffffff1673ffffffffffffffffffffffffffffffffffffffff163373ffffffffffffffffffffffffffffffffffffffff1614611254576040517f08c379a000000000000000000000000000000000000000000000000000000000815260040161124b90612865565b60405180910390fd5b5f73ffffffffffffffffffffffffffffffffffffffff168173ffffffffffffffffffffffffffffffffffffffff16036112c2576040517f08c379a00000000000000000000000000000000000000000000000000000000081526004016112b9906128cd565b60405180910390fd5b60025f8273ffffffffffffffffffffffffffffffffffffffff1673ffffffffffffffffffffffffffffffffffffffff1681526020019081526020015f205f9054906101000a900460ff1661134b576040517f08c379a000000000000000000000000000000000000000000000000000000000815260040161134290612f07565b60405180910390fd5b5f60025f8373ffffffffffffffffffffffffffffffffffffffff1673ffffffffffffffffffffffffffffffffffffffff1681526020019081526020015f205f6101000a81548160ff0219169083151502179055505f5b60038054905081101561151e578173ffffffffffffffffffffffffffffffffffffffff16600382815481106113d9576113d8612a23565b5b905f5260205f20015f9054906101000a900473ffffffffffffffffffffffffffffffffffffffff1673ffffffffffffffffffffffffffffffffffffffff160361150b57600360016003805490506114309190612a7d565b8154811061144157611440612a23565b5b905f5260205f20015f9054906101000a900473ffffffffffffffffffffffffffffffffffffffff166003828154811061147d5761147c612a23565b5b905f5260205f20015f6101000a81548173ffffffffffffffffffffffffffffffffffffffff021916908373ffffffffffffffffffffffffffffffffffffffff16021790555060038054806114d4576114d3612ab0565b5b600190038181905f5260205f20015f6101000a81549073ffffffffffffffffffffffffffffffffffffffff0219169055905561151e565b808061151690612add565b9150506113a1565b508073ffffffffffffffffffffffffffffffffffffffff167f44a3cd4eb5cc5748f6169df057b1cb2ae4c383e87cd94663c430e095d4cba42460405160405180910390a250565b606060018054806020026020016040519081016040528092919081815260200182805480156115e657602002820191905f5260205f20905b815f9054906101000a900473ffffffffffffffffffffffffffffffffffffffff1673ffffffffffffffffffffffffffffffffffffffff168152602001906001019080831161159d575b5050505050905090565b60025f3373ffffffffffffffffffffffffffffffffffffffff1673ffffffffffffffffffffffffffffffffffffffff1681526020019081526020015f205f9054906101000a900460ff16611679576040517f08c379a000000000000000000000000000000000000000000000000000000000815260040161167090612f95565b60405180910390fd5b5f73ffffffffffffffffffffffffffffffffffffffff168173ffffffffffffffffffffffffffffffffffffffff16036116e7576040517f08c379a00000000000000000000000000000000000000000000000000000000081526004016116de9061299d565b60405180910390fd5b5f808273ffffffffffffffffffffffffffffffffffffffff1673ffffffffffffffffffffffffffffffffffffffff1681526020019081526020015f205f015f9054906101000a900460ff16611771576040517f08c379a000000000000000000000000000000000000000000000000000000000815260040161176890612a05565b60405180910390fd5b5f808273ffffffffffffffffffffffffffffffffffffffff1673ffffffffffffffffffffffffffffffffffffffff1681526020019081526020015f205f0160019054906101000a900460ff16156117fd576040517f08c379a00000000000000000000000000000000000000000000000000000000081526004016117f490612ffd565b60405180910390fd5b60015f808373ffffffffffffffffffffffffffffffffffffffff1673ffffffffffffffffffffffffffffffffffffffff1681526020019081526020015f205f0160016101000a81548160ff021916908315150217905550335f808373ffffffffffffffffffffffffffffffffffffffff1673ffffffffffffffffffffffffffffffffffffffff1681526020019081526020015f205f0160026101000a81548173ffffffffffffffffffffffffffffffffffffffff021916908373ffffffffffffffffffffffffffffffffffffffff160217905550425f808373ffffffffffffffffffffffffffffffffffffffff1673ffffffffffffffffffffffffffffffffffffffff1681526020019081526020015f20600101819055503373ffffffffffffffffffffffffffffffffffffffff168173ffffffffffffffffffffffffffffffffffffffff167f17fa57e07b9b46d8e06344b5df662a9221c64bf17921f3fe6f138f9ab796c23142604051611972919061302a565b60405180910390a350565b5f803373ffffffffffffffffffffffffffffffffffffffff1673ffffffffffffffffffffffffffffffffffffffff1681526020019081526020015f205f015f9054906101000a900460ff1615611a08576040517f08c379a00000000000000000000000000000000000000000000000000000000081526004016119ff90612b6e565b60405180910390fd5b5f815111611a4b576040517f08c379a0000000000000000000000000000000000000000000000000000000008152600401611a4290612bd6565b60405180910390fd5b6040518060c001604052806001151581526020015f151581526020015f73ffffffffffffffffffffffffffffffffffffffff1681526020015f81526020018281526020013373ffffffffffffffffffffffffffffffffffffffff168152505f803373ffffffffffffffffffffffffffffffffffffffff1673ffffffffffffffffffffffffffffffffffffffff1681526020019081526020015f205f820151815f015f6101000a81548160ff0219169083151502179055506020820151815f0160016101000a81548160ff0219169083151502179055506040820151815f0160026101000a81548173ffffffffffffffffffffffffffffffffffffffff021916908373ffffffffffffffffffffffffffffffffffffffff160217905550606082015181600101556080820151816002019081611b869190612dee565b5060a0820151816003015f6101000a81548173ffffffffffffffffffffffffffffffffffffffff021916908373ffffffffffffffffffffffffffffffffffffffff160217905550905050600133908060018154018082558091505060019003905f5260205f20015f9091909190916101000a81548173ffffffffffffffffffffffffffffffffffffffff021916908373ffffffffffffffffffffffffffffffffffffffff1602179055503373ffffffffffffffffffffffffffffffffffffffff167f01e428601546e19350993364c26c5a618b33ef987abc24525c998748ae96429460405160405180910390a250565b611c7e61211c565b5f73ffffffffffffffffffffffffffffffffffffffff168273ffffffffffffffffffffffffffffffffffffffff1603611cec576040517f08c379a0000000000000000000000000000000000000000000000000000000008152600401611ce39061299d565b60405180910390fd5b5f808373ffffffffffffffffffffffffffffffffffffffff1673ffffffffffffffffffffffffffffffffffffffff1681526020019081526020015f205f015f9054906101000a900460ff16611d76576040517f08c379a0000000000000000000000000000000000000000000000000000000008152600401611d6d90612a05565b60405180910390fd5b5f808373ffffffffffffffffffffffffffffffffffffffff1673ffffffffffffffffffffffffffffffffffffffff1681526020019081526020015f206040518060c00160405290815f82015f9054906101000a900460ff161515151581526020015f820160019054906101000a900460ff161515151581526020015f820160029054906101000a900473ffffffffffffffffffffffffffffffffffffffff1673ffffffffffffffffffffffffffffffffffffffff1673ffffffffffffffffffffffffffffffffffffffff16815260200160018201548152602001600282018054611e5f90612c21565b80601f0160208091040260200160405190810160405280929190818152602001828054611e8b90612c21565b8015611ed65780601f10611ead57610100808354040283529160200191611ed6565b820191905f5260205f20905b815481529060010190602001808311611eb957829003601f168201915b50505050508152602001600382015f9054906101000a900473ffffffffffffffffffffffffffffffffffffffff1673ffffffffffffffffffffffffffffffffffffffff1673ffffffffffffffffffffffffffffffffffffffff16815250509050919050565b60045f9054906101000a900473ffffffffffffffffffffffffffffffffffffffff1673ffffffffffffffffffffffffffffffffffffffff163373ffffffffffffffffffffffffffffffffffffffff1614611fca576040517f08c379a0000000000000000000000000000000000000000000000000000000008152600401611fc190612865565b60405180910390fd5b5f73ffffffffffffffffffffffffffffffffffffffff168173ffffffffffffffffffffffffffffffffffffffff1603612038576040517f08c379a000000000000000000000000000000000000000000000000000000000815260040161202f9061308d565b60405180910390fd5b8060045f6101000a81548173ffffffffffffffffffffffffffffffffffffffff021916908373ffffffffffffffffffffffffffffffffffffffff16021790555060045f9054906101000a900473ffffffffffffffffffffffffffffffffffffffff1673ffffffffffffffffffffffffffffffffffffffff167f04dba622d284ed0014ee4b9a6a68386be1a4c08a4913ae272de89199cc68616360405160405180910390a250565b5080546120eb90612c21565b5f825580601f106120fc5750612119565b601f0160209004905f5260205f2090810190612118919061217d565b5b50565b6040518060c001604052805f151581526020015f151581526020015f73ffffffffffffffffffffffffffffffffffffffff1681526020015f8152602001606081526020015f73ffffffffffffffffffffffffffffffffffffffff1681525090565b5b80821115612194575f815f90555060010161217e565b5090565b5f81519050919050565b5f82825260208201905092915050565b5f819050602082019050919050565b5f73ffffffffffffffffffffffffffffffffffffffff82169050919050565b5f6121ea826121c1565b9050919050565b6121fa816121e0565b82525050565b5f61220b83836121f1565b60208301905092915050565b5f602082019050919050565b5f61222d82612198565b61223781856121a2565b9350612242836121b2565b805f5b838110156122725781516122598882612200565b975061226483612217565b925050600181019050612245565b5085935050505092915050565b5f6020820190508181035f8301526122978184612223565b905092915050565b5f604051905090565b5f80fd5b5f80fd5b6122b9816121e0565b81146122c3575f80fd5b50565b5f813590506122d4816122b0565b92915050565b5f602082840312156122ef576122ee6122a8565b5b5f6122fc848285016122c6565b91505092915050565b5f8115159050919050565b61231981612305565b82525050565b5f6020820190506123325f830184612310565b92915050565b5f80fd5b5f80fd5b5f601f19601f8301169050919050565b7f4e487b71000000000000000000000000000000000000000000000000000000005f52604160045260245ffd5b61238682612340565b810181811067ffffffffffffffff821117156123a5576123a4612350565b5b80604052505050565b5f6123b761229f565b90506123c3828261237d565b919050565b5f67ffffffffffffffff8211156123e2576123e1612350565b5b6123eb82612340565b9050602081019050919050565b828183375f83830152505050565b5f612418612413846123c8565b6123ae565b9050828152602081018484840111156124345761243361233c565b5b61243f8482856123f8565b509392505050565b5f82601f83011261245b5761245a612338565b5b813561246b848260208601612406565b91505092915050565b5f806040838503121561248a576124896122a8565b5b5f612497858286016122c6565b925050602083013567ffffffffffffffff8111156124b8576124b76122ac565b5b6124c485828601612447565b9150509250929050565b6124d7816121e0565b82525050565b5f6020820190506124f05f8301846124ce565b92915050565b5f81519050919050565b5f82825260208201905092915050565b5f819050602082019050919050565b61252881612305565b82525050565b5f819050919050565b6125408161252e565b82525050565b5f81519050919050565b5f82825260208201905092915050565b5f5b8381101561257d578082015181840152602081019050612562565b5f8484015250505050565b5f61259282612546565b61259c8185612550565b93506125ac818560208601612560565b6125b581612340565b840191505092915050565b5f60c083015f8301516125d55f86018261251f565b5060208301516125e8602086018261251f565b5060408301516125fb60408601826121f1565b50606083015161260e6060860182612537565b50608083015184820360808601526126268282612588565b91505060a083015161263b60a08601826121f1565b508091505092915050565b5f61265183836125c0565b905092915050565b5f602082019050919050565b5f61266f826124f6565b6126798185612500565b93508360208202850161268b85612510565b805f5b858110156126c657848403895281516126a78582612646565b94506126b283612659565b925060208a0199505060018101905061268e565b50829750879550505050505092915050565b5f6020820190508181035f8301526126f08184612665565b905092915050565b5f6020828403121561270d5761270c6122a8565b5b5f82013567ffffffffffffffff81111561272a576127296122ac565b5b61273684828501612447565b91505092915050565b5f60c083015f8301516127545f86018261251f565b506020830151612767602086018261251f565b50604083015161277a60408601826121f1565b50606083015161278d6060860182612537565b50608083015184820360808601526127a58282612588565b91505060a08301516127ba60a08601826121f1565b508091505092915050565b5f6020820190508181035f8301526127dd818461273f565b905092915050565b5f82825260208201905092915050565b7f4f6e6c79206f776e65722063616e2063616c6c20746869732066756e6374696f5f8201527f6e00000000000000000000000000000000000000000000000000000000000000602082015250565b5f61284f6021836127e5565b915061285a826127f5565b604082019050919050565b5f6020820190508181035f83015261287c81612843565b9050919050565b7f496e76616c6964207665726966696572206164647265737300000000000000005f82015250565b5f6128b76018836127e5565b91506128c282612883565b602082019050919050565b5f6020820190508181035f8301526128e4816128ab565b9050919050565b7f566572696669657220616c726561647920617574686f72697a656400000000005f82015250565b5f61291f601b836127e5565b915061292a826128eb565b602082019050919050565b5f6020820190508181035f83015261294c81612913565b9050919050565b7f496e76616c696420696e766573746f72206164647265737300000000000000005f82015250565b5f6129876018836127e5565b915061299282612953565b602082019050919050565b5f6020820190508181035f8301526129b48161297b565b9050919050565b7f496e766573746f72206e6f7420726567697374657265640000000000000000005f82015250565b5f6129ef6017836127e5565b91506129fa826129bb565b602082019050919050565b5f6020820190508181035f830152612a1c816129e3565b9050919050565b7f4e487b71000000000000000000000000000000000000000000000000000000005f52603260045260245ffd5b7f4e487b71000000000000000000000000000000000000000000000000000000005f52601160045260245ffd5b5f612a878261252e565b9150612a928361252e565b9250828203905081811115612aaa57612aa9612a50565b5b92915050565b7f4e487b71000000000000000000000000000000000000000000000000000000005f52603160045260245ffd5b5f612ae78261252e565b91507fffffffffffffffffffffffffffffffffffffffffffffffffffffffffffffffff8203612b1957612b18612a50565b5b600182019050919050565b7f496e766573746f7220616c7265616479207265676973746572656400000000005f82015250565b5f612b58601b836127e5565b9150612b6382612b24565b602082019050919050565b5f6020820190508181035f830152612b8581612b4c565b9050919050565b7f4e616d652063616e6e6f7420626520656d7074790000000000000000000000005f82015250565b5f612bc06014836127e5565b9150612bcb82612b8c565b602082019050919050565b5f6020820190508181035f830152612bed81612bb4565b9050919050565b7f4e487b71000000000000000000000000000000000000000000000000000000005f52602260045260245ffd5b5f6002820490506001821680612c3857607f821691505b602082108103612c4b57612c4a612bf4565b5b50919050565b5f819050815f5260205f209050919050565b5f6020601f8301049050919050565b5f82821b905092915050565b5f60088302612cad7fffffffffffffffffffffffffffffffffffffffffffffffffffffffffffffffff82612c72565b612cb78683612c72565b95508019841693508086168417925050509392505050565b5f819050919050565b5f612cf2612ced612ce88461252e565b612ccf565b61252e565b9050919050565b5f819050919050565b612d0b83612cd8565b612d1f612d1782612cf9565b848454612c7e565b825550505050565b5f90565b612d33612d27565b612d3e818484612d02565b505050565b5b81811015612d6157612d565f82612d2b565b600181019050612d44565b5050565b601f821115612da657612d7781612c51565b612d8084612c63565b81016020851015612d8f578190505b612da3612d9b85612c63565b830182612d43565b50505b505050565b5f82821c905092915050565b5f612dc65f1984600802612dab565b1980831691505092915050565b5f612dde8383612db7565b9150826002028217905092915050565b612df782612546565b67ffffffffffffffff811115612e1057612e0f612350565b5b612e1a8254612c21565b612e25828285612d65565b5f60209050601f831160018114612e56575f8415612e44578287015190505b612e4e8582612dd3565b865550612eb5565b601f198416612e6486612c51565b5f5b82811015612e8b57848901518255600182019150602085019450602081019050612e66565b86831015612ea85784890151612ea4601f891682612db7565b8355505b6001600288020188555050505b505050505050565b7f5665726966696572206e6f7420617574686f72697a65640000000000000000005f82015250565b5f612ef16017836127e5565b9150612efc82612ebd565b602082019050919050565b5f6020820190508181035f830152612f1e81612ee5565b9050919050565b7f4f6e6c7920617574686f72697a6564207665726966696572732063616e2063615f8201527f6c6c20746869732066756e6374696f6e00000000000000000000000000000000602082015250565b5f612f7f6030836127e5565b9150612f8a82612f25565b604082019050919050565b5f6020820190508181035f830152612fac81612f73565b9050919050565b7f496e766573746f7220616c7265616479207665726966696564000000000000005f82015250565b5f612fe76019836127e5565b9150612ff282612fb3565b602082019050919050565b5f6020820190508181035f83015261301481612fdb565b9050919050565b6130248161252e565b82525050565b5f60208201905061303d5f83018461301b565b92915050565b7f496e76616c6964206e6577206f776e65722061646472657373000000000000005f82015250565b5f6130776019836127e5565b915061308282613043565b602082019050919050565b5f6020820190508181035f8301526130a48161306b565b905091905056fea2646970667358221220c321baa76e65045813b87d156a9391d6dbc3cd98c1992d6db215d685703162e064736f6c63430008140033",
  "immutableReferences": {},
  "source": "// SPDX-License-Identifier: MIT\npragma solidity ^0.8.0;\n\ncontract InvestorRegistry {\n    // Struct to store investor verification details\n    struct InvestorDetails {\n        bool isRegistered;\n        bool isVerified;\n        address verifier;\n        uint256 verificationTimestamp;\n        string name;\n        address investor;\n    }\n\n    // Mapping to store registered investors and their details\n    mapping(address => InvestorDetails) private investors;\n    \n    // Array to store all investor addresses\n    address[] private investorList;\n    \n    // Mapping of authorized third-party verifiers\n    mapping(address => bool) private authorizedVerifiers;\n    \n    // Array to store all verifier addresses\n    address[] private verifierList;\n    \n    // Owner of the contract\n    address public owner;\n    \n    // Events\n    event InvestorRegistered(address indexed investor);\n    event InvestorRemoved(address indexed investor);\n    event VerifierAuthorized(address indexed verifier);\n    event VerifierRemoved(address indexed verifier);\n    event InvestorVerified(address indexed investor, address indexed verifier, uint256 timestamp);\n    event OwnershipTransferred(address indexed newOwner);\n    constructor() {\n        owner = msg.sender;\n    }\n    \n    // Modifiers\n    modifier onlyOwner() {\n        require(msg.sender == owner, \"Only owner can call this function\");\n        _;\n    }\n    \n    modifier onlyAuthorizedVerifier() {\n        require(authorizedVerifiers[msg.sender], \"Only authorized verifiers can call this function\");\n        _;\n    }\n    \n    function transferOwnership(address newOwner) external onlyOwner {\n        require(newOwner != address(0), \"Invalid new owner address\");\n        owner = newOwner;\n        emit OwnershipTransferred(owner);\n    }\n\n    // Owner functions to manage verifiers\n    function authorizeVerifier(address verifier) external onlyOwner {\n        require(verifier != address(0), \"Invalid verifier address\");\n        require(!authorizedVerifiers[verifier], \"Verifier already authorized\");\n        \n        authorizedVerifiers[verifier] = true;\n        verifierList.push(verifier);\n        emit VerifierAuthorized(verifier);\n    }\n    \n    function removeVerifier(address verifier) external onlyOwner {\n        require(verifier != address(0), \"Invalid verifier address\");\n        require(authorizedVerifiers[verifier], \"Verifier not authorized\");\n        \n        authorizedVerifiers[verifier] = false;\n        \n        // Remove from verifierList array\n        for(uint i = 0; i < verifierList.length; i++) {\n            if(verifierList[i] == verifier) {\n                verifierList[i] = verifierList[verifierList.length - 1];\n                verifierList.pop();\n                break;\n            }\n        }\n        \n        emit VerifierRemoved(verifier);\n    }\n    \n    // Register a new investor - can be called by anyone to register themselves\n    function registerInvestor(string memory name) external {\n        require(!investors[msg.sender].isRegistered, \"Investor already registered\");\n        require(bytes(name).length > 0, \"Name cannot be empty\");\n        \n        investors[msg.sender] = InvestorDetails({\n            isRegistered: true,\n            isVerified: false,\n            verifier: address(0),\n            verificationTimestamp: 0,\n            name: name,\n            investor: msg.sender\n        });\n        \n        investorList.push(msg.sender);\n        emit InvestorRegistered(msg.sender);\n    }\n\n    // Register another investor - only owner can register others\n    function registerInvestorByOwner(address investor, string memory name) external onlyOwner {\n        require(investor != address(0), \"Invalid investor address\");\n        require(!investors[investor].isRegistered, \"Investor already registered\");\n        require(bytes(name).length > 0, \"Name cannot be empty\");\n        \n        investors[investor] = InvestorDetails({\n            isRegistered: true,\n            isVerified: false,\n            verifier: address(0),\n            verificationTimestamp: 0,\n            name: name,\n            investor: investor\n        });\n        \n        investorList.push(investor);\n        emit InvestorRegistered(investor);\n    }\n    \n    // Remove an investor\n    function removeInvestor(address investor) external onlyOwner {\n        require(investor != address(0), \"Invalid investor address\");\n        require(investors[investor].isRegistered, \"Investor not registered\");\n        \n        // Remove from investorList array\n        for(uint i = 0; i < investorList.length; i++) {\n            if(investorList[i] == investor) {\n                investorList[i] = investorList[investorList.length - 1];\n                investorList.pop();\n                break;\n            }\n        }\n        \n        delete investors[investor];\n        emit InvestorRemoved(investor);\n    }\n    \n    // Verify an investor (only callable by authorized verifiers)\n    function verifyInvestor(address investor) external onlyAuthorizedVerifier {\n        require(investor != address(0), \"Invalid investor address\");\n        require(investors[investor].isRegistered, \"Investor not registered\");\n        require(!investors[investor].isVerified, \"Investor already verified\");\n        \n        investors[investor].isVerified = true;\n        investors[investor].verifier = msg.sender;\n        investors[investor].verificationTimestamp = block.timestamp;\n        \n        emit InvestorVerified(investor, msg.sender, block.timestamp);\n    }\n    \n    // View functions\n    function isRegisteredInvestor(address investor) external view returns (bool) {\n        return investors[investor].isRegistered;\n    }\n    \n    function isVerifiedInvestor(address investor) external view returns (bool) {\n        return investors[investor].isVerified;\n    }\n    \n    function getInvestorDetails(address investor) external view returns (InvestorDetails memory) {\n        require(investor != address(0), \"Invalid investor address\");\n        require(investors[investor].isRegistered, \"Investor not registered\");\n        return investors[investor];\n    }\n    \n    function isAuthorizedVerifier(address verifier) external view returns (bool) {\n        return authorizedVerifiers[verifier];\n    }\n\n    // Get all investors\n    function getAllInvestors() external view returns (address[] memory) {\n        return investorList;\n    }\n\n    // Get all investors with their details\n    function getAllInvestorsDetails() external view returns (InvestorDetails[] memory) {\n        InvestorDetails[] memory allInvestors = new InvestorDetails[](investorList.length);\n        for(uint i = 0; i < investorList.length; i++) {\n            allInvestors[i] = investors[investorList[i]];\n        }\n        return allInvestors;\n    }\n\n    // Get all authorized verifiers\n    function getAuthorizedVerifiers() external view returns (address[] memory) {\n        return verifierList;\n    }\n}\n",
  "sourcePath": "/Users/johngulbronson/DetroitArt/gods.work/apps/web3/contracts/InvestorRegistry.sol",
  "compiler": {
    "name": "solc",
    "version": "0.8.20+commit.a1b79de6.Emscripten.clang"
  },
  "schemaVersion": "3.4.16",
  "updatedAt": "2024-12-03T18:37:17.301Z",
  "devdoc": {
    "kind": "dev",
    "methods": {},
    "version": 1
  },
  "userdoc": {
    "kind": "user",
    "methods": {},
    "version": 1
  }
}