{
  "contractName": "InvestorRegistry",
  "abi": [
    {
      "inputs": [],
      "stateMutability": "nonpayable",
      "type": "constructor"
    },
    {
      "anonymous": false,
      "inputs": [
        {
          "indexed": true,
          "internalType": "address",
          "name": "investor",
          "type": "address"
        }
      ],
      "name": "InvestorRegistered",
      "type": "event"
    },
    {
      "anonymous": false,
      "inputs": [
        {
          "indexed": true,
          "internalType": "address",
          "name": "investor",
          "type": "address"
        }
      ],
      "name": "InvestorRemoved",
      "type": "event"
    },
    {
      "anonymous": false,
      "inputs": [
        {
          "indexed": true,
          "internalType": "address",
          "name": "investor",
          "type": "address"
        },
        {
          "indexed": true,
          "internalType": "address",
          "name": "verifier",
          "type": "address"
        },
        {
          "indexed": false,
          "internalType": "uint256",
          "name": "timestamp",
          "type": "uint256"
        }
      ],
      "name": "InvestorVerified",
      "type": "event"
    },
    {
      "anonymous": false,
      "inputs": [
        {
          "indexed": true,
          "internalType": "address",
          "name": "verifier",
          "type": "address"
        }
      ],
      "name": "VerifierAuthorized",
      "type": "event"
    },
    {
      "anonymous": false,
      "inputs": [
        {
          "indexed": true,
          "internalType": "address",
          "name": "verifier",
          "type": "address"
        }
      ],
      "name": "VerifierRemoved",
      "type": "event"
    },
    {
      "inputs": [],
      "name": "owner",
      "outputs": [
        {
          "internalType": "address",
          "name": "",
          "type": "address"
        }
      ],
      "stateMutability": "view",
      "type": "function"
    },
    {
      "inputs": [
        {
          "internalType": "address",
          "name": "verifier",
          "type": "address"
        }
      ],
      "name": "authorizeVerifier",
      "outputs": [],
      "stateMutability": "nonpayable",
      "type": "function"
    },
    {
      "inputs": [
        {
          "internalType": "address",
          "name": "verifier",
          "type": "address"
        }
      ],
      "name": "removeVerifier",
      "outputs": [],
      "stateMutability": "nonpayable",
      "type": "function"
    },
    {
      "inputs": [
        {
          "internalType": "string",
          "name": "name",
          "type": "string"
        }
      ],
      "name": "registerInvestor",
      "outputs": [],
      "stateMutability": "nonpayable",
      "type": "function"
    },
    {
      "inputs": [
        {
          "internalType": "address",
          "name": "investor",
          "type": "address"
        },
        {
          "internalType": "string",
          "name": "name",
          "type": "string"
        }
      ],
      "name": "registerInvestorByOwner",
      "outputs": [],
      "stateMutability": "nonpayable",
      "type": "function"
    },
    {
      "inputs": [
        {
          "internalType": "address",
          "name": "investor",
          "type": "address"
        }
      ],
      "name": "removeInvestor",
      "outputs": [],
      "stateMutability": "nonpayable",
      "type": "function"
    },
    {
      "inputs": [
        {
          "internalType": "address",
          "name": "investor",
          "type": "address"
        }
      ],
      "name": "verifyInvestor",
      "outputs": [],
      "stateMutability": "nonpayable",
      "type": "function"
    },
    {
      "inputs": [
        {
          "internalType": "address",
          "name": "investor",
          "type": "address"
        }
      ],
      "name": "isRegisteredInvestor",
      "outputs": [
        {
          "internalType": "bool",
          "name": "",
          "type": "bool"
        }
      ],
      "stateMutability": "view",
      "type": "function"
    },
    {
      "inputs": [
        {
          "internalType": "address",
          "name": "investor",
          "type": "address"
        }
      ],
      "name": "isVerifiedInvestor",
      "outputs": [
        {
          "internalType": "bool",
          "name": "",
          "type": "bool"
        }
      ],
      "stateMutability": "view",
      "type": "function"
    },
    {
      "inputs": [
        {
          "internalType": "address",
          "name": "investor",
          "type": "address"
        }
      ],
      "name": "getInvestorDetails",
      "outputs": [
        {
          "internalType": "bool",
          "name": "isRegistered",
          "type": "bool"
        },
        {
          "internalType": "bool",
          "name": "isVerified",
          "type": "bool"
        },
        {
          "internalType": "address",
          "name": "verifier",
          "type": "address"
        },
        {
          "internalType": "uint256",
          "name": "verificationTimestamp",
          "type": "uint256"
        },
        {
          "internalType": "string",
          "name": "name",
          "type": "string"
        }
      ],
      "stateMutability": "view",
      "type": "function"
    },
    {
      "inputs": [
        {
          "internalType": "address",
          "name": "verifier",
          "type": "address"
        }
      ],
      "name": "isAuthorizedVerifier",
      "outputs": [
        {
          "internalType": "bool",
          "name": "",
          "type": "bool"
        }
      ],
      "stateMutability": "view",
      "type": "function"
    },
    {
      "inputs": [],
      "name": "getAllInvestors",
      "outputs": [
        {
          "internalType": "address[]",
          "name": "",
          "type": "address[]"
        }
      ],
      "stateMutability": "view",
      "type": "function"
    }
  ],
  "bytecode": "0x608060405234801561000f575f80fd5b503360035f6101000a81548173ffffffffffffffffffffffffffffffffffffffff021916908373ffffffffffffffffffffffffffffffffffffffff1602179055506124e78061005d5f395ff3fe608060405234801561000f575f80fd5b50600436106100b2575f3560e01c80639f3d07ea1161006f5780639f3d07ea14610188578063ca2dfd0a146101b8578063d0a2f2c4146101d4578063d84dbdc3146101f2578063ec3246a21461020e578063efab1e501461022a576100b2565b80631fa1b60c146100b657806320ad8cab146100e657806342714978146101025780635f5883ab1461011e5780636cacbf301461013a5780638da5cb5b1461016a575b5f80fd5b6100d060048036038101906100cb919061184e565b61025e565b6040516100dd9190611893565b60405180910390f35b61010060048036038101906100fb919061184e565b6102b2565b005b61011c6004803603810190610117919061184e565b6104d4565b005b610138600480360381019061013391906119e8565b6108bf565b005b610154600480360381019061014f919061184e565b610c54565b6040516101619190611893565b60405180910390f35b610172610ca6565b60405161017f9190611a51565b60405180910390f35b6101a2600480360381019061019d919061184e565b610ccb565b6040516101af9190611893565b60405180910390f35b6101d260048036038101906101cd919061184e565b610d1e565b005b6101dc610f3e565b6040516101e99190611b21565b60405180910390f35b61020c6004803603810190610207919061184e565b610fc9565b005b61022860048036038101906102239190611b41565b611356565b005b610244600480360381019061023f919061184e565b6115ed565b604051610255959493929190611c1a565b60405180910390f35b5f805f8373ffffffffffffffffffffffffffffffffffffffff1673ffffffffffffffffffffffffffffffffffffffff1681526020019081526020015f205f0160019054906101000a900460ff169050919050565b60035f9054906101000a900473ffffffffffffffffffffffffffffffffffffffff1673ffffffffffffffffffffffffffffffffffffffff163373ffffffffffffffffffffffffffffffffffffffff1614610341576040517f08c379a000000000000000000000000000000000000000000000000000000000815260040161033890611ce2565b60405180910390fd5b5f73ffffffffffffffffffffffffffffffffffffffff168173ffffffffffffffffffffffffffffffffffffffff16036103af576040517f08c379a00000000000000000000000000000000000000000000000000000000081526004016103a690611d4a565b60405180910390fd5b60025f8273ffffffffffffffffffffffffffffffffffffffff1673ffffffffffffffffffffffffffffffffffffffff1681526020019081526020015f205f9054906101000a900460ff1615610439576040517f08c379a000000000000000000000000000000000000000000000000000000000815260040161043090611db2565b60405180910390fd5b600160025f8373ffffffffffffffffffffffffffffffffffffffff1673ffffffffffffffffffffffffffffffffffffffff1681526020019081526020015f205f6101000a81548160ff0219169083151502179055508073ffffffffffffffffffffffffffffffffffffffff167f40f8611cb3470e9d255c7ea6d08e5625d635123c46e7c303e5321b1fb69bb8c960405160405180910390a250565b60035f9054906101000a900473ffffffffffffffffffffffffffffffffffffffff1673ffffffffffffffffffffffffffffffffffffffff163373ffffffffffffffffffffffffffffffffffffffff1614610563576040517f08c379a000000000000000000000000000000000000000000000000000000000815260040161055a90611ce2565b60405180910390fd5b5f73ffffffffffffffffffffffffffffffffffffffff168173ffffffffffffffffffffffffffffffffffffffff16036105d1576040517f08c379a00000000000000000000000000000000000000000000000000000000081526004016105c890611e1a565b60405180910390fd5b5f808273ffffffffffffffffffffffffffffffffffffffff1673ffffffffffffffffffffffffffffffffffffffff1681526020019081526020015f205f015f9054906101000a900460ff1661065b576040517f08c379a000000000000000000000000000000000000000000000000000000000815260040161065290611e82565b60405180910390fd5b5f5b6001805490508110156107d8578173ffffffffffffffffffffffffffffffffffffffff166001828154811061069557610694611ea0565b5b905f5260205f20015f9054906101000a900473ffffffffffffffffffffffffffffffffffffffff1673ffffffffffffffffffffffffffffffffffffffff16036107c55760018080805490506106ea9190611efa565b815481106106fb576106fa611ea0565b5b905f5260205f20015f9054906101000a900473ffffffffffffffffffffffffffffffffffffffff166001828154811061073757610736611ea0565b5b905f5260205f20015f6101000a81548173ffffffffffffffffffffffffffffffffffffffff021916908373ffffffffffffffffffffffffffffffffffffffff160217905550600180548061078e5761078d611f2d565b5b600190038181905f5260205f20015f6101000a81549073ffffffffffffffffffffffffffffffffffffffff021916905590556107d8565b80806107d090611f5a565b91505061065d565b505f808273ffffffffffffffffffffffffffffffffffffffff1673ffffffffffffffffffffffffffffffffffffffff1681526020019081526020015f205f8082015f6101000a81549060ff02191690555f820160016101000a81549060ff02191690555f820160026101000a81549073ffffffffffffffffffffffffffffffffffffffff0219169055600182015f9055600282015f610877919061178b565b50508073ffffffffffffffffffffffffffffffffffffffff167fba0013628ccb89af5bb18edf764d3a7b35c07b894848b8e6fd3434719de39c7d60405160405180910390a250565b60035f9054906101000a900473ffffffffffffffffffffffffffffffffffffffff1673ffffffffffffffffffffffffffffffffffffffff163373ffffffffffffffffffffffffffffffffffffffff161461094e576040517f08c379a000000000000000000000000000000000000000000000000000000000815260040161094590611ce2565b60405180910390fd5b5f73ffffffffffffffffffffffffffffffffffffffff168273ffffffffffffffffffffffffffffffffffffffff16036109bc576040517f08c379a00000000000000000000000000000000000000000000000000000000081526004016109b390611e1a565b60405180910390fd5b5f808373ffffffffffffffffffffffffffffffffffffffff1673ffffffffffffffffffffffffffffffffffffffff1681526020019081526020015f205f015f9054906101000a900460ff1615610a47576040517f08c379a0000000000000000000000000000000000000000000000000000000008152600401610a3e90611feb565b60405180910390fd5b5f815111610a8a576040517f08c379a0000000000000000000000000000000000000000000000000000000008152600401610a8190612053565b60405180910390fd5b6040518060a001604052806001151581526020015f151581526020015f73ffffffffffffffffffffffffffffffffffffffff1681526020015f8152602001828152505f808473ffffffffffffffffffffffffffffffffffffffff1673ffffffffffffffffffffffffffffffffffffffff1681526020019081526020015f205f820151815f015f6101000a81548160ff0219169083151502179055506020820151815f0160016101000a81548160ff0219169083151502179055506040820151815f0160026101000a81548173ffffffffffffffffffffffffffffffffffffffff021916908373ffffffffffffffffffffffffffffffffffffffff160217905550606082015181600101556080820151816002019081610ba9919061226b565b50905050600182908060018154018082558091505060019003905f5260205f20015f9091909190916101000a81548173ffffffffffffffffffffffffffffffffffffffff021916908373ffffffffffffffffffffffffffffffffffffffff1602179055508173ffffffffffffffffffffffffffffffffffffffff167f01e428601546e19350993364c26c5a618b33ef987abc24525c998748ae96429460405160405180910390a25050565b5f60025f8373ffffffffffffffffffffffffffffffffffffffff1673ffffffffffffffffffffffffffffffffffffffff1681526020019081526020015f205f9054906101000a900460ff169050919050565b60035f9054906101000a900473ffffffffffffffffffffffffffffffffffffffff1681565b5f805f8373ffffffffffffffffffffffffffffffffffffffff1673ffffffffffffffffffffffffffffffffffffffff1681526020019081526020015f205f015f9054906101000a900460ff169050919050565b60035f9054906101000a900473ffffffffffffffffffffffffffffffffffffffff1673ffffffffffffffffffffffffffffffffffffffff163373ffffffffffffffffffffffffffffffffffffffff1614610dad576040517f08c379a0000000000000000000000000000000000000000000000000000000008152600401610da490611ce2565b60405180910390fd5b5f73ffffffffffffffffffffffffffffffffffffffff168173ffffffffffffffffffffffffffffffffffffffff1603610e1b576040517f08c379a0000000000000000000000000000000000000000000000000000000008152600401610e1290611d4a565b60405180910390fd5b60025f8273ffffffffffffffffffffffffffffffffffffffff1673ffffffffffffffffffffffffffffffffffffffff1681526020019081526020015f205f9054906101000a900460ff16610ea4576040517f08c379a0000000000000000000000000000000000000000000000000000000008152600401610e9b90612384565b60405180910390fd5b5f60025f8373ffffffffffffffffffffffffffffffffffffffff1673ffffffffffffffffffffffffffffffffffffffff1681526020019081526020015f205f6101000a81548160ff0219169083151502179055508073ffffffffffffffffffffffffffffffffffffffff167f44a3cd4eb5cc5748f6169df057b1cb2ae4c383e87cd94663c430e095d4cba42460405160405180910390a250565b60606001805480602002602001604051908101604052809291908181526020018280548015610fbf57602002820191905f5260205f20905b815f9054906101000a900473ffffffffffffffffffffffffffffffffffffffff1673ffffffffffffffffffffffffffffffffffffffff1681526020019060010190808311610f76575b5050505050905090565b60025f3373ffffffffffffffffffffffffffffffffffffffff1673ffffffffffffffffffffffffffffffffffffffff1681526020019081526020015f205f9054906101000a900460ff16611052576040517f08c379a000000000000000000000000000000000000000000000000000000000815260040161104990612412565b60405180910390fd5b5f73ffffffffffffffffffffffffffffffffffffffff168173ffffffffffffffffffffffffffffffffffffffff16036110c0576040517f08c379a00000000000000000000000000000000000000000000000000000000081526004016110b790611e1a565b60405180910390fd5b5f808273ffffffffffffffffffffffffffffffffffffffff1673ffffffffffffffffffffffffffffffffffffffff1681526020019081526020015f205f015f9054906101000a900460ff1661114a576040517f08c379a000000000000000000000000000000000000000000000000000000000815260040161114190611e82565b60405180910390fd5b5f808273ffffffffffffffffffffffffffffffffffffffff1673ffffffffffffffffffffffffffffffffffffffff1681526020019081526020015f205f0160019054906101000a900460ff16156111d6576040517f08c379a00000000000000000000000000000000000000000000000000000000081526004016111cd9061247a565b60405180910390fd5b60015f808373ffffffffffffffffffffffffffffffffffffffff1673ffffffffffffffffffffffffffffffffffffffff1681526020019081526020015f205f0160016101000a81548160ff021916908315150217905550335f808373ffffffffffffffffffffffffffffffffffffffff1673ffffffffffffffffffffffffffffffffffffffff1681526020019081526020015f205f0160026101000a81548173ffffffffffffffffffffffffffffffffffffffff021916908373ffffffffffffffffffffffffffffffffffffffff160217905550425f808373ffffffffffffffffffffffffffffffffffffffff1673ffffffffffffffffffffffffffffffffffffffff1681526020019081526020015f20600101819055503373ffffffffffffffffffffffffffffffffffffffff168173ffffffffffffffffffffffffffffffffffffffff167f17fa57e07b9b46d8e06344b5df662a9221c64bf17921f3fe6f138f9ab796c2314260405161134b9190612498565b60405180910390a350565b5f803373ffffffffffffffffffffffffffffffffffffffff1673ffffffffffffffffffffffffffffffffffffffff1681526020019081526020015f205f015f9054906101000a900460ff16156113e1576040517f08c379a00000000000000000000000000000000000000000000000000000000081526004016113d890611feb565b60405180910390fd5b5f815111611424576040517f08c379a000000000000000000000000000000000000000000000000000000000815260040161141b90612053565b60405180910390fd5b6040518060a001604052806001151581526020015f151581526020015f73ffffffffffffffffffffffffffffffffffffffff1681526020015f8152602001828152505f803373ffffffffffffffffffffffffffffffffffffffff1673ffffffffffffffffffffffffffffffffffffffff1681526020019081526020015f205f820151815f015f6101000a81548160ff0219169083151502179055506020820151815f0160016101000a81548160ff0219169083151502179055506040820151815f0160026101000a81548173ffffffffffffffffffffffffffffffffffffffff021916908373ffffffffffffffffffffffffffffffffffffffff160217905550606082015181600101556080820151816002019081611543919061226b565b50905050600133908060018154018082558091505060019003905f5260205f20015f9091909190916101000a81548173ffffffffffffffffffffffffffffffffffffffff021916908373ffffffffffffffffffffffffffffffffffffffff1602179055503373ffffffffffffffffffffffffffffffffffffffff167f01e428601546e19350993364c26c5a618b33ef987abc24525c998748ae96429460405160405180910390a250565b5f805f8060605f805f8873ffffffffffffffffffffffffffffffffffffffff1673ffffffffffffffffffffffffffffffffffffffff1681526020019081526020015f206040518060a00160405290815f82015f9054906101000a900460ff161515151581526020015f820160019054906101000a900460ff161515151581526020015f820160029054906101000a900473ffffffffffffffffffffffffffffffffffffffff1673ffffffffffffffffffffffffffffffffffffffff1673ffffffffffffffffffffffffffffffffffffffff168152602001600182015481526020016002820180546116dd9061209e565b80601f01602080910402602001604051908101604052809291908181526020018280546117099061209e565b80156117545780601f1061172b57610100808354040283529160200191611754565b820191905f5260205f20905b81548152906001019060200180831161173757829003601f168201915b5050505050815250509050805f01518160200151826040015183606001518460800151955095509550955095505091939590929450565b5080546117979061209e565b5f825580601f106117a857506117c5565b601f0160209004905f5260205f20908101906117c491906117c8565b5b50565b5b808211156117df575f815f9055506001016117c9565b5090565b5f604051905090565b5f80fd5b5f80fd5b5f73ffffffffffffffffffffffffffffffffffffffff82169050919050565b5f61181d826117f4565b9050919050565b61182d81611813565b8114611837575f80fd5b50565b5f8135905061184881611824565b92915050565b5f60208284031215611863576118626117ec565b5b5f6118708482850161183a565b91505092915050565b5f8115159050919050565b61188d81611879565b82525050565b5f6020820190506118a65f830184611884565b92915050565b5f80fd5b5f80fd5b5f601f19601f8301169050919050565b7f4e487b71000000000000000000000000000000000000000000000000000000005f52604160045260245ffd5b6118fa826118b4565b810181811067ffffffffffffffff82111715611919576119186118c4565b5b80604052505050565b5f61192b6117e3565b905061193782826118f1565b919050565b5f67ffffffffffffffff821115611956576119556118c4565b5b61195f826118b4565b9050602081019050919050565b828183375f83830152505050565b5f61198c6119878461193c565b611922565b9050828152602081018484840111156119a8576119a76118b0565b5b6119b384828561196c565b509392505050565b5f82601f8301126119cf576119ce6118ac565b5b81356119df84826020860161197a565b91505092915050565b5f80604083850312156119fe576119fd6117ec565b5b5f611a0b8582860161183a565b925050602083013567ffffffffffffffff811115611a2c57611a2b6117f0565b5b611a38858286016119bb565b9150509250929050565b611a4b81611813565b82525050565b5f602082019050611a645f830184611a42565b92915050565b5f81519050919050565b5f82825260208201905092915050565b5f819050602082019050919050565b611a9c81611813565b82525050565b5f611aad8383611a93565b60208301905092915050565b5f602082019050919050565b5f611acf82611a6a565b611ad98185611a74565b9350611ae483611a84565b805f5b83811015611b14578151611afb8882611aa2565b9750611b0683611ab9565b925050600181019050611ae7565b5085935050505092915050565b5f6020820190508181035f830152611b398184611ac5565b905092915050565b5f60208284031215611b5657611b556117ec565b5b5f82013567ffffffffffffffff811115611b7357611b726117f0565b5b611b7f848285016119bb565b91505092915050565b5f819050919050565b611b9a81611b88565b82525050565b5f81519050919050565b5f82825260208201905092915050565b5f5b83811015611bd7578082015181840152602081019050611bbc565b5f8484015250505050565b5f611bec82611ba0565b611bf68185611baa565b9350611c06818560208601611bba565b611c0f816118b4565b840191505092915050565b5f60a082019050611c2d5f830188611884565b611c3a6020830187611884565b611c476040830186611a42565b611c546060830185611b91565b8181036080830152611c668184611be2565b90509695505050505050565b7f4f6e6c79206f776e65722063616e2063616c6c20746869732066756e6374696f5f8201527f6e00000000000000000000000000000000000000000000000000000000000000602082015250565b5f611ccc602183611baa565b9150611cd782611c72565b604082019050919050565b5f6020820190508181035f830152611cf981611cc0565b9050919050565b7f496e76616c6964207665726966696572206164647265737300000000000000005f82015250565b5f611d34601883611baa565b9150611d3f82611d00565b602082019050919050565b5f6020820190508181035f830152611d6181611d28565b9050919050565b7f566572696669657220616c726561647920617574686f72697a656400000000005f82015250565b5f611d9c601b83611baa565b9150611da782611d68565b602082019050919050565b5f6020820190508181035f830152611dc981611d90565b9050919050565b7f496e76616c696420696e766573746f72206164647265737300000000000000005f82015250565b5f611e04601883611baa565b9150611e0f82611dd0565b602082019050919050565b5f6020820190508181035f830152611e3181611df8565b9050919050565b7f496e766573746f72206e6f7420726567697374657265640000000000000000005f82015250565b5f611e6c601783611baa565b9150611e7782611e38565b602082019050919050565b5f6020820190508181035f830152611e9981611e60565b9050919050565b7f4e487b71000000000000000000000000000000000000000000000000000000005f52603260045260245ffd5b7f4e487b71000000000000000000000000000000000000000000000000000000005f52601160045260245ffd5b5f611f0482611b88565b9150611f0f83611b88565b9250828203905081811115611f2757611f26611ecd565b5b92915050565b7f4e487b71000000000000000000000000000000000000000000000000000000005f52603160045260245ffd5b5f611f6482611b88565b91507fffffffffffffffffffffffffffffffffffffffffffffffffffffffffffffffff8203611f9657611f95611ecd565b5b600182019050919050565b7f496e766573746f7220616c7265616479207265676973746572656400000000005f82015250565b5f611fd5601b83611baa565b9150611fe082611fa1565b602082019050919050565b5f6020820190508181035f83015261200281611fc9565b9050919050565b7f4e616d652063616e6e6f7420626520656d7074790000000000000000000000005f82015250565b5f61203d601483611baa565b915061204882612009565b602082019050919050565b5f6020820190508181035f83015261206a81612031565b9050919050565b7f4e487b71000000000000000000000000000000000000000000000000000000005f52602260045260245ffd5b5f60028204905060018216806120b557607f821691505b6020821081036120c8576120c7612071565b5b50919050565b5f819050815f5260205f209050919050565b5f6020601f8301049050919050565b5f82821b905092915050565b5f6008830261212a7fffffffffffffffffffffffffffffffffffffffffffffffffffffffffffffffff826120ef565b61213486836120ef565b95508019841693508086168417925050509392505050565b5f819050919050565b5f61216f61216a61216584611b88565b61214c565b611b88565b9050919050565b5f819050919050565b61218883612155565b61219c61219482612176565b8484546120fb565b825550505050565b5f90565b6121b06121a4565b6121bb81848461217f565b505050565b5b818110156121de576121d35f826121a8565b6001810190506121c1565b5050565b601f821115612223576121f4816120ce565b6121fd846120e0565b8101602085101561220c578190505b612220612218856120e0565b8301826121c0565b50505b505050565b5f82821c905092915050565b5f6122435f1984600802612228565b1980831691505092915050565b5f61225b8383612234565b9150826002028217905092915050565b61227482611ba0565b67ffffffffffffffff81111561228d5761228c6118c4565b5b612297825461209e565b6122a28282856121e2565b5f60209050601f8311600181146122d3575f84156122c1578287015190505b6122cb8582612250565b865550612332565b601f1984166122e1866120ce565b5f5b82811015612308578489015182556001820191506020850194506020810190506122e3565b868310156123255784890151612321601f891682612234565b8355505b6001600288020188555050505b505050505050565b7f5665726966696572206e6f7420617574686f72697a65640000000000000000005f82015250565b5f61236e601783611baa565b91506123798261233a565b602082019050919050565b5f6020820190508181035f83015261239b81612362565b9050919050565b7f4f6e6c7920617574686f72697a6564207665726966696572732063616e2063615f8201527f6c6c20746869732066756e6374696f6e00000000000000000000000000000000602082015250565b5f6123fc603083611baa565b9150612407826123a2565b604082019050919050565b5f6020820190508181035f830152612429816123f0565b9050919050565b7f496e766573746f7220616c7265616479207665726966696564000000000000005f82015250565b5f612464601983611baa565b915061246f82612430565b602082019050919050565b5f6020820190508181035f83015261249181612458565b9050919050565b5f6020820190506124ab5f830184611b91565b9291505056fea2646970667358221220dbc03719544a72dcd03b7174f13b0d73a610cc59ef2b0261ef502811e29c3a3e64736f6c63430008140033",
  "immutableReferences": {},
  "source": "// SPDX-License-Identifier: MIT\npragma solidity ^0.8.0;\n\ncontract InvestorRegistry {\n    // Struct to store investor verification details\n    struct InvestorDetails {\n        bool isRegistered;\n        bool isVerified;\n        address verifier;\n        uint256 verificationTimestamp;\n        string name;\n    }\n\n    // Mapping to store registered investors and their details\n    mapping(address => InvestorDetails) private investors;\n    \n    // Array to store all investor addresses\n    address[] private investorList;\n    \n    // Mapping of authorized third-party verifiers\n    mapping(address => bool) private authorizedVerifiers;\n    \n    // Owner of the contract\n    address public owner;\n    \n    // Events\n    event InvestorRegistered(address indexed investor);\n    event InvestorRemoved(address indexed investor);\n    event VerifierAuthorized(address indexed verifier);\n    event VerifierRemoved(address indexed verifier);\n    event InvestorVerified(address indexed investor, address indexed verifier, uint256 timestamp);\n    \n    constructor() {\n        owner = msg.sender;\n    }\n    \n    // Modifiers\n    modifier onlyOwner() {\n        require(msg.sender == owner, \"Only owner can call this function\");\n        _;\n    }\n    \n    modifier onlyAuthorizedVerifier() {\n        require(authorizedVerifiers[msg.sender], \"Only authorized verifiers can call this function\");\n        _;\n    }\n    \n    // Owner functions to manage verifiers\n    function authorizeVerifier(address verifier) external onlyOwner {\n        require(verifier != address(0), \"Invalid verifier address\");\n        require(!authorizedVerifiers[verifier], \"Verifier already authorized\");\n        \n        authorizedVerifiers[verifier] = true;\n        emit VerifierAuthorized(verifier);\n    }\n    \n    function removeVerifier(address verifier) external onlyOwner {\n        require(verifier != address(0), \"Invalid verifier address\");\n        require(authorizedVerifiers[verifier], \"Verifier not authorized\");\n        \n        authorizedVerifiers[verifier] = false;\n        emit VerifierRemoved(verifier);\n    }\n    \n    // Register a new investor - can be called by anyone to register themselves\n    function registerInvestor(string memory name) external {\n        require(!investors[msg.sender].isRegistered, \"Investor already registered\");\n        require(bytes(name).length > 0, \"Name cannot be empty\");\n        \n        investors[msg.sender] = InvestorDetails({\n            isRegistered: true,\n            isVerified: false,\n            verifier: address(0),\n            verificationTimestamp: 0,\n            name: name\n        });\n        \n        investorList.push(msg.sender);\n        emit InvestorRegistered(msg.sender);\n    }\n\n    // Register another investor - only owner can register others\n    function registerInvestorByOwner(address investor, string memory name) external onlyOwner {\n        require(investor != address(0), \"Invalid investor address\");\n        require(!investors[investor].isRegistered, \"Investor already registered\");\n        require(bytes(name).length > 0, \"Name cannot be empty\");\n        \n        investors[investor] = InvestorDetails({\n            isRegistered: true,\n            isVerified: false,\n            verifier: address(0),\n            verificationTimestamp: 0,\n            name: name\n        });\n        \n        investorList.push(investor);\n        emit InvestorRegistered(investor);\n    }\n    \n    // Remove an investor\n    function removeInvestor(address investor) external onlyOwner {\n        require(investor != address(0), \"Invalid investor address\");\n        require(investors[investor].isRegistered, \"Investor not registered\");\n        \n        // Remove from investorList array\n        for(uint i = 0; i < investorList.length; i++) {\n            if(investorList[i] == investor) {\n                investorList[i] = investorList[investorList.length - 1];\n                investorList.pop();\n                break;\n            }\n        }\n        \n        delete investors[investor];\n        emit InvestorRemoved(investor);\n    }\n    \n    // Verify an investor (only callable by authorized verifiers)\n    function verifyInvestor(address investor) external onlyAuthorizedVerifier {\n        require(investor != address(0), \"Invalid investor address\");\n        require(investors[investor].isRegistered, \"Investor not registered\");\n        require(!investors[investor].isVerified, \"Investor already verified\");\n        \n        investors[investor].isVerified = true;\n        investors[investor].verifier = msg.sender;\n        investors[investor].verificationTimestamp = block.timestamp;\n        \n        emit InvestorVerified(investor, msg.sender, block.timestamp);\n    }\n    \n    // View functions\n    function isRegisteredInvestor(address investor) external view returns (bool) {\n        return investors[investor].isRegistered;\n    }\n    \n    function isVerifiedInvestor(address investor) external view returns (bool) {\n        return investors[investor].isVerified;\n    }\n    \n    function getInvestorDetails(address investor) external view returns (\n        bool isRegistered,\n        bool isVerified,\n        address verifier,\n        uint256 verificationTimestamp,\n        string memory name\n    ) {\n        InvestorDetails memory details = investors[investor];\n        return (\n            details.isRegistered,\n            details.isVerified,\n            details.verifier,\n            details.verificationTimestamp,\n            details.name\n        );\n    }\n    \n    function isAuthorizedVerifier(address verifier) external view returns (bool) {\n        return authorizedVerifiers[verifier];\n    }\n\n    // Get all investors\n    function getAllInvestors() external view returns (address[] memory) {\n        return investorList;\n    }\n}\n",
  "sourcePath": "/Users/johngulbronson/DetroitArt/gods.work/apps/web3/contracts/InvestorRegistry.sol",
  "compiler": {
    "name": "solc",
    "version": "0.8.20+commit.a1b79de6.Emscripten.clang"
  },
  "schemaVersion": "3.4.16",
  "updatedAt": "2024-11-28T03:41:23.796Z",
  "devdoc": {
    "kind": "dev",
    "methods": {},
    "version": 1
  },
  "userdoc": {
    "kind": "user",
    "methods": {},
    "version": 1
  }
}