{
  "contractName": "InvestorRegistry",
  "abi": [
    {
      "inputs": [],
      "stateMutability": "nonpayable",
      "type": "constructor"
    },
    {
      "anonymous": false,
      "inputs": [
        {
          "indexed": true,
          "internalType": "address",
          "name": "investor",
          "type": "address"
        }
      ],
      "name": "InvestorRegistered",
      "type": "event"
    },
    {
      "anonymous": false,
      "inputs": [
        {
          "indexed": true,
          "internalType": "address",
          "name": "investor",
          "type": "address"
        }
      ],
      "name": "InvestorRemoved",
      "type": "event"
    },
    {
      "anonymous": false,
      "inputs": [
        {
          "indexed": true,
          "internalType": "address",
          "name": "investor",
          "type": "address"
        },
        {
          "indexed": true,
          "internalType": "address",
          "name": "verifier",
          "type": "address"
        },
        {
          "indexed": false,
          "internalType": "uint256",
          "name": "timestamp",
          "type": "uint256"
        }
      ],
      "name": "InvestorVerified",
      "type": "event"
    },
    {
      "anonymous": false,
      "inputs": [
        {
          "indexed": true,
          "internalType": "address",
          "name": "verifier",
          "type": "address"
        }
      ],
      "name": "VerifierAuthorized",
      "type": "event"
    },
    {
      "anonymous": false,
      "inputs": [
        {
          "indexed": true,
          "internalType": "address",
          "name": "verifier",
          "type": "address"
        }
      ],
      "name": "VerifierRemoved",
      "type": "event"
    },
    {
      "inputs": [],
      "name": "owner",
      "outputs": [
        {
          "internalType": "address",
          "name": "",
          "type": "address"
        }
      ],
      "stateMutability": "view",
      "type": "function"
    },
    {
      "inputs": [
        {
          "internalType": "address",
          "name": "verifier",
          "type": "address"
        }
      ],
      "name": "authorizeVerifier",
      "outputs": [],
      "stateMutability": "nonpayable",
      "type": "function"
    },
    {
      "inputs": [
        {
          "internalType": "address",
          "name": "verifier",
          "type": "address"
        }
      ],
      "name": "removeVerifier",
      "outputs": [],
      "stateMutability": "nonpayable",
      "type": "function"
    },
    {
      "inputs": [
        {
          "internalType": "string",
          "name": "name",
          "type": "string"
        }
      ],
      "name": "registerInvestor",
      "outputs": [],
      "stateMutability": "nonpayable",
      "type": "function"
    },
    {
      "inputs": [
        {
          "internalType": "address",
          "name": "investor",
          "type": "address"
        },
        {
          "internalType": "string",
          "name": "name",
          "type": "string"
        }
      ],
      "name": "registerInvestorByOwner",
      "outputs": [],
      "stateMutability": "nonpayable",
      "type": "function"
    },
    {
      "inputs": [
        {
          "internalType": "address",
          "name": "investor",
          "type": "address"
        }
      ],
      "name": "removeInvestor",
      "outputs": [],
      "stateMutability": "nonpayable",
      "type": "function"
    },
    {
      "inputs": [
        {
          "internalType": "address",
          "name": "investor",
          "type": "address"
        }
      ],
      "name": "verifyInvestor",
      "outputs": [],
      "stateMutability": "nonpayable",
      "type": "function"
    },
    {
      "inputs": [
        {
          "internalType": "address",
          "name": "investor",
          "type": "address"
        }
      ],
      "name": "isRegisteredInvestor",
      "outputs": [
        {
          "internalType": "bool",
          "name": "",
          "type": "bool"
        }
      ],
      "stateMutability": "view",
      "type": "function"
    },
    {
      "inputs": [
        {
          "internalType": "address",
          "name": "investor",
          "type": "address"
        }
      ],
      "name": "isVerifiedInvestor",
      "outputs": [
        {
          "internalType": "bool",
          "name": "",
          "type": "bool"
        }
      ],
      "stateMutability": "view",
      "type": "function"
    },
    {
      "inputs": [
        {
          "internalType": "address",
          "name": "investor",
          "type": "address"
        }
      ],
      "name": "getInvestorDetails",
      "outputs": [
        {
          "components": [
            {
              "internalType": "bool",
              "name": "isRegistered",
              "type": "bool"
            },
            {
              "internalType": "bool",
              "name": "isVerified",
              "type": "bool"
            },
            {
              "internalType": "address",
              "name": "verifier",
              "type": "address"
            },
            {
              "internalType": "uint256",
              "name": "verificationTimestamp",
              "type": "uint256"
            },
            {
              "internalType": "string",
              "name": "name",
              "type": "string"
            },
            {
              "internalType": "address",
              "name": "investor",
              "type": "address"
            }
          ],
          "internalType": "struct InvestorRegistry.InvestorDetails",
          "name": "",
          "type": "tuple"
        }
      ],
      "stateMutability": "view",
      "type": "function"
    },
    {
      "inputs": [
        {
          "internalType": "address",
          "name": "verifier",
          "type": "address"
        }
      ],
      "name": "isAuthorizedVerifier",
      "outputs": [
        {
          "internalType": "bool",
          "name": "",
          "type": "bool"
        }
      ],
      "stateMutability": "view",
      "type": "function"
    },
    {
      "inputs": [],
      "name": "getAllInvestors",
      "outputs": [
        {
          "internalType": "address[]",
          "name": "",
          "type": "address[]"
        }
      ],
      "stateMutability": "view",
      "type": "function"
    },
    {
      "inputs": [],
      "name": "getAllInvestorsDetails",
      "outputs": [
        {
          "components": [
            {
              "internalType": "bool",
              "name": "isRegistered",
              "type": "bool"
            },
            {
              "internalType": "bool",
              "name": "isVerified",
              "type": "bool"
            },
            {
              "internalType": "address",
              "name": "verifier",
              "type": "address"
            },
            {
              "internalType": "uint256",
              "name": "verificationTimestamp",
              "type": "uint256"
            },
            {
              "internalType": "string",
              "name": "name",
              "type": "string"
            },
            {
              "internalType": "address",
              "name": "investor",
              "type": "address"
            }
          ],
          "internalType": "struct InvestorRegistry.InvestorDetails[]",
          "name": "",
          "type": "tuple[]"
        }
      ],
      "stateMutability": "view",
      "type": "function"
    },
    {
      "inputs": [],
      "name": "getAuthorizedVerifiers",
      "outputs": [
        {
          "internalType": "address[]",
          "name": "",
          "type": "address[]"
        }
      ],
      "stateMutability": "view",
      "type": "function"
    }
  ],
  "bytecode": "0x608060405234801561000f575f80fd5b503360045f6101000a81548173ffffffffffffffffffffffffffffffffffffffff021916908373ffffffffffffffffffffffffffffffffffffffff160217905550612eae8061005d5f395ff3fe608060405234801561000f575f80fd5b50600436106100e8575f3560e01c80639f3d07ea1161008a578063d0a2f2c411610064578063d0a2f2c414610246578063d84dbdc314610264578063ec3246a214610280578063efab1e501461029c576100e8565b80639f3d07ea146101dc578063a0bc51cf1461020c578063ca2dfd0a1461022a576100e8565b806342714978116100c657806342714978146101565780635f5883ab146101725780636cacbf301461018e5780638da5cb5b146101be576100e8565b8063155eaacf146100ec5780631fa1b60c1461010a57806320ad8cab1461013a575b5f80fd5b6100f46102cc565b60405161010191906120b4565b60405180910390f35b610124600480360381019061011f919061210f565b610357565b6040516101319190612154565b60405180910390f35b610154600480360381019061014f919061210f565b6103ab565b005b610170600480360381019061016b919061210f565b61062d565b005b61018c600480360381019061018791906122a9565b610a3e565b005b6101a860048036038101906101a3919061210f565b610e35565b6040516101b59190612154565b60405180910390f35b6101c6610e87565b6040516101d39190612312565b60405180910390f35b6101f660048036038101906101f1919061210f565b610eac565b6040516102039190612154565b60405180910390f35b610214610eff565b604051610221919061250d565b60405180910390f35b610244600480360381019061023f919061210f565b61119e565b005b61024e61153e565b60405161025b91906120b4565b60405180910390f35b61027e6004803603810190610279919061210f565b6115c9565b005b61029a6004803603810190610295919061252d565b611956565b005b6102b660048036038101906102b1919061210f565b611c4f565b6040516102c391906125fa565b60405180910390f35b6060600380548060200260200160405190810160405280929190818152602001828054801561034d57602002820191905f5260205f20905b815f9054906101000a900473ffffffffffffffffffffffffffffffffffffffff1673ffffffffffffffffffffffffffffffffffffffff1681526020019060010190808311610304575b5050505050905090565b5f805f8373ffffffffffffffffffffffffffffffffffffffff1673ffffffffffffffffffffffffffffffffffffffff1681526020019081526020015f205f0160019054906101000a900460ff169050919050565b60045f9054906101000a900473ffffffffffffffffffffffffffffffffffffffff1673ffffffffffffffffffffffffffffffffffffffff163373ffffffffffffffffffffffffffffffffffffffff161461043a576040517f08c379a00000000000000000000000000000000000000000000000000000000081526004016104319061269a565b60405180910390fd5b5f73ffffffffffffffffffffffffffffffffffffffff168173ffffffffffffffffffffffffffffffffffffffff16036104a8576040517f08c379a000000000000000000000000000000000000000000000000000000000815260040161049f90612702565b60405180910390fd5b60025f8273ffffffffffffffffffffffffffffffffffffffff1673ffffffffffffffffffffffffffffffffffffffff1681526020019081526020015f205f9054906101000a900460ff1615610532576040517f08c379a00000000000000000000000000000000000000000000000000000000081526004016105299061276a565b60405180910390fd5b600160025f8373ffffffffffffffffffffffffffffffffffffffff1673ffffffffffffffffffffffffffffffffffffffff1681526020019081526020015f205f6101000a81548160ff021916908315150217905550600381908060018154018082558091505060019003905f5260205f20015f9091909190916101000a81548173ffffffffffffffffffffffffffffffffffffffff021916908373ffffffffffffffffffffffffffffffffffffffff1602179055508073ffffffffffffffffffffffffffffffffffffffff167f40f8611cb3470e9d255c7ea6d08e5625d635123c46e7c303e5321b1fb69bb8c960405160405180910390a250565b60045f9054906101000a900473ffffffffffffffffffffffffffffffffffffffff1673ffffffffffffffffffffffffffffffffffffffff163373ffffffffffffffffffffffffffffffffffffffff16146106bc576040517f08c379a00000000000000000000000000000000000000000000000000000000081526004016106b39061269a565b60405180910390fd5b5f73ffffffffffffffffffffffffffffffffffffffff168173ffffffffffffffffffffffffffffffffffffffff160361072a576040517f08c379a0000000000000000000000000000000000000000000000000000000008152600401610721906127d2565b60405180910390fd5b5f808273ffffffffffffffffffffffffffffffffffffffff1673ffffffffffffffffffffffffffffffffffffffff1681526020019081526020015f205f015f9054906101000a900460ff166107b4576040517f08c379a00000000000000000000000000000000000000000000000000000000081526004016107ab9061283a565b60405180910390fd5b5f5b600180549050811015610931578173ffffffffffffffffffffffffffffffffffffffff16600182815481106107ee576107ed612858565b5b905f5260205f20015f9054906101000a900473ffffffffffffffffffffffffffffffffffffffff1673ffffffffffffffffffffffffffffffffffffffff160361091e57600180808054905061084391906128b2565b8154811061085457610853612858565b5b905f5260205f20015f9054906101000a900473ffffffffffffffffffffffffffffffffffffffff16600182815481106108905761088f612858565b5b905f5260205f20015f6101000a81548173ffffffffffffffffffffffffffffffffffffffff021916908373ffffffffffffffffffffffffffffffffffffffff16021790555060018054806108e7576108e66128e5565b5b600190038181905f5260205f20015f6101000a81549073ffffffffffffffffffffffffffffffffffffffff02191690559055610931565b808061092990612912565b9150506107b6565b505f808273ffffffffffffffffffffffffffffffffffffffff1673ffffffffffffffffffffffffffffffffffffffff1681526020019081526020015f205f8082015f6101000a81549060ff02191690555f820160016101000a81549060ff02191690555f820160026101000a81549073ffffffffffffffffffffffffffffffffffffffff0219169055600182015f9055600282015f6109d09190611f14565b600382015f6101000a81549073ffffffffffffffffffffffffffffffffffffffff021916905550508073ffffffffffffffffffffffffffffffffffffffff167fba0013628ccb89af5bb18edf764d3a7b35c07b894848b8e6fd3434719de39c7d60405160405180910390a250565b60045f9054906101000a900473ffffffffffffffffffffffffffffffffffffffff1673ffffffffffffffffffffffffffffffffffffffff163373ffffffffffffffffffffffffffffffffffffffff1614610acd576040517f08c379a0000000000000000000000000000000000000000000000000000000008152600401610ac49061269a565b60405180910390fd5b5f73ffffffffffffffffffffffffffffffffffffffff168273ffffffffffffffffffffffffffffffffffffffff1603610b3b576040517f08c379a0000000000000000000000000000000000000000000000000000000008152600401610b32906127d2565b60405180910390fd5b5f808373ffffffffffffffffffffffffffffffffffffffff1673ffffffffffffffffffffffffffffffffffffffff1681526020019081526020015f205f015f9054906101000a900460ff1615610bc6576040517f08c379a0000000000000000000000000000000000000000000000000000000008152600401610bbd906129a3565b60405180910390fd5b5f815111610c09576040517f08c379a0000000000000000000000000000000000000000000000000000000008152600401610c0090612a0b565b60405180910390fd5b6040518060c001604052806001151581526020015f151581526020015f73ffffffffffffffffffffffffffffffffffffffff1681526020015f81526020018281526020018373ffffffffffffffffffffffffffffffffffffffff168152505f808473ffffffffffffffffffffffffffffffffffffffff1673ffffffffffffffffffffffffffffffffffffffff1681526020019081526020015f205f820151815f015f6101000a81548160ff0219169083151502179055506020820151815f0160016101000a81548160ff0219169083151502179055506040820151815f0160026101000a81548173ffffffffffffffffffffffffffffffffffffffff021916908373ffffffffffffffffffffffffffffffffffffffff160217905550606082015181600101556080820151816002019081610d449190612c23565b5060a0820151816003015f6101000a81548173ffffffffffffffffffffffffffffffffffffffff021916908373ffffffffffffffffffffffffffffffffffffffff160217905550905050600182908060018154018082558091505060019003905f5260205f20015f9091909190916101000a81548173ffffffffffffffffffffffffffffffffffffffff021916908373ffffffffffffffffffffffffffffffffffffffff1602179055508173ffffffffffffffffffffffffffffffffffffffff167f01e428601546e19350993364c26c5a618b33ef987abc24525c998748ae96429460405160405180910390a25050565b5f60025f8373ffffffffffffffffffffffffffffffffffffffff1673ffffffffffffffffffffffffffffffffffffffff1681526020019081526020015f205f9054906101000a900460ff169050919050565b60045f9054906101000a900473ffffffffffffffffffffffffffffffffffffffff1681565b5f805f8373ffffffffffffffffffffffffffffffffffffffff1673ffffffffffffffffffffffffffffffffffffffff1681526020019081526020015f205f015f9054906101000a900460ff169050919050565b60605f60018054905067ffffffffffffffff811115610f2157610f20612185565b5b604051908082528060200260200182016040528015610f5a57816020015b610f47611f51565b815260200190600190039081610f3f5790505b5090505f5b600180549050811015611196575f8060018381548110610f8257610f81612858565b5b905f5260205f20015f9054906101000a900473ffffffffffffffffffffffffffffffffffffffff1673ffffffffffffffffffffffffffffffffffffffff1673ffffffffffffffffffffffffffffffffffffffff1681526020019081526020015f206040518060c00160405290815f82015f9054906101000a900460ff161515151581526020015f820160019054906101000a900460ff161515151581526020015f820160029054906101000a900473ffffffffffffffffffffffffffffffffffffffff1673ffffffffffffffffffffffffffffffffffffffff1673ffffffffffffffffffffffffffffffffffffffff1681526020016001820154815260200160028201805461109090612a56565b80601f01602080910402602001604051908101604052809291908181526020018280546110bc90612a56565b80156111075780601f106110de57610100808354040283529160200191611107565b820191905f5260205f20905b8154815290600101906020018083116110ea57829003601f168201915b50505050508152602001600382015f9054906101000a900473ffffffffffffffffffffffffffffffffffffffff1673ffffffffffffffffffffffffffffffffffffffff1673ffffffffffffffffffffffffffffffffffffffff168152505082828151811061117857611177612858565b5b6020026020010181905250808061118e90612912565b915050610f5f565b508091505090565b60045f9054906101000a900473ffffffffffffffffffffffffffffffffffffffff1673ffffffffffffffffffffffffffffffffffffffff163373ffffffffffffffffffffffffffffffffffffffff161461122d576040517f08c379a00000000000000000000000000000000000000000000000000000000081526004016112249061269a565b60405180910390fd5b5f73ffffffffffffffffffffffffffffffffffffffff168173ffffffffffffffffffffffffffffffffffffffff160361129b576040517f08c379a000000000000000000000000000000000000000000000000000000000815260040161129290612702565b60405180910390fd5b60025f8273ffffffffffffffffffffffffffffffffffffffff1673ffffffffffffffffffffffffffffffffffffffff1681526020019081526020015f205f9054906101000a900460ff16611324576040517f08c379a000000000000000000000000000000000000000000000000000000000815260040161131b90612d3c565b60405180910390fd5b5f60025f8373ffffffffffffffffffffffffffffffffffffffff1673ffffffffffffffffffffffffffffffffffffffff1681526020019081526020015f205f6101000a81548160ff0219169083151502179055505f5b6003805490508110156114f7578173ffffffffffffffffffffffffffffffffffffffff16600382815481106113b2576113b1612858565b5b905f5260205f20015f9054906101000a900473ffffffffffffffffffffffffffffffffffffffff1673ffffffffffffffffffffffffffffffffffffffff16036114e4576003600160038054905061140991906128b2565b8154811061141a57611419612858565b5b905f5260205f20015f9054906101000a900473ffffffffffffffffffffffffffffffffffffffff166003828154811061145657611455612858565b5b905f5260205f20015f6101000a81548173ffffffffffffffffffffffffffffffffffffffff021916908373ffffffffffffffffffffffffffffffffffffffff16021790555060038054806114ad576114ac6128e5565b5b600190038181905f5260205f20015f6101000a81549073ffffffffffffffffffffffffffffffffffffffff021916905590556114f7565b80806114ef90612912565b91505061137a565b508073ffffffffffffffffffffffffffffffffffffffff167f44a3cd4eb5cc5748f6169df057b1cb2ae4c383e87cd94663c430e095d4cba42460405160405180910390a250565b606060018054806020026020016040519081016040528092919081815260200182805480156115bf57602002820191905f5260205f20905b815f9054906101000a900473ffffffffffffffffffffffffffffffffffffffff1673ffffffffffffffffffffffffffffffffffffffff1681526020019060010190808311611576575b5050505050905090565b60025f3373ffffffffffffffffffffffffffffffffffffffff1673ffffffffffffffffffffffffffffffffffffffff1681526020019081526020015f205f9054906101000a900460ff16611652576040517f08c379a000000000000000000000000000000000000000000000000000000000815260040161164990612dca565b60405180910390fd5b5f73ffffffffffffffffffffffffffffffffffffffff168173ffffffffffffffffffffffffffffffffffffffff16036116c0576040517f08c379a00000000000000000000000000000000000000000000000000000000081526004016116b7906127d2565b60405180910390fd5b5f808273ffffffffffffffffffffffffffffffffffffffff1673ffffffffffffffffffffffffffffffffffffffff1681526020019081526020015f205f015f9054906101000a900460ff1661174a576040517f08c379a00000000000000000000000000000000000000000000000000000000081526004016117419061283a565b60405180910390fd5b5f808273ffffffffffffffffffffffffffffffffffffffff1673ffffffffffffffffffffffffffffffffffffffff1681526020019081526020015f205f0160019054906101000a900460ff16156117d6576040517f08c379a00000000000000000000000000000000000000000000000000000000081526004016117cd90612e32565b60405180910390fd5b60015f808373ffffffffffffffffffffffffffffffffffffffff1673ffffffffffffffffffffffffffffffffffffffff1681526020019081526020015f205f0160016101000a81548160ff021916908315150217905550335f808373ffffffffffffffffffffffffffffffffffffffff1673ffffffffffffffffffffffffffffffffffffffff1681526020019081526020015f205f0160026101000a81548173ffffffffffffffffffffffffffffffffffffffff021916908373ffffffffffffffffffffffffffffffffffffffff160217905550425f808373ffffffffffffffffffffffffffffffffffffffff1673ffffffffffffffffffffffffffffffffffffffff1681526020019081526020015f20600101819055503373ffffffffffffffffffffffffffffffffffffffff168173ffffffffffffffffffffffffffffffffffffffff167f17fa57e07b9b46d8e06344b5df662a9221c64bf17921f3fe6f138f9ab796c2314260405161194b9190612e5f565b60405180910390a350565b5f803373ffffffffffffffffffffffffffffffffffffffff1673ffffffffffffffffffffffffffffffffffffffff1681526020019081526020015f205f015f9054906101000a900460ff16156119e1576040517f08c379a00000000000000000000000000000000000000000000000000000000081526004016119d8906129a3565b60405180910390fd5b5f815111611a24576040517f08c379a0000000000000000000000000000000000000000000000000000000008152600401611a1b90612a0b565b60405180910390fd5b6040518060c001604052806001151581526020015f151581526020015f73ffffffffffffffffffffffffffffffffffffffff1681526020015f81526020018281526020013373ffffffffffffffffffffffffffffffffffffffff168152505f803373ffffffffffffffffffffffffffffffffffffffff1673ffffffffffffffffffffffffffffffffffffffff1681526020019081526020015f205f820151815f015f6101000a81548160ff0219169083151502179055506020820151815f0160016101000a81548160ff0219169083151502179055506040820151815f0160026101000a81548173ffffffffffffffffffffffffffffffffffffffff021916908373ffffffffffffffffffffffffffffffffffffffff160217905550606082015181600101556080820151816002019081611b5f9190612c23565b5060a0820151816003015f6101000a81548173ffffffffffffffffffffffffffffffffffffffff021916908373ffffffffffffffffffffffffffffffffffffffff160217905550905050600133908060018154018082558091505060019003905f5260205f20015f9091909190916101000a81548173ffffffffffffffffffffffffffffffffffffffff021916908373ffffffffffffffffffffffffffffffffffffffff1602179055503373ffffffffffffffffffffffffffffffffffffffff167f01e428601546e19350993364c26c5a618b33ef987abc24525c998748ae96429460405160405180910390a250565b611c57611f51565b5f73ffffffffffffffffffffffffffffffffffffffff168273ffffffffffffffffffffffffffffffffffffffff1603611cc5576040517f08c379a0000000000000000000000000000000000000000000000000000000008152600401611cbc906127d2565b60405180910390fd5b5f808373ffffffffffffffffffffffffffffffffffffffff1673ffffffffffffffffffffffffffffffffffffffff1681526020019081526020015f205f015f9054906101000a900460ff16611d4f576040517f08c379a0000000000000000000000000000000000000000000000000000000008152600401611d469061283a565b60405180910390fd5b5f808373ffffffffffffffffffffffffffffffffffffffff1673ffffffffffffffffffffffffffffffffffffffff1681526020019081526020015f206040518060c00160405290815f82015f9054906101000a900460ff161515151581526020015f820160019054906101000a900460ff161515151581526020015f820160029054906101000a900473ffffffffffffffffffffffffffffffffffffffff1673ffffffffffffffffffffffffffffffffffffffff1673ffffffffffffffffffffffffffffffffffffffff16815260200160018201548152602001600282018054611e3890612a56565b80601f0160208091040260200160405190810160405280929190818152602001828054611e6490612a56565b8015611eaf5780601f10611e8657610100808354040283529160200191611eaf565b820191905f5260205f20905b815481529060010190602001808311611e9257829003601f168201915b50505050508152602001600382015f9054906101000a900473ffffffffffffffffffffffffffffffffffffffff1673ffffffffffffffffffffffffffffffffffffffff1673ffffffffffffffffffffffffffffffffffffffff16815250509050919050565b508054611f2090612a56565b5f825580601f10611f315750611f4e565b601f0160209004905f5260205f2090810190611f4d9190611fb2565b5b50565b6040518060c001604052805f151581526020015f151581526020015f73ffffffffffffffffffffffffffffffffffffffff1681526020015f8152602001606081526020015f73ffffffffffffffffffffffffffffffffffffffff1681525090565b5b80821115611fc9575f815f905550600101611fb3565b5090565b5f81519050919050565b5f82825260208201905092915050565b5f819050602082019050919050565b5f73ffffffffffffffffffffffffffffffffffffffff82169050919050565b5f61201f82611ff6565b9050919050565b61202f81612015565b82525050565b5f6120408383612026565b60208301905092915050565b5f602082019050919050565b5f61206282611fcd565b61206c8185611fd7565b935061207783611fe7565b805f5b838110156120a757815161208e8882612035565b97506120998361204c565b92505060018101905061207a565b5085935050505092915050565b5f6020820190508181035f8301526120cc8184612058565b905092915050565b5f604051905090565b5f80fd5b5f80fd5b6120ee81612015565b81146120f8575f80fd5b50565b5f81359050612109816120e5565b92915050565b5f60208284031215612124576121236120dd565b5b5f612131848285016120fb565b91505092915050565b5f8115159050919050565b61214e8161213a565b82525050565b5f6020820190506121675f830184612145565b92915050565b5f80fd5b5f80fd5b5f601f19601f8301169050919050565b7f4e487b71000000000000000000000000000000000000000000000000000000005f52604160045260245ffd5b6121bb82612175565b810181811067ffffffffffffffff821117156121da576121d9612185565b5b80604052505050565b5f6121ec6120d4565b90506121f882826121b2565b919050565b5f67ffffffffffffffff82111561221757612216612185565b5b61222082612175565b9050602081019050919050565b828183375f83830152505050565b5f61224d612248846121fd565b6121e3565b90508281526020810184848401111561226957612268612171565b5b61227484828561222d565b509392505050565b5f82601f8301126122905761228f61216d565b5b81356122a084826020860161223b565b91505092915050565b5f80604083850312156122bf576122be6120dd565b5b5f6122cc858286016120fb565b925050602083013567ffffffffffffffff8111156122ed576122ec6120e1565b5b6122f98582860161227c565b9150509250929050565b61230c81612015565b82525050565b5f6020820190506123255f830184612303565b92915050565b5f81519050919050565b5f82825260208201905092915050565b5f819050602082019050919050565b61235d8161213a565b82525050565b5f819050919050565b61237581612363565b82525050565b5f81519050919050565b5f82825260208201905092915050565b5f5b838110156123b2578082015181840152602081019050612397565b5f8484015250505050565b5f6123c78261237b565b6123d18185612385565b93506123e1818560208601612395565b6123ea81612175565b840191505092915050565b5f60c083015f83015161240a5f860182612354565b50602083015161241d6020860182612354565b5060408301516124306040860182612026565b506060830151612443606086018261236c565b506080830151848203608086015261245b82826123bd565b91505060a083015161247060a0860182612026565b508091505092915050565b5f61248683836123f5565b905092915050565b5f602082019050919050565b5f6124a48261232b565b6124ae8185612335565b9350836020820285016124c085612345565b805f5b858110156124fb57848403895281516124dc858261247b565b94506124e78361248e565b925060208a019950506001810190506124c3565b50829750879550505050505092915050565b5f6020820190508181035f830152612525818461249a565b905092915050565b5f60208284031215612542576125416120dd565b5b5f82013567ffffffffffffffff81111561255f5761255e6120e1565b5b61256b8482850161227c565b91505092915050565b5f60c083015f8301516125895f860182612354565b50602083015161259c6020860182612354565b5060408301516125af6040860182612026565b5060608301516125c2606086018261236c565b50608083015184820360808601526125da82826123bd565b91505060a08301516125ef60a0860182612026565b508091505092915050565b5f6020820190508181035f8301526126128184612574565b905092915050565b5f82825260208201905092915050565b7f4f6e6c79206f776e65722063616e2063616c6c20746869732066756e6374696f5f8201527f6e00000000000000000000000000000000000000000000000000000000000000602082015250565b5f61268460218361261a565b915061268f8261262a565b604082019050919050565b5f6020820190508181035f8301526126b181612678565b9050919050565b7f496e76616c6964207665726966696572206164647265737300000000000000005f82015250565b5f6126ec60188361261a565b91506126f7826126b8565b602082019050919050565b5f6020820190508181035f830152612719816126e0565b9050919050565b7f566572696669657220616c726561647920617574686f72697a656400000000005f82015250565b5f612754601b8361261a565b915061275f82612720565b602082019050919050565b5f6020820190508181035f83015261278181612748565b9050919050565b7f496e76616c696420696e766573746f72206164647265737300000000000000005f82015250565b5f6127bc60188361261a565b91506127c782612788565b602082019050919050565b5f6020820190508181035f8301526127e9816127b0565b9050919050565b7f496e766573746f72206e6f7420726567697374657265640000000000000000005f82015250565b5f61282460178361261a565b915061282f826127f0565b602082019050919050565b5f6020820190508181035f83015261285181612818565b9050919050565b7f4e487b71000000000000000000000000000000000000000000000000000000005f52603260045260245ffd5b7f4e487b71000000000000000000000000000000000000000000000000000000005f52601160045260245ffd5b5f6128bc82612363565b91506128c783612363565b92508282039050818111156128df576128de612885565b5b92915050565b7f4e487b71000000000000000000000000000000000000000000000000000000005f52603160045260245ffd5b5f61291c82612363565b91507fffffffffffffffffffffffffffffffffffffffffffffffffffffffffffffffff820361294e5761294d612885565b5b600182019050919050565b7f496e766573746f7220616c7265616479207265676973746572656400000000005f82015250565b5f61298d601b8361261a565b915061299882612959565b602082019050919050565b5f6020820190508181035f8301526129ba81612981565b9050919050565b7f4e616d652063616e6e6f7420626520656d7074790000000000000000000000005f82015250565b5f6129f560148361261a565b9150612a00826129c1565b602082019050919050565b5f6020820190508181035f830152612a22816129e9565b9050919050565b7f4e487b71000000000000000000000000000000000000000000000000000000005f52602260045260245ffd5b5f6002820490506001821680612a6d57607f821691505b602082108103612a8057612a7f612a29565b5b50919050565b5f819050815f5260205f209050919050565b5f6020601f8301049050919050565b5f82821b905092915050565b5f60088302612ae27fffffffffffffffffffffffffffffffffffffffffffffffffffffffffffffffff82612aa7565b612aec8683612aa7565b95508019841693508086168417925050509392505050565b5f819050919050565b5f612b27612b22612b1d84612363565b612b04565b612363565b9050919050565b5f819050919050565b612b4083612b0d565b612b54612b4c82612b2e565b848454612ab3565b825550505050565b5f90565b612b68612b5c565b612b73818484612b37565b505050565b5b81811015612b9657612b8b5f82612b60565b600181019050612b79565b5050565b601f821115612bdb57612bac81612a86565b612bb584612a98565b81016020851015612bc4578190505b612bd8612bd085612a98565b830182612b78565b50505b505050565b5f82821c905092915050565b5f612bfb5f1984600802612be0565b1980831691505092915050565b5f612c138383612bec565b9150826002028217905092915050565b612c2c8261237b565b67ffffffffffffffff811115612c4557612c44612185565b5b612c4f8254612a56565b612c5a828285612b9a565b5f60209050601f831160018114612c8b575f8415612c79578287015190505b612c838582612c08565b865550612cea565b601f198416612c9986612a86565b5f5b82811015612cc057848901518255600182019150602085019450602081019050612c9b565b86831015612cdd5784890151612cd9601f891682612bec565b8355505b6001600288020188555050505b505050505050565b7f5665726966696572206e6f7420617574686f72697a65640000000000000000005f82015250565b5f612d2660178361261a565b9150612d3182612cf2565b602082019050919050565b5f6020820190508181035f830152612d5381612d1a565b9050919050565b7f4f6e6c7920617574686f72697a6564207665726966696572732063616e2063615f8201527f6c6c20746869732066756e6374696f6e00000000000000000000000000000000602082015250565b5f612db460308361261a565b9150612dbf82612d5a565b604082019050919050565b5f6020820190508181035f830152612de181612da8565b9050919050565b7f496e766573746f7220616c7265616479207665726966696564000000000000005f82015250565b5f612e1c60198361261a565b9150612e2782612de8565b602082019050919050565b5f6020820190508181035f830152612e4981612e10565b9050919050565b612e5981612363565b82525050565b5f602082019050612e725f830184612e50565b9291505056fea2646970667358221220c1d6323a646345d76908ed4849e5f5804422c0587fb5cd3eb6759d38068f622e64736f6c63430008140033",
  "immutableReferences": {},
  "source": "// SPDX-License-Identifier: MIT\npragma solidity ^0.8.0;\n\ncontract InvestorRegistry {\n    // Struct to store investor verification details\n    struct InvestorDetails {\n        bool isRegistered;\n        bool isVerified;\n        address verifier;\n        uint256 verificationTimestamp;\n        string name;\n        address investor;\n    }\n\n    // Mapping to store registered investors and their details\n    mapping(address => InvestorDetails) private investors;\n    \n    // Array to store all investor addresses\n    address[] private investorList;\n    \n    // Mapping of authorized third-party verifiers\n    mapping(address => bool) private authorizedVerifiers;\n    \n    // Array to store all verifier addresses\n    address[] private verifierList;\n    \n    // Owner of the contract\n    address public owner;\n    \n    // Events\n    event InvestorRegistered(address indexed investor);\n    event InvestorRemoved(address indexed investor);\n    event VerifierAuthorized(address indexed verifier);\n    event VerifierRemoved(address indexed verifier);\n    event InvestorVerified(address indexed investor, address indexed verifier, uint256 timestamp);\n    \n    constructor() {\n        owner = msg.sender;\n    }\n    \n    // Modifiers\n    modifier onlyOwner() {\n        require(msg.sender == owner, \"Only owner can call this function\");\n        _;\n    }\n    \n    modifier onlyAuthorizedVerifier() {\n        require(authorizedVerifiers[msg.sender], \"Only authorized verifiers can call this function\");\n        _;\n    }\n    \n    // Owner functions to manage verifiers\n    function authorizeVerifier(address verifier) external onlyOwner {\n        require(verifier != address(0), \"Invalid verifier address\");\n        require(!authorizedVerifiers[verifier], \"Verifier already authorized\");\n        \n        authorizedVerifiers[verifier] = true;\n        verifierList.push(verifier);\n        emit VerifierAuthorized(verifier);\n    }\n    \n    function removeVerifier(address verifier) external onlyOwner {\n        require(verifier != address(0), \"Invalid verifier address\");\n        require(authorizedVerifiers[verifier], \"Verifier not authorized\");\n        \n        authorizedVerifiers[verifier] = false;\n        \n        // Remove from verifierList array\n        for(uint i = 0; i < verifierList.length; i++) {\n            if(verifierList[i] == verifier) {\n                verifierList[i] = verifierList[verifierList.length - 1];\n                verifierList.pop();\n                break;\n            }\n        }\n        \n        emit VerifierRemoved(verifier);\n    }\n    \n    // Register a new investor - can be called by anyone to register themselves\n    function registerInvestor(string memory name) external {\n        require(!investors[msg.sender].isRegistered, \"Investor already registered\");\n        require(bytes(name).length > 0, \"Name cannot be empty\");\n        \n        investors[msg.sender] = InvestorDetails({\n            isRegistered: true,\n            isVerified: false,\n            verifier: address(0),\n            verificationTimestamp: 0,\n            name: name,\n            investor: msg.sender\n        });\n        \n        investorList.push(msg.sender);\n        emit InvestorRegistered(msg.sender);\n    }\n\n    // Register another investor - only owner can register others\n    function registerInvestorByOwner(address investor, string memory name) external onlyOwner {\n        require(investor != address(0), \"Invalid investor address\");\n        require(!investors[investor].isRegistered, \"Investor already registered\");\n        require(bytes(name).length > 0, \"Name cannot be empty\");\n        \n        investors[investor] = InvestorDetails({\n            isRegistered: true,\n            isVerified: false,\n            verifier: address(0),\n            verificationTimestamp: 0,\n            name: name,\n            investor: investor\n        });\n        \n        investorList.push(investor);\n        emit InvestorRegistered(investor);\n    }\n    \n    // Remove an investor\n    function removeInvestor(address investor) external onlyOwner {\n        require(investor != address(0), \"Invalid investor address\");\n        require(investors[investor].isRegistered, \"Investor not registered\");\n        \n        // Remove from investorList array\n        for(uint i = 0; i < investorList.length; i++) {\n            if(investorList[i] == investor) {\n                investorList[i] = investorList[investorList.length - 1];\n                investorList.pop();\n                break;\n            }\n        }\n        \n        delete investors[investor];\n        emit InvestorRemoved(investor);\n    }\n    \n    // Verify an investor (only callable by authorized verifiers)\n    function verifyInvestor(address investor) external onlyAuthorizedVerifier {\n        require(investor != address(0), \"Invalid investor address\");\n        require(investors[investor].isRegistered, \"Investor not registered\");\n        require(!investors[investor].isVerified, \"Investor already verified\");\n        \n        investors[investor].isVerified = true;\n        investors[investor].verifier = msg.sender;\n        investors[investor].verificationTimestamp = block.timestamp;\n        \n        emit InvestorVerified(investor, msg.sender, block.timestamp);\n    }\n    \n    // View functions\n    function isRegisteredInvestor(address investor) external view returns (bool) {\n        return investors[investor].isRegistered;\n    }\n    \n    function isVerifiedInvestor(address investor) external view returns (bool) {\n        return investors[investor].isVerified;\n    }\n    \n    function getInvestorDetails(address investor) external view returns (InvestorDetails memory) {\n        require(investor != address(0), \"Invalid investor address\");\n        require(investors[investor].isRegistered, \"Investor not registered\");\n        return investors[investor];\n    }\n    \n    function isAuthorizedVerifier(address verifier) external view returns (bool) {\n        return authorizedVerifiers[verifier];\n    }\n\n    // Get all investors\n    function getAllInvestors() external view returns (address[] memory) {\n        return investorList;\n    }\n\n    // Get all investors with their details\n    function getAllInvestorsDetails() external view returns (InvestorDetails[] memory) {\n        InvestorDetails[] memory allInvestors = new InvestorDetails[](investorList.length);\n        for(uint i = 0; i < investorList.length; i++) {\n            allInvestors[i] = investors[investorList[i]];\n        }\n        return allInvestors;\n    }\n\n    // Get all authorized verifiers\n    function getAuthorizedVerifiers() external view returns (address[] memory) {\n        return verifierList;\n    }\n}\n",
  "sourcePath": "/Users/johngulbronson/DetroitArt/gods.work/apps/web3/contracts/InvestorRegistry.sol",
  "compiler": {
    "name": "solc",
    "version": "0.8.20+commit.a1b79de6.Emscripten.clang"
  },
  "schemaVersion": "3.4.16",
  "updatedAt": "2024-11-28T16:32:41.576Z",
  "devdoc": {
    "kind": "dev",
    "methods": {},
    "version": 1
  },
  "userdoc": {
    "kind": "user",
    "methods": {},
    "version": 1
  }
}