{
  "contractName": "RealEstateProperty",
  "abi": [
    {
      "inputs": [],
      "stateMutability": "nonpayable",
      "type": "constructor"
    },
    {
      "inputs": [
        {
          "internalType": "address",
          "name": "sender",
          "type": "address"
        },
        {
          "internalType": "uint256",
          "name": "tokenId",
          "type": "uint256"
        },
        {
          "internalType": "address",
          "name": "owner",
          "type": "address"
        }
      ],
      "name": "ERC721IncorrectOwner",
      "type": "error"
    },
    {
      "inputs": [
        {
          "internalType": "address",
          "name": "operator",
          "type": "address"
        },
        {
          "internalType": "uint256",
          "name": "tokenId",
          "type": "uint256"
        }
      ],
      "name": "ERC721InsufficientApproval",
      "type": "error"
    },
    {
      "inputs": [
        {
          "internalType": "address",
          "name": "approver",
          "type": "address"
        }
      ],
      "name": "ERC721InvalidApprover",
      "type": "error"
    },
    {
      "inputs": [
        {
          "internalType": "address",
          "name": "operator",
          "type": "address"
        }
      ],
      "name": "ERC721InvalidOperator",
      "type": "error"
    },
    {
      "inputs": [
        {
          "internalType": "address",
          "name": "owner",
          "type": "address"
        }
      ],
      "name": "ERC721InvalidOwner",
      "type": "error"
    },
    {
      "inputs": [
        {
          "internalType": "address",
          "name": "receiver",
          "type": "address"
        }
      ],
      "name": "ERC721InvalidReceiver",
      "type": "error"
    },
    {
      "inputs": [
        {
          "internalType": "address",
          "name": "sender",
          "type": "address"
        }
      ],
      "name": "ERC721InvalidSender",
      "type": "error"
    },
    {
      "inputs": [
        {
          "internalType": "uint256",
          "name": "tokenId",
          "type": "uint256"
        }
      ],
      "name": "ERC721NonexistentToken",
      "type": "error"
    },
    {
      "anonymous": false,
      "inputs": [
        {
          "indexed": true,
          "internalType": "address",
          "name": "owner",
          "type": "address"
        },
        {
          "indexed": true,
          "internalType": "address",
          "name": "approved",
          "type": "address"
        },
        {
          "indexed": true,
          "internalType": "uint256",
          "name": "tokenId",
          "type": "uint256"
        }
      ],
      "name": "Approval",
      "type": "event"
    },
    {
      "anonymous": false,
      "inputs": [
        {
          "indexed": true,
          "internalType": "address",
          "name": "owner",
          "type": "address"
        },
        {
          "indexed": true,
          "internalType": "address",
          "name": "operator",
          "type": "address"
        },
        {
          "indexed": false,
          "internalType": "bool",
          "name": "approved",
          "type": "bool"
        }
      ],
      "name": "ApprovalForAll",
      "type": "event"
    },
    {
      "anonymous": false,
      "inputs": [
        {
          "indexed": false,
          "internalType": "uint256",
          "name": "propertyId",
          "type": "uint256"
        },
        {
          "indexed": false,
          "internalType": "string",
          "name": "location",
          "type": "string"
        },
        {
          "indexed": false,
          "internalType": "string",
          "name": "description",
          "type": "string"
        },
        {
          "indexed": false,
          "internalType": "string",
          "name": "ipfsHash",
          "type": "string"
        }
      ],
      "name": "PropertyListed",
      "type": "event"
    },
    {
      "anonymous": false,
      "inputs": [
        {
          "indexed": false,
          "internalType": "uint256",
          "name": "propertyId",
          "type": "uint256"
        },
        {
          "indexed": false,
          "internalType": "uint256",
          "name": "totalShares",
          "type": "uint256"
        }
      ],
      "name": "SharesMinted",
      "type": "event"
    },
    {
      "anonymous": false,
      "inputs": [
        {
          "indexed": false,
          "internalType": "uint256",
          "name": "propertyId",
          "type": "uint256"
        },
        {
          "indexed": false,
          "internalType": "address",
          "name": "from",
          "type": "address"
        },
        {
          "indexed": false,
          "internalType": "address",
          "name": "to",
          "type": "address"
        },
        {
          "indexed": false,
          "internalType": "uint256",
          "name": "shares",
          "type": "uint256"
        }
      ],
      "name": "SharesTransferred",
      "type": "event"
    },
    {
      "anonymous": false,
      "inputs": [
        {
          "indexed": true,
          "internalType": "address",
          "name": "from",
          "type": "address"
        },
        {
          "indexed": true,
          "internalType": "address",
          "name": "to",
          "type": "address"
        },
        {
          "indexed": true,
          "internalType": "uint256",
          "name": "tokenId",
          "type": "uint256"
        }
      ],
      "name": "Transfer",
      "type": "event"
    },
    {
      "inputs": [
        {
          "internalType": "address",
          "name": "to",
          "type": "address"
        },
        {
          "internalType": "uint256",
          "name": "tokenId",
          "type": "uint256"
        }
      ],
      "name": "approve",
      "outputs": [],
      "stateMutability": "nonpayable",
      "type": "function"
    },
    {
      "inputs": [
        {
          "internalType": "address",
          "name": "owner",
          "type": "address"
        }
      ],
      "name": "balanceOf",
      "outputs": [
        {
          "internalType": "uint256",
          "name": "",
          "type": "uint256"
        }
      ],
      "stateMutability": "view",
      "type": "function"
    },
    {
      "inputs": [
        {
          "internalType": "uint256",
          "name": "tokenId",
          "type": "uint256"
        }
      ],
      "name": "getApproved",
      "outputs": [
        {
          "internalType": "address",
          "name": "",
          "type": "address"
        }
      ],
      "stateMutability": "view",
      "type": "function"
    },
    {
      "inputs": [
        {
          "internalType": "address",
          "name": "owner",
          "type": "address"
        },
        {
          "internalType": "address",
          "name": "operator",
          "type": "address"
        }
      ],
      "name": "isApprovedForAll",
      "outputs": [
        {
          "internalType": "bool",
          "name": "",
          "type": "bool"
        }
      ],
      "stateMutability": "view",
      "type": "function"
    },
    {
      "inputs": [],
      "name": "name",
      "outputs": [
        {
          "internalType": "string",
          "name": "",
          "type": "string"
        }
      ],
      "stateMutability": "view",
      "type": "function"
    },
    {
      "inputs": [
        {
          "internalType": "uint256",
          "name": "tokenId",
          "type": "uint256"
        }
      ],
      "name": "ownerOf",
      "outputs": [
        {
          "internalType": "address",
          "name": "",
          "type": "address"
        }
      ],
      "stateMutability": "view",
      "type": "function"
    },
    {
      "inputs": [
        {
          "internalType": "uint256",
          "name": "",
          "type": "uint256"
        }
      ],
      "name": "properties",
      "outputs": [
        {
          "internalType": "uint256",
          "name": "id",
          "type": "uint256"
        },
        {
          "internalType": "string",
          "name": "location",
          "type": "string"
        },
        {
          "internalType": "string",
          "name": "description",
          "type": "string"
        },
        {
          "internalType": "string",
          "name": "ipfsHash",
          "type": "string"
        },
        {
          "internalType": "uint256",
          "name": "totalShares",
          "type": "uint256"
        }
      ],
      "stateMutability": "view",
      "type": "function"
    },
    {
      "inputs": [],
      "name": "propertyCounter",
      "outputs": [
        {
          "internalType": "uint256",
          "name": "",
          "type": "uint256"
        }
      ],
      "stateMutability": "view",
      "type": "function"
    },
    {
      "inputs": [
        {
          "internalType": "address",
          "name": "from",
          "type": "address"
        },
        {
          "internalType": "address",
          "name": "to",
          "type": "address"
        },
        {
          "internalType": "uint256",
          "name": "tokenId",
          "type": "uint256"
        }
      ],
      "name": "safeTransferFrom",
      "outputs": [],
      "stateMutability": "nonpayable",
      "type": "function"
    },
    {
      "inputs": [
        {
          "internalType": "address",
          "name": "from",
          "type": "address"
        },
        {
          "internalType": "address",
          "name": "to",
          "type": "address"
        },
        {
          "internalType": "uint256",
          "name": "tokenId",
          "type": "uint256"
        },
        {
          "internalType": "bytes",
          "name": "data",
          "type": "bytes"
        }
      ],
      "name": "safeTransferFrom",
      "outputs": [],
      "stateMutability": "nonpayable",
      "type": "function"
    },
    {
      "inputs": [
        {
          "internalType": "address",
          "name": "operator",
          "type": "address"
        },
        {
          "internalType": "bool",
          "name": "approved",
          "type": "bool"
        }
      ],
      "name": "setApprovalForAll",
      "outputs": [],
      "stateMutability": "nonpayable",
      "type": "function"
    },
    {
      "inputs": [
        {
          "internalType": "bytes4",
          "name": "interfaceId",
          "type": "bytes4"
        }
      ],
      "name": "supportsInterface",
      "outputs": [
        {
          "internalType": "bool",
          "name": "",
          "type": "bool"
        }
      ],
      "stateMutability": "view",
      "type": "function"
    },
    {
      "inputs": [],
      "name": "symbol",
      "outputs": [
        {
          "internalType": "string",
          "name": "",
          "type": "string"
        }
      ],
      "stateMutability": "view",
      "type": "function"
    },
    {
      "inputs": [
        {
          "internalType": "uint256",
          "name": "tokenId",
          "type": "uint256"
        }
      ],
      "name": "tokenURI",
      "outputs": [
        {
          "internalType": "string",
          "name": "",
          "type": "string"
        }
      ],
      "stateMutability": "view",
      "type": "function"
    },
    {
      "inputs": [
        {
          "internalType": "address",
          "name": "from",
          "type": "address"
        },
        {
          "internalType": "address",
          "name": "to",
          "type": "address"
        },
        {
          "internalType": "uint256",
          "name": "tokenId",
          "type": "uint256"
        }
      ],
      "name": "transferFrom",
      "outputs": [],
      "stateMutability": "nonpayable",
      "type": "function"
    },
    {
      "inputs": [
        {
          "internalType": "address",
          "name": "owner",
          "type": "address"
        },
        {
          "internalType": "string",
          "name": "location",
          "type": "string"
        },
        {
          "internalType": "string",
          "name": "description",
          "type": "string"
        },
        {
          "internalType": "string",
          "name": "ipfsHash",
          "type": "string"
        }
      ],
      "name": "mintProperty",
      "outputs": [],
      "stateMutability": "nonpayable",
      "type": "function"
    },
    {
      "inputs": [
        {
          "internalType": "uint256",
          "name": "propertyId",
          "type": "uint256"
        },
        {
          "internalType": "uint256",
          "name": "totalShares",
          "type": "uint256"
        }
      ],
      "name": "mintShares",
      "outputs": [],
      "stateMutability": "nonpayable",
      "type": "function"
    },
    {
      "inputs": [
        {
          "internalType": "uint256",
          "name": "propertyId",
          "type": "uint256"
        },
        {
          "internalType": "address",
          "name": "to",
          "type": "address"
        },
        {
          "internalType": "uint256",
          "name": "shares",
          "type": "uint256"
        }
      ],
      "name": "transferShares",
      "outputs": [],
      "stateMutability": "nonpayable",
      "type": "function"
    },
    {
      "inputs": [
        {
          "internalType": "uint256",
          "name": "propertyId",
          "type": "uint256"
        },
        {
          "internalType": "address",
          "name": "owner",
          "type": "address"
        }
      ],
      "name": "getSharesOwned",
      "outputs": [
        {
          "internalType": "uint256",
          "name": "",
          "type": "uint256"
        }
      ],
      "stateMutability": "view",
      "type": "function"
    },
    {
      "inputs": [
        {
          "internalType": "address",
          "name": "user",
          "type": "address"
        }
      ],
      "name": "getUserPropertiesWithShares",
      "outputs": [
        {
          "internalType": "uint256[]",
          "name": "",
          "type": "uint256[]"
        },
        {
          "internalType": "uint256[]",
          "name": "",
          "type": "uint256[]"
        }
      ],
      "stateMutability": "view",
      "type": "function"
    },
    {
      "inputs": [
        {
          "internalType": "uint256",
          "name": "propertyId",
          "type": "uint256"
        }
      ],
      "name": "getProperty",
      "outputs": [
        {
          "internalType": "address",
          "name": "owner",
          "type": "address"
        },
        {
          "internalType": "string",
          "name": "location",
          "type": "string"
        },
        {
          "internalType": "string",
          "name": "description",
          "type": "string"
        },
        {
          "internalType": "string",
          "name": "ipfsHash",
          "type": "string"
        },
        {
          "internalType": "uint256",
          "name": "totalShares",
          "type": "uint256"
        },
        {
          "internalType": "address[]",
          "name": "stakeholders",
          "type": "address[]"
        },
        {
          "internalType": "uint256[]",
          "name": "shares",
          "type": "uint256[]"
        }
      ],
      "stateMutability": "view",
      "type": "function"
    },
    {
      "inputs": [],
      "name": "getProperties",
      "outputs": [
        {
          "components": [
            {
              "internalType": "uint256",
              "name": "id",
              "type": "uint256"
            },
            {
              "internalType": "string",
              "name": "location",
              "type": "string"
            },
            {
              "internalType": "string",
              "name": "description",
              "type": "string"
            },
            {
              "internalType": "string",
              "name": "ipfsHash",
              "type": "string"
            },
            {
              "internalType": "uint256",
              "name": "totalShares",
              "type": "uint256"
            },
            {
              "internalType": "uint256",
              "name": "numberOfStakeholders",
              "type": "uint256"
            }
          ],
          "internalType": "struct RealEstateProperty.PropertyView[]",
          "name": "",
          "type": "tuple[]"
        }
      ],
      "stateMutability": "view",
      "type": "function"
    },
    {
      "inputs": [
        {
          "internalType": "address",
          "name": "to",
          "type": "address"
        },
        {
          "internalType": "uint256",
          "name": "propertyId",
          "type": "uint256"
        }
      ],
      "name": "transferProperty",
      "outputs": [],
      "stateMutability": "nonpayable",
      "type": "function"
    }
  ],
  "bytecode": "0x608060405234801562000010575f80fd5b506040518060400160405280601281526020017f5265616c45737461746550726f706572747900000000000000000000000000008152506040518060400160405280600681526020017f524550524f500000000000000000000000000000000000000000000000000000815250815f90816200008d91906200030c565b5080600190816200009f91906200030c565b505050620003f0565b5f81519050919050565b7f4e487b71000000000000000000000000000000000000000000000000000000005f52604160045260245ffd5b7f4e487b71000000000000000000000000000000000000000000000000000000005f52602260045260245ffd5b5f60028204905060018216806200012457607f821691505b6020821081036200013a5762000139620000df565b5b50919050565b5f819050815f5260205f209050919050565b5f6020601f8301049050919050565b5f82821b905092915050565b5f600883026200019e7fffffffffffffffffffffffffffffffffffffffffffffffffffffffffffffffff8262000161565b620001aa868362000161565b95508019841693508086168417925050509392505050565b5f819050919050565b5f819050919050565b5f620001f4620001ee620001e884620001c2565b620001cb565b620001c2565b9050919050565b5f819050919050565b6200020f83620001d4565b620002276200021e82620001fb565b8484546200016d565b825550505050565b5f90565b6200023d6200022f565b6200024a81848462000204565b505050565b5b818110156200027157620002655f8262000233565b60018101905062000250565b5050565b601f821115620002c0576200028a8162000140565b620002958462000152565b81016020851015620002a5578190505b620002bd620002b48562000152565b8301826200024f565b50505b505050565b5f82821c905092915050565b5f620002e25f1984600802620002c5565b1980831691505092915050565b5f620002fc8383620002d1565b9150826002028217905092915050565b6200031782620000a8565b67ffffffffffffffff811115620003335762000332620000b2565b5b6200033f82546200010c565b6200034c82828562000275565b5f60209050601f83116001811462000382575f84156200036d578287015190505b620003798582620002ef565b865550620003e8565b601f198416620003928662000140565b5f5b82811015620003bb5784890151825560018201915060208501945060208101905062000394565b86831015620003db5784890151620003d7601f891682620002d1565b8355505b6001600288020188555050505b505050505050565b613dee80620003fe5f395ff3fe608060405234801561000f575f80fd5b506004361061014b575f3560e01c806395d89b41116100c1578063e34378881161007a578063e3437888146103c4578063e7ebadfe146103e0578063e985e9c514610410578063ec0cfd0b14610440578063f644c3181461045e578063f7b108081461047a5761014b565b806395d89b4114610304578063a22cb46514610322578063a2bc47db1461033e578063b88d4fde1461035a578063c87b56dd14610376578063d090e47e146103a65761014b565b806323b872dd1161011357806323b872dd1461021a57806332665ffb1461023657806342842e0e1461026c5780636352211e1461028857806370a08231146102b857806384b9a6e6146102e85761014b565b806301ffc9a71461014f57806306fdde031461017f578063081812fc1461019d578063095ea7b3146101cd57806312b708b4146101e9575b5f80fd5b6101696004803603810190610164919061295e565b6104ae565b60405161017691906129a3565b60405180910390f35b61018761058f565b6040516101949190612a46565b60405180910390f35b6101b760048036038101906101b29190612a99565b61061e565b6040516101c49190612b03565b60405180910390f35b6101e760048036038101906101e29190612b46565b610639565b005b61020360048036038101906101fe9190612b84565b61064f565b604051610211929190612c66565b60405180910390f35b610234600480360381019061022f9190612c9b565b610852565b005b610250600480360381019061024b9190612a99565b610951565b6040516102639796959493929190612db1565b60405180910390f35b61028660048036038101906102819190612c9b565b610ce3565b005b6102a2600480360381019061029d9190612a99565b610d02565b6040516102af9190612b03565b60405180910390f35b6102d260048036038101906102cd9190612b84565b610d13565b6040516102df9190612e41565b60405180910390f35b61030260048036038101906102fd9190612e5a565b610dc9565b005b61030c611073565b6040516103199190612a46565b60405180910390f35b61033c60048036038101906103379190612ed4565b611103565b005b6103586004803603810190610353919061303e565b611119565b005b610374600480360381019061036f9190613194565b61128a565b005b610390600480360381019061038b9190612a99565b6112af565b60405161039d9190612a46565b60405180910390f35b6103ae611315565b6040516103bb9190612e41565b60405180910390f35b6103de60048036038101906103d99190613214565b61131b565b005b6103fa60048036038101906103f59190613252565b611491565b6040516104079190612e41565b60405180910390f35b61042a60048036038101906104259190613290565b6114ea565b60405161043791906129a3565b60405180910390f35b610448611578565b6040516104559190613465565b60405180910390f35b61047860048036038101906104739190612b46565b611814565b005b610494600480360381019061048f9190612a99565b611899565b6040516104a5959493929190613485565b60405180910390f35b5f7f80ac58cd000000000000000000000000000000000000000000000000000000007bffffffffffffffffffffffffffffffffffffffffffffffffffffffff1916827bffffffffffffffffffffffffffffffffffffffffffffffffffffffff1916148061057857507f5b5e139f000000000000000000000000000000000000000000000000000000007bffffffffffffffffffffffffffffffffffffffffffffffffffffffff1916827bffffffffffffffffffffffffffffffffffffffffffffffffffffffff1916145b80610588575061058782611a5d565b5b9050919050565b60605f805461059d90613518565b80601f01602080910402602001604051908101604052809291908181526020018280546105c990613518565b80156106145780601f106105eb57610100808354040283529160200191610614565b820191905f5260205f20905b8154815290600101906020018083116105f757829003601f168201915b5050505050905090565b5f61062882611ac6565b5061063282611b4c565b9050919050565b61064b8282610646611b85565b611b8c565b5050565b6060805f80600190505b60075481116106db575f60065f8381526020019081526020015f206005015f8773ffffffffffffffffffffffffffffffffffffffff1673ffffffffffffffffffffffffffffffffffffffff1681526020019081526020015f205411156106c85781806106c490613575565b9250505b80806106d390613575565b915050610659565b505f8167ffffffffffffffff8111156106f7576106f6612f1a565b5b6040519080825280602002602001820160405280156107255781602001602082028036833780820191505090505b5090505f8267ffffffffffffffff81111561074357610742612f1a565b5b6040519080825280602002602001820160405280156107715781602001602082028036833780820191505090505b5090505f80600190505b6007548111610842575f60065f8381526020019081526020015f206005015f8a73ffffffffffffffffffffffffffffffffffffffff1673ffffffffffffffffffffffffffffffffffffffff1681526020019081526020015f205490505f81111561082e57818584815181106107f3576107f26135bc565b5b60200260200101818152505080848481518110610813576108126135bc565b5b602002602001018181525050828061082a90613575565b9350505b50808061083a90613575565b91505061077b565b5082829550955050505050915091565b5f73ffffffffffffffffffffffffffffffffffffffff168273ffffffffffffffffffffffffffffffffffffffff16036108c2575f6040517f64a0ae920000000000000000000000000000000000000000000000000000000081526004016108b99190612b03565b60405180910390fd5b5f6108d583836108d0611b85565b611b9e565b90508373ffffffffffffffffffffffffffffffffffffffff168173ffffffffffffffffffffffffffffffffffffffff161461094b578382826040517f64283d7b000000000000000000000000000000000000000000000000000000008152600401610942939291906135e9565b60405180910390fd5b50505050565b5f60608060605f6060805f60065f8a81526020019081526020015f2090505f816006018054905090505f8167ffffffffffffffff81111561099557610994612f1a565b5b6040519080825280602002602001820160405280156109c35781602001602082028036833780820191505090505b5090505f5b82811015610a84575f8460060182815481106109e7576109e66135bc565b5b905f5260205f20015f9054906101000a900473ffffffffffffffffffffffffffffffffffffffff169050846005015f8273ffffffffffffffffffffffffffffffffffffffff1673ffffffffffffffffffffffffffffffffffffffff1681526020019081526020015f2054838381518110610a6457610a636135bc565b5b602002602001018181525050508080610a7c90613575565b9150506109c8565b50610a8e8b610d02565b83600101846002018560030186600401548760060186858054610ab090613518565b80601f0160208091040260200160405190810160405280929190818152602001828054610adc90613518565b8015610b275780601f10610afe57610100808354040283529160200191610b27565b820191905f5260205f20905b815481529060010190602001808311610b0a57829003601f168201915b50505050509550848054610b3a90613518565b80601f0160208091040260200160405190810160405280929190818152602001828054610b6690613518565b8015610bb15780601f10610b8857610100808354040283529160200191610bb1565b820191905f5260205f20905b815481529060010190602001808311610b9457829003601f168201915b50505050509450838054610bc490613518565b80601f0160208091040260200160405190810160405280929190818152602001828054610bf090613518565b8015610c3b5780601f10610c1257610100808354040283529160200191610c3b565b820191905f5260205f20905b815481529060010190602001808311610c1e57829003601f168201915b5050505050935081805480602002602001604051908101604052809291908181526020018280548015610cc057602002820191905f5260205f20905b815f9054906101000a900473ffffffffffffffffffffffffffffffffffffffff1673ffffffffffffffffffffffffffffffffffffffff1681526020019060010190808311610c77575b505050505091509950995099509950995099509950505050919395979092949650565b610cfd83838360405180602001604052805f81525061128a565b505050565b5f610d0c82611ac6565b9050919050565b5f8073ffffffffffffffffffffffffffffffffffffffff168273ffffffffffffffffffffffffffffffffffffffff1603610d84575f6040517f89c62b64000000000000000000000000000000000000000000000000000000008152600401610d7b9190612b03565b60405180910390fd5b60035f8373ffffffffffffffffffffffffffffffffffffffff1673ffffffffffffffffffffffffffffffffffffffff1681526020019081526020015f20549050919050565b8060065f8581526020019081526020015f206005015f3373ffffffffffffffffffffffffffffffffffffffff1673ffffffffffffffffffffffffffffffffffffffff1681526020019081526020015f20541015610e5b576040517f08c379a0000000000000000000000000000000000000000000000000000000008152600401610e5290613668565b60405180910390fd5b5f73ffffffffffffffffffffffffffffffffffffffff168273ffffffffffffffffffffffffffffffffffffffff1603610ec9576040517f08c379a0000000000000000000000000000000000000000000000000000000008152600401610ec0906136d0565b60405180910390fd5b5f60065f8581526020019081526020015f2090505f816005015f8573ffffffffffffffffffffffffffffffffffffffff1673ffffffffffffffffffffffffffffffffffffffff1681526020019081526020015f205403610f86578060060183908060018154018082558091505060019003905f5260205f20015f9091909190916101000a81548173ffffffffffffffffffffffffffffffffffffffff021916908373ffffffffffffffffffffffffffffffffffffffff1602179055505b81816005015f3373ffffffffffffffffffffffffffffffffffffffff1673ffffffffffffffffffffffffffffffffffffffff1681526020019081526020015f205f828254610fd491906136ee565b9250508190555081816005015f8573ffffffffffffffffffffffffffffffffffffffff1673ffffffffffffffffffffffffffffffffffffffff1681526020019081526020015f205f8282546110299190613721565b925050819055507f78dc4ab325d618a4100f0b44da2f25725cd94b780060f6b9e87065e9c0b12ebd843385856040516110659493929190613754565b60405180910390a150505050565b60606001805461108290613518565b80601f01602080910402602001604051908101604052809291908181526020018280546110ae90613518565b80156110f95780601f106110d0576101008083540402835291602001916110f9565b820191905f5260205f20905b8154815290600101906020018083116110dc57829003601f168201915b5050505050905090565b61111561110e611b85565b8383611da9565b5050565b60075f81548092919061112b90613575565b91905055505f60075490505f60065f8381526020019081526020015f20905081815f0181905550848160010190816111639190613934565b50828160030190816111759190613934565b50838160020190816111879190613934565b506103e881600401819055506103e8816005015f8873ffffffffffffffffffffffffffffffffffffffff1673ffffffffffffffffffffffffffffffffffffffff1681526020019081526020015f20819055508060060186908060018154018082558091505060019003905f5260205f20015f9091909190916101000a81548173ffffffffffffffffffffffffffffffffffffffff021916908373ffffffffffffffffffffffffffffffffffffffff1602179055506112458683611f12565b7f5bef73c88db9e51f4b152de8382836dea7a081364997ff088736c3e30f05fa458286868660405161127a9493929190613a03565b60405180910390a1505050505050565b611295848484610852565b6112a96112a0611b85565b85858585612005565b50505050565b60606112ba82611ac6565b505f6112c46121b1565b90505f8151116112e25760405180602001604052805f81525061130d565b806112ec846121c7565b6040516020016112fd929190613a95565b6040516020818303038152906040525b915050919050565b60075481565b3373ffffffffffffffffffffffffffffffffffffffff1661133b83610d02565b73ffffffffffffffffffffffffffffffffffffffff1614611391576040517f08c379a000000000000000000000000000000000000000000000000000000000815260040161138890613b28565b60405180910390fd5b5f60065f8481526020019081526020015f2060040154146113e7576040517f08c379a00000000000000000000000000000000000000000000000000000000081526004016113de90613bb6565b60405180910390fd5b8060065f8481526020019081526020015f20600401819055508060065f8481526020019081526020015f206005015f3373ffffffffffffffffffffffffffffffffffffffff1673ffffffffffffffffffffffffffffffffffffffff1681526020019081526020015f20819055507f0a7d587acc3bafe631c58ed4a25eda1e905acfb47594d1b86b332ae63df225948282604051611485929190613bd4565b60405180910390a15050565b5f60065f8481526020019081526020015f206005015f8373ffffffffffffffffffffffffffffffffffffffff1673ffffffffffffffffffffffffffffffffffffffff1681526020019081526020015f2054905092915050565b5f60055f8473ffffffffffffffffffffffffffffffffffffffff1673ffffffffffffffffffffffffffffffffffffffff1681526020019081526020015f205f8373ffffffffffffffffffffffffffffffffffffffff1673ffffffffffffffffffffffffffffffffffffffff1681526020019081526020015f205f9054906101000a900460ff16905092915050565b60605f60075467ffffffffffffffff81111561159757611596612f1a565b5b6040519080825280602002602001820160405280156115d057816020015b6115bd6128c5565b8152602001906001900390816115b55790505b5090505f5b60075481101561180c575f6001826115ed9190613721565b90505f60065f8381526020019081526020015f2090506040518060c0016040528083815260200182600101805461162390613518565b80601f016020809104026020016040519081016040528092919081815260200182805461164f90613518565b801561169a5780601f106116715761010080835404028352916020019161169a565b820191905f5260205f20905b81548152906001019060200180831161167d57829003601f168201915b505050505081526020018260020180546116b390613518565b80601f01602080910402602001604051908101604052809291908181526020018280546116df90613518565b801561172a5780601f106117015761010080835404028352916020019161172a565b820191905f5260205f20905b81548152906001019060200180831161170d57829003601f168201915b5050505050815260200182600301805461174390613518565b80601f016020809104026020016040519081016040528092919081815260200182805461176f90613518565b80156117ba5780601f10611791576101008083540402835291602001916117ba565b820191905f5260205f20905b81548152906001019060200180831161179d57829003601f168201915b505050505081526020018260040154815260200182600601805490508152508484815181106117ec576117eb6135bc565b5b60200260200101819052505050808061180490613575565b9150506115d5565b508091505090565b3373ffffffffffffffffffffffffffffffffffffffff1661183482610d02565b73ffffffffffffffffffffffffffffffffffffffff161461188a576040517f08c379a000000000000000000000000000000000000000000000000000000000815260040161188190613c6b565b60405180910390fd5b611895338383612291565b5050565b6006602052805f5260405f205f91509050805f0154908060010180546118be90613518565b80601f01602080910402602001604051908101604052809291908181526020018280546118ea90613518565b80156119355780601f1061190c57610100808354040283529160200191611935565b820191905f5260205f20905b81548152906001019060200180831161191857829003601f168201915b50505050509080600201805461194a90613518565b80601f016020809104026020016040519081016040528092919081815260200182805461197690613518565b80156119c15780601f10611998576101008083540402835291602001916119c1565b820191905f5260205f20905b8154815290600101906020018083116119a457829003601f168201915b5050505050908060030180546119d690613518565b80601f0160208091040260200160405190810160405280929190818152602001828054611a0290613518565b8015611a4d5780601f10611a2457610100808354040283529160200191611a4d565b820191905f5260205f20905b815481529060010190602001808311611a3057829003601f168201915b5050505050908060040154905085565b5f7f01ffc9a7000000000000000000000000000000000000000000000000000000007bffffffffffffffffffffffffffffffffffffffffffffffffffffffff1916827bffffffffffffffffffffffffffffffffffffffffffffffffffffffff1916149050919050565b5f80611ad1836123f9565b90505f73ffffffffffffffffffffffffffffffffffffffff168173ffffffffffffffffffffffffffffffffffffffff1603611b4357826040517f7e273289000000000000000000000000000000000000000000000000000000008152600401611b3a9190612e41565b60405180910390fd5b80915050919050565b5f60045f8381526020019081526020015f205f9054906101000a900473ffffffffffffffffffffffffffffffffffffffff169050919050565b5f33905090565b611b998383836001612432565b505050565b5f80611ba9846123f9565b90505f73ffffffffffffffffffffffffffffffffffffffff168373ffffffffffffffffffffffffffffffffffffffff1614611bea57611be98184866125f1565b5b5f73ffffffffffffffffffffffffffffffffffffffff168173ffffffffffffffffffffffffffffffffffffffff1614611c7557611c295f855f80612432565b600160035f8373ffffffffffffffffffffffffffffffffffffffff1673ffffffffffffffffffffffffffffffffffffffff1681526020019081526020015f205f82825403925050819055505b5f73ffffffffffffffffffffffffffffffffffffffff168573ffffffffffffffffffffffffffffffffffffffff1614611cf457600160035f8773ffffffffffffffffffffffffffffffffffffffff1673ffffffffffffffffffffffffffffffffffffffff1681526020019081526020015f205f82825401925050819055505b8460025f8681526020019081526020015f205f6101000a81548173ffffffffffffffffffffffffffffffffffffffff021916908373ffffffffffffffffffffffffffffffffffffffff160217905550838573ffffffffffffffffffffffffffffffffffffffff168273ffffffffffffffffffffffffffffffffffffffff167fddf252ad1be2c89b69c2b068fc378daa952ba7f163c4a11628f55a4df523b3ef60405160405180910390a4809150509392505050565b5f73ffffffffffffffffffffffffffffffffffffffff168273ffffffffffffffffffffffffffffffffffffffff1603611e1957816040517f5b08ba18000000000000000000000000000000000000000000000000000000008152600401611e109190612b03565b60405180910390fd5b8060055f8573ffffffffffffffffffffffffffffffffffffffff1673ffffffffffffffffffffffffffffffffffffffff1681526020019081526020015f205f8473ffffffffffffffffffffffffffffffffffffffff1673ffffffffffffffffffffffffffffffffffffffff1681526020019081526020015f205f6101000a81548160ff0219169083151502179055508173ffffffffffffffffffffffffffffffffffffffff168373ffffffffffffffffffffffffffffffffffffffff167f17307eab39ab6107e8899845ad3d59bd9653f200f220920489ca2b5937696c3183604051611f0591906129a3565b60405180910390a3505050565b5f73ffffffffffffffffffffffffffffffffffffffff168273ffffffffffffffffffffffffffffffffffffffff1603611f82575f6040517f64a0ae92000000000000000000000000000000000000000000000000000000008152600401611f799190612b03565b60405180910390fd5b5f611f8e83835f611b9e565b90505f73ffffffffffffffffffffffffffffffffffffffff168173ffffffffffffffffffffffffffffffffffffffff1614612000575f6040517f73c6ac6e000000000000000000000000000000000000000000000000000000008152600401611ff79190612b03565b60405180910390fd5b505050565b5f8373ffffffffffffffffffffffffffffffffffffffff163b11156121aa578273ffffffffffffffffffffffffffffffffffffffff1663150b7a02868685856040518563ffffffff1660e01b81526004016120639493929190613cdb565b6020604051808303815f875af192505050801561209e57506040513d601f19601f8201168201806040525081019061209b9190613d39565b60015b61211f573d805f81146120cc576040519150601f19603f3d011682016040523d82523d5f602084013e6120d1565b606091505b505f81510361211757836040517f64a0ae9200000000000000000000000000000000000000000000000000000000815260040161210e9190612b03565b60405180910390fd5b805181602001fd5b63150b7a0260e01b7bffffffffffffffffffffffffffffffffffffffffffffffffffffffff1916817bffffffffffffffffffffffffffffffffffffffffffffffffffffffff1916146121a857836040517f64a0ae9200000000000000000000000000000000000000000000000000000000815260040161219f9190612b03565b60405180910390fd5b505b5050505050565b606060405180602001604052805f815250905090565b60605f60016121d5846126b4565b0190505f8167ffffffffffffffff8111156121f3576121f2612f1a565b5b6040519080825280601f01601f1916602001820160405280156122255781602001600182028036833780820191505090505b5090505f82602001820190505b600115612286578080600190039150507f3031323334353637383961626364656600000000000000000000000000000000600a86061a8153600a858161227b5761227a613d64565b5b0494505f8503612232575b819350505050919050565b5f73ffffffffffffffffffffffffffffffffffffffff168273ffffffffffffffffffffffffffffffffffffffff1603612301575f6040517f64a0ae920000000000000000000000000000000000000000000000000000000081526004016122f89190612b03565b60405180910390fd5b5f61230d83835f611b9e565b90505f73ffffffffffffffffffffffffffffffffffffffff168173ffffffffffffffffffffffffffffffffffffffff160361237f57816040517f7e2732890000000000000000000000000000000000000000000000000000000081526004016123769190612e41565b60405180910390fd5b8373ffffffffffffffffffffffffffffffffffffffff168173ffffffffffffffffffffffffffffffffffffffff16146123f3578382826040517f64283d7b0000000000000000000000000000000000000000000000000000000081526004016123ea939291906135e9565b60405180910390fd5b50505050565b5f60025f8381526020019081526020015f205f9054906101000a900473ffffffffffffffffffffffffffffffffffffffff169050919050565b808061246a57505f73ffffffffffffffffffffffffffffffffffffffff168273ffffffffffffffffffffffffffffffffffffffff1614155b1561259c575f61247984611ac6565b90505f73ffffffffffffffffffffffffffffffffffffffff168373ffffffffffffffffffffffffffffffffffffffff16141580156124e357508273ffffffffffffffffffffffffffffffffffffffff168173ffffffffffffffffffffffffffffffffffffffff1614155b80156124f657506124f481846114ea565b155b1561253857826040517fa9fbf51f00000000000000000000000000000000000000000000000000000000815260040161252f9190612b03565b60405180910390fd5b811561259a57838573ffffffffffffffffffffffffffffffffffffffff168273ffffffffffffffffffffffffffffffffffffffff167f8c5be1e5ebec7d5bd14f71427d1e84f3dd0314c0f7b2291e5b200ac8c7c3b92560405160405180910390a45b505b8360045f8581526020019081526020015f205f6101000a81548173ffffffffffffffffffffffffffffffffffffffff021916908373ffffffffffffffffffffffffffffffffffffffff16021790555050505050565b6125fc838383612805565b6126af575f73ffffffffffffffffffffffffffffffffffffffff168373ffffffffffffffffffffffffffffffffffffffff160361267057806040517f7e2732890000000000000000000000000000000000000000000000000000000081526004016126679190612e41565b60405180910390fd5b81816040517f177e802f0000000000000000000000000000000000000000000000000000000081526004016126a6929190613d91565b60405180910390fd5b505050565b5f805f90507a184f03e93ff9f4daa797ed6e38ed64bf6a1f0100000000000000008310612710577a184f03e93ff9f4daa797ed6e38ed64bf6a1f010000000000000000838161270657612705613d64565b5b0492506040810190505b6d04ee2d6d415b85acef8100000000831061274d576d04ee2d6d415b85acef8100000000838161274357612742613d64565b5b0492506020810190505b662386f26fc10000831061277c57662386f26fc10000838161277257612771613d64565b5b0492506010810190505b6305f5e10083106127a5576305f5e100838161279b5761279a613d64565b5b0492506008810190505b61271083106127ca5761271083816127c0576127bf613d64565b5b0492506004810190505b606483106127ed57606483816127e3576127e2613d64565b5b0492506002810190505b600a83106127fc576001810190505b80915050919050565b5f8073ffffffffffffffffffffffffffffffffffffffff168373ffffffffffffffffffffffffffffffffffffffff16141580156128bc57508273ffffffffffffffffffffffffffffffffffffffff168473ffffffffffffffffffffffffffffffffffffffff16148061287d575061287c84846114ea565b5b806128bb57508273ffffffffffffffffffffffffffffffffffffffff166128a383611b4c565b73ffffffffffffffffffffffffffffffffffffffff16145b5b90509392505050565b6040518060c001604052805f81526020016060815260200160608152602001606081526020015f81526020015f81525090565b5f604051905090565b5f80fd5b5f80fd5b5f7fffffffff0000000000000000000000000000000000000000000000000000000082169050919050565b61293d81612909565b8114612947575f80fd5b50565b5f8135905061295881612934565b92915050565b5f6020828403121561297357612972612901565b5b5f6129808482850161294a565b91505092915050565b5f8115159050919050565b61299d81612989565b82525050565b5f6020820190506129b65f830184612994565b92915050565b5f81519050919050565b5f82825260208201905092915050565b5f5b838110156129f35780820151818401526020810190506129d8565b5f8484015250505050565b5f601f19601f8301169050919050565b5f612a18826129bc565b612a2281856129c6565b9350612a328185602086016129d6565b612a3b816129fe565b840191505092915050565b5f6020820190508181035f830152612a5e8184612a0e565b905092915050565b5f819050919050565b612a7881612a66565b8114612a82575f80fd5b50565b5f81359050612a9381612a6f565b92915050565b5f60208284031215612aae57612aad612901565b5b5f612abb84828501612a85565b91505092915050565b5f73ffffffffffffffffffffffffffffffffffffffff82169050919050565b5f612aed82612ac4565b9050919050565b612afd81612ae3565b82525050565b5f602082019050612b165f830184612af4565b92915050565b612b2581612ae3565b8114612b2f575f80fd5b50565b5f81359050612b4081612b1c565b92915050565b5f8060408385031215612b5c57612b5b612901565b5b5f612b6985828601612b32565b9250506020612b7a85828601612a85565b9150509250929050565b5f60208284031215612b9957612b98612901565b5b5f612ba684828501612b32565b91505092915050565b5f81519050919050565b5f82825260208201905092915050565b5f819050602082019050919050565b612be181612a66565b82525050565b5f612bf28383612bd8565b60208301905092915050565b5f602082019050919050565b5f612c1482612baf565b612c1e8185612bb9565b9350612c2983612bc9565b805f5b83811015612c59578151612c408882612be7565b9750612c4b83612bfe565b925050600181019050612c2c565b5085935050505092915050565b5f6040820190508181035f830152612c7e8185612c0a565b90508181036020830152612c928184612c0a565b90509392505050565b5f805f60608486031215612cb257612cb1612901565b5b5f612cbf86828701612b32565b9350506020612cd086828701612b32565b9250506040612ce186828701612a85565b9150509250925092565b612cf481612a66565b82525050565b5f81519050919050565b5f82825260208201905092915050565b5f819050602082019050919050565b612d2c81612ae3565b82525050565b5f612d3d8383612d23565b60208301905092915050565b5f602082019050919050565b5f612d5f82612cfa565b612d698185612d04565b9350612d7483612d14565b805f5b83811015612da4578151612d8b8882612d32565b9750612d9683612d49565b925050600181019050612d77565b5085935050505092915050565b5f60e082019050612dc45f83018a612af4565b8181036020830152612dd68189612a0e565b90508181036040830152612dea8188612a0e565b90508181036060830152612dfe8187612a0e565b9050612e0d6080830186612ceb565b81810360a0830152612e1f8185612d55565b905081810360c0830152612e338184612c0a565b905098975050505050505050565b5f602082019050612e545f830184612ceb565b92915050565b5f805f60608486031215612e7157612e70612901565b5b5f612e7e86828701612a85565b9350506020612e8f86828701612b32565b9250506040612ea086828701612a85565b9150509250925092565b612eb381612989565b8114612ebd575f80fd5b50565b5f81359050612ece81612eaa565b92915050565b5f8060408385031215612eea57612ee9612901565b5b5f612ef785828601612b32565b9250506020612f0885828601612ec0565b9150509250929050565b5f80fd5b5f80fd5b7f4e487b71000000000000000000000000000000000000000000000000000000005f52604160045260245ffd5b612f50826129fe565b810181811067ffffffffffffffff82111715612f6f57612f6e612f1a565b5b80604052505050565b5f612f816128f8565b9050612f8d8282612f47565b919050565b5f67ffffffffffffffff821115612fac57612fab612f1a565b5b612fb5826129fe565b9050602081019050919050565b828183375f83830152505050565b5f612fe2612fdd84612f92565b612f78565b905082815260208101848484011115612ffe57612ffd612f16565b5b613009848285612fc2565b509392505050565b5f82601f83011261302557613024612f12565b5b8135613035848260208601612fd0565b91505092915050565b5f805f806080858703121561305657613055612901565b5b5f61306387828801612b32565b945050602085013567ffffffffffffffff81111561308457613083612905565b5b61309087828801613011565b935050604085013567ffffffffffffffff8111156130b1576130b0612905565b5b6130bd87828801613011565b925050606085013567ffffffffffffffff8111156130de576130dd612905565b5b6130ea87828801613011565b91505092959194509250565b5f67ffffffffffffffff8211156131105761310f612f1a565b5b613119826129fe565b9050602081019050919050565b5f613138613133846130f6565b612f78565b90508281526020810184848401111561315457613153612f16565b5b61315f848285612fc2565b509392505050565b5f82601f83011261317b5761317a612f12565b5b813561318b848260208601613126565b91505092915050565b5f805f80608085870312156131ac576131ab612901565b5b5f6131b987828801612b32565b94505060206131ca87828801612b32565b93505060406131db87828801612a85565b925050606085013567ffffffffffffffff8111156131fc576131fb612905565b5b61320887828801613167565b91505092959194509250565b5f806040838503121561322a57613229612901565b5b5f61323785828601612a85565b925050602061324885828601612a85565b9150509250929050565b5f806040838503121561326857613267612901565b5b5f61327585828601612a85565b925050602061328685828601612b32565b9150509250929050565b5f80604083850312156132a6576132a5612901565b5b5f6132b385828601612b32565b92505060206132c485828601612b32565b9150509250929050565b5f81519050919050565b5f82825260208201905092915050565b5f819050602082019050919050565b5f82825260208201905092915050565b5f613311826129bc565b61331b81856132f7565b935061332b8185602086016129d6565b613334816129fe565b840191505092915050565b5f60c083015f8301516133545f860182612bd8565b506020830151848203602086015261336c8282613307565b915050604083015184820360408601526133868282613307565b915050606083015184820360608601526133a08282613307565b91505060808301516133b56080860182612bd8565b5060a08301516133c860a0860182612bd8565b508091505092915050565b5f6133de838361333f565b905092915050565b5f602082019050919050565b5f6133fc826132ce565b61340681856132d8565b935083602082028501613418856132e8565b805f5b85811015613453578484038952815161343485826133d3565b945061343f836133e6565b925060208a0199505060018101905061341b565b50829750879550505050505092915050565b5f6020820190508181035f83015261347d81846133f2565b905092915050565b5f60a0820190506134985f830188612ceb565b81810360208301526134aa8187612a0e565b905081810360408301526134be8186612a0e565b905081810360608301526134d28185612a0e565b90506134e16080830184612ceb565b9695505050505050565b7f4e487b71000000000000000000000000000000000000000000000000000000005f52602260045260245ffd5b5f600282049050600182168061352f57607f821691505b602082108103613542576135416134eb565b5b50919050565b7f4e487b71000000000000000000000000000000000000000000000000000000005f52601160045260245ffd5b5f61357f82612a66565b91507fffffffffffffffffffffffffffffffffffffffffffffffffffffffffffffffff82036135b1576135b0613548565b5b600182019050919050565b7f4e487b71000000000000000000000000000000000000000000000000000000005f52603260045260245ffd5b5f6060820190506135fc5f830186612af4565b6136096020830185612ceb565b6136166040830184612af4565b949350505050565b7f4e6f7420656e6f75676820736861726573206f776e65642e00000000000000005f82015250565b5f6136526018836129c6565b915061365d8261361e565b602082019050919050565b5f6020820190508181035f83015261367f81613646565b9050919050565b7f496e76616c696420616464726573732e000000000000000000000000000000005f82015250565b5f6136ba6010836129c6565b91506136c582613686565b602082019050919050565b5f6020820190508181035f8301526136e7816136ae565b9050919050565b5f6136f882612a66565b915061370383612a66565b925082820390508181111561371b5761371a613548565b5b92915050565b5f61372b82612a66565b915061373683612a66565b925082820190508082111561374e5761374d613548565b5b92915050565b5f6080820190506137675f830187612ceb565b6137746020830186612af4565b6137816040830185612af4565b61378e6060830184612ceb565b95945050505050565b5f819050815f5260205f209050919050565b5f6020601f8301049050919050565b5f82821b905092915050565b5f600883026137f37fffffffffffffffffffffffffffffffffffffffffffffffffffffffffffffffff826137b8565b6137fd86836137b8565b95508019841693508086168417925050509392505050565b5f819050919050565b5f61383861383361382e84612a66565b613815565b612a66565b9050919050565b5f819050919050565b6138518361381e565b61386561385d8261383f565b8484546137c4565b825550505050565b5f90565b61387961386d565b613884818484613848565b505050565b5b818110156138a75761389c5f82613871565b60018101905061388a565b5050565b601f8211156138ec576138bd81613797565b6138c6846137a9565b810160208510156138d5578190505b6138e96138e1856137a9565b830182613889565b50505b505050565b5f82821c905092915050565b5f61390c5f19846008026138f1565b1980831691505092915050565b5f61392483836138fd565b9150826002028217905092915050565b61393d826129bc565b67ffffffffffffffff81111561395657613955612f1a565b5b6139608254613518565b61396b8282856138ab565b5f60209050601f83116001811461399c575f841561398a578287015190505b6139948582613919565b8655506139fb565b601f1984166139aa86613797565b5f5b828110156139d1578489015182556001820191506020850194506020810190506139ac565b868310156139ee57848901516139ea601f8916826138fd565b8355505b6001600288020188555050505b505050505050565b5f608082019050613a165f830187612ceb565b8181036020830152613a288186612a0e565b90508181036040830152613a3c8185612a0e565b90508181036060830152613a508184612a0e565b905095945050505050565b5f81905092915050565b5f613a6f826129bc565b613a798185613a5b565b9350613a898185602086016129d6565b80840191505092915050565b5f613aa08285613a65565b9150613aac8284613a65565b91508190509392505050565b7f4f6e6c79207468652070726f7065727479206f776e65722063616e206d696e745f8201527f207368617265732e000000000000000000000000000000000000000000000000602082015250565b5f613b126028836129c6565b9150613b1d82613ab8565b604082019050919050565b5f6020820190508181035f830152613b3f81613b06565b9050919050565b7f53686172657320616c7265616479206d696e74656420666f72207468697320705f8201527f726f70657274792e000000000000000000000000000000000000000000000000602082015250565b5f613ba06028836129c6565b9150613bab82613b46565b604082019050919050565b5f6020820190508181035f830152613bcd81613b94565b9050919050565b5f604082019050613be75f830185612ceb565b613bf46020830184612ceb565b9392505050565b7f4f6e6c79207468652070726f7065727479206f776e65722063616e207472616e5f8201527f736665722e000000000000000000000000000000000000000000000000000000602082015250565b5f613c556025836129c6565b9150613c6082613bfb565b604082019050919050565b5f6020820190508181035f830152613c8281613c49565b9050919050565b5f81519050919050565b5f82825260208201905092915050565b5f613cad82613c89565b613cb78185613c93565b9350613cc78185602086016129d6565b613cd0816129fe565b840191505092915050565b5f608082019050613cee5f830187612af4565b613cfb6020830186612af4565b613d086040830185612ceb565b8181036060830152613d1a8184613ca3565b905095945050505050565b5f81519050613d3381612934565b92915050565b5f60208284031215613d4e57613d4d612901565b5b5f613d5b84828501613d25565b91505092915050565b7f4e487b71000000000000000000000000000000000000000000000000000000005f52601260045260245ffd5b5f604082019050613da45f830185612af4565b613db16020830184612ceb565b939250505056fea2646970667358221220bcf65fba6994d065e81953efde670b66bd46266df6470e6f8dba8ec8702641be64736f6c63430008140033",
  "immutableReferences": {},
  "source": "// SPDX-License-Identifier: MIT\npragma solidity ^0.8.0;\n\nimport '@openzeppelin/contracts/token/ERC721/ERC721.sol';\nimport '@openzeppelin/contracts/token/ERC20/IERC20.sol';\n\ncontract RealEstateProperty is ERC721 {\n    struct Property {\n        uint256 id;\n        string location;\n        string description;\n        string ipfsHash;\n        uint256 totalShares; // Total shares minted for the property\n        mapping(address => uint256) shareBalances;\n        address[] stakeholders;\n    }\n\n    // Mapping to store properties by token ID\n    mapping(uint256 => Property) public properties;\n    uint256 public propertyCounter;\n\n    // Event to be emitted when a new property is listed\n    event PropertyListed(\n        uint256 propertyId,\n        string location,\n        string description,\n        string ipfsHash\n    );\n    event SharesMinted(uint256 propertyId, uint256 totalShares);\n    event SharesTransferred(\n        uint256 propertyId,\n        address from,\n        address to,\n        uint256 shares\n    );\n\n    constructor() ERC721('RealEstateProperty', 'REPROP') {}\n\n    // Function to mint a new property\n    // Mint a new property\n    function mintProperty(\n        address owner,\n        string memory location,\n        string memory description,\n        string memory ipfsHash\n    ) public {\n        propertyCounter++;\n        uint256 propertyId = propertyCounter;\n\n\n        Property storage newProperty = properties[propertyId];\n        newProperty.id = propertyId;\n        newProperty.location = location;\n        newProperty.ipfsHash = ipfsHash;\n        newProperty.description = description;\n        newProperty.totalShares = 1000; // Default total shares\n\n        newProperty.shareBalances[owner] = 1000; // Initial shares to the owner\n        newProperty.stakeholders.push(owner); // Add owner as the first stakeholder\n\n        _mint(owner, propertyId);\n\n        emit PropertyListed(propertyId, location, description, ipfsHash);\n    }\n\n    // Function to mint shares for a property (only callable by the property owner)\n    function mintShares(uint256 propertyId, uint256 totalShares) public {\n        require(\n            ownerOf(propertyId) == msg.sender,\n            'Only the property owner can mint shares.'\n        );\n        require(\n            properties[propertyId].totalShares == 0,\n            'Shares already minted for this property.'\n        );\n\n        properties[propertyId].totalShares = totalShares;\n\n        // The property owner starts owning all the shares initially\n        properties[propertyId].shareBalances[msg.sender] = totalShares;\n\n        emit SharesMinted(propertyId, totalShares);\n    }\n\n    // Function to transfer shares to another address\n    function transferShares(\n        uint256 propertyId,\n        address to,\n        uint256 shares\n    ) public {\n        require(\n            properties[propertyId].shareBalances[msg.sender] >= shares,\n            'Not enough shares owned.'\n        );\n        require(to != address(0), 'Invalid address.');\n\n        Property storage property = properties[propertyId];\n\n        if (property.shareBalances[to] == 0) {\n            property.stakeholders.push(to); // Add to stakeholders if not already\n        }\n\n        // Deduct shares from the sender and add to the recipient\n        property.shareBalances[msg.sender] -= shares;\n        property.shareBalances[to] += shares;\n\n        emit SharesTransferred(propertyId, msg.sender, to, shares);\n    }\n\n    // Get shares owned by an address for a specific property\n    function getSharesOwned(\n        uint256 propertyId,\n        address owner\n    ) public view returns (uint256) {\n        return properties[propertyId].shareBalances[owner];\n    }\n\n    // **New Method**: Get properties in which the user owns shares\n    function getUserPropertiesWithShares(\n        address user\n    ) public view returns (uint256[] memory, uint256[] memory) {\n        uint256 count = 0;\n\n        // Count the number of properties the user has shares in\n        for (uint256 i = 1; i <= propertyCounter; i++) {\n            if (properties[i].shareBalances[user] > 0) {\n                count++;\n            }\n        }\n\n        // Initialize arrays to store property IDs and share counts\n        uint256[] memory userProperties = new uint256[](count);\n        uint256[] memory userShares = new uint256[](count);\n        uint256 index = 0;\n\n        // Populate arrays with properties and shares\n        for (uint256 i = 1; i <= propertyCounter; i++) {\n            uint256 shares = properties[i].shareBalances[user];\n            if (shares > 0) {\n                userProperties[index] = i;\n                userShares[index] = shares;\n                index++;\n            }\n        }\n\n        return (userProperties, userShares);\n    }\n\n    // **New Method**: Get property details including share distribution\n    function getProperty(uint256 propertyId)\n        public\n        view\n        returns (\n            address owner,\n            string memory location,\n            string memory description,\n            string memory ipfsHash,\n            uint256 totalShares,\n            address[] memory stakeholders,\n            uint256[] memory shares\n        )\n    {\n        Property storage property = properties[propertyId];\n        uint256 stakeholderCount = property.stakeholders.length;\n\n        uint256[] memory stakeholderShares = new uint256[](stakeholderCount);\n        for (uint256 i = 0; i < stakeholderCount; i++) {\n            address stakeholder = property.stakeholders[i];\n            stakeholderShares[i] = property.shareBalances[stakeholder];\n        }\n\n        return (\n            ownerOf(propertyId),\n            property.location,\n            property.description,\n            property.ipfsHash,\n            property.totalShares,\n            property.stakeholders,\n            stakeholderShares\n        );\n    }\n\n    // Add this struct above the getProperties function\n    struct PropertyView {\n        uint256 id;\n        string location;\n        string description;\n        string ipfsHash;\n        uint256 totalShares;\n        uint256 numberOfStakeholders;\n    }\n\n    // Modify the function to use PropertyView\n    function getProperties() public view returns (PropertyView[] memory) {\n        PropertyView[] memory allProperties = new PropertyView[](propertyCounter);\n        \n        for (uint256 i = 0; i < propertyCounter; i++) {\n            uint256 propertyId = i + 1;\n            Property storage property = properties[propertyId];\n            \n            allProperties[i] = PropertyView(\n                propertyId,\n                property.location,\n                property.description,\n                property.ipfsHash,\n                property.totalShares,\n                property.stakeholders.length\n            );\n        }\n        \n        return allProperties;\n    }\n\n    // Function to transfer ownership of the property\n    function transferProperty(address to, uint256 propertyId) public {\n        require(\n            ownerOf(propertyId) == msg.sender,\n            'Only the property owner can transfer.'\n        );\n        _transfer(msg.sender, to, propertyId);\n    }\n}\n",
  "sourcePath": "/Users/johngulbronson/DetroitArt/gods.work/apps/web3/contracts/RealEstateProperty.sol",
  "compiler": {
    "name": "solc",
    "version": "0.8.20+commit.a1b79de6.Emscripten.clang"
  },
  "schemaVersion": "3.4.16",
  "updatedAt": "2024-12-16T17:22:39.396Z",
  "devdoc": {
    "errors": {
      "ERC721IncorrectOwner(address,uint256,address)": [
        {
          "details": "Indicates an error related to the ownership over a particular token. Used in transfers.",
          "params": {
            "owner": "Address of the current owner of a token.",
            "sender": "Address whose tokens are being transferred.",
            "tokenId": "Identifier number of a token."
          }
        }
      ],
      "ERC721InsufficientApproval(address,uint256)": [
        {
          "details": "Indicates a failure with the `operator`s approval. Used in transfers.",
          "params": {
            "operator": "Address that may be allowed to operate on tokens without being their owner.",
            "tokenId": "Identifier number of a token."
          }
        }
      ],
      "ERC721InvalidApprover(address)": [
        {
          "details": "Indicates a failure with the `approver` of a token to be approved. Used in approvals.",
          "params": {
            "approver": "Address initiating an approval operation."
          }
        }
      ],
      "ERC721InvalidOperator(address)": [
        {
          "details": "Indicates a failure with the `operator` to be approved. Used in approvals.",
          "params": {
            "operator": "Address that may be allowed to operate on tokens without being their owner."
          }
        }
      ],
      "ERC721InvalidOwner(address)": [
        {
          "details": "Indicates that an address can't be an owner. For example, `address(0)` is a forbidden owner in ERC-20. Used in balance queries.",
          "params": {
            "owner": "Address of the current owner of a token."
          }
        }
      ],
      "ERC721InvalidReceiver(address)": [
        {
          "details": "Indicates a failure with the token `receiver`. Used in transfers.",
          "params": {
            "receiver": "Address to which tokens are being transferred."
          }
        }
      ],
      "ERC721InvalidSender(address)": [
        {
          "details": "Indicates a failure with the token `sender`. Used in transfers.",
          "params": {
            "sender": "Address whose tokens are being transferred."
          }
        }
      ],
      "ERC721NonexistentToken(uint256)": [
        {
          "details": "Indicates a `tokenId` whose `owner` is the zero address.",
          "params": {
            "tokenId": "Identifier number of a token."
          }
        }
      ]
    },
    "events": {
      "Approval(address,address,uint256)": {
        "details": "Emitted when `owner` enables `approved` to manage the `tokenId` token."
      },
      "ApprovalForAll(address,address,bool)": {
        "details": "Emitted when `owner` enables or disables (`approved`) `operator` to manage all of its assets."
      },
      "Transfer(address,address,uint256)": {
        "details": "Emitted when `tokenId` token is transferred from `from` to `to`."
      }
    },
    "kind": "dev",
    "methods": {
      "approve(address,uint256)": {
        "details": "See {IERC721-approve}."
      },
      "balanceOf(address)": {
        "details": "See {IERC721-balanceOf}."
      },
      "getApproved(uint256)": {
        "details": "See {IERC721-getApproved}."
      },
      "isApprovedForAll(address,address)": {
        "details": "See {IERC721-isApprovedForAll}."
      },
      "name()": {
        "details": "See {IERC721Metadata-name}."
      },
      "ownerOf(uint256)": {
        "details": "See {IERC721-ownerOf}."
      },
      "safeTransferFrom(address,address,uint256)": {
        "details": "See {IERC721-safeTransferFrom}."
      },
      "safeTransferFrom(address,address,uint256,bytes)": {
        "details": "See {IERC721-safeTransferFrom}."
      },
      "setApprovalForAll(address,bool)": {
        "details": "See {IERC721-setApprovalForAll}."
      },
      "supportsInterface(bytes4)": {
        "details": "See {IERC165-supportsInterface}."
      },
      "symbol()": {
        "details": "See {IERC721Metadata-symbol}."
      },
      "tokenURI(uint256)": {
        "details": "See {IERC721Metadata-tokenURI}."
      },
      "transferFrom(address,address,uint256)": {
        "details": "See {IERC721-transferFrom}."
      }
    },
    "version": 1
  },
  "userdoc": {
    "kind": "user",
    "methods": {},
    "version": 1
  }
}