{
  "contractName": "RealEstateProperty",
  "abi": [
    {
      "inputs": [],
      "stateMutability": "nonpayable",
      "type": "constructor"
    },
    {
      "inputs": [
        {
          "internalType": "address",
          "name": "sender",
          "type": "address"
        },
        {
          "internalType": "uint256",
          "name": "tokenId",
          "type": "uint256"
        },
        {
          "internalType": "address",
          "name": "owner",
          "type": "address"
        }
      ],
      "name": "ERC721IncorrectOwner",
      "type": "error"
    },
    {
      "inputs": [
        {
          "internalType": "address",
          "name": "operator",
          "type": "address"
        },
        {
          "internalType": "uint256",
          "name": "tokenId",
          "type": "uint256"
        }
      ],
      "name": "ERC721InsufficientApproval",
      "type": "error"
    },
    {
      "inputs": [
        {
          "internalType": "address",
          "name": "approver",
          "type": "address"
        }
      ],
      "name": "ERC721InvalidApprover",
      "type": "error"
    },
    {
      "inputs": [
        {
          "internalType": "address",
          "name": "operator",
          "type": "address"
        }
      ],
      "name": "ERC721InvalidOperator",
      "type": "error"
    },
    {
      "inputs": [
        {
          "internalType": "address",
          "name": "owner",
          "type": "address"
        }
      ],
      "name": "ERC721InvalidOwner",
      "type": "error"
    },
    {
      "inputs": [
        {
          "internalType": "address",
          "name": "receiver",
          "type": "address"
        }
      ],
      "name": "ERC721InvalidReceiver",
      "type": "error"
    },
    {
      "inputs": [
        {
          "internalType": "address",
          "name": "sender",
          "type": "address"
        }
      ],
      "name": "ERC721InvalidSender",
      "type": "error"
    },
    {
      "inputs": [
        {
          "internalType": "uint256",
          "name": "tokenId",
          "type": "uint256"
        }
      ],
      "name": "ERC721NonexistentToken",
      "type": "error"
    },
    {
      "anonymous": false,
      "inputs": [
        {
          "indexed": true,
          "internalType": "address",
          "name": "owner",
          "type": "address"
        },
        {
          "indexed": true,
          "internalType": "address",
          "name": "approved",
          "type": "address"
        },
        {
          "indexed": true,
          "internalType": "uint256",
          "name": "tokenId",
          "type": "uint256"
        }
      ],
      "name": "Approval",
      "type": "event"
    },
    {
      "anonymous": false,
      "inputs": [
        {
          "indexed": true,
          "internalType": "address",
          "name": "owner",
          "type": "address"
        },
        {
          "indexed": true,
          "internalType": "address",
          "name": "operator",
          "type": "address"
        },
        {
          "indexed": false,
          "internalType": "bool",
          "name": "approved",
          "type": "bool"
        }
      ],
      "name": "ApprovalForAll",
      "type": "event"
    },
    {
      "anonymous": false,
      "inputs": [
        {
          "indexed": false,
          "internalType": "uint256",
          "name": "propertyId",
          "type": "uint256"
        },
        {
          "indexed": false,
          "internalType": "string",
          "name": "location",
          "type": "string"
        },
        {
          "indexed": false,
          "internalType": "string",
          "name": "description",
          "type": "string"
        },
        {
          "indexed": false,
          "internalType": "string",
          "name": "ipfsHash",
          "type": "string"
        }
      ],
      "name": "PropertyListed",
      "type": "event"
    },
    {
      "anonymous": false,
      "inputs": [
        {
          "indexed": false,
          "internalType": "uint256",
          "name": "propertyId",
          "type": "uint256"
        },
        {
          "indexed": false,
          "internalType": "uint256",
          "name": "totalShares",
          "type": "uint256"
        }
      ],
      "name": "SharesMinted",
      "type": "event"
    },
    {
      "anonymous": false,
      "inputs": [
        {
          "indexed": false,
          "internalType": "uint256",
          "name": "propertyId",
          "type": "uint256"
        },
        {
          "indexed": false,
          "internalType": "address",
          "name": "from",
          "type": "address"
        },
        {
          "indexed": false,
          "internalType": "address",
          "name": "to",
          "type": "address"
        },
        {
          "indexed": false,
          "internalType": "uint256",
          "name": "shares",
          "type": "uint256"
        }
      ],
      "name": "SharesTransferred",
      "type": "event"
    },
    {
      "anonymous": false,
      "inputs": [
        {
          "indexed": true,
          "internalType": "address",
          "name": "from",
          "type": "address"
        },
        {
          "indexed": true,
          "internalType": "address",
          "name": "to",
          "type": "address"
        },
        {
          "indexed": true,
          "internalType": "uint256",
          "name": "tokenId",
          "type": "uint256"
        }
      ],
      "name": "Transfer",
      "type": "event"
    },
    {
      "inputs": [
        {
          "internalType": "address",
          "name": "to",
          "type": "address"
        },
        {
          "internalType": "uint256",
          "name": "tokenId",
          "type": "uint256"
        }
      ],
      "name": "approve",
      "outputs": [],
      "stateMutability": "nonpayable",
      "type": "function"
    },
    {
      "inputs": [
        {
          "internalType": "address",
          "name": "owner",
          "type": "address"
        }
      ],
      "name": "balanceOf",
      "outputs": [
        {
          "internalType": "uint256",
          "name": "",
          "type": "uint256"
        }
      ],
      "stateMutability": "view",
      "type": "function"
    },
    {
      "inputs": [
        {
          "internalType": "uint256",
          "name": "tokenId",
          "type": "uint256"
        }
      ],
      "name": "getApproved",
      "outputs": [
        {
          "internalType": "address",
          "name": "",
          "type": "address"
        }
      ],
      "stateMutability": "view",
      "type": "function"
    },
    {
      "inputs": [
        {
          "internalType": "address",
          "name": "owner",
          "type": "address"
        },
        {
          "internalType": "address",
          "name": "operator",
          "type": "address"
        }
      ],
      "name": "isApprovedForAll",
      "outputs": [
        {
          "internalType": "bool",
          "name": "",
          "type": "bool"
        }
      ],
      "stateMutability": "view",
      "type": "function"
    },
    {
      "inputs": [],
      "name": "name",
      "outputs": [
        {
          "internalType": "string",
          "name": "",
          "type": "string"
        }
      ],
      "stateMutability": "view",
      "type": "function"
    },
    {
      "inputs": [
        {
          "internalType": "uint256",
          "name": "tokenId",
          "type": "uint256"
        }
      ],
      "name": "ownerOf",
      "outputs": [
        {
          "internalType": "address",
          "name": "",
          "type": "address"
        }
      ],
      "stateMutability": "view",
      "type": "function"
    },
    {
      "inputs": [
        {
          "internalType": "uint256",
          "name": "",
          "type": "uint256"
        }
      ],
      "name": "properties",
      "outputs": [
        {
          "internalType": "uint256",
          "name": "id",
          "type": "uint256"
        },
        {
          "internalType": "string",
          "name": "location",
          "type": "string"
        },
        {
          "internalType": "string",
          "name": "description",
          "type": "string"
        },
        {
          "internalType": "string",
          "name": "ipfsHash",
          "type": "string"
        },
        {
          "internalType": "uint256",
          "name": "totalShares",
          "type": "uint256"
        }
      ],
      "stateMutability": "view",
      "type": "function"
    },
    {
      "inputs": [],
      "name": "propertyCounter",
      "outputs": [
        {
          "internalType": "uint256",
          "name": "",
          "type": "uint256"
        }
      ],
      "stateMutability": "view",
      "type": "function"
    },
    {
      "inputs": [
        {
          "internalType": "address",
          "name": "from",
          "type": "address"
        },
        {
          "internalType": "address",
          "name": "to",
          "type": "address"
        },
        {
          "internalType": "uint256",
          "name": "tokenId",
          "type": "uint256"
        }
      ],
      "name": "safeTransferFrom",
      "outputs": [],
      "stateMutability": "nonpayable",
      "type": "function"
    },
    {
      "inputs": [
        {
          "internalType": "address",
          "name": "from",
          "type": "address"
        },
        {
          "internalType": "address",
          "name": "to",
          "type": "address"
        },
        {
          "internalType": "uint256",
          "name": "tokenId",
          "type": "uint256"
        },
        {
          "internalType": "bytes",
          "name": "data",
          "type": "bytes"
        }
      ],
      "name": "safeTransferFrom",
      "outputs": [],
      "stateMutability": "nonpayable",
      "type": "function"
    },
    {
      "inputs": [
        {
          "internalType": "address",
          "name": "operator",
          "type": "address"
        },
        {
          "internalType": "bool",
          "name": "approved",
          "type": "bool"
        }
      ],
      "name": "setApprovalForAll",
      "outputs": [],
      "stateMutability": "nonpayable",
      "type": "function"
    },
    {
      "inputs": [
        {
          "internalType": "bytes4",
          "name": "interfaceId",
          "type": "bytes4"
        }
      ],
      "name": "supportsInterface",
      "outputs": [
        {
          "internalType": "bool",
          "name": "",
          "type": "bool"
        }
      ],
      "stateMutability": "view",
      "type": "function"
    },
    {
      "inputs": [],
      "name": "symbol",
      "outputs": [
        {
          "internalType": "string",
          "name": "",
          "type": "string"
        }
      ],
      "stateMutability": "view",
      "type": "function"
    },
    {
      "inputs": [
        {
          "internalType": "uint256",
          "name": "tokenId",
          "type": "uint256"
        }
      ],
      "name": "tokenURI",
      "outputs": [
        {
          "internalType": "string",
          "name": "",
          "type": "string"
        }
      ],
      "stateMutability": "view",
      "type": "function"
    },
    {
      "inputs": [
        {
          "internalType": "address",
          "name": "from",
          "type": "address"
        },
        {
          "internalType": "address",
          "name": "to",
          "type": "address"
        },
        {
          "internalType": "uint256",
          "name": "tokenId",
          "type": "uint256"
        }
      ],
      "name": "transferFrom",
      "outputs": [],
      "stateMutability": "nonpayable",
      "type": "function"
    },
    {
      "inputs": [
        {
          "internalType": "address",
          "name": "owner",
          "type": "address"
        },
        {
          "internalType": "string",
          "name": "location",
          "type": "string"
        },
        {
          "internalType": "string",
          "name": "description",
          "type": "string"
        },
        {
          "internalType": "string",
          "name": "ipfsHash",
          "type": "string"
        }
      ],
      "name": "mintProperty",
      "outputs": [],
      "stateMutability": "nonpayable",
      "type": "function"
    },
    {
      "inputs": [
        {
          "internalType": "uint256",
          "name": "propertyId",
          "type": "uint256"
        },
        {
          "internalType": "uint256",
          "name": "totalShares",
          "type": "uint256"
        }
      ],
      "name": "mintShares",
      "outputs": [],
      "stateMutability": "nonpayable",
      "type": "function"
    },
    {
      "inputs": [
        {
          "internalType": "uint256",
          "name": "propertyId",
          "type": "uint256"
        },
        {
          "internalType": "address",
          "name": "to",
          "type": "address"
        },
        {
          "internalType": "uint256",
          "name": "shares",
          "type": "uint256"
        }
      ],
      "name": "transferShares",
      "outputs": [],
      "stateMutability": "nonpayable",
      "type": "function"
    },
    {
      "inputs": [
        {
          "internalType": "uint256",
          "name": "propertyId",
          "type": "uint256"
        },
        {
          "internalType": "address",
          "name": "owner",
          "type": "address"
        }
      ],
      "name": "getSharesOwned",
      "outputs": [
        {
          "internalType": "uint256",
          "name": "",
          "type": "uint256"
        }
      ],
      "stateMutability": "view",
      "type": "function"
    },
    {
      "inputs": [
        {
          "internalType": "address",
          "name": "user",
          "type": "address"
        }
      ],
      "name": "getUserPropertiesWithShares",
      "outputs": [
        {
          "internalType": "uint256[]",
          "name": "",
          "type": "uint256[]"
        },
        {
          "internalType": "uint256[]",
          "name": "",
          "type": "uint256[]"
        }
      ],
      "stateMutability": "view",
      "type": "function"
    },
    {
      "inputs": [
        {
          "internalType": "uint256",
          "name": "propertyId",
          "type": "uint256"
        }
      ],
      "name": "getProperty",
      "outputs": [
        {
          "internalType": "address",
          "name": "owner",
          "type": "address"
        },
        {
          "internalType": "string",
          "name": "location",
          "type": "string"
        },
        {
          "internalType": "string",
          "name": "description",
          "type": "string"
        },
        {
          "internalType": "string",
          "name": "ipfsHash",
          "type": "string"
        },
        {
          "internalType": "uint256",
          "name": "totalShares",
          "type": "uint256"
        },
        {
          "internalType": "address[]",
          "name": "stakeholders",
          "type": "address[]"
        },
        {
          "internalType": "uint256[]",
          "name": "shares",
          "type": "uint256[]"
        }
      ],
      "stateMutability": "view",
      "type": "function"
    },
    {
      "inputs": [
        {
          "internalType": "address",
          "name": "to",
          "type": "address"
        },
        {
          "internalType": "uint256",
          "name": "propertyId",
          "type": "uint256"
        }
      ],
      "name": "transferProperty",
      "outputs": [],
      "stateMutability": "nonpayable",
      "type": "function"
    }
  ],
  "bytecode": "0x608060405234801562000010575f80fd5b506040518060400160405280601281526020017f5265616c45737461746550726f706572747900000000000000000000000000008152506040518060400160405280600681526020017f524550524f500000000000000000000000000000000000000000000000000000815250815f90816200008d91906200030c565b5080600190816200009f91906200030c565b505050620003f0565b5f81519050919050565b7f4e487b71000000000000000000000000000000000000000000000000000000005f52604160045260245ffd5b7f4e487b71000000000000000000000000000000000000000000000000000000005f52602260045260245ffd5b5f60028204905060018216806200012457607f821691505b6020821081036200013a5762000139620000df565b5b50919050565b5f819050815f5260205f209050919050565b5f6020601f8301049050919050565b5f82821b905092915050565b5f600883026200019e7fffffffffffffffffffffffffffffffffffffffffffffffffffffffffffffffff8262000161565b620001aa868362000161565b95508019841693508086168417925050509392505050565b5f819050919050565b5f819050919050565b5f620001f4620001ee620001e884620001c2565b620001cb565b620001c2565b9050919050565b5f819050919050565b6200020f83620001d4565b620002276200021e82620001fb565b8484546200016d565b825550505050565b5f90565b6200023d6200022f565b6200024a81848462000204565b505050565b5b818110156200027157620002655f8262000233565b60018101905062000250565b5050565b601f821115620002c0576200028a8162000140565b620002958462000152565b81016020851015620002a5578190505b620002bd620002b48562000152565b8301826200024f565b50505b505050565b5f82821c905092915050565b5f620002e25f1984600802620002c5565b1980831691505092915050565b5f620002fc8383620002d1565b9150826002028217905092915050565b6200031782620000a8565b67ffffffffffffffff811115620003335762000332620000b2565b5b6200033f82546200010c565b6200034c82828562000275565b5f60209050601f83116001811462000382575f84156200036d578287015190505b620003798582620002ef565b865550620003e8565b601f198416620003928662000140565b5f5b82811015620003bb5784890151825560018201915060208501945060208101905062000394565b86831015620003db5784890151620003d7601f891682620002d1565b8355505b6001600288020188555050505b505050505050565b61393f80620003fe5f395ff3fe608060405234801561000f575f80fd5b5060043610610140575f3560e01c806395d89b41116100b6578063d090e47e1161007a578063d090e47e1461039b578063e3437888146103b9578063e7ebadfe146103d5578063e985e9c514610405578063f644c31814610435578063f7b108081461045157610140565b806395d89b41146102f9578063a22cb46514610317578063a2bc47db14610333578063b88d4fde1461034f578063c87b56dd1461036b57610140565b806323b872dd1161010857806323b872dd1461020f57806332665ffb1461022b57806342842e0e146102615780636352211e1461027d57806370a08231146102ad57806384b9a6e6146102dd57610140565b806301ffc9a71461014457806306fdde0314610174578063081812fc14610192578063095ea7b3146101c257806312b708b4146101de575b5f80fd5b61015e60048036038101906101599190612666565b610485565b60405161016b91906126ab565b60405180910390f35b61017c610566565b604051610189919061274e565b60405180910390f35b6101ac60048036038101906101a791906127a1565b6105f5565b6040516101b9919061280b565b60405180910390f35b6101dc60048036038101906101d7919061284e565b610610565b005b6101f860048036038101906101f3919061288c565b610626565b60405161020692919061296e565b60405180910390f35b610229600480360381019061022491906129a3565b610829565b005b610245600480360381019061024091906127a1565b610928565b6040516102589796959493929190612ab9565b60405180910390f35b61027b600480360381019061027691906129a3565b610cba565b005b610297600480360381019061029291906127a1565b610cd9565b6040516102a4919061280b565b60405180910390f35b6102c760048036038101906102c2919061288c565b610cea565b6040516102d49190612b49565b60405180910390f35b6102f760048036038101906102f29190612b62565b610da0565b005b61030161104a565b60405161030e919061274e565b60405180910390f35b610331600480360381019061032c9190612bdc565b6110da565b005b61034d60048036038101906103489190612d46565b6110f0565b005b61036960048036038101906103649190612e9c565b611261565b005b610385600480360381019061038091906127a1565b611286565b604051610392919061274e565b60405180910390f35b6103a36112ec565b6040516103b09190612b49565b60405180910390f35b6103d360048036038101906103ce9190612f1c565b6112f2565b005b6103ef60048036038101906103ea9190612f5a565b611468565b6040516103fc9190612b49565b60405180910390f35b61041f600480360381019061041a9190612f98565b6114c1565b60405161042c91906126ab565b60405180910390f35b61044f600480360381019061044a919061284e565b61154f565b005b61046b600480360381019061046691906127a1565b6115d4565b60405161047c959493929190612fd6565b60405180910390f35b5f7f80ac58cd000000000000000000000000000000000000000000000000000000007bffffffffffffffffffffffffffffffffffffffffffffffffffffffff1916827bffffffffffffffffffffffffffffffffffffffffffffffffffffffff1916148061054f57507f5b5e139f000000000000000000000000000000000000000000000000000000007bffffffffffffffffffffffffffffffffffffffffffffffffffffffff1916827bffffffffffffffffffffffffffffffffffffffffffffffffffffffff1916145b8061055f575061055e82611798565b5b9050919050565b60605f805461057490613069565b80601f01602080910402602001604051908101604052809291908181526020018280546105a090613069565b80156105eb5780601f106105c2576101008083540402835291602001916105eb565b820191905f5260205f20905b8154815290600101906020018083116105ce57829003601f168201915b5050505050905090565b5f6105ff82611801565b5061060982611887565b9050919050565b610622828261061d6118c0565b6118c7565b5050565b6060805f80600190505b60075481116106b2575f60065f8381526020019081526020015f206005015f8773ffffffffffffffffffffffffffffffffffffffff1673ffffffffffffffffffffffffffffffffffffffff1681526020019081526020015f2054111561069f57818061069b906130c6565b9250505b80806106aa906130c6565b915050610630565b505f8167ffffffffffffffff8111156106ce576106cd612c22565b5b6040519080825280602002602001820160405280156106fc5781602001602082028036833780820191505090505b5090505f8267ffffffffffffffff81111561071a57610719612c22565b5b6040519080825280602002602001820160405280156107485781602001602082028036833780820191505090505b5090505f80600190505b6007548111610819575f60065f8381526020019081526020015f206005015f8a73ffffffffffffffffffffffffffffffffffffffff1673ffffffffffffffffffffffffffffffffffffffff1681526020019081526020015f205490505f81111561080557818584815181106107ca576107c961310d565b5b602002602001018181525050808484815181106107ea576107e961310d565b5b6020026020010181815250508280610801906130c6565b9350505b508080610811906130c6565b915050610752565b5082829550955050505050915091565b5f73ffffffffffffffffffffffffffffffffffffffff168273ffffffffffffffffffffffffffffffffffffffff1603610899575f6040517f64a0ae92000000000000000000000000000000000000000000000000000000008152600401610890919061280b565b60405180910390fd5b5f6108ac83836108a76118c0565b6118d9565b90508373ffffffffffffffffffffffffffffffffffffffff168173ffffffffffffffffffffffffffffffffffffffff1614610922578382826040517f64283d7b0000000000000000000000000000000000000000000000000000000081526004016109199392919061313a565b60405180910390fd5b50505050565b5f60608060605f6060805f60065f8a81526020019081526020015f2090505f816006018054905090505f8167ffffffffffffffff81111561096c5761096b612c22565b5b60405190808252806020026020018201604052801561099a5781602001602082028036833780820191505090505b5090505f5b82811015610a5b575f8460060182815481106109be576109bd61310d565b5b905f5260205f20015f9054906101000a900473ffffffffffffffffffffffffffffffffffffffff169050846005015f8273ffffffffffffffffffffffffffffffffffffffff1673ffffffffffffffffffffffffffffffffffffffff1681526020019081526020015f2054838381518110610a3b57610a3a61310d565b5b602002602001018181525050508080610a53906130c6565b91505061099f565b50610a658b610cd9565b83600101846002018560030186600401548760060186858054610a8790613069565b80601f0160208091040260200160405190810160405280929190818152602001828054610ab390613069565b8015610afe5780601f10610ad557610100808354040283529160200191610afe565b820191905f5260205f20905b815481529060010190602001808311610ae157829003601f168201915b50505050509550848054610b1190613069565b80601f0160208091040260200160405190810160405280929190818152602001828054610b3d90613069565b8015610b885780601f10610b5f57610100808354040283529160200191610b88565b820191905f5260205f20905b815481529060010190602001808311610b6b57829003601f168201915b50505050509450838054610b9b90613069565b80601f0160208091040260200160405190810160405280929190818152602001828054610bc790613069565b8015610c125780601f10610be957610100808354040283529160200191610c12565b820191905f5260205f20905b815481529060010190602001808311610bf557829003601f168201915b5050505050935081805480602002602001604051908101604052809291908181526020018280548015610c9757602002820191905f5260205f20905b815f9054906101000a900473ffffffffffffffffffffffffffffffffffffffff1673ffffffffffffffffffffffffffffffffffffffff1681526020019060010190808311610c4e575b505050505091509950995099509950995099509950505050919395979092949650565b610cd483838360405180602001604052805f815250611261565b505050565b5f610ce382611801565b9050919050565b5f8073ffffffffffffffffffffffffffffffffffffffff168273ffffffffffffffffffffffffffffffffffffffff1603610d5b575f6040517f89c62b64000000000000000000000000000000000000000000000000000000008152600401610d52919061280b565b60405180910390fd5b60035f8373ffffffffffffffffffffffffffffffffffffffff1673ffffffffffffffffffffffffffffffffffffffff1681526020019081526020015f20549050919050565b8060065f8581526020019081526020015f206005015f3373ffffffffffffffffffffffffffffffffffffffff1673ffffffffffffffffffffffffffffffffffffffff1681526020019081526020015f20541015610e32576040517f08c379a0000000000000000000000000000000000000000000000000000000008152600401610e29906131b9565b60405180910390fd5b5f73ffffffffffffffffffffffffffffffffffffffff168273ffffffffffffffffffffffffffffffffffffffff1603610ea0576040517f08c379a0000000000000000000000000000000000000000000000000000000008152600401610e9790613221565b60405180910390fd5b5f60065f8581526020019081526020015f2090505f816005015f8573ffffffffffffffffffffffffffffffffffffffff1673ffffffffffffffffffffffffffffffffffffffff1681526020019081526020015f205403610f5d578060060183908060018154018082558091505060019003905f5260205f20015f9091909190916101000a81548173ffffffffffffffffffffffffffffffffffffffff021916908373ffffffffffffffffffffffffffffffffffffffff1602179055505b81816005015f3373ffffffffffffffffffffffffffffffffffffffff1673ffffffffffffffffffffffffffffffffffffffff1681526020019081526020015f205f828254610fab919061323f565b9250508190555081816005015f8573ffffffffffffffffffffffffffffffffffffffff1673ffffffffffffffffffffffffffffffffffffffff1681526020019081526020015f205f8282546110009190613272565b925050819055507f78dc4ab325d618a4100f0b44da2f25725cd94b780060f6b9e87065e9c0b12ebd8433858560405161103c94939291906132a5565b60405180910390a150505050565b60606001805461105990613069565b80601f016020809104026020016040519081016040528092919081815260200182805461108590613069565b80156110d05780601f106110a7576101008083540402835291602001916110d0565b820191905f5260205f20905b8154815290600101906020018083116110b357829003601f168201915b5050505050905090565b6110ec6110e56118c0565b8383611ae4565b5050565b60075f815480929190611102906130c6565b91905055505f60075490505f60065f8381526020019081526020015f20905081815f01819055508481600101908161113a9190613485565b508281600301908161114c9190613485565b508381600201908161115e9190613485565b506103e881600401819055506103e8816005015f8873ffffffffffffffffffffffffffffffffffffffff1673ffffffffffffffffffffffffffffffffffffffff1681526020019081526020015f20819055508060060186908060018154018082558091505060019003905f5260205f20015f9091909190916101000a81548173ffffffffffffffffffffffffffffffffffffffff021916908373ffffffffffffffffffffffffffffffffffffffff16021790555061121c8683611c4d565b7f5bef73c88db9e51f4b152de8382836dea7a081364997ff088736c3e30f05fa45828686866040516112519493929190613554565b60405180910390a1505050505050565b61126c848484610829565b6112806112776118c0565b85858585611d40565b50505050565b606061129182611801565b505f61129b611eec565b90505f8151116112b95760405180602001604052805f8152506112e4565b806112c384611f02565b6040516020016112d49291906135e6565b6040516020818303038152906040525b915050919050565b60075481565b3373ffffffffffffffffffffffffffffffffffffffff1661131283610cd9565b73ffffffffffffffffffffffffffffffffffffffff1614611368576040517f08c379a000000000000000000000000000000000000000000000000000000000815260040161135f90613679565b60405180910390fd5b5f60065f8481526020019081526020015f2060040154146113be576040517f08c379a00000000000000000000000000000000000000000000000000000000081526004016113b590613707565b60405180910390fd5b8060065f8481526020019081526020015f20600401819055508060065f8481526020019081526020015f206005015f3373ffffffffffffffffffffffffffffffffffffffff1673ffffffffffffffffffffffffffffffffffffffff1681526020019081526020015f20819055507f0a7d587acc3bafe631c58ed4a25eda1e905acfb47594d1b86b332ae63df22594828260405161145c929190613725565b60405180910390a15050565b5f60065f8481526020019081526020015f206005015f8373ffffffffffffffffffffffffffffffffffffffff1673ffffffffffffffffffffffffffffffffffffffff1681526020019081526020015f2054905092915050565b5f60055f8473ffffffffffffffffffffffffffffffffffffffff1673ffffffffffffffffffffffffffffffffffffffff1681526020019081526020015f205f8373ffffffffffffffffffffffffffffffffffffffff1673ffffffffffffffffffffffffffffffffffffffff1681526020019081526020015f205f9054906101000a900460ff16905092915050565b3373ffffffffffffffffffffffffffffffffffffffff1661156f82610cd9565b73ffffffffffffffffffffffffffffffffffffffff16146115c5576040517f08c379a00000000000000000000000000000000000000000000000000000000081526004016115bc906137bc565b60405180910390fd5b6115d0338383611fcc565b5050565b6006602052805f5260405f205f91509050805f0154908060010180546115f990613069565b80601f016020809104026020016040519081016040528092919081815260200182805461162590613069565b80156116705780601f1061164757610100808354040283529160200191611670565b820191905f5260205f20905b81548152906001019060200180831161165357829003601f168201915b50505050509080600201805461168590613069565b80601f01602080910402602001604051908101604052809291908181526020018280546116b190613069565b80156116fc5780601f106116d3576101008083540402835291602001916116fc565b820191905f5260205f20905b8154815290600101906020018083116116df57829003601f168201915b50505050509080600301805461171190613069565b80601f016020809104026020016040519081016040528092919081815260200182805461173d90613069565b80156117885780601f1061175f57610100808354040283529160200191611788565b820191905f5260205f20905b81548152906001019060200180831161176b57829003601f168201915b5050505050908060040154905085565b5f7f01ffc9a7000000000000000000000000000000000000000000000000000000007bffffffffffffffffffffffffffffffffffffffffffffffffffffffff1916827bffffffffffffffffffffffffffffffffffffffffffffffffffffffff1916149050919050565b5f8061180c83612134565b90505f73ffffffffffffffffffffffffffffffffffffffff168173ffffffffffffffffffffffffffffffffffffffff160361187e57826040517f7e2732890000000000000000000000000000000000000000000000000000000081526004016118759190612b49565b60405180910390fd5b80915050919050565b5f60045f8381526020019081526020015f205f9054906101000a900473ffffffffffffffffffffffffffffffffffffffff169050919050565b5f33905090565b6118d4838383600161216d565b505050565b5f806118e484612134565b90505f73ffffffffffffffffffffffffffffffffffffffff168373ffffffffffffffffffffffffffffffffffffffff16146119255761192481848661232c565b5b5f73ffffffffffffffffffffffffffffffffffffffff168173ffffffffffffffffffffffffffffffffffffffff16146119b0576119645f855f8061216d565b600160035f8373ffffffffffffffffffffffffffffffffffffffff1673ffffffffffffffffffffffffffffffffffffffff1681526020019081526020015f205f82825403925050819055505b5f73ffffffffffffffffffffffffffffffffffffffff168573ffffffffffffffffffffffffffffffffffffffff1614611a2f57600160035f8773ffffffffffffffffffffffffffffffffffffffff1673ffffffffffffffffffffffffffffffffffffffff1681526020019081526020015f205f82825401925050819055505b8460025f8681526020019081526020015f205f6101000a81548173ffffffffffffffffffffffffffffffffffffffff021916908373ffffffffffffffffffffffffffffffffffffffff160217905550838573ffffffffffffffffffffffffffffffffffffffff168273ffffffffffffffffffffffffffffffffffffffff167fddf252ad1be2c89b69c2b068fc378daa952ba7f163c4a11628f55a4df523b3ef60405160405180910390a4809150509392505050565b5f73ffffffffffffffffffffffffffffffffffffffff168273ffffffffffffffffffffffffffffffffffffffff1603611b5457816040517f5b08ba18000000000000000000000000000000000000000000000000000000008152600401611b4b919061280b565b60405180910390fd5b8060055f8573ffffffffffffffffffffffffffffffffffffffff1673ffffffffffffffffffffffffffffffffffffffff1681526020019081526020015f205f8473ffffffffffffffffffffffffffffffffffffffff1673ffffffffffffffffffffffffffffffffffffffff1681526020019081526020015f205f6101000a81548160ff0219169083151502179055508173ffffffffffffffffffffffffffffffffffffffff168373ffffffffffffffffffffffffffffffffffffffff167f17307eab39ab6107e8899845ad3d59bd9653f200f220920489ca2b5937696c3183604051611c4091906126ab565b60405180910390a3505050565b5f73ffffffffffffffffffffffffffffffffffffffff168273ffffffffffffffffffffffffffffffffffffffff1603611cbd575f6040517f64a0ae92000000000000000000000000000000000000000000000000000000008152600401611cb4919061280b565b60405180910390fd5b5f611cc983835f6118d9565b90505f73ffffffffffffffffffffffffffffffffffffffff168173ffffffffffffffffffffffffffffffffffffffff1614611d3b575f6040517f73c6ac6e000000000000000000000000000000000000000000000000000000008152600401611d32919061280b565b60405180910390fd5b505050565b5f8373ffffffffffffffffffffffffffffffffffffffff163b1115611ee5578273ffffffffffffffffffffffffffffffffffffffff1663150b7a02868685856040518563ffffffff1660e01b8152600401611d9e949392919061382c565b6020604051808303815f875af1925050508015611dd957506040513d601f19601f82011682018060405250810190611dd6919061388a565b60015b611e5a573d805f8114611e07576040519150601f19603f3d011682016040523d82523d5f602084013e611e0c565b606091505b505f815103611e5257836040517f64a0ae92000000000000000000000000000000000000000000000000000000008152600401611e49919061280b565b60405180910390fd5b805181602001fd5b63150b7a0260e01b7bffffffffffffffffffffffffffffffffffffffffffffffffffffffff1916817bffffffffffffffffffffffffffffffffffffffffffffffffffffffff191614611ee357836040517f64a0ae92000000000000000000000000000000000000000000000000000000008152600401611eda919061280b565b60405180910390fd5b505b5050505050565b606060405180602001604052805f815250905090565b60605f6001611f10846123ef565b0190505f8167ffffffffffffffff811115611f2e57611f2d612c22565b5b6040519080825280601f01601f191660200182016040528015611f605781602001600182028036833780820191505090505b5090505f82602001820190505b600115611fc1578080600190039150507f3031323334353637383961626364656600000000000000000000000000000000600a86061a8153600a8581611fb657611fb56138b5565b5b0494505f8503611f6d575b819350505050919050565b5f73ffffffffffffffffffffffffffffffffffffffff168273ffffffffffffffffffffffffffffffffffffffff160361203c575f6040517f64a0ae92000000000000000000000000000000000000000000000000000000008152600401612033919061280b565b60405180910390fd5b5f61204883835f6118d9565b90505f73ffffffffffffffffffffffffffffffffffffffff168173ffffffffffffffffffffffffffffffffffffffff16036120ba57816040517f7e2732890000000000000000000000000000000000000000000000000000000081526004016120b19190612b49565b60405180910390fd5b8373ffffffffffffffffffffffffffffffffffffffff168173ffffffffffffffffffffffffffffffffffffffff161461212e578382826040517f64283d7b0000000000000000000000000000000000000000000000000000000081526004016121259392919061313a565b60405180910390fd5b50505050565b5f60025f8381526020019081526020015f205f9054906101000a900473ffffffffffffffffffffffffffffffffffffffff169050919050565b80806121a557505f73ffffffffffffffffffffffffffffffffffffffff168273ffffffffffffffffffffffffffffffffffffffff1614155b156122d7575f6121b484611801565b90505f73ffffffffffffffffffffffffffffffffffffffff168373ffffffffffffffffffffffffffffffffffffffff161415801561221e57508273ffffffffffffffffffffffffffffffffffffffff168173ffffffffffffffffffffffffffffffffffffffff1614155b8015612231575061222f81846114c1565b155b1561227357826040517fa9fbf51f00000000000000000000000000000000000000000000000000000000815260040161226a919061280b565b60405180910390fd5b81156122d557838573ffffffffffffffffffffffffffffffffffffffff168273ffffffffffffffffffffffffffffffffffffffff167f8c5be1e5ebec7d5bd14f71427d1e84f3dd0314c0f7b2291e5b200ac8c7c3b92560405160405180910390a45b505b8360045f8581526020019081526020015f205f6101000a81548173ffffffffffffffffffffffffffffffffffffffff021916908373ffffffffffffffffffffffffffffffffffffffff16021790555050505050565b612337838383612540565b6123ea575f73ffffffffffffffffffffffffffffffffffffffff168373ffffffffffffffffffffffffffffffffffffffff16036123ab57806040517f7e2732890000000000000000000000000000000000000000000000000000000081526004016123a29190612b49565b60405180910390fd5b81816040517f177e802f0000000000000000000000000000000000000000000000000000000081526004016123e19291906138e2565b60405180910390fd5b505050565b5f805f90507a184f03e93ff9f4daa797ed6e38ed64bf6a1f010000000000000000831061244b577a184f03e93ff9f4daa797ed6e38ed64bf6a1f0100000000000000008381612441576124406138b5565b5b0492506040810190505b6d04ee2d6d415b85acef81000000008310612488576d04ee2d6d415b85acef8100000000838161247e5761247d6138b5565b5b0492506020810190505b662386f26fc1000083106124b757662386f26fc1000083816124ad576124ac6138b5565b5b0492506010810190505b6305f5e10083106124e0576305f5e10083816124d6576124d56138b5565b5b0492506008810190505b61271083106125055761271083816124fb576124fa6138b5565b5b0492506004810190505b60648310612528576064838161251e5761251d6138b5565b5b0492506002810190505b600a8310612537576001810190505b80915050919050565b5f8073ffffffffffffffffffffffffffffffffffffffff168373ffffffffffffffffffffffffffffffffffffffff16141580156125f757508273ffffffffffffffffffffffffffffffffffffffff168473ffffffffffffffffffffffffffffffffffffffff1614806125b857506125b784846114c1565b5b806125f657508273ffffffffffffffffffffffffffffffffffffffff166125de83611887565b73ffffffffffffffffffffffffffffffffffffffff16145b5b90509392505050565b5f604051905090565b5f80fd5b5f80fd5b5f7fffffffff0000000000000000000000000000000000000000000000000000000082169050919050565b61264581612611565b811461264f575f80fd5b50565b5f813590506126608161263c565b92915050565b5f6020828403121561267b5761267a612609565b5b5f61268884828501612652565b91505092915050565b5f8115159050919050565b6126a581612691565b82525050565b5f6020820190506126be5f83018461269c565b92915050565b5f81519050919050565b5f82825260208201905092915050565b5f5b838110156126fb5780820151818401526020810190506126e0565b5f8484015250505050565b5f601f19601f8301169050919050565b5f612720826126c4565b61272a81856126ce565b935061273a8185602086016126de565b61274381612706565b840191505092915050565b5f6020820190508181035f8301526127668184612716565b905092915050565b5f819050919050565b6127808161276e565b811461278a575f80fd5b50565b5f8135905061279b81612777565b92915050565b5f602082840312156127b6576127b5612609565b5b5f6127c38482850161278d565b91505092915050565b5f73ffffffffffffffffffffffffffffffffffffffff82169050919050565b5f6127f5826127cc565b9050919050565b612805816127eb565b82525050565b5f60208201905061281e5f8301846127fc565b92915050565b61282d816127eb565b8114612837575f80fd5b50565b5f8135905061284881612824565b92915050565b5f806040838503121561286457612863612609565b5b5f6128718582860161283a565b92505060206128828582860161278d565b9150509250929050565b5f602082840312156128a1576128a0612609565b5b5f6128ae8482850161283a565b91505092915050565b5f81519050919050565b5f82825260208201905092915050565b5f819050602082019050919050565b6128e98161276e565b82525050565b5f6128fa83836128e0565b60208301905092915050565b5f602082019050919050565b5f61291c826128b7565b61292681856128c1565b9350612931836128d1565b805f5b8381101561296157815161294888826128ef565b975061295383612906565b925050600181019050612934565b5085935050505092915050565b5f6040820190508181035f8301526129868185612912565b9050818103602083015261299a8184612912565b90509392505050565b5f805f606084860312156129ba576129b9612609565b5b5f6129c78682870161283a565b93505060206129d88682870161283a565b92505060406129e98682870161278d565b9150509250925092565b6129fc8161276e565b82525050565b5f81519050919050565b5f82825260208201905092915050565b5f819050602082019050919050565b612a34816127eb565b82525050565b5f612a458383612a2b565b60208301905092915050565b5f602082019050919050565b5f612a6782612a02565b612a718185612a0c565b9350612a7c83612a1c565b805f5b83811015612aac578151612a938882612a3a565b9750612a9e83612a51565b925050600181019050612a7f565b5085935050505092915050565b5f60e082019050612acc5f83018a6127fc565b8181036020830152612ade8189612716565b90508181036040830152612af28188612716565b90508181036060830152612b068187612716565b9050612b1560808301866129f3565b81810360a0830152612b278185612a5d565b905081810360c0830152612b3b8184612912565b905098975050505050505050565b5f602082019050612b5c5f8301846129f3565b92915050565b5f805f60608486031215612b7957612b78612609565b5b5f612b868682870161278d565b9350506020612b978682870161283a565b9250506040612ba88682870161278d565b9150509250925092565b612bbb81612691565b8114612bc5575f80fd5b50565b5f81359050612bd681612bb2565b92915050565b5f8060408385031215612bf257612bf1612609565b5b5f612bff8582860161283a565b9250506020612c1085828601612bc8565b9150509250929050565b5f80fd5b5f80fd5b7f4e487b71000000000000000000000000000000000000000000000000000000005f52604160045260245ffd5b612c5882612706565b810181811067ffffffffffffffff82111715612c7757612c76612c22565b5b80604052505050565b5f612c89612600565b9050612c958282612c4f565b919050565b5f67ffffffffffffffff821115612cb457612cb3612c22565b5b612cbd82612706565b9050602081019050919050565b828183375f83830152505050565b5f612cea612ce584612c9a565b612c80565b905082815260208101848484011115612d0657612d05612c1e565b5b612d11848285612cca565b509392505050565b5f82601f830112612d2d57612d2c612c1a565b5b8135612d3d848260208601612cd8565b91505092915050565b5f805f8060808587031215612d5e57612d5d612609565b5b5f612d6b8782880161283a565b945050602085013567ffffffffffffffff811115612d8c57612d8b61260d565b5b612d9887828801612d19565b935050604085013567ffffffffffffffff811115612db957612db861260d565b5b612dc587828801612d19565b925050606085013567ffffffffffffffff811115612de657612de561260d565b5b612df287828801612d19565b91505092959194509250565b5f67ffffffffffffffff821115612e1857612e17612c22565b5b612e2182612706565b9050602081019050919050565b5f612e40612e3b84612dfe565b612c80565b905082815260208101848484011115612e5c57612e5b612c1e565b5b612e67848285612cca565b509392505050565b5f82601f830112612e8357612e82612c1a565b5b8135612e93848260208601612e2e565b91505092915050565b5f805f8060808587031215612eb457612eb3612609565b5b5f612ec18782880161283a565b9450506020612ed28782880161283a565b9350506040612ee38782880161278d565b925050606085013567ffffffffffffffff811115612f0457612f0361260d565b5b612f1087828801612e6f565b91505092959194509250565b5f8060408385031215612f3257612f31612609565b5b5f612f3f8582860161278d565b9250506020612f508582860161278d565b9150509250929050565b5f8060408385031215612f7057612f6f612609565b5b5f612f7d8582860161278d565b9250506020612f8e8582860161283a565b9150509250929050565b5f8060408385031215612fae57612fad612609565b5b5f612fbb8582860161283a565b9250506020612fcc8582860161283a565b9150509250929050565b5f60a082019050612fe95f8301886129f3565b8181036020830152612ffb8187612716565b9050818103604083015261300f8186612716565b905081810360608301526130238185612716565b905061303260808301846129f3565b9695505050505050565b7f4e487b71000000000000000000000000000000000000000000000000000000005f52602260045260245ffd5b5f600282049050600182168061308057607f821691505b6020821081036130935761309261303c565b5b50919050565b7f4e487b71000000000000000000000000000000000000000000000000000000005f52601160045260245ffd5b5f6130d08261276e565b91507fffffffffffffffffffffffffffffffffffffffffffffffffffffffffffffffff820361310257613101613099565b5b600182019050919050565b7f4e487b71000000000000000000000000000000000000000000000000000000005f52603260045260245ffd5b5f60608201905061314d5f8301866127fc565b61315a60208301856129f3565b61316760408301846127fc565b949350505050565b7f4e6f7420656e6f75676820736861726573206f776e65642e00000000000000005f82015250565b5f6131a36018836126ce565b91506131ae8261316f565b602082019050919050565b5f6020820190508181035f8301526131d081613197565b9050919050565b7f496e76616c696420616464726573732e000000000000000000000000000000005f82015250565b5f61320b6010836126ce565b9150613216826131d7565b602082019050919050565b5f6020820190508181035f830152613238816131ff565b9050919050565b5f6132498261276e565b91506132548361276e565b925082820390508181111561326c5761326b613099565b5b92915050565b5f61327c8261276e565b91506132878361276e565b925082820190508082111561329f5761329e613099565b5b92915050565b5f6080820190506132b85f8301876129f3565b6132c560208301866127fc565b6132d260408301856127fc565b6132df60608301846129f3565b95945050505050565b5f819050815f5260205f209050919050565b5f6020601f8301049050919050565b5f82821b905092915050565b5f600883026133447fffffffffffffffffffffffffffffffffffffffffffffffffffffffffffffffff82613309565b61334e8683613309565b95508019841693508086168417925050509392505050565b5f819050919050565b5f61338961338461337f8461276e565b613366565b61276e565b9050919050565b5f819050919050565b6133a28361336f565b6133b66133ae82613390565b848454613315565b825550505050565b5f90565b6133ca6133be565b6133d5818484613399565b505050565b5b818110156133f8576133ed5f826133c2565b6001810190506133db565b5050565b601f82111561343d5761340e816132e8565b613417846132fa565b81016020851015613426578190505b61343a613432856132fa565b8301826133da565b50505b505050565b5f82821c905092915050565b5f61345d5f1984600802613442565b1980831691505092915050565b5f613475838361344e565b9150826002028217905092915050565b61348e826126c4565b67ffffffffffffffff8111156134a7576134a6612c22565b5b6134b18254613069565b6134bc8282856133fc565b5f60209050601f8311600181146134ed575f84156134db578287015190505b6134e5858261346a565b86555061354c565b601f1984166134fb866132e8565b5f5b82811015613522578489015182556001820191506020850194506020810190506134fd565b8683101561353f578489015161353b601f89168261344e565b8355505b6001600288020188555050505b505050505050565b5f6080820190506135675f8301876129f3565b81810360208301526135798186612716565b9050818103604083015261358d8185612716565b905081810360608301526135a18184612716565b905095945050505050565b5f81905092915050565b5f6135c0826126c4565b6135ca81856135ac565b93506135da8185602086016126de565b80840191505092915050565b5f6135f182856135b6565b91506135fd82846135b6565b91508190509392505050565b7f4f6e6c79207468652070726f7065727479206f776e65722063616e206d696e745f8201527f207368617265732e000000000000000000000000000000000000000000000000602082015250565b5f6136636028836126ce565b915061366e82613609565b604082019050919050565b5f6020820190508181035f83015261369081613657565b9050919050565b7f53686172657320616c7265616479206d696e74656420666f72207468697320705f8201527f726f70657274792e000000000000000000000000000000000000000000000000602082015250565b5f6136f16028836126ce565b91506136fc82613697565b604082019050919050565b5f6020820190508181035f83015261371e816136e5565b9050919050565b5f6040820190506137385f8301856129f3565b61374560208301846129f3565b9392505050565b7f4f6e6c79207468652070726f7065727479206f776e65722063616e207472616e5f8201527f736665722e000000000000000000000000000000000000000000000000000000602082015250565b5f6137a66025836126ce565b91506137b18261374c565b604082019050919050565b5f6020820190508181035f8301526137d38161379a565b9050919050565b5f81519050919050565b5f82825260208201905092915050565b5f6137fe826137da565b61380881856137e4565b93506138188185602086016126de565b61382181612706565b840191505092915050565b5f60808201905061383f5f8301876127fc565b61384c60208301866127fc565b61385960408301856129f3565b818103606083015261386b81846137f4565b905095945050505050565b5f815190506138848161263c565b92915050565b5f6020828403121561389f5761389e612609565b5b5f6138ac84828501613876565b91505092915050565b7f4e487b71000000000000000000000000000000000000000000000000000000005f52601260045260245ffd5b5f6040820190506138f55f8301856127fc565b61390260208301846129f3565b939250505056fea2646970667358221220bfd9af31b27573acdbc64839bca252cb8680cde98f67897a85f3f545655a5d0864736f6c63430008140033",
  "immutableReferences": {},
  "source": "// SPDX-License-Identifier: MIT\npragma solidity ^0.8.0;\n\nimport '@openzeppelin/contracts/token/ERC721/ERC721.sol';\nimport '@openzeppelin/contracts/token/ERC20/IERC20.sol';\n\ncontract RealEstateProperty is ERC721 {\n    struct Property {\n        uint256 id;\n        string location;\n        string description;\n        string ipfsHash;\n        uint256 totalShares; // Total shares minted for the property\n        mapping(address => uint256) shareBalances;\n        address[] stakeholders;\n    }\n\n    // Mapping to store properties by token ID\n    mapping(uint256 => Property) public properties;\n    uint256 public propertyCounter;\n\n    // Event to be emitted when a new property is listed\n    event PropertyListed(\n        uint256 propertyId,\n        string location,\n        string description,\n        string ipfsHash\n    );\n    event SharesMinted(uint256 propertyId, uint256 totalShares);\n    event SharesTransferred(\n        uint256 propertyId,\n        address from,\n        address to,\n        uint256 shares\n    );\n\n    constructor() ERC721('RealEstateProperty', 'REPROP') {}\n\n    // Function to mint a new property\n    // Mint a new property\n    function mintProperty(\n        address owner,\n        string memory location,\n        string memory description,\n        string memory ipfsHash\n    ) public {\n        propertyCounter++;\n        uint256 propertyId = propertyCounter;\n\n\n        Property storage newProperty = properties[propertyId];\n        newProperty.id = propertyId;\n        newProperty.location = location;\n        newProperty.ipfsHash = ipfsHash;\n        newProperty.description = description;\n        newProperty.totalShares = 1000; // Default total shares\n\n        newProperty.shareBalances[owner] = 1000; // Initial shares to the owner\n        newProperty.stakeholders.push(owner); // Add owner as the first stakeholder\n\n        _mint(owner, propertyId);\n\n        emit PropertyListed(propertyId, location, description, ipfsHash);\n    }\n\n    // Function to mint shares for a property (only callable by the property owner)\n    function mintShares(uint256 propertyId, uint256 totalShares) public {\n        require(\n            ownerOf(propertyId) == msg.sender,\n            'Only the property owner can mint shares.'\n        );\n        require(\n            properties[propertyId].totalShares == 0,\n            'Shares already minted for this property.'\n        );\n\n        properties[propertyId].totalShares = totalShares;\n\n        // The property owner starts owning all the shares initially\n        properties[propertyId].shareBalances[msg.sender] = totalShares;\n\n        emit SharesMinted(propertyId, totalShares);\n    }\n\n    // Function to transfer shares to another address\n    function transferShares(\n        uint256 propertyId,\n        address to,\n        uint256 shares\n    ) public {\n        require(\n            properties[propertyId].shareBalances[msg.sender] >= shares,\n            'Not enough shares owned.'\n        );\n        require(to != address(0), 'Invalid address.');\n\n        Property storage property = properties[propertyId];\n\n        if (property.shareBalances[to] == 0) {\n            property.stakeholders.push(to); // Add to stakeholders if not already\n        }\n\n        // Deduct shares from the sender and add to the recipient\n        property.shareBalances[msg.sender] -= shares;\n        property.shareBalances[to] += shares;\n\n        emit SharesTransferred(propertyId, msg.sender, to, shares);\n    }\n\n    // Get shares owned by an address for a specific property\n    function getSharesOwned(\n        uint256 propertyId,\n        address owner\n    ) public view returns (uint256) {\n        return properties[propertyId].shareBalances[owner];\n    }\n\n    // **New Method**: Get properties in which the user owns shares\n    function getUserPropertiesWithShares(\n        address user\n    ) public view returns (uint256[] memory, uint256[] memory) {\n        uint256 count = 0;\n\n        // Count the number of properties the user has shares in\n        for (uint256 i = 1; i <= propertyCounter; i++) {\n            if (properties[i].shareBalances[user] > 0) {\n                count++;\n            }\n        }\n\n        // Initialize arrays to store property IDs and share counts\n        uint256[] memory userProperties = new uint256[](count);\n        uint256[] memory userShares = new uint256[](count);\n        uint256 index = 0;\n\n        // Populate arrays with properties and shares\n        for (uint256 i = 1; i <= propertyCounter; i++) {\n            uint256 shares = properties[i].shareBalances[user];\n            if (shares > 0) {\n                userProperties[index] = i;\n                userShares[index] = shares;\n                index++;\n            }\n        }\n\n        return (userProperties, userShares);\n    }\n\n    // **New Method**: Get property details including share distribution\n    function getProperty(uint256 propertyId)\n        public\n        view\n        returns (\n            address owner,\n            string memory location,\n            string memory description,\n            string memory ipfsHash,\n            uint256 totalShares,\n            address[] memory stakeholders,\n            uint256[] memory shares\n        )\n    {\n        Property storage property = properties[propertyId];\n        uint256 stakeholderCount = property.stakeholders.length;\n\n        uint256[] memory stakeholderShares = new uint256[](stakeholderCount);\n        for (uint256 i = 0; i < stakeholderCount; i++) {\n            address stakeholder = property.stakeholders[i];\n            stakeholderShares[i] = property.shareBalances[stakeholder];\n        }\n\n        return (\n            ownerOf(propertyId),\n            property.location,\n            property.description,\n            property.ipfsHash,\n            property.totalShares,\n            property.stakeholders,\n            stakeholderShares\n        );\n    }\n\n    // Function to transfer ownership of the property\n    function transferProperty(address to, uint256 propertyId) public {\n        require(\n            ownerOf(propertyId) == msg.sender,\n            'Only the property owner can transfer.'\n        );\n        _transfer(msg.sender, to, propertyId);\n    }\n}\n",
  "sourcePath": "/Users/johngulbronson/DetroitArt/gods.work/apps/web3/contracts/RealEstateProperty.sol",
  "compiler": {
    "name": "solc",
    "version": "0.8.20+commit.a1b79de6.Emscripten.clang"
  },
  "schemaVersion": "3.4.16",
  "updatedAt": "2024-11-28T03:06:47.112Z",
  "devdoc": {
    "errors": {
      "ERC721IncorrectOwner(address,uint256,address)": [
        {
          "details": "Indicates an error related to the ownership over a particular token. Used in transfers.",
          "params": {
            "owner": "Address of the current owner of a token.",
            "sender": "Address whose tokens are being transferred.",
            "tokenId": "Identifier number of a token."
          }
        }
      ],
      "ERC721InsufficientApproval(address,uint256)": [
        {
          "details": "Indicates a failure with the `operator`s approval. Used in transfers.",
          "params": {
            "operator": "Address that may be allowed to operate on tokens without being their owner.",
            "tokenId": "Identifier number of a token."
          }
        }
      ],
      "ERC721InvalidApprover(address)": [
        {
          "details": "Indicates a failure with the `approver` of a token to be approved. Used in approvals.",
          "params": {
            "approver": "Address initiating an approval operation."
          }
        }
      ],
      "ERC721InvalidOperator(address)": [
        {
          "details": "Indicates a failure with the `operator` to be approved. Used in approvals.",
          "params": {
            "operator": "Address that may be allowed to operate on tokens without being their owner."
          }
        }
      ],
      "ERC721InvalidOwner(address)": [
        {
          "details": "Indicates that an address can't be an owner. For example, `address(0)` is a forbidden owner in ERC-20. Used in balance queries.",
          "params": {
            "owner": "Address of the current owner of a token."
          }
        }
      ],
      "ERC721InvalidReceiver(address)": [
        {
          "details": "Indicates a failure with the token `receiver`. Used in transfers.",
          "params": {
            "receiver": "Address to which tokens are being transferred."
          }
        }
      ],
      "ERC721InvalidSender(address)": [
        {
          "details": "Indicates a failure with the token `sender`. Used in transfers.",
          "params": {
            "sender": "Address whose tokens are being transferred."
          }
        }
      ],
      "ERC721NonexistentToken(uint256)": [
        {
          "details": "Indicates a `tokenId` whose `owner` is the zero address.",
          "params": {
            "tokenId": "Identifier number of a token."
          }
        }
      ]
    },
    "events": {
      "Approval(address,address,uint256)": {
        "details": "Emitted when `owner` enables `approved` to manage the `tokenId` token."
      },
      "ApprovalForAll(address,address,bool)": {
        "details": "Emitted when `owner` enables or disables (`approved`) `operator` to manage all of its assets."
      },
      "Transfer(address,address,uint256)": {
        "details": "Emitted when `tokenId` token is transferred from `from` to `to`."
      }
    },
    "kind": "dev",
    "methods": {
      "approve(address,uint256)": {
        "details": "See {IERC721-approve}."
      },
      "balanceOf(address)": {
        "details": "See {IERC721-balanceOf}."
      },
      "getApproved(uint256)": {
        "details": "See {IERC721-getApproved}."
      },
      "isApprovedForAll(address,address)": {
        "details": "See {IERC721-isApprovedForAll}."
      },
      "name()": {
        "details": "See {IERC721Metadata-name}."
      },
      "ownerOf(uint256)": {
        "details": "See {IERC721-ownerOf}."
      },
      "safeTransferFrom(address,address,uint256)": {
        "details": "See {IERC721-safeTransferFrom}."
      },
      "safeTransferFrom(address,address,uint256,bytes)": {
        "details": "See {IERC721-safeTransferFrom}."
      },
      "setApprovalForAll(address,bool)": {
        "details": "See {IERC721-setApprovalForAll}."
      },
      "supportsInterface(bytes4)": {
        "details": "See {IERC165-supportsInterface}."
      },
      "symbol()": {
        "details": "See {IERC721Metadata-symbol}."
      },
      "tokenURI(uint256)": {
        "details": "See {IERC721Metadata-tokenURI}."
      },
      "transferFrom(address,address,uint256)": {
        "details": "See {IERC721-transferFrom}."
      }
    },
    "version": 1
  },
  "userdoc": {
    "kind": "user",
    "methods": {},
    "version": 1
  }
}