{
  "_format": "hh-sol-artifact-1",
  "contractName": "ArtNightNFT",
  "sourceName": "contracts/ArtNightNFT.sol",
  "abi": [
    {
      "inputs": [
        {
          "internalType": "string",
          "name": "name",
          "type": "string"
        },
        {
          "internalType": "string",
          "name": "symbol",
          "type": "string"
        }
      ],
      "stateMutability": "nonpayable",
      "type": "constructor"
    },
    {
      "inputs": [
        {
          "internalType": "address",
          "name": "sender",
          "type": "address"
        },
        {
          "internalType": "uint256",
          "name": "tokenId",
          "type": "uint256"
        },
        {
          "internalType": "address",
          "name": "owner",
          "type": "address"
        }
      ],
      "name": "ERC721IncorrectOwner",
      "type": "error"
    },
    {
      "inputs": [
        {
          "internalType": "address",
          "name": "operator",
          "type": "address"
        },
        {
          "internalType": "uint256",
          "name": "tokenId",
          "type": "uint256"
        }
      ],
      "name": "ERC721InsufficientApproval",
      "type": "error"
    },
    {
      "inputs": [
        {
          "internalType": "address",
          "name": "approver",
          "type": "address"
        }
      ],
      "name": "ERC721InvalidApprover",
      "type": "error"
    },
    {
      "inputs": [
        {
          "internalType": "address",
          "name": "operator",
          "type": "address"
        }
      ],
      "name": "ERC721InvalidOperator",
      "type": "error"
    },
    {
      "inputs": [
        {
          "internalType": "address",
          "name": "owner",
          "type": "address"
        }
      ],
      "name": "ERC721InvalidOwner",
      "type": "error"
    },
    {
      "inputs": [
        {
          "internalType": "address",
          "name": "receiver",
          "type": "address"
        }
      ],
      "name": "ERC721InvalidReceiver",
      "type": "error"
    },
    {
      "inputs": [
        {
          "internalType": "address",
          "name": "sender",
          "type": "address"
        }
      ],
      "name": "ERC721InvalidSender",
      "type": "error"
    },
    {
      "inputs": [
        {
          "internalType": "uint256",
          "name": "tokenId",
          "type": "uint256"
        }
      ],
      "name": "ERC721NonexistentToken",
      "type": "error"
    },
    {
      "anonymous": false,
      "inputs": [
        {
          "indexed": true,
          "internalType": "address",
          "name": "owner",
          "type": "address"
        },
        {
          "indexed": true,
          "internalType": "address",
          "name": "approved",
          "type": "address"
        },
        {
          "indexed": true,
          "internalType": "uint256",
          "name": "tokenId",
          "type": "uint256"
        }
      ],
      "name": "Approval",
      "type": "event"
    },
    {
      "anonymous": false,
      "inputs": [
        {
          "indexed": true,
          "internalType": "address",
          "name": "owner",
          "type": "address"
        },
        {
          "indexed": true,
          "internalType": "address",
          "name": "operator",
          "type": "address"
        },
        {
          "indexed": false,
          "internalType": "bool",
          "name": "approved",
          "type": "bool"
        }
      ],
      "name": "ApprovalForAll",
      "type": "event"
    },
    {
      "anonymous": false,
      "inputs": [
        {
          "indexed": false,
          "internalType": "uint256",
          "name": "tokenId",
          "type": "uint256"
        },
        {
          "indexed": false,
          "internalType": "address",
          "name": "artist",
          "type": "address"
        },
        {
          "indexed": false,
          "internalType": "string",
          "name": "tokenURI",
          "type": "string"
        }
      ],
      "name": "ArtworkMinted",
      "type": "event"
    },
    {
      "anonymous": false,
      "inputs": [
        {
          "indexed": false,
          "internalType": "uint256",
          "name": "_fromTokenId",
          "type": "uint256"
        },
        {
          "indexed": false,
          "internalType": "uint256",
          "name": "_toTokenId",
          "type": "uint256"
        }
      ],
      "name": "BatchMetadataUpdate",
      "type": "event"
    },
    {
      "anonymous": false,
      "inputs": [
        {
          "indexed": false,
          "internalType": "uint256",
          "name": "_tokenId",
          "type": "uint256"
        }
      ],
      "name": "MetadataUpdate",
      "type": "event"
    },
    {
      "anonymous": false,
      "inputs": [
        {
          "indexed": true,
          "internalType": "address",
          "name": "from",
          "type": "address"
        },
        {
          "indexed": true,
          "internalType": "address",
          "name": "to",
          "type": "address"
        },
        {
          "indexed": true,
          "internalType": "uint256",
          "name": "tokenId",
          "type": "uint256"
        }
      ],
      "name": "Transfer",
      "type": "event"
    },
    {
      "inputs": [
        {
          "internalType": "address",
          "name": "to",
          "type": "address"
        },
        {
          "internalType": "uint256",
          "name": "tokenId",
          "type": "uint256"
        }
      ],
      "name": "approve",
      "outputs": [],
      "stateMutability": "nonpayable",
      "type": "function"
    },
    {
      "inputs": [],
      "name": "artworkCounter",
      "outputs": [
        {
          "internalType": "uint256",
          "name": "",
          "type": "uint256"
        }
      ],
      "stateMutability": "view",
      "type": "function"
    },
    {
      "inputs": [
        {
          "internalType": "uint256",
          "name": "",
          "type": "uint256"
        }
      ],
      "name": "artworks",
      "outputs": [
        {
          "internalType": "uint256",
          "name": "id",
          "type": "uint256"
        },
        {
          "internalType": "string",
          "name": "tokenURI",
          "type": "string"
        },
        {
          "internalType": "address",
          "name": "artist",
          "type": "address"
        }
      ],
      "stateMutability": "view",
      "type": "function"
    },
    {
      "inputs": [
        {
          "internalType": "address",
          "name": "owner",
          "type": "address"
        }
      ],
      "name": "balanceOf",
      "outputs": [
        {
          "internalType": "uint256",
          "name": "",
          "type": "uint256"
        }
      ],
      "stateMutability": "view",
      "type": "function"
    },
    {
      "inputs": [
        {
          "internalType": "uint256",
          "name": "tokenId",
          "type": "uint256"
        }
      ],
      "name": "getApproved",
      "outputs": [
        {
          "internalType": "address",
          "name": "",
          "type": "address"
        }
      ],
      "stateMutability": "view",
      "type": "function"
    },
    {
      "inputs": [
        {
          "internalType": "uint256",
          "name": "tokenId",
          "type": "uint256"
        }
      ],
      "name": "getArtwork",
      "outputs": [
        {
          "internalType": "uint256",
          "name": "id",
          "type": "uint256"
        },
        {
          "internalType": "string",
          "name": "uri",
          "type": "string"
        },
        {
          "internalType": "address",
          "name": "artist",
          "type": "address"
        }
      ],
      "stateMutability": "view",
      "type": "function"
    },
    {
      "inputs": [],
      "name": "getArtworks",
      "outputs": [
        {
          "components": [
            {
              "internalType": "uint256",
              "name": "id",
              "type": "uint256"
            },
            {
              "internalType": "string",
              "name": "tokenURI",
              "type": "string"
            },
            {
              "internalType": "address",
              "name": "artist",
              "type": "address"
            }
          ],
          "internalType": "struct ArtNightNFT.Artwork[]",
          "name": "",
          "type": "tuple[]"
        }
      ],
      "stateMutability": "view",
      "type": "function"
    },
    {
      "inputs": [
        {
          "internalType": "uint256",
          "name": "tokenId",
          "type": "uint256"
        }
      ],
      "name": "getTokenURI",
      "outputs": [
        {
          "internalType": "string",
          "name": "",
          "type": "string"
        }
      ],
      "stateMutability": "view",
      "type": "function"
    },
    {
      "inputs": [
        {
          "internalType": "address",
          "name": "owner",
          "type": "address"
        },
        {
          "internalType": "address",
          "name": "operator",
          "type": "address"
        }
      ],
      "name": "isApprovedForAll",
      "outputs": [
        {
          "internalType": "bool",
          "name": "",
          "type": "bool"
        }
      ],
      "stateMutability": "view",
      "type": "function"
    },
    {
      "inputs": [
        {
          "internalType": "address",
          "name": "artist",
          "type": "address"
        },
        {
          "internalType": "string",
          "name": "uri",
          "type": "string"
        }
      ],
      "name": "mintNFT",
      "outputs": [
        {
          "internalType": "uint256",
          "name": "",
          "type": "uint256"
        }
      ],
      "stateMutability": "nonpayable",
      "type": "function"
    },
    {
      "inputs": [],
      "name": "name",
      "outputs": [
        {
          "internalType": "string",
          "name": "",
          "type": "string"
        }
      ],
      "stateMutability": "view",
      "type": "function"
    },
    {
      "inputs": [
        {
          "internalType": "uint256",
          "name": "tokenId",
          "type": "uint256"
        }
      ],
      "name": "ownerOf",
      "outputs": [
        {
          "internalType": "address",
          "name": "",
          "type": "address"
        }
      ],
      "stateMutability": "view",
      "type": "function"
    },
    {
      "inputs": [
        {
          "internalType": "address",
          "name": "from",
          "type": "address"
        },
        {
          "internalType": "address",
          "name": "to",
          "type": "address"
        },
        {
          "internalType": "uint256",
          "name": "tokenId",
          "type": "uint256"
        }
      ],
      "name": "safeTransferFrom",
      "outputs": [],
      "stateMutability": "nonpayable",
      "type": "function"
    },
    {
      "inputs": [
        {
          "internalType": "address",
          "name": "from",
          "type": "address"
        },
        {
          "internalType": "address",
          "name": "to",
          "type": "address"
        },
        {
          "internalType": "uint256",
          "name": "tokenId",
          "type": "uint256"
        },
        {
          "internalType": "bytes",
          "name": "data",
          "type": "bytes"
        }
      ],
      "name": "safeTransferFrom",
      "outputs": [],
      "stateMutability": "nonpayable",
      "type": "function"
    },
    {
      "inputs": [
        {
          "internalType": "address",
          "name": "operator",
          "type": "address"
        },
        {
          "internalType": "bool",
          "name": "approved",
          "type": "bool"
        }
      ],
      "name": "setApprovalForAll",
      "outputs": [],
      "stateMutability": "nonpayable",
      "type": "function"
    },
    {
      "inputs": [
        {
          "internalType": "uint256",
          "name": "tokenId",
          "type": "uint256"
        },
        {
          "internalType": "string",
          "name": "_tokenURI",
          "type": "string"
        }
      ],
      "name": "setTokenURI",
      "outputs": [],
      "stateMutability": "nonpayable",
      "type": "function"
    },
    {
      "inputs": [
        {
          "internalType": "bytes4",
          "name": "interfaceId",
          "type": "bytes4"
        }
      ],
      "name": "supportsInterface",
      "outputs": [
        {
          "internalType": "bool",
          "name": "",
          "type": "bool"
        }
      ],
      "stateMutability": "view",
      "type": "function"
    },
    {
      "inputs": [],
      "name": "symbol",
      "outputs": [
        {
          "internalType": "string",
          "name": "",
          "type": "string"
        }
      ],
      "stateMutability": "view",
      "type": "function"
    },
    {
      "inputs": [
        {
          "internalType": "uint256",
          "name": "tokenId",
          "type": "uint256"
        }
      ],
      "name": "tokenURI",
      "outputs": [
        {
          "internalType": "string",
          "name": "",
          "type": "string"
        }
      ],
      "stateMutability": "view",
      "type": "function"
    },
    {
      "inputs": [
        {
          "internalType": "address",
          "name": "to",
          "type": "address"
        },
        {
          "internalType": "uint256",
          "name": "tokenId",
          "type": "uint256"
        }
      ],
      "name": "transferArtwork",
      "outputs": [],
      "stateMutability": "nonpayable",
      "type": "function"
    },
    {
      "inputs": [
        {
          "internalType": "address",
          "name": "from",
          "type": "address"
        },
        {
          "internalType": "address",
          "name": "to",
          "type": "address"
        },
        {
          "internalType": "uint256",
          "name": "tokenId",
          "type": "uint256"
        }
      ],
      "name": "transferFrom",
      "outputs": [],
      "stateMutability": "nonpayable",
      "type": "function"
    }
  ],
  "bytecode": "0x60806040523480156200001157600080fd5b5060405162001e1038038062001e10833981016040819052620000349162000123565b818160006200004483826200021c565b5060016200005382826200021c565b5050505050620002e8565b634e487b7160e01b600052604160045260246000fd5b600082601f8301126200008657600080fd5b81516001600160401b0380821115620000a357620000a36200005e565b604051601f8301601f19908116603f01168101908282118183101715620000ce57620000ce6200005e565b81604052838152602092508683858801011115620000eb57600080fd5b600091505b838210156200010f5785820183015181830184015290820190620000f0565b600093810190920192909252949350505050565b600080604083850312156200013757600080fd5b82516001600160401b03808211156200014f57600080fd5b6200015d8683870162000074565b935060208501519150808211156200017457600080fd5b50620001838582860162000074565b9150509250929050565b600181811c90821680620001a257607f821691505b602082108103620001c357634e487b7160e01b600052602260045260246000fd5b50919050565b601f8211156200021757600081815260208120601f850160051c81016020861015620001f25750805b601f850160051c820191505b818110156200021357828155600101620001fe565b5050505b505050565b81516001600160401b038111156200023857620002386200005e565b62000250816200024984546200018d565b84620001c9565b602080601f8311600181146200028857600084156200026f5750858301515b600019600386901b1c1916600185901b17855562000213565b600085815260208120601f198616915b82811015620002b95788860151825594840194600190910190840162000298565b5085821015620002d85787850151600019600388901b60f8161c191681555b5050505050600190811b01905550565b611b1880620002f86000396000f3fe608060405234801561001057600080fd5b50600436106101365760003560e01c80633bb3a24d116100b857806395d89b411161007c57806395d89b41146102a2578063a22cb465146102aa578063b88d4fde146102bd578063c87b56dd146102d0578063e985e9c5146102e3578063eacabe14146102f657600080fd5b80633bb3a24d1461024357806342842e0e146102565780634b602673146102695780636352211e1461027c57806370a082311461028f57600080fd5b80630c45ed07116100ff5780630c45ed07146101d1578063162094c4146101e4578063167ddf6e146101f757806323b872dd14610219578063390593a11461022c57600080fd5b8062a715271461013b57806301ffc9a71461015957806306fdde031461017c578063081812fc14610191578063095ea7b3146101bc575b600080fd5b610143610309565b6040516101509190611455565b60405180910390f35b61016c6101673660046114f8565b6104b3565b6040519015158152602001610150565b6101846104c4565b6040516101509190611515565b6101a461019f366004611528565b610556565b6040516001600160a01b039091168152602001610150565b6101cf6101ca36600461155d565b61057f565b005b6101cf6101df36600461155d565b61058e565b6101cf6101f2366004611633565b61060a565b61020a610205366004611528565b610690565b6040516101509392919061167a565b6101cf6102273660046116ab565b61075a565b61023560085481565b604051908152602001610150565b610184610251366004611528565b6107e5565b6101cf6102643660046116ab565b6107f0565b61020a610277366004611528565b610810565b6101a461028a366004611528565b6108c4565b61023561029d3660046116e7565b6108cf565b610184610917565b6101cf6102b8366004611702565b610926565b6101cf6102cb36600461173e565b610931565b6101846102de366004611528565b610949565b61016c6102f13660046117ba565b610954565b6102356103043660046117ed565b610982565b6060600060085467ffffffffffffffff81111561032857610328611587565b60405190808252806020026020018201604052801561038657816020015b6103736040518060600160405280600081526020016060815260200160006001600160a01b031681525090565b8152602001906001900390816103465790505b50905060005b6008548110156104ad5760006103a382600161183b565b9050600060076000838152602001908152602001600020905080604051806060016040529081600082015481526020016001820180546103e29061184e565b80601f016020809104026020016040519081016040528092919081815260200182805461040e9061184e565b801561045b5780601f106104305761010080835404028352916020019161045b565b820191906000526020600020905b81548152906001019060200180831161043e57829003601f168201915b5050509183525050600291909101546001600160a01b0316602090910152845185908590811061048d5761048d611882565b6020026020010181905250505080806104a590611898565b91505061038c565b50919050565b60006104be82610a32565b92915050565b6060600080546104d39061184e565b80601f01602080910402602001604051908101604052809291908181526020018280546104ff9061184e565b801561054c5780601f106105215761010080835404028352916020019161054c565b820191906000526020600020905b81548152906001019060200180831161052f57829003601f168201915b5050505050905090565b600061056182610a57565b506000828152600460205260409020546001600160a01b03166104be565b61058a828233610a90565b5050565b33610598826108c4565b6001600160a01b0316146105ff5760405162461bcd60e51b8152602060048201526024808201527f4f6e6c792074686520617274776f726b206f776e65722063616e207472616e736044820152633332b91760e11b60648201526084015b60405180910390fd5b61058a338383610a9d565b33610614836108c4565b6001600160a01b03161461066a5760405162461bcd60e51b815260206004820152601c60248201527f4f6e6c7920746f6b656e206f776e65722063616e20736574205552490000000060448201526064016105f6565b600082815260076020526040902060010161068582826118f7565b5061058a8282610b4d565b600081815260076020526040812080546002820154600183018054606094869490939092916001600160a01b039091169082906106cc9061184e565b80601f01602080910402602001604051908101604052809291908181526020018280546106f89061184e565b80156107455780601f1061071a57610100808354040283529160200191610745565b820191906000526020600020905b81548152906001019060200180831161072857829003601f168201915b50505050509150935093509350509193909250565b6001600160a01b03821661078457604051633250574960e11b8152600060048201526024016105f6565b6000610791838333610b9d565b9050836001600160a01b0316816001600160a01b0316146107df576040516364283d7b60e01b81526001600160a01b03808616600483015260248201849052821660448201526064016105f6565b50505050565b60606104be82610949565b61080b83838360405180602001604052806000815250610931565b505050565b600760205260009081526040902080546001820180549192916108329061184e565b80601f016020809104026020016040519081016040528092919081815260200182805461085e9061184e565b80156108ab5780601f10610880576101008083540402835291602001916108ab565b820191906000526020600020905b81548152906001019060200180831161088e57829003601f168201915b505050600290930154919250506001600160a01b031683565b60006104be82610a57565b60006001600160a01b0382166108fb576040516322718ad960e21b8152600060048201526024016105f6565b506001600160a01b031660009081526003602052604090205490565b6060600180546104d39061184e565b61058a338383610c96565b61093c84848461075a565b6107df3385858585610d35565b60606104be82610e60565b6001600160a01b03918216600090815260056020908152604080832093909416825291909152205460ff1690565b600880546000918261099383611898565b909155505060085460008181526007602052604090208181556002810180546001600160a01b0319166001600160a01b038716179055600181016109d785826118f7565b506109e28583610f71565b6109ec8285610b4d565b7fa9eee6db348cd85744a0dbd259b75b7a3d51f99785db7ef05829954c2042a0ad828683600101604051610a22939291906119b7565b60405180910390a1509392505050565b60006001600160e01b03198216632483248360e11b14806104be57506104be82610f8b565b6000818152600260205260408120546001600160a01b0316806104be57604051637e27328960e01b8152600481018490526024016105f6565b61080b8383836001610fdb565b6001600160a01b038216610ac757604051633250574960e11b8152600060048201526024016105f6565b6000610ad583836000610b9d565b90506001600160a01b038116610b0157604051637e27328960e01b8152600481018390526024016105f6565b836001600160a01b0316816001600160a01b0316146107df576040516364283d7b60e01b81526001600160a01b03808616600483015260248201849052821660448201526064016105f6565b6000828152600660205260409020610b6582826118f7565b506040518281527ff8e1a15aba9398e019f0b49df1a4fde98ee17ae345cb5f6b5e2c27f5033e8ce79060200160405180910390a15050565b6000828152600260205260408120546001600160a01b0390811690831615610bca57610bca8184866110e1565b6001600160a01b03811615610c0857610be7600085600080610fdb565b6001600160a01b038116600090815260036020526040902080546000190190555b6001600160a01b03851615610c37576001600160a01b0385166000908152600360205260409020805460010190555b60008481526002602052604080822080546001600160a01b0319166001600160a01b0389811691821790925591518793918516917fddf252ad1be2c89b69c2b068fc378daa952ba7f163c4a11628f55a4df523b3ef91a4949350505050565b6001600160a01b038216610cc857604051630b61174360e31b81526001600160a01b03831660048201526024016105f6565b6001600160a01b03838116600081815260056020908152604080832094871680845294825291829020805460ff191686151590811790915591519182527f17307eab39ab6107e8899845ad3d59bd9653f200f220920489ca2b5937696c31910160405180910390a3505050565b6001600160a01b0383163b15610e5957604051630a85bd0160e11b81526001600160a01b0384169063150b7a0290610d77908890889087908790600401611a59565b6020604051808303816000875af1925050508015610db2575060408051601f3d908101601f19168201909252610daf91810190611a96565b60015b610e1b573d808015610de0576040519150601f19603f3d011682016040523d82523d6000602084013e610de5565b606091505b508051600003610e1357604051633250574960e11b81526001600160a01b03851660048201526024016105f6565b805181602001fd5b6001600160e01b03198116630a85bd0160e11b14610e5757604051633250574960e11b81526001600160a01b03851660048201526024016105f6565b505b5050505050565b6060610e6b82610a57565b5060008281526006602052604081208054610e859061184e565b80601f0160208091040260200160405190810160405280929190818152602001828054610eb19061184e565b8015610efe5780601f10610ed357610100808354040283529160200191610efe565b820191906000526020600020905b815481529060010190602001808311610ee157829003601f168201915b505050505090506000610f1c60408051602081019091526000815290565b90508051600003610f2e575092915050565b815115610f60578082604051602001610f48929190611ab3565b60405160208183030381529060405292505050919050565b610f6984611145565b949350505050565b61058a8282604051806020016040528060008152506111ba565b60006001600160e01b031982166380ac58cd60e01b1480610fbc57506001600160e01b03198216635b5e139f60e01b145b806104be57506301ffc9a760e01b6001600160e01b03198316146104be565b8080610fef57506001600160a01b03821615155b156110b1576000610fff84610a57565b90506001600160a01b0383161580159061102b5750826001600160a01b0316816001600160a01b031614155b801561103e575061103c8184610954565b155b156110675760405163a9fbf51f60e01b81526001600160a01b03841660048201526024016105f6565b81156110af5783856001600160a01b0316826001600160a01b03167f8c5be1e5ebec7d5bd14f71427d1e84f3dd0314c0f7b2291e5b200ac8c7c3b92560405160405180910390a45b505b5050600090815260046020526040902080546001600160a01b0319166001600160a01b0392909216919091179055565b6110ec8383836111d2565b61080b576001600160a01b03831661111a57604051637e27328960e01b8152600481018290526024016105f6565b60405163177e802f60e01b81526001600160a01b0383166004820152602481018290526044016105f6565b606061115082610a57565b50600061116860408051602081019091526000815290565b9050600081511161118857604051806020016040528060008152506111b3565b8061119284611235565b6040516020016111a3929190611ab3565b6040516020818303038152906040525b9392505050565b6111c483836112c8565b61080b336000858585610d35565b60006001600160a01b03831615801590610f695750826001600160a01b0316846001600160a01b0316148061120c575061120c8484610954565b80610f695750506000908152600460205260409020546001600160a01b03908116911614919050565b606060006112428361132d565b600101905060008167ffffffffffffffff81111561126257611262611587565b6040519080825280601f01601f19166020018201604052801561128c576020820181803683370190505b5090508181016020015b600019016f181899199a1a9b1b9c1cb0b131b232b360811b600a86061a8153600a850494508461129657509392505050565b6001600160a01b0382166112f257604051633250574960e11b8152600060048201526024016105f6565b600061130083836000610b9d565b90506001600160a01b0381161561080b576040516339e3563760e11b8152600060048201526024016105f6565b60008072184f03e93ff9f4daa797ed6e38ed64bf6a1f0160401b831061136c5772184f03e93ff9f4daa797ed6e38ed64bf6a1f0160401b830492506040015b6d04ee2d6d415b85acef81000000008310611398576d04ee2d6d415b85acef8100000000830492506020015b662386f26fc1000083106113b657662386f26fc10000830492506010015b6305f5e10083106113ce576305f5e100830492506008015b61271083106113e257612710830492506004015b606483106113f4576064830492506002015b600a83106104be5760010192915050565b60005b83811015611420578181015183820152602001611408565b50506000910152565b60008151808452611441816020860160208601611405565b601f01601f19169290920160200192915050565b60006020808301818452808551808352604092508286019150828160051b87010184880160005b838110156114d157603f19898403018552815160608151855288820151818a8701526114aa82870182611429565b928901516001600160a01b031695890195909552509487019492509086019060010161147c565b509098975050505050505050565b6001600160e01b0319811681146114f557600080fd5b50565b60006020828403121561150a57600080fd5b81356111b3816114df565b6020815260006111b36020830184611429565b60006020828403121561153a57600080fd5b5035919050565b80356001600160a01b038116811461155857600080fd5b919050565b6000806040838503121561157057600080fd5b61157983611541565b946020939093013593505050565b634e487b7160e01b600052604160045260246000fd5b600067ffffffffffffffff808411156115b8576115b8611587565b604051601f8501601f19908116603f011681019082821181831017156115e0576115e0611587565b816040528093508581528686860111156115f957600080fd5b858560208301376000602087830101525050509392505050565b600082601f83011261162457600080fd5b6111b38383356020850161159d565b6000806040838503121561164657600080fd5b82359150602083013567ffffffffffffffff81111561166457600080fd5b61167085828601611613565b9150509250929050565b8381526060602082015260006116936060830185611429565b905060018060a01b0383166040830152949350505050565b6000806000606084860312156116c057600080fd5b6116c984611541565b92506116d760208501611541565b9150604084013590509250925092565b6000602082840312156116f957600080fd5b6111b382611541565b6000806040838503121561171557600080fd5b61171e83611541565b91506020830135801515811461173357600080fd5b809150509250929050565b6000806000806080858703121561175457600080fd5b61175d85611541565b935061176b60208601611541565b925060408501359150606085013567ffffffffffffffff81111561178e57600080fd5b8501601f8101871361179f57600080fd5b6117ae8782356020840161159d565b91505092959194509250565b600080604083850312156117cd57600080fd5b6117d683611541565b91506117e460208401611541565b90509250929050565b6000806040838503121561180057600080fd5b61180983611541565b9150602083013567ffffffffffffffff81111561166457600080fd5b634e487b7160e01b600052601160045260246000fd5b808201808211156104be576104be611825565b600181811c9082168061186257607f821691505b6020821081036104ad57634e487b7160e01b600052602260045260246000fd5b634e487b7160e01b600052603260045260246000fd5b6000600182016118aa576118aa611825565b5060010190565b601f82111561080b57600081815260208120601f850160051c810160208610156118d85750805b601f850160051c820191505b81811015610e57578281556001016118e4565b815167ffffffffffffffff81111561191157611911611587565b6119258161191f845461184e565b846118b1565b602080601f83116001811461195a57600084156119425750858301515b600019600386901b1c1916600185901b178555610e57565b600085815260208120601f198616915b828110156119895788860151825594840194600190910190840161196a565b50858210156119a75787850151600019600388901b60f8161c191681555b5050505050600190811b01905550565b8381526000602060018060a01b0385168184015260606040840152600084546119df8161184e565b8060608701526080600180841660008114611a015760018114611a1b57611a49565b60ff1985168984015283151560051b890183019550611a49565b896000528660002060005b85811015611a415781548b8201860152908301908801611a26565b8a0184019650505b50939a9950505050505050505050565b6001600160a01b0385811682528416602082015260408101839052608060608201819052600090611a8c90830184611429565b9695505050505050565b600060208284031215611aa857600080fd5b81516111b3816114df565b60008351611ac5818460208801611405565b835190830190611ad9818360208801611405565b0194935050505056fea2646970667358221220263df862181eee00a775040f33798320e084bfff86edbe356ab36e6a1e1adf8c64736f6c63430008140033",
  "linkReferences": {},
  "deployedLinkReferences": {}
}