{
  "_format": "hh-sol-artifact-1",
  "contractName": "InvestorRegistry",
  "sourceName": "contracts/InvestorRegistry.sol",
  "abi": [
    {
      "inputs": [],
      "stateMutability": "nonpayable",
      "type": "constructor"
    },
    {
      "anonymous": false,
      "inputs": [
        {
          "indexed": true,
          "internalType": "address",
          "name": "investor",
          "type": "address"
        }
      ],
      "name": "InvestorRegistered",
      "type": "event"
    },
    {
      "anonymous": false,
      "inputs": [
        {
          "indexed": true,
          "internalType": "address",
          "name": "investor",
          "type": "address"
        }
      ],
      "name": "InvestorRemoved",
      "type": "event"
    },
    {
      "anonymous": false,
      "inputs": [
        {
          "indexed": true,
          "internalType": "address",
          "name": "investor",
          "type": "address"
        },
        {
          "indexed": true,
          "internalType": "address",
          "name": "verifier",
          "type": "address"
        },
        {
          "indexed": false,
          "internalType": "uint256",
          "name": "timestamp",
          "type": "uint256"
        }
      ],
      "name": "InvestorVerified",
      "type": "event"
    },
    {
      "anonymous": false,
      "inputs": [
        {
          "indexed": true,
          "internalType": "address",
          "name": "verifier",
          "type": "address"
        }
      ],
      "name": "VerifierAuthorized",
      "type": "event"
    },
    {
      "anonymous": false,
      "inputs": [
        {
          "indexed": true,
          "internalType": "address",
          "name": "verifier",
          "type": "address"
        }
      ],
      "name": "VerifierRemoved",
      "type": "event"
    },
    {
      "inputs": [
        {
          "internalType": "address",
          "name": "verifier",
          "type": "address"
        }
      ],
      "name": "authorizeVerifier",
      "outputs": [],
      "stateMutability": "nonpayable",
      "type": "function"
    },
    {
      "inputs": [
        {
          "internalType": "address",
          "name": "investor",
          "type": "address"
        }
      ],
      "name": "getInvestorDetails",
      "outputs": [
        {
          "internalType": "bool",
          "name": "isRegistered",
          "type": "bool"
        },
        {
          "internalType": "bool",
          "name": "isVerified",
          "type": "bool"
        },
        {
          "internalType": "address",
          "name": "verifier",
          "type": "address"
        },
        {
          "internalType": "uint256",
          "name": "verificationTimestamp",
          "type": "uint256"
        },
        {
          "internalType": "string",
          "name": "name",
          "type": "string"
        }
      ],
      "stateMutability": "view",
      "type": "function"
    },
    {
      "inputs": [
        {
          "internalType": "address",
          "name": "verifier",
          "type": "address"
        }
      ],
      "name": "isAuthorizedVerifier",
      "outputs": [
        {
          "internalType": "bool",
          "name": "",
          "type": "bool"
        }
      ],
      "stateMutability": "view",
      "type": "function"
    },
    {
      "inputs": [
        {
          "internalType": "address",
          "name": "investor",
          "type": "address"
        }
      ],
      "name": "isRegisteredInvestor",
      "outputs": [
        {
          "internalType": "bool",
          "name": "",
          "type": "bool"
        }
      ],
      "stateMutability": "view",
      "type": "function"
    },
    {
      "inputs": [
        {
          "internalType": "address",
          "name": "investor",
          "type": "address"
        }
      ],
      "name": "isVerifiedInvestor",
      "outputs": [
        {
          "internalType": "bool",
          "name": "",
          "type": "bool"
        }
      ],
      "stateMutability": "view",
      "type": "function"
    },
    {
      "inputs": [],
      "name": "owner",
      "outputs": [
        {
          "internalType": "address",
          "name": "",
          "type": "address"
        }
      ],
      "stateMutability": "view",
      "type": "function"
    },
    {
      "inputs": [
        {
          "internalType": "string",
          "name": "name",
          "type": "string"
        }
      ],
      "name": "registerInvestor",
      "outputs": [],
      "stateMutability": "nonpayable",
      "type": "function"
    },
    {
      "inputs": [
        {
          "internalType": "address",
          "name": "investor",
          "type": "address"
        },
        {
          "internalType": "string",
          "name": "name",
          "type": "string"
        }
      ],
      "name": "registerInvestorByOwner",
      "outputs": [],
      "stateMutability": "nonpayable",
      "type": "function"
    },
    {
      "inputs": [
        {
          "internalType": "address",
          "name": "investor",
          "type": "address"
        }
      ],
      "name": "removeInvestor",
      "outputs": [],
      "stateMutability": "nonpayable",
      "type": "function"
    },
    {
      "inputs": [
        {
          "internalType": "address",
          "name": "verifier",
          "type": "address"
        }
      ],
      "name": "removeVerifier",
      "outputs": [],
      "stateMutability": "nonpayable",
      "type": "function"
    },
    {
      "inputs": [
        {
          "internalType": "address",
          "name": "investor",
          "type": "address"
        }
      ],
      "name": "verifyInvestor",
      "outputs": [],
      "stateMutability": "nonpayable",
      "type": "function"
    }
  ],
  "bytecode": "0x608060405234801561001057600080fd5b50600280546001600160a01b0319163317905561102b806100326000396000f3fe608060405234801561001057600080fd5b50600436106100a95760003560e01c80638da5cb5b116100715780638da5cb5b1461015b5780639f3d07ea14610186578063ca2dfd0a146101b2578063d84dbdc3146101c5578063ec3246a2146101d8578063efab1e50146101eb57600080fd5b80631fa1b60c146100ae57806320ad8cab146100f457806342714978146101095780635f5883ab1461011c5780636cacbf301461012f575b600080fd5b6100df6100bc366004610c6d565b6001600160a01b0316600090815260208190526040902054610100900460ff1690565b60405190151581526020015b60405180910390f35b610107610102366004610c6d565b61020f565b005b610107610117366004610c6d565b61034b565b61010761012a366004610d32565b610471565b6100df61013d366004610c6d565b6001600160a01b031660009081526001602052604090205460ff1690565b60025461016e906001600160a01b031681565b6040516001600160a01b0390911681526020016100eb565b6100df610194366004610c6d565b6001600160a01b031660009081526020819052604090205460ff1690565b6101076101c0366004610c6d565b61064c565b6101076101d3366004610c6d565b610778565b6101076101e6366004610d80565b610960565b6101fe6101f9366004610c6d565b610ad4565b6040516100eb959493929190610dbd565b6002546001600160a01b031633146102425760405162461bcd60e51b815260040161023990610e34565b60405180910390fd5b6001600160a01b0381166102935760405162461bcd60e51b8152602060048201526018602482015277496e76616c6964207665726966696572206164647265737360401b6044820152606401610239565b6001600160a01b03811660009081526001602052604090205460ff16156102fc5760405162461bcd60e51b815260206004820152601b60248201527f566572696669657220616c726561647920617574686f72697a656400000000006044820152606401610239565b6001600160a01b0381166000818152600160208190526040808320805460ff1916909217909155517f40f8611cb3470e9d255c7ea6d08e5625d635123c46e7c303e5321b1fb69bb8c99190a250565b6002546001600160a01b031633146103755760405162461bcd60e51b815260040161023990610e34565b6001600160a01b03811661039b5760405162461bcd60e51b815260040161023990610e75565b6001600160a01b03811660009081526020819052604090205460ff166103fd5760405162461bcd60e51b8152602060048201526017602482015276125b9d995cdd1bdc881b9bdd081c9959da5cdd195c9959604a1b6044820152606401610239565b6001600160a01b038116600090815260208190526040812080546001600160b01b031916815560018101829055906104386002830182610bfb565b50506040516001600160a01b038216907fba0013628ccb89af5bb18edf764d3a7b35c07b894848b8e6fd3434719de39c7d90600090a250565b6002546001600160a01b0316331461049b5760405162461bcd60e51b815260040161023990610e34565b6001600160a01b0382166104c15760405162461bcd60e51b815260040161023990610e75565b6001600160a01b03821660009081526020819052604090205460ff161561052a5760405162461bcd60e51b815260206004820152601b60248201527f496e766573746f7220616c7265616479207265676973746572656400000000006044820152606401610239565b60008151116105725760405162461bcd60e51b81526020600482015260146024820152734e616d652063616e6e6f7420626520656d70747960601b6044820152606401610239565b6040805160a08101825260018082526000602080840182815284860183815260608601848152608087018981526001600160a01b038b8116875294869052979094208651815493519251909416620100000262010000600160b01b03199215156101000261ff00199515159590951661ffff19909416939093179390931716178155905191810191909155915190919060028201906106119082610f35565b50506040516001600160a01b03841691507f01e428601546e19350993364c26c5a618b33ef987abc24525c998748ae96429490600090a25050565b6002546001600160a01b031633146106765760405162461bcd60e51b815260040161023990610e34565b6001600160a01b0381166106c75760405162461bcd60e51b8152602060048201526018602482015277496e76616c6964207665726966696572206164647265737360401b6044820152606401610239565b6001600160a01b03811660009081526001602052604090205460ff1661072f5760405162461bcd60e51b815260206004820152601760248201527f5665726966696572206e6f7420617574686f72697a65640000000000000000006044820152606401610239565b6001600160a01b038116600081815260016020526040808220805460ff19169055517f44a3cd4eb5cc5748f6169df057b1cb2ae4c383e87cd94663c430e095d4cba4249190a250565b3360009081526001602052604090205460ff166107f05760405162461bcd60e51b815260206004820152603060248201527f4f6e6c7920617574686f72697a6564207665726966696572732063616e20636160448201526f3636103a3434b990333ab731ba34b7b760811b6064820152608401610239565b6001600160a01b0381166108165760405162461bcd60e51b815260040161023990610e75565b6001600160a01b03811660009081526020819052604090205460ff166108785760405162461bcd60e51b8152602060048201526017602482015276125b9d995cdd1bdc881b9bdd081c9959da5cdd195c9959604a1b6044820152606401610239565b6001600160a01b038116600090815260208190526040902054610100900460ff16156108e65760405162461bcd60e51b815260206004820152601960248201527f496e766573746f7220616c7265616479207665726966696564000000000000006044820152606401610239565b6001600160a01b0381166000818152602081815260409182902080546201000033908102610100600160b01b03199092169190911761010017825542600190920182905592519081529192917f17fa57e07b9b46d8e06344b5df662a9221c64bf17921f3fe6f138f9ab796c231910160405180910390a350565b3360009081526020819052604090205460ff16156109c05760405162461bcd60e51b815260206004820152601b60248201527f496e766573746f7220616c7265616479207265676973746572656400000000006044820152606401610239565b6000815111610a085760405162461bcd60e51b81526020600482015260146024820152734e616d652063616e6e6f7420626520656d70747960601b6044820152606401610239565b6040805160a0810182526001808252600060208084018281528486018381526060860184815260808701898152338652938590529690932085518154925194516001600160a01b0316620100000262010000600160b01b03199515156101000261ff00199215159290921661ffff1990941693909317179390931617825593519181019190915591519091906002820190610aa39082610f35565b50506040513391507f01e428601546e19350993364c26c5a618b33ef987abc24525c998748ae96429490600090a250565b6001600160a01b03808216600090815260208181526040808320815160a081018352815460ff808216151583526101008204161515948201949094526201000090930490941690820152600183015460608281019190915260028401805493948594859485949385939192608084019190610b4e90610eac565b80601f0160208091040260200160405190810160405280929190818152602001828054610b7a90610eac565b8015610bc75780601f10610b9c57610100808354040283529160200191610bc7565b820191906000526020600020905b815481529060010190602001808311610baa57829003601f168201915b5050509190925250508151602083015160408401516060850151608090950151929c919b5099509297509550909350505050565b508054610c0790610eac565b6000825580601f10610c17575050565b601f016020900490600052602060002090810190610c359190610c38565b50565b5b80821115610c4d5760008155600101610c39565b5090565b80356001600160a01b0381168114610c6857600080fd5b919050565b600060208284031215610c7f57600080fd5b610c8882610c51565b9392505050565b634e487b7160e01b600052604160045260246000fd5b600082601f830112610cb657600080fd5b813567ffffffffffffffff80821115610cd157610cd1610c8f565b604051601f8301601f19908116603f01168101908282118183101715610cf957610cf9610c8f565b81604052838152866020858801011115610d1257600080fd5b836020870160208301376000602085830101528094505050505092915050565b60008060408385031215610d4557600080fd5b610d4e83610c51565b9150602083013567ffffffffffffffff811115610d6a57600080fd5b610d7685828601610ca5565b9150509250929050565b600060208284031215610d9257600080fd5b813567ffffffffffffffff811115610da957600080fd5b610db584828501610ca5565b949350505050565b8515158152600060208615158184015260018060a01b038616604084015284606084015260a0608084015283518060a085015260005b81811015610e0f5785810183015185820160c001528201610df3565b50600060c0828601015260c0601f19601f830116850101925050509695505050505050565b60208082526021908201527f4f6e6c79206f776e65722063616e2063616c6c20746869732066756e6374696f6040820152603760f91b606082015260800190565b60208082526018908201527f496e76616c696420696e766573746f7220616464726573730000000000000000604082015260600190565b600181811c90821680610ec057607f821691505b602082108103610ee057634e487b7160e01b600052602260045260246000fd5b50919050565b601f821115610f3057600081815260208120601f850160051c81016020861015610f0d5750805b601f850160051c820191505b81811015610f2c57828155600101610f19565b5050505b505050565b815167ffffffffffffffff811115610f4f57610f4f610c8f565b610f6381610f5d8454610eac565b84610ee6565b602080601f831160018114610f985760008415610f805750858301515b600019600386901b1c1916600185901b178555610f2c565b600085815260208120601f198616915b82811015610fc757888601518255948401946001909101908401610fa8565b5085821015610fe55787850151600019600388901b60f8161c191681555b5050505050600190811b0190555056fea264697066735822122088724595403d6998bb7ea1e26e5c44642af3e6fc10fe218486e3dcdaf45ea56464736f6c63430008140033",
  "linkReferences": {},
  "deployedLinkReferences": {}
}