{
  "_format": "hh-sol-artifact-1",
  "contractName": "InvestorRegistry",
  "sourceName": "contracts/InvestorRegistry.sol",
  "abi": [
    {
      "inputs": [],
      "stateMutability": "nonpayable",
      "type": "constructor"
    },
    {
      "anonymous": false,
      "inputs": [
        {
          "indexed": true,
          "internalType": "address",
          "name": "investor",
          "type": "address"
        }
      ],
      "name": "InvestorRegistered",
      "type": "event"
    },
    {
      "anonymous": false,
      "inputs": [
        {
          "indexed": true,
          "internalType": "address",
          "name": "investor",
          "type": "address"
        }
      ],
      "name": "InvestorRemoved",
      "type": "event"
    },
    {
      "anonymous": false,
      "inputs": [
        {
          "indexed": true,
          "internalType": "address",
          "name": "investor",
          "type": "address"
        },
        {
          "indexed": true,
          "internalType": "address",
          "name": "verifier",
          "type": "address"
        },
        {
          "indexed": false,
          "internalType": "uint256",
          "name": "timestamp",
          "type": "uint256"
        }
      ],
      "name": "InvestorVerified",
      "type": "event"
    },
    {
      "anonymous": false,
      "inputs": [
        {
          "indexed": true,
          "internalType": "address",
          "name": "verifier",
          "type": "address"
        }
      ],
      "name": "VerifierAuthorized",
      "type": "event"
    },
    {
      "anonymous": false,
      "inputs": [
        {
          "indexed": true,
          "internalType": "address",
          "name": "verifier",
          "type": "address"
        }
      ],
      "name": "VerifierRemoved",
      "type": "event"
    },
    {
      "inputs": [
        {
          "internalType": "address",
          "name": "verifier",
          "type": "address"
        }
      ],
      "name": "authorizeVerifier",
      "outputs": [],
      "stateMutability": "nonpayable",
      "type": "function"
    },
    {
      "inputs": [],
      "name": "getAllInvestors",
      "outputs": [
        {
          "internalType": "address[]",
          "name": "",
          "type": "address[]"
        }
      ],
      "stateMutability": "view",
      "type": "function"
    },
    {
      "inputs": [],
      "name": "getAllInvestorsDetails",
      "outputs": [
        {
          "components": [
            {
              "internalType": "bool",
              "name": "isRegistered",
              "type": "bool"
            },
            {
              "internalType": "bool",
              "name": "isVerified",
              "type": "bool"
            },
            {
              "internalType": "address",
              "name": "verifier",
              "type": "address"
            },
            {
              "internalType": "uint256",
              "name": "verificationTimestamp",
              "type": "uint256"
            },
            {
              "internalType": "string",
              "name": "name",
              "type": "string"
            },
            {
              "internalType": "address",
              "name": "investor",
              "type": "address"
            }
          ],
          "internalType": "struct InvestorRegistry.InvestorDetails[]",
          "name": "",
          "type": "tuple[]"
        }
      ],
      "stateMutability": "view",
      "type": "function"
    },
    {
      "inputs": [],
      "name": "getAuthorizedVerifiers",
      "outputs": [
        {
          "internalType": "address[]",
          "name": "",
          "type": "address[]"
        }
      ],
      "stateMutability": "view",
      "type": "function"
    },
    {
      "inputs": [
        {
          "internalType": "address",
          "name": "investor",
          "type": "address"
        }
      ],
      "name": "getInvestorDetails",
      "outputs": [
        {
          "components": [
            {
              "internalType": "bool",
              "name": "isRegistered",
              "type": "bool"
            },
            {
              "internalType": "bool",
              "name": "isVerified",
              "type": "bool"
            },
            {
              "internalType": "address",
              "name": "verifier",
              "type": "address"
            },
            {
              "internalType": "uint256",
              "name": "verificationTimestamp",
              "type": "uint256"
            },
            {
              "internalType": "string",
              "name": "name",
              "type": "string"
            },
            {
              "internalType": "address",
              "name": "investor",
              "type": "address"
            }
          ],
          "internalType": "struct InvestorRegistry.InvestorDetails",
          "name": "",
          "type": "tuple"
        }
      ],
      "stateMutability": "view",
      "type": "function"
    },
    {
      "inputs": [
        {
          "internalType": "address",
          "name": "verifier",
          "type": "address"
        }
      ],
      "name": "isAuthorizedVerifier",
      "outputs": [
        {
          "internalType": "bool",
          "name": "",
          "type": "bool"
        }
      ],
      "stateMutability": "view",
      "type": "function"
    },
    {
      "inputs": [
        {
          "internalType": "address",
          "name": "investor",
          "type": "address"
        }
      ],
      "name": "isRegisteredInvestor",
      "outputs": [
        {
          "internalType": "bool",
          "name": "",
          "type": "bool"
        }
      ],
      "stateMutability": "view",
      "type": "function"
    },
    {
      "inputs": [
        {
          "internalType": "address",
          "name": "investor",
          "type": "address"
        }
      ],
      "name": "isVerifiedInvestor",
      "outputs": [
        {
          "internalType": "bool",
          "name": "",
          "type": "bool"
        }
      ],
      "stateMutability": "view",
      "type": "function"
    },
    {
      "inputs": [],
      "name": "owner",
      "outputs": [
        {
          "internalType": "address",
          "name": "",
          "type": "address"
        }
      ],
      "stateMutability": "view",
      "type": "function"
    },
    {
      "inputs": [
        {
          "internalType": "string",
          "name": "name",
          "type": "string"
        }
      ],
      "name": "registerInvestor",
      "outputs": [],
      "stateMutability": "nonpayable",
      "type": "function"
    },
    {
      "inputs": [
        {
          "internalType": "address",
          "name": "investor",
          "type": "address"
        },
        {
          "internalType": "string",
          "name": "name",
          "type": "string"
        }
      ],
      "name": "registerInvestorByOwner",
      "outputs": [],
      "stateMutability": "nonpayable",
      "type": "function"
    },
    {
      "inputs": [
        {
          "internalType": "address",
          "name": "investor",
          "type": "address"
        }
      ],
      "name": "removeInvestor",
      "outputs": [],
      "stateMutability": "nonpayable",
      "type": "function"
    },
    {
      "inputs": [
        {
          "internalType": "address",
          "name": "verifier",
          "type": "address"
        }
      ],
      "name": "removeVerifier",
      "outputs": [],
      "stateMutability": "nonpayable",
      "type": "function"
    },
    {
      "inputs": [
        {
          "internalType": "address",
          "name": "investor",
          "type": "address"
        }
      ],
      "name": "verifyInvestor",
      "outputs": [],
      "stateMutability": "nonpayable",
      "type": "function"
    }
  ],
  "bytecode": "0x608060405234801561001057600080fd5b50600480546001600160a01b03191633179055611832806100326000396000f3fe608060405234801561001057600080fd5b50600436106100ea5760003560e01c80639f3d07ea1161008c578063d0a2f2c411610066578063d0a2f2c414610234578063d84dbdc31461023c578063ec3246a21461024f578063efab1e501461026257600080fd5b80639f3d07ea146101e0578063a0bc51cf1461020c578063ca2dfd0a1461022157600080fd5b806342714978116100c857806342714978146101635780635f5883ab146101765780636cacbf30146101895780638da5cb5b146101b557600080fd5b8063155eaacf146100ef5780631fa1b60c1461010d57806320ad8cab1461014e575b600080fd5b6100f7610282565b60405161010491906112c9565b60405180910390f35b61013e61011b366004611332565b6001600160a01b0316600090815260208190526040902054610100900460ff1690565b6040519015158152602001610104565b61016161015c366004611332565b6102e4565b005b610161610171366004611332565b61045d565b6101616101843660046113f7565b610671565b61013e610197366004611332565b6001600160a01b031660009081526002602052604090205460ff1690565b6004546101c8906001600160a01b031681565b6040516001600160a01b039091168152602001610104565b61013e6101ee366004611332565b6001600160a01b031660009081526020819052604090205460ff1690565b6102146108ab565b60405161010491906114e4565b61016161022f366004611332565b610a9f565b6100f7610ce0565b61016161024a366004611332565b610d40565b61016161025d366004611546565b610efe565b610275610270366004611332565b6110d7565b6040516101049190611583565b606060038054806020026020016040519081016040528092919081815260200182805480156102da57602002820191906000526020600020905b81546001600160a01b031681526001909101906020018083116102bc575b5050505050905090565b6004546001600160a01b031633146103175760405162461bcd60e51b815260040161030e90611596565b60405180910390fd5b6001600160a01b0381166103685760405162461bcd60e51b8152602060048201526018602482015277496e76616c6964207665726966696572206164647265737360401b604482015260640161030e565b6001600160a01b03811660009081526002602052604090205460ff16156103d15760405162461bcd60e51b815260206004820152601b60248201527f566572696669657220616c726561647920617574686f72697a65640000000000604482015260640161030e565b6001600160a01b038116600081815260026020526040808220805460ff1916600190811790915560038054918201815583527fc2575a0e9e593c00f959f8c92f12db2869c3395a3b0502d05e2516446f71f85b0180546001600160a01b03191684179055517f40f8611cb3470e9d255c7ea6d08e5625d635123c46e7c303e5321b1fb69bb8c99190a250565b6004546001600160a01b031633146104875760405162461bcd60e51b815260040161030e90611596565b6001600160a01b0381166104ad5760405162461bcd60e51b815260040161030e906115d7565b6001600160a01b03811660009081526020819052604090205460ff166104e55760405162461bcd60e51b815260040161030e9061160e565b60005b6001548110156105ec57816001600160a01b03166001828154811061050f5761050f611645565b6000918252602090912001546001600160a01b0316036105da5760018054610538908290611671565b8154811061054857610548611645565b600091825260209091200154600180546001600160a01b03909216918390811061057457610574611645565b9060005260206000200160006101000a8154816001600160a01b0302191690836001600160a01b0316021790555060018054806105b3576105b361168a565b600082815260209020810160001990810180546001600160a01b03191690550190556105ec565b806105e4816116a0565b9150506104e8565b506001600160a01b038116600090815260208190526040812080546001600160b01b031916815560018101829055906106286002830182611273565b5060030180546001600160a01b03191690556040516001600160a01b038216907fba0013628ccb89af5bb18edf764d3a7b35c07b894848b8e6fd3434719de39c7d90600090a250565b6004546001600160a01b0316331461069b5760405162461bcd60e51b815260040161030e90611596565b6001600160a01b0382166106c15760405162461bcd60e51b815260040161030e906115d7565b6001600160a01b03821660009081526020819052604090205460ff161561072a5760405162461bcd60e51b815260206004820152601b60248201527f496e766573746f7220616c726561647920726567697374657265640000000000604482015260640161030e565b60008151116107725760405162461bcd60e51b81526020600482015260146024820152734e616d652063616e6e6f7420626520656d70747960601b604482015260640161030e565b6040805160c08101825260018082526000602080840182815284860183815260608601848152608087018981526001600160a01b038b811660a08a01819052875294869052979094208651815493519251909416620100000262010000600160b01b03199215156101000261ff00199515159590951661ffff1990941693909317939093171617815590519181019190915591519091906002820190610818908261173c565b5060a09190910151600390910180546001600160a01b039283166001600160a01b03199182161790915560018054808201825560009182527fb10e2d527612073b26eecdfd717e6a320cf44b4afac2b0732d9fcbe2b7fa0cf60180549386169390921683179091556040517f01e428601546e19350993364c26c5a618b33ef987abc24525c998748ae9642949190a25050565b60015460609060009067ffffffffffffffff8111156108cc576108cc611354565b60405190808252806020026020018201604052801561092b57816020015b6040805160c081018252600080825260208083018290529282018190526060808301829052608083015260a082015282526000199092019101816108ea5790505b50905060005b600154811015610a99576000806001838154811061095157610951611645565b60009182526020808320909101546001600160a01b039081168452838201949094526040928301909120825160c081018452815460ff808216151583526101008204161515938201939093526201000090920490931691810191909152600182015460608201526002820180549192916080840191906109d0906116b9565b80601f01602080910402602001604051908101604052809291908181526020018280546109fc906116b9565b8015610a495780601f10610a1e57610100808354040283529160200191610a49565b820191906000526020600020905b815481529060010190602001808311610a2c57829003601f168201915b5050509183525050600391909101546001600160a01b03166020909101528251839083908110610a7b57610a7b611645565b60200260200101819052508080610a91906116a0565b915050610931565b50919050565b6004546001600160a01b03163314610ac95760405162461bcd60e51b815260040161030e90611596565b6001600160a01b038116610b1a5760405162461bcd60e51b8152602060048201526018602482015277496e76616c6964207665726966696572206164647265737360401b604482015260640161030e565b6001600160a01b03811660009081526002602052604090205460ff16610b825760405162461bcd60e51b815260206004820152601760248201527f5665726966696572206e6f7420617574686f72697a6564000000000000000000604482015260640161030e565b6001600160a01b0381166000908152600260205260408120805460ff191690555b600354811015610ca857816001600160a01b031660038281548110610bca57610bca611645565b6000918252602090912001546001600160a01b031603610c965760038054610bf490600190611671565b81548110610c0457610c04611645565b600091825260209091200154600380546001600160a01b039092169183908110610c3057610c30611645565b9060005260206000200160006101000a8154816001600160a01b0302191690836001600160a01b031602179055506003805480610c6f57610c6f61168a565b600082815260209020810160001990810180546001600160a01b0319169055019055610ca8565b80610ca0816116a0565b915050610ba3565b506040516001600160a01b038216907f44a3cd4eb5cc5748f6169df057b1cb2ae4c383e87cd94663c430e095d4cba42490600090a250565b606060018054806020026020016040519081016040528092919081815260200182805480156102da576020028201919060005260206000209081546001600160a01b031681526001909101906020018083116102bc575050505050905090565b3360009081526002602052604090205460ff16610db85760405162461bcd60e51b815260206004820152603060248201527f4f6e6c7920617574686f72697a6564207665726966696572732063616e20636160448201526f3636103a3434b990333ab731ba34b7b760811b606482015260840161030e565b6001600160a01b038116610dde5760405162461bcd60e51b815260040161030e906115d7565b6001600160a01b03811660009081526020819052604090205460ff16610e165760405162461bcd60e51b815260040161030e9061160e565b6001600160a01b038116600090815260208190526040902054610100900460ff1615610e845760405162461bcd60e51b815260206004820152601960248201527f496e766573746f7220616c726561647920766572696669656400000000000000604482015260640161030e565b6001600160a01b0381166000818152602081815260409182902080546201000033908102610100600160b01b03199092169190911761010017825542600190920182905592519081529192917f17fa57e07b9b46d8e06344b5df662a9221c64bf17921f3fe6f138f9ab796c231910160405180910390a350565b3360009081526020819052604090205460ff1615610f5e5760405162461bcd60e51b815260206004820152601b60248201527f496e766573746f7220616c726561647920726567697374657265640000000000604482015260640161030e565b6000815111610fa65760405162461bcd60e51b81526020600482015260146024820152734e616d652063616e6e6f7420626520656d70747960601b604482015260640161030e565b6040805160c08101825260018082526000602080840182815284860183815260608601848152608087018981523360a089018190528652938590529690932085518154925194516001600160a01b0316620100000262010000600160b01b03199515156101000261ff00199215159290921661ffff1990941693909317179390931617825593519181019190915591519091906002820190611048908261173c565b5060a09190910151600390910180546001600160a01b039092166001600160a01b031992831617905560018054808201825560009182527fb10e2d527612073b26eecdfd717e6a320cf44b4afac2b0732d9fcbe2b7fa0cf6018054909216339081179092556040517f01e428601546e19350993364c26c5a618b33ef987abc24525c998748ae9642949190a250565b6040805160c0810182526000808252602082018190529181018290526060808201839052608082015260a08101919091526001600160a01b03821661112e5760405162461bcd60e51b815260040161030e906115d7565b6001600160a01b03821660009081526020819052604090205460ff166111665760405162461bcd60e51b815260040161030e9061160e565b6001600160a01b0380831660009081526020818152604091829020825160c081018452815460ff808216151583526101008204161515938201939093526201000090920490931691810191909152600182015460608201526002820180549192916080840191906111d6906116b9565b80601f0160208091040260200160405190810160405280929190818152602001828054611202906116b9565b801561124f5780601f106112245761010080835404028352916020019161124f565b820191906000526020600020905b81548152906001019060200180831161123257829003601f168201915b5050509183525050600391909101546001600160a01b031660209091015292915050565b50805461127f906116b9565b6000825580601f1061128f575050565b601f0160209004906000526020600020908101906112ad91906112b0565b50565b5b808211156112c557600081556001016112b1565b5090565b6020808252825182820181905260009190848201906040850190845b8181101561130a5783516001600160a01b0316835292840192918401916001016112e5565b50909695505050505050565b80356001600160a01b038116811461132d57600080fd5b919050565b60006020828403121561134457600080fd5b61134d82611316565b9392505050565b634e487b7160e01b600052604160045260246000fd5b600082601f83011261137b57600080fd5b813567ffffffffffffffff8082111561139657611396611354565b604051601f8301601f19908116603f011681019082821181831017156113be576113be611354565b816040528381528660208588010111156113d757600080fd5b836020870160208301376000602085830101528094505050505092915050565b6000806040838503121561140a57600080fd5b61141383611316565b9150602083013567ffffffffffffffff81111561142f57600080fd5b61143b8582860161136a565b9150509250929050565b805115158252600060208083015115158185015260018060a01b03604084015116604085015260608301516060850152608083015160c0608086015280518060c087015260005b818110156114a85782810184015187820160e00152830161148c565b50600060e0828801015260a085015192506114ce60a08701846001600160a01b03169052565b601f01601f19169490940160e001949350505050565b6000602080830181845280855180835260408601915060408160051b870101925083870160005b8281101561153957603f19888603018452611527858351611445565b9450928501929085019060010161150b565b5092979650505050505050565b60006020828403121561155857600080fd5b813567ffffffffffffffff81111561156f57600080fd5b61157b8482850161136a565b949350505050565b60208152600061134d6020830184611445565b60208082526021908201527f4f6e6c79206f776e65722063616e2063616c6c20746869732066756e6374696f6040820152603760f91b606082015260800190565b60208082526018908201527f496e76616c696420696e766573746f7220616464726573730000000000000000604082015260600190565b60208082526017908201527f496e766573746f72206e6f742072656769737465726564000000000000000000604082015260600190565b634e487b7160e01b600052603260045260246000fd5b634e487b7160e01b600052601160045260246000fd5b818103818111156116845761168461165b565b92915050565b634e487b7160e01b600052603160045260246000fd5b6000600182016116b2576116b261165b565b5060010190565b600181811c908216806116cd57607f821691505b602082108103610a9957634e487b7160e01b600052602260045260246000fd5b601f82111561173757600081815260208120601f850160051c810160208610156117145750805b601f850160051c820191505b8181101561173357828155600101611720565b5050505b505050565b815167ffffffffffffffff81111561175657611756611354565b61176a8161176484546116b9565b846116ed565b602080601f83116001811461179f57600084156117875750858301515b600019600386901b1c1916600185901b178555611733565b600085815260208120601f198616915b828110156117ce578886015182559484019460019091019084016117af565b50858210156117ec5787850151600019600388901b60f8161c191681555b5050505050600190811b0190555056fea264697066735822122036234199d726455ff37170acd198080aa24d179367b9c8412cca3f57580e1b5364736f6c63430008140033",
  "linkReferences": {},
  "deployedLinkReferences": {}
}