{
  "_format": "hh-sol-artifact-1",
  "contractName": "InvestorRegistry",
  "sourceName": "contracts/InvestorRegistry.sol",
  "abi": [
    {
      "inputs": [],
      "stateMutability": "nonpayable",
      "type": "constructor"
    },
    {
      "anonymous": false,
      "inputs": [
        {
          "indexed": true,
          "internalType": "address",
          "name": "investor",
          "type": "address"
        }
      ],
      "name": "InvestorRegistered",
      "type": "event"
    },
    {
      "anonymous": false,
      "inputs": [
        {
          "indexed": true,
          "internalType": "address",
          "name": "investor",
          "type": "address"
        }
      ],
      "name": "InvestorRemoved",
      "type": "event"
    },
    {
      "anonymous": false,
      "inputs": [
        {
          "indexed": true,
          "internalType": "address",
          "name": "investor",
          "type": "address"
        },
        {
          "indexed": true,
          "internalType": "address",
          "name": "verifier",
          "type": "address"
        },
        {
          "indexed": false,
          "internalType": "uint256",
          "name": "timestamp",
          "type": "uint256"
        }
      ],
      "name": "InvestorVerified",
      "type": "event"
    },
    {
      "anonymous": false,
      "inputs": [
        {
          "indexed": true,
          "internalType": "address",
          "name": "newOwner",
          "type": "address"
        }
      ],
      "name": "OwnershipTransferred",
      "type": "event"
    },
    {
      "anonymous": false,
      "inputs": [
        {
          "indexed": true,
          "internalType": "address",
          "name": "verifier",
          "type": "address"
        }
      ],
      "name": "VerifierAuthorized",
      "type": "event"
    },
    {
      "anonymous": false,
      "inputs": [
        {
          "indexed": true,
          "internalType": "address",
          "name": "verifier",
          "type": "address"
        }
      ],
      "name": "VerifierRemoved",
      "type": "event"
    },
    {
      "inputs": [
        {
          "internalType": "address",
          "name": "verifier",
          "type": "address"
        }
      ],
      "name": "authorizeVerifier",
      "outputs": [],
      "stateMutability": "nonpayable",
      "type": "function"
    },
    {
      "inputs": [],
      "name": "getAllInvestors",
      "outputs": [
        {
          "internalType": "address[]",
          "name": "",
          "type": "address[]"
        }
      ],
      "stateMutability": "view",
      "type": "function"
    },
    {
      "inputs": [],
      "name": "getAllInvestorsDetails",
      "outputs": [
        {
          "components": [
            {
              "internalType": "bool",
              "name": "isRegistered",
              "type": "bool"
            },
            {
              "internalType": "bool",
              "name": "isVerified",
              "type": "bool"
            },
            {
              "internalType": "address",
              "name": "verifier",
              "type": "address"
            },
            {
              "internalType": "uint256",
              "name": "verificationTimestamp",
              "type": "uint256"
            },
            {
              "internalType": "string",
              "name": "name",
              "type": "string"
            },
            {
              "internalType": "address",
              "name": "investor",
              "type": "address"
            }
          ],
          "internalType": "struct InvestorRegistry.InvestorDetails[]",
          "name": "",
          "type": "tuple[]"
        }
      ],
      "stateMutability": "view",
      "type": "function"
    },
    {
      "inputs": [],
      "name": "getAuthorizedVerifiers",
      "outputs": [
        {
          "internalType": "address[]",
          "name": "",
          "type": "address[]"
        }
      ],
      "stateMutability": "view",
      "type": "function"
    },
    {
      "inputs": [
        {
          "internalType": "address",
          "name": "investor",
          "type": "address"
        }
      ],
      "name": "getInvestorDetails",
      "outputs": [
        {
          "components": [
            {
              "internalType": "bool",
              "name": "isRegistered",
              "type": "bool"
            },
            {
              "internalType": "bool",
              "name": "isVerified",
              "type": "bool"
            },
            {
              "internalType": "address",
              "name": "verifier",
              "type": "address"
            },
            {
              "internalType": "uint256",
              "name": "verificationTimestamp",
              "type": "uint256"
            },
            {
              "internalType": "string",
              "name": "name",
              "type": "string"
            },
            {
              "internalType": "address",
              "name": "investor",
              "type": "address"
            }
          ],
          "internalType": "struct InvestorRegistry.InvestorDetails",
          "name": "",
          "type": "tuple"
        }
      ],
      "stateMutability": "view",
      "type": "function"
    },
    {
      "inputs": [
        {
          "internalType": "address",
          "name": "verifier",
          "type": "address"
        }
      ],
      "name": "isAuthorizedVerifier",
      "outputs": [
        {
          "internalType": "bool",
          "name": "",
          "type": "bool"
        }
      ],
      "stateMutability": "view",
      "type": "function"
    },
    {
      "inputs": [
        {
          "internalType": "address",
          "name": "investor",
          "type": "address"
        }
      ],
      "name": "isRegisteredInvestor",
      "outputs": [
        {
          "internalType": "bool",
          "name": "",
          "type": "bool"
        }
      ],
      "stateMutability": "view",
      "type": "function"
    },
    {
      "inputs": [
        {
          "internalType": "address",
          "name": "investor",
          "type": "address"
        }
      ],
      "name": "isVerifiedInvestor",
      "outputs": [
        {
          "internalType": "bool",
          "name": "",
          "type": "bool"
        }
      ],
      "stateMutability": "view",
      "type": "function"
    },
    {
      "inputs": [],
      "name": "owner",
      "outputs": [
        {
          "internalType": "address",
          "name": "",
          "type": "address"
        }
      ],
      "stateMutability": "view",
      "type": "function"
    },
    {
      "inputs": [
        {
          "internalType": "string",
          "name": "name",
          "type": "string"
        }
      ],
      "name": "registerInvestor",
      "outputs": [],
      "stateMutability": "nonpayable",
      "type": "function"
    },
    {
      "inputs": [
        {
          "internalType": "address",
          "name": "investor",
          "type": "address"
        },
        {
          "internalType": "string",
          "name": "name",
          "type": "string"
        }
      ],
      "name": "registerInvestorByOwner",
      "outputs": [],
      "stateMutability": "nonpayable",
      "type": "function"
    },
    {
      "inputs": [
        {
          "internalType": "address",
          "name": "investor",
          "type": "address"
        }
      ],
      "name": "removeInvestor",
      "outputs": [],
      "stateMutability": "nonpayable",
      "type": "function"
    },
    {
      "inputs": [
        {
          "internalType": "address",
          "name": "verifier",
          "type": "address"
        }
      ],
      "name": "removeVerifier",
      "outputs": [],
      "stateMutability": "nonpayable",
      "type": "function"
    },
    {
      "inputs": [
        {
          "internalType": "address",
          "name": "newOwner",
          "type": "address"
        }
      ],
      "name": "transferOwnership",
      "outputs": [],
      "stateMutability": "nonpayable",
      "type": "function"
    },
    {
      "inputs": [
        {
          "internalType": "address",
          "name": "investor",
          "type": "address"
        }
      ],
      "name": "verifyInvestor",
      "outputs": [],
      "stateMutability": "nonpayable",
      "type": "function"
    }
  ],
  "bytecode": "0x608060405234801561001057600080fd5b50600480546001600160a01b0319163317905561191a806100326000396000f3fe608060405234801561001057600080fd5b50600436106100f55760003560e01c80639f3d07ea11610097578063d84dbdc311610066578063d84dbdc314610247578063ec3246a21461025a578063efab1e501461026d578063f2fde38b1461028d57600080fd5b80639f3d07ea146101eb578063a0bc51cf14610217578063ca2dfd0a1461022c578063d0a2f2c41461023f57600080fd5b806342714978116100d3578063427149781461016e5780635f5883ab146101815780636cacbf30146101945780638da5cb5b146101c057600080fd5b8063155eaacf146100fa5780631fa1b60c1461011857806320ad8cab14610159575b600080fd5b6101026102a0565b60405161010f91906113b1565b60405180910390f35b61014961012636600461141a565b6001600160a01b0316600090815260208190526040902054610100900460ff1690565b604051901515815260200161010f565b61016c61016736600461141a565b610302565b005b61016c61017c36600461141a565b61047b565b61016c61018f3660046114df565b61068f565b6101496101a236600461141a565b6001600160a01b031660009081526002602052604090205460ff1690565b6004546101d3906001600160a01b031681565b6040516001600160a01b03909116815260200161010f565b6101496101f936600461141a565b6001600160a01b031660009081526020819052604090205460ff1690565b61021f6108c9565b60405161010f91906115cc565b61016c61023a36600461141a565b610abd565b610102610cfe565b61016c61025536600461141a565b610d5e565b61016c61026836600461162e565b610f1c565b61028061027b36600461141a565b6110f5565b60405161010f919061166b565b61016c61029b36600461141a565b611291565b606060038054806020026020016040519081016040528092919081815260200182805480156102f857602002820191906000526020600020905b81546001600160a01b031681526001909101906020018083116102da575b5050505050905090565b6004546001600160a01b031633146103355760405162461bcd60e51b815260040161032c9061167e565b60405180910390fd5b6001600160a01b0381166103865760405162461bcd60e51b8152602060048201526018602482015277496e76616c6964207665726966696572206164647265737360401b604482015260640161032c565b6001600160a01b03811660009081526002602052604090205460ff16156103ef5760405162461bcd60e51b815260206004820152601b60248201527f566572696669657220616c726561647920617574686f72697a65640000000000604482015260640161032c565b6001600160a01b038116600081815260026020526040808220805460ff1916600190811790915560038054918201815583527fc2575a0e9e593c00f959f8c92f12db2869c3395a3b0502d05e2516446f71f85b0180546001600160a01b03191684179055517f40f8611cb3470e9d255c7ea6d08e5625d635123c46e7c303e5321b1fb69bb8c99190a250565b6004546001600160a01b031633146104a55760405162461bcd60e51b815260040161032c9061167e565b6001600160a01b0381166104cb5760405162461bcd60e51b815260040161032c906116bf565b6001600160a01b03811660009081526020819052604090205460ff166105035760405162461bcd60e51b815260040161032c906116f6565b60005b60015481101561060a57816001600160a01b03166001828154811061052d5761052d61172d565b6000918252602090912001546001600160a01b0316036105f85760018054610556908290611759565b815481106105665761056661172d565b600091825260209091200154600180546001600160a01b0390921691839081106105925761059261172d565b9060005260206000200160006101000a8154816001600160a01b0302191690836001600160a01b0316021790555060018054806105d1576105d1611772565b600082815260209020810160001990810180546001600160a01b031916905501905561060a565b8061060281611788565b915050610506565b506001600160a01b038116600090815260208190526040812080546001600160b01b03191681556001810182905590610646600283018261135b565b5060030180546001600160a01b03191690556040516001600160a01b038216907fba0013628ccb89af5bb18edf764d3a7b35c07b894848b8e6fd3434719de39c7d90600090a250565b6004546001600160a01b031633146106b95760405162461bcd60e51b815260040161032c9061167e565b6001600160a01b0382166106df5760405162461bcd60e51b815260040161032c906116bf565b6001600160a01b03821660009081526020819052604090205460ff16156107485760405162461bcd60e51b815260206004820152601b60248201527f496e766573746f7220616c726561647920726567697374657265640000000000604482015260640161032c565b60008151116107905760405162461bcd60e51b81526020600482015260146024820152734e616d652063616e6e6f7420626520656d70747960601b604482015260640161032c565b6040805160c08101825260018082526000602080840182815284860183815260608601848152608087018981526001600160a01b038b811660a08a01819052875294869052979094208651815493519251909416620100000262010000600160b01b03199215156101000261ff00199515159590951661ffff19909416939093179390931716178155905191810191909155915190919060028201906108369082611824565b5060a09190910151600390910180546001600160a01b039283166001600160a01b03199182161790915560018054808201825560009182527fb10e2d527612073b26eecdfd717e6a320cf44b4afac2b0732d9fcbe2b7fa0cf60180549386169390921683179091556040517f01e428601546e19350993364c26c5a618b33ef987abc24525c998748ae9642949190a25050565b60015460609060009067ffffffffffffffff8111156108ea576108ea61143c565b60405190808252806020026020018201604052801561094957816020015b6040805160c081018252600080825260208083018290529282018190526060808301829052608083015260a082015282526000199092019101816109085790505b50905060005b600154811015610ab7576000806001838154811061096f5761096f61172d565b60009182526020808320909101546001600160a01b039081168452838201949094526040928301909120825160c081018452815460ff808216151583526101008204161515938201939093526201000090920490931691810191909152600182015460608201526002820180549192916080840191906109ee906117a1565b80601f0160208091040260200160405190810160405280929190818152602001828054610a1a906117a1565b8015610a675780601f10610a3c57610100808354040283529160200191610a67565b820191906000526020600020905b815481529060010190602001808311610a4a57829003601f168201915b5050509183525050600391909101546001600160a01b03166020909101528251839083908110610a9957610a9961172d565b60200260200101819052508080610aaf90611788565b91505061094f565b50919050565b6004546001600160a01b03163314610ae75760405162461bcd60e51b815260040161032c9061167e565b6001600160a01b038116610b385760405162461bcd60e51b8152602060048201526018602482015277496e76616c6964207665726966696572206164647265737360401b604482015260640161032c565b6001600160a01b03811660009081526002602052604090205460ff16610ba05760405162461bcd60e51b815260206004820152601760248201527f5665726966696572206e6f7420617574686f72697a6564000000000000000000604482015260640161032c565b6001600160a01b0381166000908152600260205260408120805460ff191690555b600354811015610cc657816001600160a01b031660038281548110610be857610be861172d565b6000918252602090912001546001600160a01b031603610cb45760038054610c1290600190611759565b81548110610c2257610c2261172d565b600091825260209091200154600380546001600160a01b039092169183908110610c4e57610c4e61172d565b9060005260206000200160006101000a8154816001600160a01b0302191690836001600160a01b031602179055506003805480610c8d57610c8d611772565b600082815260209020810160001990810180546001600160a01b0319169055019055610cc6565b80610cbe81611788565b915050610bc1565b506040516001600160a01b038216907f44a3cd4eb5cc5748f6169df057b1cb2ae4c383e87cd94663c430e095d4cba42490600090a250565b606060018054806020026020016040519081016040528092919081815260200182805480156102f8576020028201919060005260206000209081546001600160a01b031681526001909101906020018083116102da575050505050905090565b3360009081526002602052604090205460ff16610dd65760405162461bcd60e51b815260206004820152603060248201527f4f6e6c7920617574686f72697a6564207665726966696572732063616e20636160448201526f3636103a3434b990333ab731ba34b7b760811b606482015260840161032c565b6001600160a01b038116610dfc5760405162461bcd60e51b815260040161032c906116bf565b6001600160a01b03811660009081526020819052604090205460ff16610e345760405162461bcd60e51b815260040161032c906116f6565b6001600160a01b038116600090815260208190526040902054610100900460ff1615610ea25760405162461bcd60e51b815260206004820152601960248201527f496e766573746f7220616c726561647920766572696669656400000000000000604482015260640161032c565b6001600160a01b0381166000818152602081815260409182902080546201000033908102610100600160b01b03199092169190911761010017825542600190920182905592519081529192917f17fa57e07b9b46d8e06344b5df662a9221c64bf17921f3fe6f138f9ab796c231910160405180910390a350565b3360009081526020819052604090205460ff1615610f7c5760405162461bcd60e51b815260206004820152601b60248201527f496e766573746f7220616c726561647920726567697374657265640000000000604482015260640161032c565b6000815111610fc45760405162461bcd60e51b81526020600482015260146024820152734e616d652063616e6e6f7420626520656d70747960601b604482015260640161032c565b6040805160c08101825260018082526000602080840182815284860183815260608601848152608087018981523360a089018190528652938590529690932085518154925194516001600160a01b0316620100000262010000600160b01b03199515156101000261ff00199215159290921661ffff19909416939093171793909316178255935191810191909155915190919060028201906110669082611824565b5060a09190910151600390910180546001600160a01b039092166001600160a01b031992831617905560018054808201825560009182527fb10e2d527612073b26eecdfd717e6a320cf44b4afac2b0732d9fcbe2b7fa0cf6018054909216339081179092556040517f01e428601546e19350993364c26c5a618b33ef987abc24525c998748ae9642949190a250565b6040805160c0810182526000808252602082018190529181018290526060808201839052608082015260a08101919091526001600160a01b03821661114c5760405162461bcd60e51b815260040161032c906116bf565b6001600160a01b03821660009081526020819052604090205460ff166111845760405162461bcd60e51b815260040161032c906116f6565b6001600160a01b0380831660009081526020818152604091829020825160c081018452815460ff808216151583526101008204161515938201939093526201000090920490931691810191909152600182015460608201526002820180549192916080840191906111f4906117a1565b80601f0160208091040260200160405190810160405280929190818152602001828054611220906117a1565b801561126d5780601f106112425761010080835404028352916020019161126d565b820191906000526020600020905b81548152906001019060200180831161125057829003601f168201915b5050509183525050600391909101546001600160a01b031660209091015292915050565b6004546001600160a01b031633146112bb5760405162461bcd60e51b815260040161032c9061167e565b6001600160a01b0381166113115760405162461bcd60e51b815260206004820152601960248201527f496e76616c6964206e6577206f776e6572206164647265737300000000000000604482015260640161032c565b600480546001600160a01b0319166001600160a01b0383169081179091556040517f04dba622d284ed0014ee4b9a6a68386be1a4c08a4913ae272de89199cc68616390600090a250565b508054611367906117a1565b6000825580601f10611377575050565b601f0160209004906000526020600020908101906113959190611398565b50565b5b808211156113ad5760008155600101611399565b5090565b6020808252825182820181905260009190848201906040850190845b818110156113f25783516001600160a01b0316835292840192918401916001016113cd565b50909695505050505050565b80356001600160a01b038116811461141557600080fd5b919050565b60006020828403121561142c57600080fd5b611435826113fe565b9392505050565b634e487b7160e01b600052604160045260246000fd5b600082601f83011261146357600080fd5b813567ffffffffffffffff8082111561147e5761147e61143c565b604051601f8301601f19908116603f011681019082821181831017156114a6576114a661143c565b816040528381528660208588010111156114bf57600080fd5b836020870160208301376000602085830101528094505050505092915050565b600080604083850312156114f257600080fd5b6114fb836113fe565b9150602083013567ffffffffffffffff81111561151757600080fd5b61152385828601611452565b9150509250929050565b805115158252600060208083015115158185015260018060a01b03604084015116604085015260608301516060850152608083015160c0608086015280518060c087015260005b818110156115905782810184015187820160e001528301611574565b50600060e0828801015260a085015192506115b660a08701846001600160a01b03169052565b601f01601f19169490940160e001949350505050565b6000602080830181845280855180835260408601915060408160051b870101925083870160005b8281101561162157603f1988860301845261160f85835161152d565b945092850192908501906001016115f3565b5092979650505050505050565b60006020828403121561164057600080fd5b813567ffffffffffffffff81111561165757600080fd5b61166384828501611452565b949350505050565b602081526000611435602083018461152d565b60208082526021908201527f4f6e6c79206f776e65722063616e2063616c6c20746869732066756e6374696f6040820152603760f91b606082015260800190565b60208082526018908201527f496e76616c696420696e766573746f7220616464726573730000000000000000604082015260600190565b60208082526017908201527f496e766573746f72206e6f742072656769737465726564000000000000000000604082015260600190565b634e487b7160e01b600052603260045260246000fd5b634e487b7160e01b600052601160045260246000fd5b8181038181111561176c5761176c611743565b92915050565b634e487b7160e01b600052603160045260246000fd5b60006001820161179a5761179a611743565b5060010190565b600181811c908216806117b557607f821691505b602082108103610ab757634e487b7160e01b600052602260045260246000fd5b601f82111561181f57600081815260208120601f850160051c810160208610156117fc5750805b601f850160051c820191505b8181101561181b57828155600101611808565b5050505b505050565b815167ffffffffffffffff81111561183e5761183e61143c565b6118528161184c84546117a1565b846117d5565b602080601f831160018114611887576000841561186f5750858301515b600019600386901b1c1916600185901b17855561181b565b600085815260208120601f198616915b828110156118b657888601518255948401946001909101908401611897565b50858210156118d45787850151600019600388901b60f8161c191681555b5050505050600190811b0190555056fea2646970667358221220ad75826e2b569f346573fca68ddbfe2e698091aa79d0d5ad18d548cadeaf7a0164736f6c63430008140033",
  "linkReferences": {},
  "deployedLinkReferences": {}
}