{
  "_format": "hh-sol-artifact-1",
  "contractName": "ArtNightRaffle",
  "sourceName": "contracts/ArtNightRaffle.sol",
  "abi": [
    {
      "inputs": [
        {
          "internalType": "address",
          "name": "vrfCoordinatorV2",
          "type": "address"
        },
        {
          "internalType": "uint256",
          "name": "subscriptionId",
          "type": "uint256"
        },
        {
          "internalType": "bytes32",
          "name": "gasLane",
          "type": "bytes32"
        },
        {
          "internalType": "uint32",
          "name": "callbackGasLimit",
          "type": "uint32"
        },
        {
          "internalType": "uint16",
          "name": "requestConfirmations",
          "type": "uint16"
        },
        {
          "internalType": "uint32",
          "name": "numWords",
          "type": "uint32"
        }
      ],
      "stateMutability": "nonpayable",
      "type": "constructor"
    },
    {
      "inputs": [],
      "name": "ArtNightRaffle__InvalidTicketNumber",
      "type": "error"
    },
    {
      "inputs": [],
      "name": "ArtNightRaffle__NoTicketsProvided",
      "type": "error"
    },
    {
      "inputs": [],
      "name": "ArtNightRaffle__RaffleNotActive",
      "type": "error"
    },
    {
      "inputs": [],
      "name": "ArtNightRaffle__RaffleNotFound",
      "type": "error"
    },
    {
      "inputs": [],
      "name": "ArtNightRaffle__WinnerAlreadySelected",
      "type": "error"
    },
    {
      "inputs": [
        {
          "internalType": "address",
          "name": "have",
          "type": "address"
        },
        {
          "internalType": "address",
          "name": "want",
          "type": "address"
        }
      ],
      "name": "OnlyCoordinatorCanFulfill",
      "type": "error"
    },
    {
      "inputs": [
        {
          "internalType": "address",
          "name": "have",
          "type": "address"
        },
        {
          "internalType": "address",
          "name": "owner",
          "type": "address"
        },
        {
          "internalType": "address",
          "name": "coordinator",
          "type": "address"
        }
      ],
      "name": "OnlyOwnerOrCoordinator",
      "type": "error"
    },
    {
      "inputs": [],
      "name": "ZeroAddress",
      "type": "error"
    },
    {
      "anonymous": false,
      "inputs": [
        {
          "indexed": false,
          "internalType": "address",
          "name": "vrfCoordinator",
          "type": "address"
        }
      ],
      "name": "CoordinatorSet",
      "type": "event"
    },
    {
      "anonymous": false,
      "inputs": [
        {
          "indexed": true,
          "internalType": "address",
          "name": "from",
          "type": "address"
        },
        {
          "indexed": true,
          "internalType": "address",
          "name": "to",
          "type": "address"
        }
      ],
      "name": "OwnershipTransferRequested",
      "type": "event"
    },
    {
      "anonymous": false,
      "inputs": [
        {
          "indexed": true,
          "internalType": "address",
          "name": "from",
          "type": "address"
        },
        {
          "indexed": true,
          "internalType": "address",
          "name": "to",
          "type": "address"
        }
      ],
      "name": "OwnershipTransferred",
      "type": "event"
    },
    {
      "anonymous": false,
      "inputs": [
        {
          "indexed": false,
          "internalType": "uint256",
          "name": "raffleId",
          "type": "uint256"
        },
        {
          "indexed": false,
          "internalType": "uint256[]",
          "name": "tickets",
          "type": "uint256[]"
        }
      ],
      "name": "RaffleCreated",
      "type": "event"
    },
    {
      "anonymous": false,
      "inputs": [
        {
          "indexed": false,
          "internalType": "uint256",
          "name": "raffleId",
          "type": "uint256"
        }
      ],
      "name": "RaffleReset",
      "type": "event"
    },
    {
      "anonymous": false,
      "inputs": [
        {
          "indexed": false,
          "internalType": "uint256",
          "name": "raffleId",
          "type": "uint256"
        },
        {
          "indexed": false,
          "internalType": "uint256",
          "name": "winner",
          "type": "uint256"
        }
      ],
      "name": "WinnerSelected",
      "type": "event"
    },
    {
      "inputs": [],
      "name": "acceptOwnership",
      "outputs": [],
      "stateMutability": "nonpayable",
      "type": "function"
    },
    {
      "inputs": [
        {
          "internalType": "uint256[]",
          "name": "tickets",
          "type": "uint256[]"
        }
      ],
      "name": "createRaffle",
      "outputs": [
        {
          "internalType": "uint256",
          "name": "raffleId",
          "type": "uint256"
        }
      ],
      "stateMutability": "nonpayable",
      "type": "function"
    },
    {
      "inputs": [
        {
          "internalType": "uint256",
          "name": "raffleId",
          "type": "uint256"
        }
      ],
      "name": "getRaffleTickets",
      "outputs": [
        {
          "internalType": "uint256[]",
          "name": "",
          "type": "uint256[]"
        }
      ],
      "stateMutability": "view",
      "type": "function"
    },
    {
      "inputs": [
        {
          "internalType": "uint256",
          "name": "raffleId",
          "type": "uint256"
        }
      ],
      "name": "getTicketCount",
      "outputs": [
        {
          "internalType": "uint256",
          "name": "",
          "type": "uint256"
        }
      ],
      "stateMutability": "view",
      "type": "function"
    },
    {
      "inputs": [],
      "name": "getVRFConfig",
      "outputs": [
        {
          "internalType": "address",
          "name": "vrfCoordinator",
          "type": "address"
        },
        {
          "internalType": "uint256",
          "name": "subscriptionId",
          "type": "uint256"
        },
        {
          "internalType": "bytes32",
          "name": "gasLane",
          "type": "bytes32"
        },
        {
          "internalType": "uint32",
          "name": "callbackGasLimit",
          "type": "uint32"
        },
        {
          "internalType": "uint16",
          "name": "requestConfirmations",
          "type": "uint16"
        },
        {
          "internalType": "uint32",
          "name": "numWords",
          "type": "uint32"
        }
      ],
      "stateMutability": "view",
      "type": "function"
    },
    {
      "inputs": [
        {
          "internalType": "uint256",
          "name": "raffleId",
          "type": "uint256"
        }
      ],
      "name": "getWinner",
      "outputs": [
        {
          "internalType": "uint256",
          "name": "",
          "type": "uint256"
        }
      ],
      "stateMutability": "view",
      "type": "function"
    },
    {
      "inputs": [
        {
          "internalType": "uint256",
          "name": "raffleId",
          "type": "uint256"
        }
      ],
      "name": "isRaffleActive",
      "outputs": [
        {
          "internalType": "bool",
          "name": "",
          "type": "bool"
        }
      ],
      "stateMutability": "view",
      "type": "function"
    },
    {
      "inputs": [
        {
          "internalType": "uint256",
          "name": "raffleId",
          "type": "uint256"
        }
      ],
      "name": "isWinnerSelected",
      "outputs": [
        {
          "internalType": "bool",
          "name": "",
          "type": "bool"
        }
      ],
      "stateMutability": "view",
      "type": "function"
    },
    {
      "inputs": [],
      "name": "owner",
      "outputs": [
        {
          "internalType": "address",
          "name": "",
          "type": "address"
        }
      ],
      "stateMutability": "view",
      "type": "function"
    },
    {
      "inputs": [
        {
          "internalType": "uint256",
          "name": "requestId",
          "type": "uint256"
        },
        {
          "internalType": "uint256[]",
          "name": "randomWords",
          "type": "uint256[]"
        }
      ],
      "name": "rawFulfillRandomWords",
      "outputs": [],
      "stateMutability": "nonpayable",
      "type": "function"
    },
    {
      "inputs": [
        {
          "internalType": "uint256",
          "name": "raffleId",
          "type": "uint256"
        }
      ],
      "name": "resetRaffle",
      "outputs": [],
      "stateMutability": "nonpayable",
      "type": "function"
    },
    {
      "inputs": [],
      "name": "s_vrfCoordinator",
      "outputs": [
        {
          "internalType": "contract IVRFCoordinatorV2Plus",
          "name": "",
          "type": "address"
        }
      ],
      "stateMutability": "view",
      "type": "function"
    },
    {
      "inputs": [
        {
          "internalType": "uint256",
          "name": "raffleId",
          "type": "uint256"
        }
      ],
      "name": "selectWinner",
      "outputs": [],
      "stateMutability": "nonpayable",
      "type": "function"
    },
    {
      "inputs": [
        {
          "internalType": "address",
          "name": "_vrfCoordinator",
          "type": "address"
        }
      ],
      "name": "setCoordinator",
      "outputs": [],
      "stateMutability": "nonpayable",
      "type": "function"
    },
    {
      "inputs": [
        {
          "internalType": "address",
          "name": "to",
          "type": "address"
        }
      ],
      "name": "transferOwnership",
      "outputs": [],
      "stateMutability": "nonpayable",
      "type": "function"
    }
  ],
  "bytecode": "0x6101406040523480156200001257600080fd5b50604051620011a5380380620011a58339810160408190526200003591620001ff565b8533806000816200008d5760405162461bcd60e51b815260206004820152601860248201527f43616e6e6f7420736574206f776e657220746f207a65726f000000000000000060448201526064015b60405180910390fd5b600080546001600160a01b0319166001600160a01b0384811691909117909155811615620000c057620000c0816200013a565b5050506001600160a01b038116620000eb5760405163d92e233d60e01b815260040160405180910390fd5b600280546001600160a01b0319166001600160a01b039283161790559590951660805260a09390935260c09190915263ffffffff90811660e05261ffff90911661010052166101205262000284565b336001600160a01b03821603620001945760405162461bcd60e51b815260206004820152601760248201527f43616e6e6f74207472616e7366657220746f2073656c66000000000000000000604482015260640162000084565b600180546001600160a01b0319166001600160a01b0383811691821790925560008054604051929316917fed8889f560326eb138920d842192f0eb3dd22b4f139c87a2c57538e05bae12789190a350565b805163ffffffff81168114620001fa57600080fd5b919050565b60008060008060008060c087890312156200021957600080fd5b86516001600160a01b03811681146200023157600080fd5b60208801516040890151919750955093506200025060608801620001e5565b9250608087015161ffff811681146200026857600080fd5b91506200027860a08801620001e5565b90509295509295509295565b60805160a05160c05160e0516101005161012051610ea7620002fe600039600081816102f601526104f50152600081816102cf015261049f0152600081816102a401526104c90152600081816102770152610453015260008181610251015261047901526000818161022d01526105380152610ea76000f3fe608060405234801561001057600080fd5b50600436106100f55760003560e01c80638d9b3da5116100975780639b8307dd116100665780639b8307dd146103235780639eccacf614610343578063f2fde38b14610356578063f41bc95e1461036957600080fd5b80638d9b3da5146101c15780638da5cb5b146101e75780638ea981171461020c5780639a5ea6a01461021f57600080fd5b80634c524be4116100d35780634c524be4146101805780634d94e40a146101935780636007fe29146101a657806379ba5097146101b957600080fd5b80631fe543e3146100fa5780633cd6c7ee1461010f5780634129b2c91461014f575b600080fd5b61010d610108366004610b52565b610389565b005b61013a61011d366004610bd1565b600090815260036020526040902060020154610100900460ff1690565b60405190151581526020015b60405180910390f35b61017261015d366004610bd1565b60009081526003602052604090206001015490565b604051908152602001610146565b61010d61018e366004610bd1565b6103de565b6101726101a1366004610c00565b6105dc565b61010d6101b4366004610bd1565b6106de565b61010d61074b565b61013a6101cf366004610bd1565b60009081526003602052604090206002015460ff1690565b6000546001600160a01b03165b6040516001600160a01b039091168152602001610146565b61010d61021a366004610cbe565b6107f5565b604080516001600160a01b037f00000000000000000000000000000000000000000000000000000000000000001681527f000000000000000000000000000000000000000000000000000000000000000060208201527f00000000000000000000000000000000000000000000000000000000000000009181019190915263ffffffff7f00000000000000000000000000000000000000000000000000000000000000008116606083015261ffff7f00000000000000000000000000000000000000000000000000000000000000001660808301527f00000000000000000000000000000000000000000000000000000000000000001660a082015260c001610146565b610172610331366004610bd1565b60009081526003602052604090205490565b6002546101f4906001600160a01b031681565b61010d610364366004610cbe565b6108e7565b61037c610377366004610bd1565b6108fb565b6040516101469190610d29565b6002546001600160a01b031633146103ce5760025460405163073e64fd60e21b81523360048201526001600160a01b0390911660248201526044015b60405180910390fd5b6103d9838383610962565b505050565b6103e6610a22565b60008181526003602052604090206002810154610100900460ff1661041e57604051635fbdedb360e01b815260040160405180910390fd5b600281015460ff16156104445760405163cb4693a960e01b815260040160405180910390fd5b60006040518060c001604052807f000000000000000000000000000000000000000000000000000000000000000081526020017f000000000000000000000000000000000000000000000000000000000000000081526020017f000000000000000000000000000000000000000000000000000000000000000061ffff1681526020017f000000000000000000000000000000000000000000000000000000000000000063ffffffff1681526020017f000000000000000000000000000000000000000000000000000000000000000063ffffffff16815260200160405180602001604052806000815250815250905060007f00000000000000000000000000000000000000000000000000000000000000006001600160a01b0316639b1c385e836040518263ffffffff1660e01b81526004016105829190610d3c565b6020604051808303816000875af11580156105a1573d6000803e3d6000fd5b505050506040513d601f19601f820116820180604052508101906105c59190610dd8565b600090815260056020526040902093909355505050565b60006105e6610a22565b815160000361060857604051634185303b60e01b815260040160405180910390fd5b6004805490600061061883610df1565b909155506000818152600360208190526040822090810183905560028101805461ffff1916610100179055600181018290559192505b835181101561069e578160000184828151811061066d5761066d610e18565b602090810291909101810151825460018101845560009384529190922001558061069681610df1565b91505061064e565b507f1a72956214bfb09f6960ae5f7c840e9a73c556b560379dfe872699de7f27e61e82846040516106d0929190610e2e565b60405180910390a150919050565b6106e6610a22565b600081815260036020526040812090610700908290610b20565b6000600182015560028101805461ffff191690556040518281527f55474e5a13c390e9594ab9c0e33694ad0c2027fa1555c1cb83c9012e6a464ba79060200160405180910390a15050565b6001546001600160a01b0316331461079e5760405162461bcd60e51b815260206004820152601660248201527526bab9ba10313290383937b837b9b2b21037bbb732b960511b60448201526064016103c5565b60008054336001600160a01b0319808316821784556001805490911690556040516001600160a01b0390921692909183917f8be0079c531659141344cd1fd0a4f28419497f9722a3daafe3b4186f6b6457e091a350565b6000546001600160a01b0316331480159061081b57506002546001600160a01b03163314155b1561086c57336108336000546001600160a01b031690565b60025460405163061db9c160e01b81526001600160a01b03938416600482015291831660248301529190911660448201526064016103c5565b6001600160a01b0381166108935760405163d92e233d60e01b815260040160405180910390fd5b600280546001600160a01b0319166001600160a01b0383169081179091556040519081527fd1a6a14209a385a964d036e404cb5cfb71f4000cdb03c9366292430787261be69060200160405180910390a150565b6108ef610a22565b6108f881610a77565b50565b6000818152600360209081526040918290208054835181840281018401909452808452606093919283919083018282801561095557602002820191906000526020600020905b815481526020019060010190808311610941575b5050505050915050919050565b600083815260056020908152604080832054808452600390925282208054919290918585838161099457610994610e18565b905060200201356109a59190610e4f565b90508160000181815481106109bc576109bc610e18565b60009182526020918290200154600184810182905560028501805461ffff1916909117905560408051868152928301919091527fca1dae47f36d2b335e85f1cb82f7d34f0a5ea31328e3ab461cbd70219ec90c9e910160405180910390a1505050505050565b6000546001600160a01b03163314610a755760405162461bcd60e51b815260206004820152601660248201527527b7363c9031b0b63630b1363290313c9037bbb732b960511b60448201526064016103c5565b565b336001600160a01b03821603610acf5760405162461bcd60e51b815260206004820152601760248201527f43616e6e6f74207472616e7366657220746f2073656c6600000000000000000060448201526064016103c5565b600180546001600160a01b0319166001600160a01b0383811691821790925560008054604051929316917fed8889f560326eb138920d842192f0eb3dd22b4f139c87a2c57538e05bae12789190a350565b50805460008255906000526020600020908101906108f891905b80821115610b4e5760008155600101610b3a565b5090565b600080600060408486031215610b6757600080fd5b83359250602084013567ffffffffffffffff80821115610b8657600080fd5b818601915086601f830112610b9a57600080fd5b813581811115610ba957600080fd5b8760208260051b8501011115610bbe57600080fd5b6020830194508093505050509250925092565b600060208284031215610be357600080fd5b5035919050565b634e487b7160e01b600052604160045260246000fd5b60006020808385031215610c1357600080fd5b823567ffffffffffffffff80821115610c2b57600080fd5b818501915085601f830112610c3f57600080fd5b813581811115610c5157610c51610bea565b8060051b604051601f19603f83011681018181108582111715610c7657610c76610bea565b604052918252848201925083810185019188831115610c9457600080fd5b938501935b82851015610cb257843584529385019392850192610c99565b98975050505050505050565b600060208284031215610cd057600080fd5b81356001600160a01b0381168114610ce757600080fd5b9392505050565b600081518084526020808501945080840160005b83811015610d1e57815187529582019590820190600101610d02565b509495945050505050565b602081526000610ce76020830184610cee565b6000602080835283518184015280840151604084015261ffff6040850151166060840152606084015163ffffffff80821660808601528060808701511660a0860152505060a084015160c08085015280518060e086015260005b81811015610db35782810184015186820161010001528301610d96565b506101009250600083828701015282601f19601f830116860101935050505092915050565b600060208284031215610dea57600080fd5b5051919050565b600060018201610e1157634e487b7160e01b600052601160045260246000fd5b5060010190565b634e487b7160e01b600052603260045260246000fd5b828152604060208201526000610e476040830184610cee565b949350505050565b600082610e6c57634e487b7160e01b600052601260045260246000fd5b50069056fea2646970667358221220a9a6c488de15101bbefa8807230f3041e14d643c5ee45106810f583464d7921f64736f6c63430008140033",
  "linkReferences": {},
  "deployedLinkReferences": {}
}