{
  "_format": "hh-sol-artifact-1",
  "contractName": "ArtNightRaffle",
  "sourceName": "contracts/ArtNightRaffle.sol",
  "abi": [
    {
      "inputs": [
        {
          "internalType": "address",
          "name": "vrfCoordinatorV2",
          "type": "address"
        },
        {
          "internalType": "uint256",
          "name": "subscriptionId",
          "type": "uint256"
        },
        {
          "internalType": "bytes32",
          "name": "gasLane",
          "type": "bytes32"
        },
        {
          "internalType": "uint32",
          "name": "callbackGasLimit",
          "type": "uint32"
        },
        {
          "internalType": "uint16",
          "name": "requestConfirmations",
          "type": "uint16"
        },
        {
          "internalType": "uint32",
          "name": "numWords",
          "type": "uint32"
        }
      ],
      "stateMutability": "nonpayable",
      "type": "constructor"
    },
    {
      "inputs": [],
      "name": "ArtNightRaffle__InvalidTicketNumber",
      "type": "error"
    },
    {
      "inputs": [],
      "name": "ArtNightRaffle__NoTicketsProvided",
      "type": "error"
    },
    {
      "inputs": [],
      "name": "ArtNightRaffle__RaffleNotActive",
      "type": "error"
    },
    {
      "inputs": [],
      "name": "ArtNightRaffle__RaffleNotFound",
      "type": "error"
    },
    {
      "inputs": [],
      "name": "ArtNightRaffle__WinnerAlreadySelected",
      "type": "error"
    },
    {
      "inputs": [
        {
          "internalType": "address",
          "name": "have",
          "type": "address"
        },
        {
          "internalType": "address",
          "name": "want",
          "type": "address"
        }
      ],
      "name": "OnlyCoordinatorCanFulfill",
      "type": "error"
    },
    {
      "inputs": [
        {
          "internalType": "address",
          "name": "have",
          "type": "address"
        },
        {
          "internalType": "address",
          "name": "owner",
          "type": "address"
        },
        {
          "internalType": "address",
          "name": "coordinator",
          "type": "address"
        }
      ],
      "name": "OnlyOwnerOrCoordinator",
      "type": "error"
    },
    {
      "inputs": [],
      "name": "ZeroAddress",
      "type": "error"
    },
    {
      "anonymous": false,
      "inputs": [
        {
          "indexed": false,
          "internalType": "address",
          "name": "vrfCoordinator",
          "type": "address"
        }
      ],
      "name": "CoordinatorSet",
      "type": "event"
    },
    {
      "anonymous": false,
      "inputs": [
        {
          "indexed": true,
          "internalType": "address",
          "name": "from",
          "type": "address"
        },
        {
          "indexed": true,
          "internalType": "address",
          "name": "to",
          "type": "address"
        }
      ],
      "name": "OwnershipTransferRequested",
      "type": "event"
    },
    {
      "anonymous": false,
      "inputs": [
        {
          "indexed": true,
          "internalType": "address",
          "name": "from",
          "type": "address"
        },
        {
          "indexed": true,
          "internalType": "address",
          "name": "to",
          "type": "address"
        }
      ],
      "name": "OwnershipTransferred",
      "type": "event"
    },
    {
      "anonymous": false,
      "inputs": [
        {
          "indexed": false,
          "internalType": "uint256",
          "name": "raffleId",
          "type": "uint256"
        },
        {
          "indexed": false,
          "internalType": "uint256[]",
          "name": "tickets",
          "type": "uint256[]"
        }
      ],
      "name": "RaffleCreated",
      "type": "event"
    },
    {
      "anonymous": false,
      "inputs": [
        {
          "indexed": false,
          "internalType": "uint256",
          "name": "raffleId",
          "type": "uint256"
        }
      ],
      "name": "RaffleReset",
      "type": "event"
    },
    {
      "anonymous": false,
      "inputs": [
        {
          "indexed": false,
          "internalType": "uint256",
          "name": "requestId",
          "type": "uint256"
        },
        {
          "indexed": false,
          "internalType": "uint256",
          "name": "randomValue",
          "type": "uint256"
        },
        {
          "indexed": false,
          "internalType": "uint256",
          "name": "randomIndex",
          "type": "uint256"
        },
        {
          "indexed": false,
          "internalType": "uint256",
          "name": "winningTicket",
          "type": "uint256"
        }
      ],
      "name": "RandomValueReceived",
      "type": "event"
    },
    {
      "anonymous": false,
      "inputs": [
        {
          "indexed": false,
          "internalType": "uint256",
          "name": "raffleId",
          "type": "uint256"
        },
        {
          "indexed": false,
          "internalType": "uint256",
          "name": "winner",
          "type": "uint256"
        }
      ],
      "name": "WinnerSelected",
      "type": "event"
    },
    {
      "inputs": [],
      "name": "acceptOwnership",
      "outputs": [],
      "stateMutability": "nonpayable",
      "type": "function"
    },
    {
      "inputs": [
        {
          "internalType": "uint256[]",
          "name": "tickets",
          "type": "uint256[]"
        }
      ],
      "name": "createRaffle",
      "outputs": [
        {
          "internalType": "uint256",
          "name": "raffleId",
          "type": "uint256"
        }
      ],
      "stateMutability": "nonpayable",
      "type": "function"
    },
    {
      "inputs": [
        {
          "internalType": "uint256",
          "name": "raffleId",
          "type": "uint256"
        }
      ],
      "name": "getRaffleTickets",
      "outputs": [
        {
          "internalType": "uint256[]",
          "name": "",
          "type": "uint256[]"
        }
      ],
      "stateMutability": "view",
      "type": "function"
    },
    {
      "inputs": [
        {
          "internalType": "uint256",
          "name": "raffleId",
          "type": "uint256"
        }
      ],
      "name": "getTicketCount",
      "outputs": [
        {
          "internalType": "uint256",
          "name": "",
          "type": "uint256"
        }
      ],
      "stateMutability": "view",
      "type": "function"
    },
    {
      "inputs": [],
      "name": "getVRFConfig",
      "outputs": [
        {
          "internalType": "address",
          "name": "vrfCoordinator",
          "type": "address"
        },
        {
          "internalType": "uint256",
          "name": "subscriptionId",
          "type": "uint256"
        },
        {
          "internalType": "bytes32",
          "name": "gasLane",
          "type": "bytes32"
        },
        {
          "internalType": "uint32",
          "name": "callbackGasLimit",
          "type": "uint32"
        },
        {
          "internalType": "uint16",
          "name": "requestConfirmations",
          "type": "uint16"
        },
        {
          "internalType": "uint32",
          "name": "numWords",
          "type": "uint32"
        }
      ],
      "stateMutability": "view",
      "type": "function"
    },
    {
      "inputs": [
        {
          "internalType": "uint256",
          "name": "raffleId",
          "type": "uint256"
        }
      ],
      "name": "getWinner",
      "outputs": [
        {
          "internalType": "uint256",
          "name": "",
          "type": "uint256"
        }
      ],
      "stateMutability": "view",
      "type": "function"
    },
    {
      "inputs": [
        {
          "internalType": "uint256",
          "name": "raffleId",
          "type": "uint256"
        }
      ],
      "name": "isRaffleActive",
      "outputs": [
        {
          "internalType": "bool",
          "name": "",
          "type": "bool"
        }
      ],
      "stateMutability": "view",
      "type": "function"
    },
    {
      "inputs": [
        {
          "internalType": "uint256",
          "name": "raffleId",
          "type": "uint256"
        }
      ],
      "name": "isWinnerSelected",
      "outputs": [
        {
          "internalType": "bool",
          "name": "",
          "type": "bool"
        }
      ],
      "stateMutability": "view",
      "type": "function"
    },
    {
      "inputs": [],
      "name": "owner",
      "outputs": [
        {
          "internalType": "address",
          "name": "",
          "type": "address"
        }
      ],
      "stateMutability": "view",
      "type": "function"
    },
    {
      "inputs": [
        {
          "internalType": "uint256",
          "name": "requestId",
          "type": "uint256"
        },
        {
          "internalType": "uint256[]",
          "name": "randomWords",
          "type": "uint256[]"
        }
      ],
      "name": "rawFulfillRandomWords",
      "outputs": [],
      "stateMutability": "nonpayable",
      "type": "function"
    },
    {
      "inputs": [
        {
          "internalType": "uint256",
          "name": "raffleId",
          "type": "uint256"
        }
      ],
      "name": "resetRaffle",
      "outputs": [],
      "stateMutability": "nonpayable",
      "type": "function"
    },
    {
      "inputs": [],
      "name": "s_vrfCoordinator",
      "outputs": [
        {
          "internalType": "contract IVRFCoordinatorV2Plus",
          "name": "",
          "type": "address"
        }
      ],
      "stateMutability": "view",
      "type": "function"
    },
    {
      "inputs": [
        {
          "internalType": "uint256",
          "name": "raffleId",
          "type": "uint256"
        }
      ],
      "name": "selectWinner",
      "outputs": [],
      "stateMutability": "nonpayable",
      "type": "function"
    },
    {
      "inputs": [
        {
          "internalType": "address",
          "name": "_vrfCoordinator",
          "type": "address"
        }
      ],
      "name": "setCoordinator",
      "outputs": [],
      "stateMutability": "nonpayable",
      "type": "function"
    },
    {
      "inputs": [
        {
          "internalType": "address",
          "name": "to",
          "type": "address"
        }
      ],
      "name": "transferOwnership",
      "outputs": [],
      "stateMutability": "nonpayable",
      "type": "function"
    }
  ],
  "bytecode": "0x6101406040523480156200001257600080fd5b50604051620011f8380380620011f88339810160408190526200003591620001ff565b8533806000816200008d5760405162461bcd60e51b815260206004820152601860248201527f43616e6e6f7420736574206f776e657220746f207a65726f000000000000000060448201526064015b60405180910390fd5b600080546001600160a01b0319166001600160a01b0384811691909117909155811615620000c057620000c0816200013a565b5050506001600160a01b038116620000eb5760405163d92e233d60e01b815260040160405180910390fd5b600280546001600160a01b0319166001600160a01b039283161790559590951660805260a09390935260c09190915263ffffffff90811660e05261ffff90911661010052166101205262000284565b336001600160a01b03821603620001945760405162461bcd60e51b815260206004820152601760248201527f43616e6e6f74207472616e7366657220746f2073656c66000000000000000000604482015260640162000084565b600180546001600160a01b0319166001600160a01b0383811691821790925560008054604051929316917fed8889f560326eb138920d842192f0eb3dd22b4f139c87a2c57538e05bae12789190a350565b805163ffffffff81168114620001fa57600080fd5b919050565b60008060008060008060c087890312156200021957600080fd5b86516001600160a01b03811681146200023157600080fd5b60208801516040890151919750955093506200025060608801620001e5565b9250608087015161ffff811681146200026857600080fd5b91506200027860a08801620001e5565b90509295509295509295565b60805160a05160c05160e0516101005161012051610efa620002fe600039600081816102f601526104f50152600081816102cf015261049f0152600081816102a401526104c90152600081816102770152610453015260008181610251015261047901526000818161022d01526105380152610efa6000f3fe608060405234801561001057600080fd5b50600436106100f55760003560e01c80638d9b3da5116100975780639b8307dd116100665780639b8307dd146103235780639eccacf614610343578063f2fde38b14610356578063f41bc95e1461036957600080fd5b80638d9b3da5146101c15780638da5cb5b146101e75780638ea981171461020c5780639a5ea6a01461021f57600080fd5b80634c524be4116100d35780634c524be4146101805780634d94e40a146101935780636007fe29146101a657806379ba5097146101b957600080fd5b80631fe543e3146100fa5780633cd6c7ee1461010f5780634129b2c91461014f575b600080fd5b61010d610108366004610ba5565b610389565b005b61013a61011d366004610c24565b600090815260036020526040902060020154610100900460ff1690565b60405190151581526020015b60405180910390f35b61017261015d366004610c24565b60009081526003602052604090206001015490565b604051908152602001610146565b61010d61018e366004610c24565b6103de565b6101726101a1366004610c53565b6105dc565b61010d6101b4366004610c24565b6106de565b61010d61074b565b61013a6101cf366004610c24565b60009081526003602052604090206002015460ff1690565b6000546001600160a01b03165b6040516001600160a01b039091168152602001610146565b61010d61021a366004610d11565b6107f5565b604080516001600160a01b037f00000000000000000000000000000000000000000000000000000000000000001681527f000000000000000000000000000000000000000000000000000000000000000060208201527f00000000000000000000000000000000000000000000000000000000000000009181019190915263ffffffff7f00000000000000000000000000000000000000000000000000000000000000008116606083015261ffff7f00000000000000000000000000000000000000000000000000000000000000001660808301527f00000000000000000000000000000000000000000000000000000000000000001660a082015260c001610146565b610172610331366004610c24565b60009081526003602052604090205490565b6002546101f4906001600160a01b031681565b61010d610364366004610d11565b6108e7565b61037c610377366004610c24565b6108fb565b6040516101469190610d7c565b6002546001600160a01b031633146103ce5760025460405163073e64fd60e21b81523360048201526001600160a01b0390911660248201526044015b60405180910390fd5b6103d9838383610962565b505050565b6103e6610a75565b60008181526003602052604090206002810154610100900460ff1661041e57604051635fbdedb360e01b815260040160405180910390fd5b600281015460ff16156104445760405163cb4693a960e01b815260040160405180910390fd5b60006040518060c001604052807f000000000000000000000000000000000000000000000000000000000000000081526020017f000000000000000000000000000000000000000000000000000000000000000081526020017f000000000000000000000000000000000000000000000000000000000000000061ffff1681526020017f000000000000000000000000000000000000000000000000000000000000000063ffffffff1681526020017f000000000000000000000000000000000000000000000000000000000000000063ffffffff16815260200160405180602001604052806000815250815250905060007f00000000000000000000000000000000000000000000000000000000000000006001600160a01b0316639b1c385e836040518263ffffffff1660e01b81526004016105829190610d8f565b6020604051808303816000875af11580156105a1573d6000803e3d6000fd5b505050506040513d601f19601f820116820180604052508101906105c59190610e2b565b600090815260056020526040902093909355505050565b60006105e6610a75565b815160000361060857604051634185303b60e01b815260040160405180910390fd5b6004805490600061061883610e44565b909155506000818152600360208190526040822090810183905560028101805461ffff1916610100179055600181018290559192505b835181101561069e578160000184828151811061066d5761066d610e6b565b602090810291909101810151825460018101845560009384529190922001558061069681610e44565b91505061064e565b507f1a72956214bfb09f6960ae5f7c840e9a73c556b560379dfe872699de7f27e61e82846040516106d0929190610e81565b60405180910390a150919050565b6106e6610a75565b600081815260036020526040812090610700908290610b73565b6000600182015560028101805461ffff191690556040518281527f55474e5a13c390e9594ab9c0e33694ad0c2027fa1555c1cb83c9012e6a464ba79060200160405180910390a15050565b6001546001600160a01b0316331461079e5760405162461bcd60e51b815260206004820152601660248201527526bab9ba10313290383937b837b9b2b21037bbb732b960511b60448201526064016103c5565b60008054336001600160a01b0319808316821784556001805490911690556040516001600160a01b0390921692909183917f8be0079c531659141344cd1fd0a4f28419497f9722a3daafe3b4186f6b6457e091a350565b6000546001600160a01b0316331480159061081b57506002546001600160a01b03163314155b1561086c57336108336000546001600160a01b031690565b60025460405163061db9c160e01b81526001600160a01b03938416600482015291831660248301529190911660448201526064016103c5565b6001600160a01b0381166108935760405163d92e233d60e01b815260040160405180910390fd5b600280546001600160a01b0319166001600160a01b0383169081179091556040519081527fd1a6a14209a385a964d036e404cb5cfb71f4000cdb03c9366292430787261be69060200160405180910390a150565b6108ef610a75565b6108f881610aca565b50565b6000818152600360209081526040918290208054835181840281018401909452808452606093919283919083018282801561095557602002820191906000526020600020905b815481526020019060010190808311610941575b5050505050915050919050565b6000838152600560209081526040808320548084526003909252822090918484828161099057610990610e6b565b84546020909102929092013592506000916109ac915083610ea2565b905060008360000182815481106109c5576109c5610e6b565b60009182526020918290200154600186810182905560028701805461ffff19169091179055604080518b815292830186905282018490526060820181905291507f7e1e96de0eb83c6fc6225d49c115403ce524617dc1052ea7a87d5da94dd070ff9060800160405180910390a160408051868152602081018390527fca1dae47f36d2b335e85f1cb82f7d34f0a5ea31328e3ab461cbd70219ec90c9e910160405180910390a15050505050505050565b6000546001600160a01b03163314610ac85760405162461bcd60e51b815260206004820152601660248201527527b7363c9031b0b63630b1363290313c9037bbb732b960511b60448201526064016103c5565b565b336001600160a01b03821603610b225760405162461bcd60e51b815260206004820152601760248201527f43616e6e6f74207472616e7366657220746f2073656c6600000000000000000060448201526064016103c5565b600180546001600160a01b0319166001600160a01b0383811691821790925560008054604051929316917fed8889f560326eb138920d842192f0eb3dd22b4f139c87a2c57538e05bae12789190a350565b50805460008255906000526020600020908101906108f891905b80821115610ba15760008155600101610b8d565b5090565b600080600060408486031215610bba57600080fd5b83359250602084013567ffffffffffffffff80821115610bd957600080fd5b818601915086601f830112610bed57600080fd5b813581811115610bfc57600080fd5b8760208260051b8501011115610c1157600080fd5b6020830194508093505050509250925092565b600060208284031215610c3657600080fd5b5035919050565b634e487b7160e01b600052604160045260246000fd5b60006020808385031215610c6657600080fd5b823567ffffffffffffffff80821115610c7e57600080fd5b818501915085601f830112610c9257600080fd5b813581811115610ca457610ca4610c3d565b8060051b604051601f19603f83011681018181108582111715610cc957610cc9610c3d565b604052918252848201925083810185019188831115610ce757600080fd5b938501935b82851015610d0557843584529385019392850192610cec565b98975050505050505050565b600060208284031215610d2357600080fd5b81356001600160a01b0381168114610d3a57600080fd5b9392505050565b600081518084526020808501945080840160005b83811015610d7157815187529582019590820190600101610d55565b509495945050505050565b602081526000610d3a6020830184610d41565b6000602080835283518184015280840151604084015261ffff6040850151166060840152606084015163ffffffff80821660808601528060808701511660a0860152505060a084015160c08085015280518060e086015260005b81811015610e065782810184015186820161010001528301610de9565b506101009250600083828701015282601f19601f830116860101935050505092915050565b600060208284031215610e3d57600080fd5b5051919050565b600060018201610e6457634e487b7160e01b600052601160045260246000fd5b5060010190565b634e487b7160e01b600052603260045260246000fd5b828152604060208201526000610e9a6040830184610d41565b949350505050565b600082610ebf57634e487b7160e01b600052601260045260246000fd5b50069056fea26469706673582212207eb221f06529b7edcf9371270f13263946d1951608b476895dec94893c001f0464736f6c63430008140033",
  "linkReferences": {},
  "deployedLinkReferences": {}
}