{
  "_format": "hh-sol-artifact-1",
  "contractName": "ArtNightNFTMarketplace",
  "sourceName": "contracts/ArtNightNFTMarketplace.sol",
  "abi": [
    {
      "inputs": [
        {
          "internalType": "address",
          "name": "_nftContract",
          "type": "address"
        }
      ],
      "stateMutability": "nonpayable",
      "type": "constructor"
    },
    {
      "inputs": [
        {
          "internalType": "address",
          "name": "owner",
          "type": "address"
        }
      ],
      "name": "OwnableInvalidOwner",
      "type": "error"
    },
    {
      "inputs": [
        {
          "internalType": "address",
          "name": "account",
          "type": "address"
        }
      ],
      "name": "OwnableUnauthorizedAccount",
      "type": "error"
    },
    {
      "anonymous": false,
      "inputs": [
        {
          "indexed": false,
          "internalType": "uint256",
          "name": "tokenId",
          "type": "uint256"
        },
        {
          "indexed": false,
          "internalType": "uint256",
          "name": "amount",
          "type": "uint256"
        }
      ],
      "name": "FundsDistributed",
      "type": "event"
    },
    {
      "anonymous": false,
      "inputs": [
        {
          "indexed": true,
          "internalType": "address",
          "name": "buyer",
          "type": "address"
        },
        {
          "indexed": false,
          "internalType": "uint256",
          "name": "tokenId",
          "type": "uint256"
        },
        {
          "indexed": false,
          "internalType": "uint256",
          "name": "amount",
          "type": "uint256"
        }
      ],
      "name": "NFTPurchased",
      "type": "event"
    },
    {
      "anonymous": false,
      "inputs": [
        {
          "indexed": true,
          "internalType": "address",
          "name": "previousOwner",
          "type": "address"
        },
        {
          "indexed": true,
          "internalType": "address",
          "name": "newOwner",
          "type": "address"
        }
      ],
      "name": "OwnershipTransferred",
      "type": "event"
    },
    {
      "anonymous": false,
      "inputs": [
        {
          "indexed": false,
          "internalType": "uint256",
          "name": "tokenId",
          "type": "uint256"
        },
        {
          "indexed": false,
          "internalType": "uint256",
          "name": "price",
          "type": "uint256"
        },
        {
          "indexed": false,
          "internalType": "address payable[]",
          "name": "recipients",
          "type": "address[]"
        },
        {
          "indexed": false,
          "internalType": "uint256[]",
          "name": "percentages",
          "type": "uint256[]"
        }
      ],
      "name": "TokenConfigured",
      "type": "event"
    },
    {
      "inputs": [
        {
          "internalType": "uint256",
          "name": "tokenId",
          "type": "uint256"
        },
        {
          "internalType": "uint256",
          "name": "_price",
          "type": "uint256"
        },
        {
          "internalType": "address payable[]",
          "name": "_recipients",
          "type": "address[]"
        },
        {
          "internalType": "uint256[]",
          "name": "_percentages",
          "type": "uint256[]"
        }
      ],
      "name": "configureToken",
      "outputs": [],
      "stateMutability": "nonpayable",
      "type": "function"
    },
    {
      "inputs": [],
      "name": "nftContract",
      "outputs": [
        {
          "internalType": "contract IERC721",
          "name": "",
          "type": "address"
        }
      ],
      "stateMutability": "view",
      "type": "function"
    },
    {
      "inputs": [
        {
          "internalType": "uint256",
          "name": "",
          "type": "uint256"
        }
      ],
      "name": "nftPrices",
      "outputs": [
        {
          "internalType": "uint256",
          "name": "",
          "type": "uint256"
        }
      ],
      "stateMutability": "view",
      "type": "function"
    },
    {
      "inputs": [],
      "name": "owner",
      "outputs": [
        {
          "internalType": "address",
          "name": "",
          "type": "address"
        }
      ],
      "stateMutability": "view",
      "type": "function"
    },
    {
      "inputs": [
        {
          "internalType": "uint256",
          "name": "tokenId",
          "type": "uint256"
        }
      ],
      "name": "purchaseNFT",
      "outputs": [],
      "stateMutability": "payable",
      "type": "function"
    },
    {
      "inputs": [],
      "name": "renounceOwnership",
      "outputs": [],
      "stateMutability": "nonpayable",
      "type": "function"
    },
    {
      "inputs": [
        {
          "internalType": "uint256",
          "name": "tokenId",
          "type": "uint256"
        },
        {
          "internalType": "uint256",
          "name": "_price",
          "type": "uint256"
        }
      ],
      "name": "setTokenPrice",
      "outputs": [],
      "stateMutability": "nonpayable",
      "type": "function"
    },
    {
      "inputs": [
        {
          "internalType": "uint256",
          "name": "",
          "type": "uint256"
        },
        {
          "internalType": "uint256",
          "name": "",
          "type": "uint256"
        }
      ],
      "name": "tokenPercentages",
      "outputs": [
        {
          "internalType": "uint256",
          "name": "",
          "type": "uint256"
        }
      ],
      "stateMutability": "view",
      "type": "function"
    },
    {
      "inputs": [
        {
          "internalType": "uint256",
          "name": "",
          "type": "uint256"
        },
        {
          "internalType": "uint256",
          "name": "",
          "type": "uint256"
        }
      ],
      "name": "tokenRecipients",
      "outputs": [
        {
          "internalType": "address payable",
          "name": "",
          "type": "address"
        }
      ],
      "stateMutability": "view",
      "type": "function"
    },
    {
      "inputs": [
        {
          "internalType": "address",
          "name": "newOwner",
          "type": "address"
        }
      ],
      "name": "transferOwnership",
      "outputs": [],
      "stateMutability": "nonpayable",
      "type": "function"
    },
    {
      "inputs": [],
      "name": "withdraw",
      "outputs": [],
      "stateMutability": "nonpayable",
      "type": "function"
    }
  ],
  "bytecode": "0x608060405234801561001057600080fd5b5060405161100f38038061100f83398101604081905261002f916100d4565b338061005557604051631e4fbdf760e01b81526000600482015260240160405180910390fd5b61005e81610084565b50600180546001600160a01b0319166001600160a01b0392909216919091179055610104565b600080546001600160a01b038381166001600160a01b0319831681178455604051919092169283917f8be0079c531659141344cd1fd0a4f28419497f9722a3daafe3b4186f6b6457e09190a35050565b6000602082840312156100e657600080fd5b81516001600160a01b03811681146100fd57600080fd5b9392505050565b610efc806101136000396000f3fe60806040526004361061009c5760003560e01c8063af42e4f211610064578063af42e4f214610137578063d56d229d14610165578063d9f10a2b14610185578063e4e9e66d146101b2578063eb685c47146101d2578063f2fde38b146101f257600080fd5b8063150bde03146100a15780633ccfd60b146100b6578063715018a6146100cb57806386a24358146100e05780638da5cb5b14610100575b600080fd5b6100b46100af366004610b5b565b610212565b005b3480156100c257600080fd5b506100b4610629565b3480156100d757600080fd5b506100b461066e565b3480156100ec57600080fd5b506100b46100fb366004610c5f565b610682565b34801561010c57600080fd5b506000546001600160a01b03165b6040516001600160a01b0390911681526020015b60405180910390f35b34801561014357600080fd5b50610157610152366004610d36565b6108b0565b60405190815260200161012e565b34801561017157600080fd5b5060015461011a906001600160a01b031681565b34801561019157600080fd5b506101576101a0366004610b5b565b60026020526000908152604090205481565b3480156101be57600080fd5b5061011a6101cd366004610d36565b6108e1565b3480156101de57600080fd5b506100b46101ed366004610d36565b610919565b3480156101fe57600080fd5b506100b461020d366004610d58565b6109ee565b6001546040516331a9108f60e11b81526004810183905230916001600160a01b031690636352211e90602401602060405180830381865afa15801561025b573d6000803e3d6000fd5b505050506040513d601f19601f8201168201806040525081019061027f9190610d7c565b6001600160a01b0316146102da5760405162461bcd60e51b815260206004820152601a60248201527f4e4654206e6f7420617661696c61626c6520666f722073616c6500000000000060448201526064015b60405180910390fd5b60008181526002602052604090205461032b5760405162461bcd60e51b8152602060048201526013602482015272151bdad95b881c1c9a58d9481b9bdd081cd95d606a1b60448201526064016102d1565b600081815260026020526040902054341461037f5760405162461bcd60e51b8152602060048201526014602482015273125b98dbdc9c9958dd0811551208185b5bdd5b9d60621b60448201526064016102d1565b6000818152600360205260409020546103d15760405162461bcd60e51b8152602060048201526014602482015273151bdad95b881b9bdd0818dbdb999a59dd5c995960621b60448201526064016102d1565b6000818152600360209081526040808320805482518185028101850190935280835234949383018282801561042f57602002820191906000526020600020905b81546001600160a01b03168152600190910190602001808311610411575b5050505050905060006004600085815260200190815260200160002080548060200260200160405190810160405280929190818152602001828054801561049557602002820191906000526020600020905b815481526020019060010190808311610481575b5050505050905060005b82518110156105455760006127108383815181106104bf576104bf610d99565b6020026020010151866104d29190610dc5565b6104dc9190610de2565b90508382815181106104f0576104f0610d99565b60200260200101516001600160a01b03166108fc829081150290604051600060405180830381858888f19350505050158015610530573d6000803e3d6000fd5b5050808061053d90610e04565b91505061049f565b50600154604051632142170760e11b8152306004820152336024820152604481018690526001600160a01b03909116906342842e0e90606401600060405180830381600087803b15801561059857600080fd5b505af11580156105ac573d6000803e3d6000fd5b5050604080518781523460208201523393507fa6d32bfcc7cd31e4d5ee7adeef7edd500cab0e64b4a494de4f832d41fd70f56d92500160405180910390a260408051858152602081018590527f40d8c854b6d5329fd5fccae04f5a931d7529963fbab81aced7337394e737cb4d910160405180910390a150505050565b610631610a29565b600080546040516001600160a01b03909116914780156108fc02929091818181858888f1935050505015801561066b573d6000803e3d6000fd5b50565b610676610a29565b6106806000610a56565b565b6001546040516331a9108f60e11b81526004810186905233916001600160a01b031690636352211e90602401602060405180830381865afa1580156106cb573d6000803e3d6000fd5b505050506040513d601f19601f820116820180604052508101906106ef9190610d7c565b6001600160a01b0316146107505760405162461bcd60e51b815260206004820152602260248201527f4f6e6c79204e4654206f776e65722063616e20636f6e66696775726520746f6b60448201526132b760f11b60648201526084016102d1565b80518251146107955760405162461bcd60e51b81526020600482015260116024820152704d69736d61746368656420696e7075747360781b60448201526064016102d1565b6000805b82518110156107db578281815181106107b4576107b4610d99565b6020026020010151826107c79190610e1d565b9150806107d381610e04565b915050610799565b5080612710146108225760405162461bcd60e51b8152602060048201526012602482015271546f74616c206d757374206265203130302560701b60448201526064016102d1565b600085815260026020908152604080832087905560038252909120845161084b92860190610aa6565b506000858152600460209081526040909120835161086b92850190610b0b565b507f1dea05cd9e9bb7b06a0fff990e8b5b14419112e024fecb7253e9723fdbe17210858585856040516108a19493929190610e30565b60405180910390a15050505050565b600460205281600052604060002081815481106108cc57600080fd5b90600052602060002001600091509150505481565b600360205281600052604060002081815481106108fd57600080fd5b6000918252602090912001546001600160a01b03169150829050565b6001546040516331a9108f60e11b81526004810184905233916001600160a01b031690636352211e90602401602060405180830381865afa158015610962573d6000803e3d6000fd5b505050506040513d601f19601f820116820180604052508101906109869190610d7c565b6001600160a01b0316146109dc5760405162461bcd60e51b815260206004820152601c60248201527f4f6e6c79204e4654206f776e65722063616e207365742070726963650000000060448201526064016102d1565b60009182526002602052604090912055565b6109f6610a29565b6001600160a01b038116610a2057604051631e4fbdf760e01b8152600060048201526024016102d1565b61066b81610a56565b6000546001600160a01b031633146106805760405163118cdaa760e01b81523360048201526024016102d1565b600080546001600160a01b038381166001600160a01b0319831681178455604051919092169283917f8be0079c531659141344cd1fd0a4f28419497f9722a3daafe3b4186f6b6457e09190a35050565b828054828255906000526020600020908101928215610afb579160200282015b82811115610afb57825182546001600160a01b0319166001600160a01b03909116178255602090920191600190910190610ac6565b50610b07929150610b46565b5090565b828054828255906000526020600020908101928215610afb579160200282015b82811115610afb578251825591602001919060010190610b2b565b5b80821115610b075760008155600101610b47565b600060208284031215610b6d57600080fd5b5035919050565b634e487b7160e01b600052604160045260246000fd5b604051601f8201601f1916810167ffffffffffffffff81118282101715610bb357610bb3610b74565b604052919050565b600067ffffffffffffffff821115610bd557610bd5610b74565b5060051b60200190565b6001600160a01b038116811461066b57600080fd5b600082601f830112610c0557600080fd5b81356020610c1a610c1583610bbb565b610b8a565b82815260059290921b84018101918181019086841115610c3957600080fd5b8286015b84811015610c545780358352918301918301610c3d565b509695505050505050565b60008060008060808587031215610c7557600080fd5b843593506020808601359350604086013567ffffffffffffffff80821115610c9c57600080fd5b818801915088601f830112610cb057600080fd5b8135610cbe610c1582610bbb565b81815260059190911b8301840190848101908b831115610cdd57600080fd5b938501935b82851015610d04578435610cf581610bdf565b82529385019390850190610ce2565b965050506060880135925080831115610d1c57600080fd5b5050610d2a87828801610bf4565b91505092959194509250565b60008060408385031215610d4957600080fd5b50508035926020909101359150565b600060208284031215610d6a57600080fd5b8135610d7581610bdf565b9392505050565b600060208284031215610d8e57600080fd5b8151610d7581610bdf565b634e487b7160e01b600052603260045260246000fd5b634e487b7160e01b600052601160045260246000fd5b8082028115828204841417610ddc57610ddc610daf565b92915050565b600082610dff57634e487b7160e01b600052601260045260246000fd5b500490565b600060018201610e1657610e16610daf565b5060010190565b80820180821115610ddc57610ddc610daf565b600060808201868352602086818501526080604085015281865180845260a086019150828801935060005b81811015610e805784516001600160a01b031683529383019391830191600101610e5b565b50508481036060860152855180825290820192508186019060005b81811015610eb757825185529383019391830191600101610e9b565b5092999850505050505050505056fea2646970667358221220e1c6114f8a7ed784108c18787a0de48ad325deda3bb8415c8bc3f250bac00eb264736f6c63430008140033",
  "linkReferences": {},
  "deployedLinkReferences": {}
}