{
  "_format": "hh-sol-artifact-1",
  "contractName": "RealEstateProperty",
  "sourceName": "contracts/RealEstateProperty.sol",
  "abi": [
    {
      "inputs": [],
      "stateMutability": "nonpayable",
      "type": "constructor"
    },
    {
      "inputs": [
        {
          "internalType": "address",
          "name": "sender",
          "type": "address"
        },
        {
          "internalType": "uint256",
          "name": "tokenId",
          "type": "uint256"
        },
        {
          "internalType": "address",
          "name": "owner",
          "type": "address"
        }
      ],
      "name": "ERC721IncorrectOwner",
      "type": "error"
    },
    {
      "inputs": [
        {
          "internalType": "address",
          "name": "operator",
          "type": "address"
        },
        {
          "internalType": "uint256",
          "name": "tokenId",
          "type": "uint256"
        }
      ],
      "name": "ERC721InsufficientApproval",
      "type": "error"
    },
    {
      "inputs": [
        {
          "internalType": "address",
          "name": "approver",
          "type": "address"
        }
      ],
      "name": "ERC721InvalidApprover",
      "type": "error"
    },
    {
      "inputs": [
        {
          "internalType": "address",
          "name": "operator",
          "type": "address"
        }
      ],
      "name": "ERC721InvalidOperator",
      "type": "error"
    },
    {
      "inputs": [
        {
          "internalType": "address",
          "name": "owner",
          "type": "address"
        }
      ],
      "name": "ERC721InvalidOwner",
      "type": "error"
    },
    {
      "inputs": [
        {
          "internalType": "address",
          "name": "receiver",
          "type": "address"
        }
      ],
      "name": "ERC721InvalidReceiver",
      "type": "error"
    },
    {
      "inputs": [
        {
          "internalType": "address",
          "name": "sender",
          "type": "address"
        }
      ],
      "name": "ERC721InvalidSender",
      "type": "error"
    },
    {
      "inputs": [
        {
          "internalType": "uint256",
          "name": "tokenId",
          "type": "uint256"
        }
      ],
      "name": "ERC721NonexistentToken",
      "type": "error"
    },
    {
      "anonymous": false,
      "inputs": [
        {
          "indexed": true,
          "internalType": "address",
          "name": "owner",
          "type": "address"
        },
        {
          "indexed": true,
          "internalType": "address",
          "name": "approved",
          "type": "address"
        },
        {
          "indexed": true,
          "internalType": "uint256",
          "name": "tokenId",
          "type": "uint256"
        }
      ],
      "name": "Approval",
      "type": "event"
    },
    {
      "anonymous": false,
      "inputs": [
        {
          "indexed": true,
          "internalType": "address",
          "name": "owner",
          "type": "address"
        },
        {
          "indexed": true,
          "internalType": "address",
          "name": "operator",
          "type": "address"
        },
        {
          "indexed": false,
          "internalType": "bool",
          "name": "approved",
          "type": "bool"
        }
      ],
      "name": "ApprovalForAll",
      "type": "event"
    },
    {
      "anonymous": false,
      "inputs": [
        {
          "indexed": false,
          "internalType": "uint256",
          "name": "propertyId",
          "type": "uint256"
        },
        {
          "indexed": false,
          "internalType": "string",
          "name": "location",
          "type": "string"
        },
        {
          "indexed": false,
          "internalType": "string",
          "name": "description",
          "type": "string"
        },
        {
          "indexed": false,
          "internalType": "string",
          "name": "ipfsHash",
          "type": "string"
        }
      ],
      "name": "PropertyListed",
      "type": "event"
    },
    {
      "anonymous": false,
      "inputs": [
        {
          "indexed": false,
          "internalType": "uint256",
          "name": "propertyId",
          "type": "uint256"
        },
        {
          "indexed": false,
          "internalType": "uint256",
          "name": "totalShares",
          "type": "uint256"
        }
      ],
      "name": "SharesMinted",
      "type": "event"
    },
    {
      "anonymous": false,
      "inputs": [
        {
          "indexed": false,
          "internalType": "uint256",
          "name": "propertyId",
          "type": "uint256"
        },
        {
          "indexed": false,
          "internalType": "address",
          "name": "from",
          "type": "address"
        },
        {
          "indexed": false,
          "internalType": "address",
          "name": "to",
          "type": "address"
        },
        {
          "indexed": false,
          "internalType": "uint256",
          "name": "shares",
          "type": "uint256"
        }
      ],
      "name": "SharesTransferred",
      "type": "event"
    },
    {
      "anonymous": false,
      "inputs": [
        {
          "indexed": true,
          "internalType": "address",
          "name": "from",
          "type": "address"
        },
        {
          "indexed": true,
          "internalType": "address",
          "name": "to",
          "type": "address"
        },
        {
          "indexed": true,
          "internalType": "uint256",
          "name": "tokenId",
          "type": "uint256"
        }
      ],
      "name": "Transfer",
      "type": "event"
    },
    {
      "inputs": [
        {
          "internalType": "address",
          "name": "to",
          "type": "address"
        },
        {
          "internalType": "uint256",
          "name": "tokenId",
          "type": "uint256"
        }
      ],
      "name": "approve",
      "outputs": [],
      "stateMutability": "nonpayable",
      "type": "function"
    },
    {
      "inputs": [
        {
          "internalType": "address",
          "name": "owner",
          "type": "address"
        }
      ],
      "name": "balanceOf",
      "outputs": [
        {
          "internalType": "uint256",
          "name": "",
          "type": "uint256"
        }
      ],
      "stateMutability": "view",
      "type": "function"
    },
    {
      "inputs": [
        {
          "internalType": "uint256",
          "name": "tokenId",
          "type": "uint256"
        }
      ],
      "name": "getApproved",
      "outputs": [
        {
          "internalType": "address",
          "name": "",
          "type": "address"
        }
      ],
      "stateMutability": "view",
      "type": "function"
    },
    {
      "inputs": [],
      "name": "getProperties",
      "outputs": [
        {
          "components": [
            {
              "internalType": "uint256",
              "name": "id",
              "type": "uint256"
            },
            {
              "internalType": "string",
              "name": "location",
              "type": "string"
            },
            {
              "internalType": "string",
              "name": "description",
              "type": "string"
            },
            {
              "internalType": "string",
              "name": "ipfsHash",
              "type": "string"
            },
            {
              "internalType": "uint256",
              "name": "totalShares",
              "type": "uint256"
            },
            {
              "internalType": "uint256",
              "name": "numberOfStakeholders",
              "type": "uint256"
            }
          ],
          "internalType": "struct RealEstateProperty.PropertyView[]",
          "name": "",
          "type": "tuple[]"
        }
      ],
      "stateMutability": "view",
      "type": "function"
    },
    {
      "inputs": [
        {
          "internalType": "uint256",
          "name": "propertyId",
          "type": "uint256"
        }
      ],
      "name": "getProperty",
      "outputs": [
        {
          "internalType": "address",
          "name": "owner",
          "type": "address"
        },
        {
          "internalType": "string",
          "name": "location",
          "type": "string"
        },
        {
          "internalType": "string",
          "name": "description",
          "type": "string"
        },
        {
          "internalType": "string",
          "name": "ipfsHash",
          "type": "string"
        },
        {
          "internalType": "uint256",
          "name": "totalShares",
          "type": "uint256"
        },
        {
          "internalType": "address[]",
          "name": "stakeholders",
          "type": "address[]"
        },
        {
          "internalType": "uint256[]",
          "name": "shares",
          "type": "uint256[]"
        }
      ],
      "stateMutability": "view",
      "type": "function"
    },
    {
      "inputs": [
        {
          "internalType": "uint256",
          "name": "propertyId",
          "type": "uint256"
        },
        {
          "internalType": "address",
          "name": "owner",
          "type": "address"
        }
      ],
      "name": "getSharesOwned",
      "outputs": [
        {
          "internalType": "uint256",
          "name": "",
          "type": "uint256"
        }
      ],
      "stateMutability": "view",
      "type": "function"
    },
    {
      "inputs": [
        {
          "internalType": "address",
          "name": "user",
          "type": "address"
        }
      ],
      "name": "getUserPropertiesWithShares",
      "outputs": [
        {
          "internalType": "uint256[]",
          "name": "",
          "type": "uint256[]"
        },
        {
          "internalType": "uint256[]",
          "name": "",
          "type": "uint256[]"
        }
      ],
      "stateMutability": "view",
      "type": "function"
    },
    {
      "inputs": [
        {
          "internalType": "address",
          "name": "owner",
          "type": "address"
        },
        {
          "internalType": "address",
          "name": "operator",
          "type": "address"
        }
      ],
      "name": "isApprovedForAll",
      "outputs": [
        {
          "internalType": "bool",
          "name": "",
          "type": "bool"
        }
      ],
      "stateMutability": "view",
      "type": "function"
    },
    {
      "inputs": [
        {
          "internalType": "address",
          "name": "owner",
          "type": "address"
        },
        {
          "internalType": "string",
          "name": "location",
          "type": "string"
        },
        {
          "internalType": "string",
          "name": "description",
          "type": "string"
        },
        {
          "internalType": "string",
          "name": "ipfsHash",
          "type": "string"
        }
      ],
      "name": "mintProperty",
      "outputs": [],
      "stateMutability": "nonpayable",
      "type": "function"
    },
    {
      "inputs": [
        {
          "internalType": "uint256",
          "name": "propertyId",
          "type": "uint256"
        },
        {
          "internalType": "uint256",
          "name": "totalShares",
          "type": "uint256"
        }
      ],
      "name": "mintShares",
      "outputs": [],
      "stateMutability": "nonpayable",
      "type": "function"
    },
    {
      "inputs": [],
      "name": "name",
      "outputs": [
        {
          "internalType": "string",
          "name": "",
          "type": "string"
        }
      ],
      "stateMutability": "view",
      "type": "function"
    },
    {
      "inputs": [
        {
          "internalType": "uint256",
          "name": "tokenId",
          "type": "uint256"
        }
      ],
      "name": "ownerOf",
      "outputs": [
        {
          "internalType": "address",
          "name": "",
          "type": "address"
        }
      ],
      "stateMutability": "view",
      "type": "function"
    },
    {
      "inputs": [
        {
          "internalType": "uint256",
          "name": "",
          "type": "uint256"
        }
      ],
      "name": "properties",
      "outputs": [
        {
          "internalType": "uint256",
          "name": "id",
          "type": "uint256"
        },
        {
          "internalType": "string",
          "name": "location",
          "type": "string"
        },
        {
          "internalType": "string",
          "name": "description",
          "type": "string"
        },
        {
          "internalType": "string",
          "name": "ipfsHash",
          "type": "string"
        },
        {
          "internalType": "uint256",
          "name": "totalShares",
          "type": "uint256"
        }
      ],
      "stateMutability": "view",
      "type": "function"
    },
    {
      "inputs": [],
      "name": "propertyCounter",
      "outputs": [
        {
          "internalType": "uint256",
          "name": "",
          "type": "uint256"
        }
      ],
      "stateMutability": "view",
      "type": "function"
    },
    {
      "inputs": [
        {
          "internalType": "address",
          "name": "from",
          "type": "address"
        },
        {
          "internalType": "address",
          "name": "to",
          "type": "address"
        },
        {
          "internalType": "uint256",
          "name": "tokenId",
          "type": "uint256"
        }
      ],
      "name": "safeTransferFrom",
      "outputs": [],
      "stateMutability": "nonpayable",
      "type": "function"
    },
    {
      "inputs": [
        {
          "internalType": "address",
          "name": "from",
          "type": "address"
        },
        {
          "internalType": "address",
          "name": "to",
          "type": "address"
        },
        {
          "internalType": "uint256",
          "name": "tokenId",
          "type": "uint256"
        },
        {
          "internalType": "bytes",
          "name": "data",
          "type": "bytes"
        }
      ],
      "name": "safeTransferFrom",
      "outputs": [],
      "stateMutability": "nonpayable",
      "type": "function"
    },
    {
      "inputs": [
        {
          "internalType": "address",
          "name": "operator",
          "type": "address"
        },
        {
          "internalType": "bool",
          "name": "approved",
          "type": "bool"
        }
      ],
      "name": "setApprovalForAll",
      "outputs": [],
      "stateMutability": "nonpayable",
      "type": "function"
    },
    {
      "inputs": [
        {
          "internalType": "bytes4",
          "name": "interfaceId",
          "type": "bytes4"
        }
      ],
      "name": "supportsInterface",
      "outputs": [
        {
          "internalType": "bool",
          "name": "",
          "type": "bool"
        }
      ],
      "stateMutability": "view",
      "type": "function"
    },
    {
      "inputs": [],
      "name": "symbol",
      "outputs": [
        {
          "internalType": "string",
          "name": "",
          "type": "string"
        }
      ],
      "stateMutability": "view",
      "type": "function"
    },
    {
      "inputs": [
        {
          "internalType": "uint256",
          "name": "tokenId",
          "type": "uint256"
        }
      ],
      "name": "tokenURI",
      "outputs": [
        {
          "internalType": "string",
          "name": "",
          "type": "string"
        }
      ],
      "stateMutability": "view",
      "type": "function"
    },
    {
      "inputs": [
        {
          "internalType": "address",
          "name": "from",
          "type": "address"
        },
        {
          "internalType": "address",
          "name": "to",
          "type": "address"
        },
        {
          "internalType": "uint256",
          "name": "tokenId",
          "type": "uint256"
        }
      ],
      "name": "transferFrom",
      "outputs": [],
      "stateMutability": "nonpayable",
      "type": "function"
    },
    {
      "inputs": [
        {
          "internalType": "address",
          "name": "to",
          "type": "address"
        },
        {
          "internalType": "uint256",
          "name": "propertyId",
          "type": "uint256"
        }
      ],
      "name": "transferProperty",
      "outputs": [],
      "stateMutability": "nonpayable",
      "type": "function"
    },
    {
      "inputs": [
        {
          "internalType": "uint256",
          "name": "propertyId",
          "type": "uint256"
        },
        {
          "internalType": "address",
          "name": "to",
          "type": "address"
        },
        {
          "internalType": "uint256",
          "name": "shares",
          "type": "uint256"
        }
      ],
      "name": "transferShares",
      "outputs": [],
      "stateMutability": "nonpayable",
      "type": "function"
    }
  ],
  "bytecode": "0x60806040523480156200001157600080fd5b50604051806040016040528060128152602001715265616c45737461746550726f706572747960701b815250604051806040016040528060068152602001650524550524f560d41b81525081600090816200006d91906200012a565b5060016200007c82826200012a565b505050620001f6565b634e487b7160e01b600052604160045260246000fd5b600181811c90821680620000b057607f821691505b602082108103620000d157634e487b7160e01b600052602260045260246000fd5b50919050565b601f8211156200012557600081815260208120601f850160051c81016020861015620001005750805b601f850160051c820191505b8181101562000121578281556001016200010c565b5050505b505050565b81516001600160401b0381111562000146576200014662000085565b6200015e816200015784546200009b565b84620000d7565b602080601f8311600181146200019657600084156200017d5750858301515b600019600386901b1c1916600185901b17855562000121565b600085815260208120601f198616915b82811015620001c757888601518255948401946001909101908401620001a6565b5085821015620001e65787850151600019600388901b60f8161c191681555b5050505050600190811b01905550565b61244480620002066000396000f3fe608060405234801561001057600080fd5b506004361061014d5760003560e01c806395d89b41116100c3578063e34378881161007c578063e3437888146102e0578063e7ebadfe146102f3578063e985e9c51461032d578063ec0cfd0b14610340578063f644c31814610355578063f7b108081461036857600080fd5b806395d89b4114610283578063a22cb4651461028b578063a2bc47db1461029e578063b88d4fde146102b1578063c87b56dd146102c4578063d090e47e146102d757600080fd5b806323b872dd1161011557806323b872dd146101f057806332665ffb1461020357806342842e0e146102295780636352211e1461023c57806370a082311461024f57806384b9a6e61461027057600080fd5b806301ffc9a71461015257806306fdde031461017a578063081812fc1461018f578063095ea7b3146101ba57806312b708b4146101cf575b600080fd5b610165610160366004611bab565b61038c565b60405190151581526020015b60405180910390f35b6101826103de565b6040516101719190611c18565b6101a261019d366004611c2b565b610470565b6040516001600160a01b039091168152602001610171565b6101cd6101c8366004611c60565b610499565b005b6101e26101dd366004611c8a565b6104a8565b604051610171929190611ce0565b6101cd6101fe366004611d0e565b610638565b610216610211366004611c2b565b6106c8565b6040516101719796959493929190611d4a565b6101cd610237366004611d0e565b6109ea565b6101a261024a366004611c2b565b610a0a565b61026261025d366004611c8a565b610a15565b604051908152602001610171565b6101cd61027e366004611df6565b610a5d565b610182610c1a565b6101cd610299366004611e1b565b610c29565b6101cd6102ac366004611f03565b610c34565b6101cd6102bf366004611f9c565b610d29565b6101826102d2366004611c2b565b610d41565b61026260075481565b6101cd6102ee36600461200c565b610db6565b61026261030136600461202e565b60008281526006602090815260408083206001600160a01b038516845260050190915290205492915050565b61016561033b36600461205a565b610ef8565b610348610f26565b6040516101719190612084565b6101cd610363366004611c60565b6111f9565b61037b610376366004611c2b565b611272565b604051610171959493929190612144565b60006001600160e01b031982166380ac58cd60e01b14806103bd57506001600160e01b03198216635b5e139f60e01b145b806103d857506301ffc9a760e01b6001600160e01b03198316145b92915050565b6060600080546103ed90612196565b80601f016020809104026020016040519081016040528092919081815260200182805461041990612196565b80156104665780601f1061043b57610100808354040283529160200191610466565b820191906000526020600020905b81548152906001019060200180831161044957829003601f168201915b5050505050905090565b600061047b82611439565b506000828152600460205260409020546001600160a01b03166103d8565b6104a4828233611472565b5050565b606080600060015b60075481116105045760008181526006602090815260408083206001600160a01b0389168452600501909152902054156104f257816104ee816121e0565b9250505b806104fc816121e0565b9150506104b0565b5060008167ffffffffffffffff81111561052057610520611e57565b604051908082528060200260200182016040528015610549578160200160208202803683370190505b50905060008267ffffffffffffffff81111561056757610567611e57565b604051908082528060200260200182016040528015610590578160200160208202803683370190505b509050600060015b600754811161062b5760008181526006602090815260408083206001600160a01b038c168452600501909152902054801561061857818584815181106105e0576105e06121f9565b602002602001018181525050808484815181106105ff576105ff6121f9565b602090810291909101015282610614816121e0565b9350505b5080610623816121e0565b915050610598565b5091969095509350505050565b6001600160a01b03821661066757604051633250574960e11b8152600060048201526024015b60405180910390fd5b600061067483833361147f565b9050836001600160a01b0316816001600160a01b0316146106c2576040516364283d7b60e01b81526001600160a01b038086166004830152602482018490528216604482015260640161065e565b50505050565b600081815260066020819052604082209081015460609182918291859183918291848167ffffffffffffffff81111561070357610703611e57565b60405190808252806020026020018201604052801561072c578160200160208202803683370190505b50905060005b828110156107ae576000846006018281548110610751576107516121f9565b60009182526020808320909101546001600160a01b031680835260058801909152604090912054845191925090849084908110610790576107906121f9565b602090810291909101015250806107a6816121e0565b915050610732565b506107b88b610a0a565b836001018460020185600301866004015487600601868580546107da90612196565b80601f016020809104026020016040519081016040528092919081815260200182805461080690612196565b80156108535780601f1061082857610100808354040283529160200191610853565b820191906000526020600020905b81548152906001019060200180831161083657829003601f168201915b5050505050955084805461086690612196565b80601f016020809104026020016040519081016040528092919081815260200182805461089290612196565b80156108df5780601f106108b4576101008083540402835291602001916108df565b820191906000526020600020905b8154815290600101906020018083116108c257829003601f168201915b505050505094508380546108f290612196565b80601f016020809104026020016040519081016040528092919081815260200182805461091e90612196565b801561096b5780601f106109405761010080835404028352916020019161096b565b820191906000526020600020905b81548152906001019060200180831161094e57829003601f168201915b50505050509350818054806020026020016040519081016040528092919081815260200182805480156109c757602002820191906000526020600020905b81546001600160a01b031681526001909101906020018083116109a9575b505050505091509950995099509950995099509950505050919395979092949650565b610a0583838360405180602001604052806000815250610d29565b505050565b60006103d882611439565b60006001600160a01b038216610a41576040516322718ad960e21b81526000600482015260240161065e565b506001600160a01b031660009081526003602052604090205490565b6000838152600660209081526040808320338452600501909152902054811115610ac95760405162461bcd60e51b815260206004820152601860248201527f4e6f7420656e6f75676820736861726573206f776e65642e0000000000000000604482015260640161065e565b6001600160a01b038216610b125760405162461bcd60e51b815260206004820152601060248201526f24b73b30b634b21030b2323932b9b99760811b604482015260640161065e565b60008381526006602090815260408083206001600160a01b038616845260058101909252822054909103610b7157600681018054600181018255600091825260209091200180546001600160a01b0319166001600160a01b0385161790555b33600090815260058201602052604081208054849290610b9290849061220f565b90915550506001600160a01b038316600090815260058201602052604081208054849290610bc1908490612222565b9091555050604080518581523360208201526001600160a01b038516818301526060810184905290517f78dc4ab325d618a4100f0b44da2f25725cd94b780060f6b9e87065e9c0b12ebd9181900360800190a150505050565b6060600180546103ed90612196565b6104a4338383611578565b60078054906000610c44836121e0565b9091555050600754600081815260066020526040902081815560018101610c6b868261227b565b5060038101610c7a848261227b565b5060028101610c89858261227b565b506103e8600482018190556001600160a01b0387166000818152600584016020908152604082209390935560068401805460018101825590825292902090910180546001600160a01b0319169091179055610ce48683611617565b7f5bef73c88db9e51f4b152de8382836dea7a081364997ff088736c3e30f05fa4582868686604051610d19949392919061233b565b60405180910390a1505050505050565b610d34848484610638565b6106c2338585858561167c565b6060610d4c82611439565b506000610d6460408051602081019091526000815290565b90506000815111610d845760405180602001604052806000815250610daf565b80610d8e846117a7565b604051602001610d9f929190612385565b6040516020818303038152906040525b9392505050565b33610dc083610a0a565b6001600160a01b031614610e275760405162461bcd60e51b815260206004820152602860248201527f4f6e6c79207468652070726f7065727479206f776e65722063616e206d696e746044820152671039b430b932b99760c11b606482015260840161065e565b60008281526006602052604090206004015415610e975760405162461bcd60e51b815260206004820152602860248201527f53686172657320616c7265616479206d696e74656420666f72207468697320706044820152673937b832b93a3c9760c11b606482015260840161065e565b60008281526006602090815260408083206004810185905533845260050182529182902083905581518481529081018390527f0a7d587acc3bafe631c58ed4a25eda1e905acfb47594d1b86b332ae63df22594910160405180910390a15050565b6001600160a01b03918216600090815260056020908152604080832093909416825291909152205460ff1690565b6060600060075467ffffffffffffffff811115610f4557610f45611e57565b604051908082528060200260200182016040528015610faf57816020015b610f9c6040518060c001604052806000815260200160608152602001606081526020016060815260200160008152602001600081525090565b815260200190600190039081610f635790505b50905060005b6007548110156111f3576000610fcc826001612222565b905060006006600083815260200190815260200160002090506040518060c0016040528083815260200182600101805461100590612196565b80601f016020809104026020016040519081016040528092919081815260200182805461103190612196565b801561107e5780601f106110535761010080835404028352916020019161107e565b820191906000526020600020905b81548152906001019060200180831161106157829003601f168201915b5050505050815260200182600201805461109790612196565b80601f01602080910402602001604051908101604052809291908181526020018280546110c390612196565b80156111105780601f106110e557610100808354040283529160200191611110565b820191906000526020600020905b8154815290600101906020018083116110f357829003601f168201915b5050505050815260200182600301805461112990612196565b80601f016020809104026020016040519081016040528092919081815260200182805461115590612196565b80156111a25780601f10611177576101008083540402835291602001916111a2565b820191906000526020600020905b81548152906001019060200180831161118557829003601f168201915b505050505081526020018260040154815260200182600601805490508152508484815181106111d3576111d36121f9565b6020026020010181905250505080806111eb906121e0565b915050610fb5565b50919050565b3361120382610a0a565b6001600160a01b0316146112675760405162461bcd60e51b815260206004820152602560248201527f4f6e6c79207468652070726f7065727479206f776e65722063616e207472616e60448201526439b332b91760d91b606482015260840161065e565b6104a433838361183a565b6006602052600090815260409020805460018201805491929161129490612196565b80601f01602080910402602001604051908101604052809291908181526020018280546112c090612196565b801561130d5780601f106112e25761010080835404028352916020019161130d565b820191906000526020600020905b8154815290600101906020018083116112f057829003601f168201915b50505050509080600201805461132290612196565b80601f016020809104026020016040519081016040528092919081815260200182805461134e90612196565b801561139b5780601f106113705761010080835404028352916020019161139b565b820191906000526020600020905b81548152906001019060200180831161137e57829003601f168201915b5050505050908060030180546113b090612196565b80601f01602080910402602001604051908101604052809291908181526020018280546113dc90612196565b80156114295780601f106113fe57610100808354040283529160200191611429565b820191906000526020600020905b81548152906001019060200180831161140c57829003601f168201915b5050505050908060040154905085565b6000818152600260205260408120546001600160a01b0316806103d857604051637e27328960e01b81526004810184905260240161065e565b610a0583838360016118ea565b6000828152600260205260408120546001600160a01b03908116908316156114ac576114ac8184866119f0565b6001600160a01b038116156114ea576114c96000856000806118ea565b6001600160a01b038116600090815260036020526040902080546000190190555b6001600160a01b03851615611519576001600160a01b0385166000908152600360205260409020805460010190555b60008481526002602052604080822080546001600160a01b0319166001600160a01b0389811691821790925591518793918516917fddf252ad1be2c89b69c2b068fc378daa952ba7f163c4a11628f55a4df523b3ef91a4949350505050565b6001600160a01b0382166115aa57604051630b61174360e31b81526001600160a01b038316600482015260240161065e565b6001600160a01b03838116600081815260056020908152604080832094871680845294825291829020805460ff191686151590811790915591519182527f17307eab39ab6107e8899845ad3d59bd9653f200f220920489ca2b5937696c31910160405180910390a3505050565b6001600160a01b03821661164157604051633250574960e11b81526000600482015260240161065e565b600061164f8383600061147f565b90506001600160a01b03811615610a05576040516339e3563760e11b81526000600482015260240161065e565b6001600160a01b0383163b156117a057604051630a85bd0160e11b81526001600160a01b0384169063150b7a02906116be9088908890879087906004016123b4565b6020604051808303816000875af19250505080156116f9575060408051601f3d908101601f191682019092526116f6918101906123f1565b60015b611762573d808015611727576040519150601f19603f3d011682016040523d82523d6000602084013e61172c565b606091505b50805160000361175a57604051633250574960e11b81526001600160a01b038516600482015260240161065e565b805181602001fd5b6001600160e01b03198116630a85bd0160e11b1461179e57604051633250574960e11b81526001600160a01b038516600482015260240161065e565b505b5050505050565b606060006117b483611a54565b600101905060008167ffffffffffffffff8111156117d4576117d4611e57565b6040519080825280601f01601f1916602001820160405280156117fe576020820181803683370190505b5090508181016020015b600019016f181899199a1a9b1b9c1cb0b131b232b360811b600a86061a8153600a850494508461180857509392505050565b6001600160a01b03821661186457604051633250574960e11b81526000600482015260240161065e565b60006118728383600061147f565b90506001600160a01b03811661189e57604051637e27328960e01b81526004810183905260240161065e565b836001600160a01b0316816001600160a01b0316146106c2576040516364283d7b60e01b81526001600160a01b038086166004830152602482018490528216604482015260640161065e565b80806118fe57506001600160a01b03821615155b156119c057600061190e84611439565b90506001600160a01b0383161580159061193a5750826001600160a01b0316816001600160a01b031614155b801561194d575061194b8184610ef8565b155b156119765760405163a9fbf51f60e01b81526001600160a01b038416600482015260240161065e565b81156119be5783856001600160a01b0316826001600160a01b03167f8c5be1e5ebec7d5bd14f71427d1e84f3dd0314c0f7b2291e5b200ac8c7c3b92560405160405180910390a45b505b5050600090815260046020526040902080546001600160a01b0319166001600160a01b0392909216919091179055565b6119fb838383611b2c565b610a05576001600160a01b038316611a2957604051637e27328960e01b81526004810182905260240161065e565b60405163177e802f60e01b81526001600160a01b03831660048201526024810182905260440161065e565b60008072184f03e93ff9f4daa797ed6e38ed64bf6a1f0160401b8310611a935772184f03e93ff9f4daa797ed6e38ed64bf6a1f0160401b830492506040015b6d04ee2d6d415b85acef81000000008310611abf576d04ee2d6d415b85acef8100000000830492506020015b662386f26fc100008310611add57662386f26fc10000830492506010015b6305f5e1008310611af5576305f5e100830492506008015b6127108310611b0957612710830492506004015b60648310611b1b576064830492506002015b600a83106103d85760010192915050565b60006001600160a01b03831615801590611b8a5750826001600160a01b0316846001600160a01b03161480611b665750611b668484610ef8565b80611b8a57506000828152600460205260409020546001600160a01b038481169116145b949350505050565b6001600160e01b031981168114611ba857600080fd5b50565b600060208284031215611bbd57600080fd5b8135610daf81611b92565b60005b83811015611be3578181015183820152602001611bcb565b50506000910152565b60008151808452611c04816020860160208601611bc8565b601f01601f19169290920160200192915050565b602081526000610daf6020830184611bec565b600060208284031215611c3d57600080fd5b5035919050565b80356001600160a01b0381168114611c5b57600080fd5b919050565b60008060408385031215611c7357600080fd5b611c7c83611c44565b946020939093013593505050565b600060208284031215611c9c57600080fd5b610daf82611c44565b600081518084526020808501945080840160005b83811015611cd557815187529582019590820190600101611cb9565b509495945050505050565b604081526000611cf36040830185611ca5565b8281036020840152611d058185611ca5565b95945050505050565b600080600060608486031215611d2357600080fd5b611d2c84611c44565b9250611d3a60208501611c44565b9150604084013590509250925092565b600060018060a01b03808a168352602060e081850152611d6d60e085018b611bec565b8481036040860152611d7f818b611bec565b90508481036060860152611d93818a611bec565b6080860189905285810360a0870152875180825283890192509083019060005b81811015611dd1578351861683529284019291840191600101611db3565b505085810360c0870152611de58188611ca5565b9d9c50505050505050505050505050565b600080600060608486031215611e0b57600080fd5b83359250611d3a60208501611c44565b60008060408385031215611e2e57600080fd5b611e3783611c44565b915060208301358015158114611e4c57600080fd5b809150509250929050565b634e487b7160e01b600052604160045260246000fd5b600067ffffffffffffffff80841115611e8857611e88611e57565b604051601f8501601f19908116603f01168101908282118183101715611eb057611eb0611e57565b81604052809350858152868686011115611ec957600080fd5b858560208301376000602087830101525050509392505050565b600082601f830112611ef457600080fd5b610daf83833560208501611e6d565b60008060008060808587031215611f1957600080fd5b611f2285611c44565b9350602085013567ffffffffffffffff80821115611f3f57600080fd5b611f4b88838901611ee3565b94506040870135915080821115611f6157600080fd5b611f6d88838901611ee3565b93506060870135915080821115611f8357600080fd5b50611f9087828801611ee3565b91505092959194509250565b60008060008060808587031215611fb257600080fd5b611fbb85611c44565b9350611fc960208601611c44565b925060408501359150606085013567ffffffffffffffff811115611fec57600080fd5b8501601f81018713611ffd57600080fd5b611f9087823560208401611e6d565b6000806040838503121561201f57600080fd5b50508035926020909101359150565b6000806040838503121561204157600080fd5b8235915061205160208401611c44565b90509250929050565b6000806040838503121561206d57600080fd5b61207683611c44565b915061205160208401611c44565b60006020808301818452808551808352604092508286019150828160051b87010184880160005b8381101561213657603f19898403018552815160c08151855288820151818a8701526120d982870182611bec565b91505087820151858203898701526120f18282611bec565b9150506060808301518683038288015261210b8382611bec565b6080858101519089015260a094850151949097019390935250505093860193908601906001016120ab565b509098975050505050505050565b85815260a06020820152600061215d60a0830187611bec565b828103604084015261216f8187611bec565b905082810360608401526121838186611bec565b9150508260808301529695505050505050565b600181811c908216806121aa57607f821691505b6020821081036111f357634e487b7160e01b600052602260045260246000fd5b634e487b7160e01b600052601160045260246000fd5b6000600182016121f2576121f26121ca565b5060010190565b634e487b7160e01b600052603260045260246000fd5b818103818111156103d8576103d86121ca565b808201808211156103d8576103d86121ca565b601f821115610a0557600081815260208120601f850160051c8101602086101561225c5750805b601f850160051c820191505b8181101561179e57828155600101612268565b815167ffffffffffffffff81111561229557612295611e57565b6122a9816122a38454612196565b84612235565b602080601f8311600181146122de57600084156122c65750858301515b600019600386901b1c1916600185901b17855561179e565b600085815260208120601f198616915b8281101561230d578886015182559484019460019091019084016122ee565b508582101561232b5787850151600019600388901b60f8161c191681555b5050505050600190811b01905550565b8481526080602082015260006123546080830186611bec565b82810360408401526123668186611bec565b9050828103606084015261237a8185611bec565b979650505050505050565b60008351612397818460208801611bc8565b8351908301906123ab818360208801611bc8565b01949350505050565b6001600160a01b03858116825284166020820152604081018390526080606082018190526000906123e790830184611bec565b9695505050505050565b60006020828403121561240357600080fd5b8151610daf81611b9256fea264697066735822122077e4212fd116c9f25787c7bc7fbaa334c935660e8420d79a0db41b6341248c2e64736f6c63430008140033",
  "linkReferences": {},
  "deployedLinkReferences": {}
}