{
  "_format": "hh-sol-artifact-1",
  "contractName": "RealEstateProperty",
  "sourceName": "contracts/RealEstateProperty.sol",
  "abi": [
    {
      "inputs": [],
      "stateMutability": "nonpayable",
      "type": "constructor"
    },
    {
      "inputs": [
        {
          "internalType": "address",
          "name": "sender",
          "type": "address"
        },
        {
          "internalType": "uint256",
          "name": "tokenId",
          "type": "uint256"
        },
        {
          "internalType": "address",
          "name": "owner",
          "type": "address"
        }
      ],
      "name": "ERC721IncorrectOwner",
      "type": "error"
    },
    {
      "inputs": [
        {
          "internalType": "address",
          "name": "operator",
          "type": "address"
        },
        {
          "internalType": "uint256",
          "name": "tokenId",
          "type": "uint256"
        }
      ],
      "name": "ERC721InsufficientApproval",
      "type": "error"
    },
    {
      "inputs": [
        {
          "internalType": "address",
          "name": "approver",
          "type": "address"
        }
      ],
      "name": "ERC721InvalidApprover",
      "type": "error"
    },
    {
      "inputs": [
        {
          "internalType": "address",
          "name": "operator",
          "type": "address"
        }
      ],
      "name": "ERC721InvalidOperator",
      "type": "error"
    },
    {
      "inputs": [
        {
          "internalType": "address",
          "name": "owner",
          "type": "address"
        }
      ],
      "name": "ERC721InvalidOwner",
      "type": "error"
    },
    {
      "inputs": [
        {
          "internalType": "address",
          "name": "receiver",
          "type": "address"
        }
      ],
      "name": "ERC721InvalidReceiver",
      "type": "error"
    },
    {
      "inputs": [
        {
          "internalType": "address",
          "name": "sender",
          "type": "address"
        }
      ],
      "name": "ERC721InvalidSender",
      "type": "error"
    },
    {
      "inputs": [
        {
          "internalType": "uint256",
          "name": "tokenId",
          "type": "uint256"
        }
      ],
      "name": "ERC721NonexistentToken",
      "type": "error"
    },
    {
      "anonymous": false,
      "inputs": [
        {
          "indexed": true,
          "internalType": "address",
          "name": "owner",
          "type": "address"
        },
        {
          "indexed": true,
          "internalType": "address",
          "name": "approved",
          "type": "address"
        },
        {
          "indexed": true,
          "internalType": "uint256",
          "name": "tokenId",
          "type": "uint256"
        }
      ],
      "name": "Approval",
      "type": "event"
    },
    {
      "anonymous": false,
      "inputs": [
        {
          "indexed": true,
          "internalType": "address",
          "name": "owner",
          "type": "address"
        },
        {
          "indexed": true,
          "internalType": "address",
          "name": "operator",
          "type": "address"
        },
        {
          "indexed": false,
          "internalType": "bool",
          "name": "approved",
          "type": "bool"
        }
      ],
      "name": "ApprovalForAll",
      "type": "event"
    },
    {
      "anonymous": false,
      "inputs": [
        {
          "indexed": false,
          "internalType": "uint256",
          "name": "propertyId",
          "type": "uint256"
        },
        {
          "indexed": false,
          "internalType": "string",
          "name": "location",
          "type": "string"
        },
        {
          "indexed": false,
          "internalType": "uint256",
          "name": "price",
          "type": "uint256"
        },
        {
          "indexed": false,
          "internalType": "string",
          "name": "description",
          "type": "string"
        }
      ],
      "name": "PropertyListed",
      "type": "event"
    },
    {
      "anonymous": false,
      "inputs": [
        {
          "indexed": false,
          "internalType": "uint256",
          "name": "propertyId",
          "type": "uint256"
        },
        {
          "indexed": false,
          "internalType": "uint256",
          "name": "totalShares",
          "type": "uint256"
        }
      ],
      "name": "SharesMinted",
      "type": "event"
    },
    {
      "anonymous": false,
      "inputs": [
        {
          "indexed": false,
          "internalType": "uint256",
          "name": "propertyId",
          "type": "uint256"
        },
        {
          "indexed": false,
          "internalType": "address",
          "name": "from",
          "type": "address"
        },
        {
          "indexed": false,
          "internalType": "address",
          "name": "to",
          "type": "address"
        },
        {
          "indexed": false,
          "internalType": "uint256",
          "name": "shares",
          "type": "uint256"
        }
      ],
      "name": "SharesTransferred",
      "type": "event"
    },
    {
      "anonymous": false,
      "inputs": [
        {
          "indexed": true,
          "internalType": "address",
          "name": "from",
          "type": "address"
        },
        {
          "indexed": true,
          "internalType": "address",
          "name": "to",
          "type": "address"
        },
        {
          "indexed": true,
          "internalType": "uint256",
          "name": "tokenId",
          "type": "uint256"
        }
      ],
      "name": "Transfer",
      "type": "event"
    },
    {
      "inputs": [
        {
          "internalType": "address",
          "name": "to",
          "type": "address"
        },
        {
          "internalType": "uint256",
          "name": "tokenId",
          "type": "uint256"
        }
      ],
      "name": "approve",
      "outputs": [],
      "stateMutability": "nonpayable",
      "type": "function"
    },
    {
      "inputs": [
        {
          "internalType": "address",
          "name": "owner",
          "type": "address"
        }
      ],
      "name": "balanceOf",
      "outputs": [
        {
          "internalType": "uint256",
          "name": "",
          "type": "uint256"
        }
      ],
      "stateMutability": "view",
      "type": "function"
    },
    {
      "inputs": [
        {
          "internalType": "uint256",
          "name": "tokenId",
          "type": "uint256"
        }
      ],
      "name": "getApproved",
      "outputs": [
        {
          "internalType": "address",
          "name": "",
          "type": "address"
        }
      ],
      "stateMutability": "view",
      "type": "function"
    },
    {
      "inputs": [
        {
          "internalType": "uint256",
          "name": "propertyId",
          "type": "uint256"
        }
      ],
      "name": "getPropertyDetails",
      "outputs": [
        {
          "internalType": "string",
          "name": "location",
          "type": "string"
        },
        {
          "internalType": "uint256",
          "name": "price",
          "type": "uint256"
        },
        {
          "internalType": "string",
          "name": "description",
          "type": "string"
        },
        {
          "internalType": "address",
          "name": "owner",
          "type": "address"
        },
        {
          "internalType": "uint256",
          "name": "totalShares",
          "type": "uint256"
        },
        {
          "internalType": "uint256",
          "name": "availableShares",
          "type": "uint256"
        }
      ],
      "stateMutability": "view",
      "type": "function"
    },
    {
      "inputs": [
        {
          "internalType": "uint256",
          "name": "propertyId",
          "type": "uint256"
        },
        {
          "internalType": "address",
          "name": "owner",
          "type": "address"
        }
      ],
      "name": "getSharesOwned",
      "outputs": [
        {
          "internalType": "uint256",
          "name": "",
          "type": "uint256"
        }
      ],
      "stateMutability": "view",
      "type": "function"
    },
    {
      "inputs": [
        {
          "internalType": "address",
          "name": "owner",
          "type": "address"
        },
        {
          "internalType": "address",
          "name": "operator",
          "type": "address"
        }
      ],
      "name": "isApprovedForAll",
      "outputs": [
        {
          "internalType": "bool",
          "name": "",
          "type": "bool"
        }
      ],
      "stateMutability": "view",
      "type": "function"
    },
    {
      "inputs": [
        {
          "internalType": "address",
          "name": "owner",
          "type": "address"
        },
        {
          "internalType": "string",
          "name": "location",
          "type": "string"
        },
        {
          "internalType": "uint256",
          "name": "price",
          "type": "uint256"
        },
        {
          "internalType": "string",
          "name": "description",
          "type": "string"
        }
      ],
      "name": "mintProperty",
      "outputs": [],
      "stateMutability": "nonpayable",
      "type": "function"
    },
    {
      "inputs": [
        {
          "internalType": "uint256",
          "name": "propertyId",
          "type": "uint256"
        },
        {
          "internalType": "uint256",
          "name": "totalShares",
          "type": "uint256"
        }
      ],
      "name": "mintShares",
      "outputs": [],
      "stateMutability": "nonpayable",
      "type": "function"
    },
    {
      "inputs": [],
      "name": "name",
      "outputs": [
        {
          "internalType": "string",
          "name": "",
          "type": "string"
        }
      ],
      "stateMutability": "view",
      "type": "function"
    },
    {
      "inputs": [],
      "name": "nextPropertyId",
      "outputs": [
        {
          "internalType": "uint256",
          "name": "",
          "type": "uint256"
        }
      ],
      "stateMutability": "view",
      "type": "function"
    },
    {
      "inputs": [
        {
          "internalType": "uint256",
          "name": "tokenId",
          "type": "uint256"
        }
      ],
      "name": "ownerOf",
      "outputs": [
        {
          "internalType": "address",
          "name": "",
          "type": "address"
        }
      ],
      "stateMutability": "view",
      "type": "function"
    },
    {
      "inputs": [
        {
          "internalType": "uint256",
          "name": "",
          "type": "uint256"
        }
      ],
      "name": "properties",
      "outputs": [
        {
          "internalType": "uint256",
          "name": "id",
          "type": "uint256"
        },
        {
          "internalType": "string",
          "name": "location",
          "type": "string"
        },
        {
          "internalType": "uint256",
          "name": "price",
          "type": "uint256"
        },
        {
          "internalType": "string",
          "name": "description",
          "type": "string"
        },
        {
          "internalType": "uint256",
          "name": "totalShares",
          "type": "uint256"
        },
        {
          "internalType": "uint256",
          "name": "availableShares",
          "type": "uint256"
        }
      ],
      "stateMutability": "view",
      "type": "function"
    },
    {
      "inputs": [
        {
          "internalType": "address",
          "name": "from",
          "type": "address"
        },
        {
          "internalType": "address",
          "name": "to",
          "type": "address"
        },
        {
          "internalType": "uint256",
          "name": "tokenId",
          "type": "uint256"
        }
      ],
      "name": "safeTransferFrom",
      "outputs": [],
      "stateMutability": "nonpayable",
      "type": "function"
    },
    {
      "inputs": [
        {
          "internalType": "address",
          "name": "from",
          "type": "address"
        },
        {
          "internalType": "address",
          "name": "to",
          "type": "address"
        },
        {
          "internalType": "uint256",
          "name": "tokenId",
          "type": "uint256"
        },
        {
          "internalType": "bytes",
          "name": "data",
          "type": "bytes"
        }
      ],
      "name": "safeTransferFrom",
      "outputs": [],
      "stateMutability": "nonpayable",
      "type": "function"
    },
    {
      "inputs": [
        {
          "internalType": "address",
          "name": "operator",
          "type": "address"
        },
        {
          "internalType": "bool",
          "name": "approved",
          "type": "bool"
        }
      ],
      "name": "setApprovalForAll",
      "outputs": [],
      "stateMutability": "nonpayable",
      "type": "function"
    },
    {
      "inputs": [
        {
          "internalType": "uint256",
          "name": "propertyId",
          "type": "uint256"
        },
        {
          "internalType": "uint256",
          "name": "newPrice",
          "type": "uint256"
        }
      ],
      "name": "setPrice",
      "outputs": [],
      "stateMutability": "nonpayable",
      "type": "function"
    },
    {
      "inputs": [
        {
          "internalType": "uint256",
          "name": "",
          "type": "uint256"
        },
        {
          "internalType": "address",
          "name": "",
          "type": "address"
        }
      ],
      "name": "sharesOwned",
      "outputs": [
        {
          "internalType": "uint256",
          "name": "",
          "type": "uint256"
        }
      ],
      "stateMutability": "view",
      "type": "function"
    },
    {
      "inputs": [
        {
          "internalType": "bytes4",
          "name": "interfaceId",
          "type": "bytes4"
        }
      ],
      "name": "supportsInterface",
      "outputs": [
        {
          "internalType": "bool",
          "name": "",
          "type": "bool"
        }
      ],
      "stateMutability": "view",
      "type": "function"
    },
    {
      "inputs": [],
      "name": "symbol",
      "outputs": [
        {
          "internalType": "string",
          "name": "",
          "type": "string"
        }
      ],
      "stateMutability": "view",
      "type": "function"
    },
    {
      "inputs": [
        {
          "internalType": "uint256",
          "name": "tokenId",
          "type": "uint256"
        }
      ],
      "name": "tokenURI",
      "outputs": [
        {
          "internalType": "string",
          "name": "",
          "type": "string"
        }
      ],
      "stateMutability": "view",
      "type": "function"
    },
    {
      "inputs": [
        {
          "internalType": "address",
          "name": "from",
          "type": "address"
        },
        {
          "internalType": "address",
          "name": "to",
          "type": "address"
        },
        {
          "internalType": "uint256",
          "name": "tokenId",
          "type": "uint256"
        }
      ],
      "name": "transferFrom",
      "outputs": [],
      "stateMutability": "nonpayable",
      "type": "function"
    },
    {
      "inputs": [
        {
          "internalType": "address",
          "name": "to",
          "type": "address"
        },
        {
          "internalType": "uint256",
          "name": "propertyId",
          "type": "uint256"
        }
      ],
      "name": "transferProperty",
      "outputs": [],
      "stateMutability": "nonpayable",
      "type": "function"
    },
    {
      "inputs": [
        {
          "internalType": "uint256",
          "name": "propertyId",
          "type": "uint256"
        },
        {
          "internalType": "address",
          "name": "to",
          "type": "address"
        },
        {
          "internalType": "uint256",
          "name": "shares",
          "type": "uint256"
        }
      ],
      "name": "transferShares",
      "outputs": [],
      "stateMutability": "nonpayable",
      "type": "function"
    }
  ],
  "bytecode": "0x60806040523480156200001157600080fd5b50604051806040016040528060128152602001715265616c45737461746550726f706572747960701b815250604051806040016040528060068152602001650524550524f560d41b81525081600090816200006d91906200012a565b5060016200007c82826200012a565b505050620001f6565b634e487b7160e01b600052604160045260246000fd5b600181811c90821680620000b057607f821691505b602082108103620000d157634e487b7160e01b600052602260045260246000fd5b50919050565b601f8211156200012557600081815260208120601f850160051c81016020861015620001005750805b601f850160051c820191505b8181101562000121578281556001016200010c565b5050505b505050565b81516001600160401b0381111562000146576200014662000085565b6200015e816200015784546200009b565b84620000d7565b602080601f8311600181146200019657600084156200017d5750858301515b600019600386901b1c1916600185901b17855562000121565b600085815260208120601f198616915b82811015620001c757888601518255948401946001909101908401620001a6565b5085821015620001e65787850151600019600388901b60f8161c191681555b5050505050600190811b01905550565b611c9080620002066000396000f3fe608060405234801561001057600080fd5b506004361061014d5760003560e01c806370a08231116100c3578063e34378881161007c578063e3437888146102e9578063e7ebadfe146102fc578063e985e9c514610332578063f644c31814610345578063f7b1080814610358578063f7d975771461037d57600080fd5b806370a082311461028257806384b9a6e61461029557806395d89b41146102a8578063a22cb465146102b0578063b88d4fde146102c3578063c87b56dd146102d657600080fd5b8063126dbe4311610115578063126dbe43146101e25780631b9e26c91461020757806323b872dd1461024057806339500f341461025357806342842e0e1461025c5780636352211e1461026f57600080fd5b806301ffc9a71461015257806306fdde031461017a578063081812fc1461018f578063095ea7b3146101ba57806311993d41146101cf575b600080fd5b6101656101603660046115bd565b610390565b60405190151581526020015b60405180910390f35b6101826103e2565b604051610171919061162a565b6101a261019d36600461163d565b610474565b6040516001600160a01b039091168152602001610171565b6101cd6101c8366004611672565b61049d565b005b6101cd6101dd366004611748565b6104ac565b6101f56101f036600461163d565b61059d565b604051610171969594939291906117c6565b610232610215366004611819565b600860209081526000928352604080842090915290825290205481565b604051908152602001610171565b6101cd61024e366004611845565b610745565b61023260075481565b6101cd61026a366004611845565b6107d5565b6101a261027d36600461163d565b6107f5565b610232610290366004611881565b610800565b6101cd6102a336600461189c565b610848565b6101826109b2565b6101cd6102be3660046118c1565b6109c1565b6101cd6102d13660046118fd565b6109cc565b6101826102e436600461163d565b6109e4565b6101cd6102f736600461196d565b610a59565b61023261030a366004611819565b60009182526008602090815260408084206001600160a01b0393909316845291905290205490565b61016561034036600461198f565b610ba5565b6101cd610353366004611672565b610bd3565b61036b61036636600461163d565b610c4c565b604051610171969594939291906119b9565b6101cd61038b36600461196d565b610d91565b60006001600160e01b031982166380ac58cd60e01b14806103c157506001600160e01b03198216635b5e139f60e01b145b806103dc57506301ffc9a760e01b6001600160e01b03198316145b92915050565b6060600080546103f190611a00565b80601f016020809104026020016040519081016040528092919081815260200182805461041d90611a00565b801561046a5780601f1061043f5761010080835404028352916020019161046a565b820191906000526020600020905b81548152906001019060200180831161044d57829003601f168201915b5050505050905090565b600061047f82610e19565b506000828152600460205260409020546001600160a01b03166103dc565b6104a8828233610e52565b5050565b6007546040805160c08101825282815260208082018781528284018790526060830186905260006080840181905260a08401819052858152600690925292902081518155915190919060018201906105049082611a80565b5060408201516002820155606082015160038201906105239082611a80565b506080820151600482015560a0909101516005909101556105448582610e5f565b6007805490600061055483611b56565b91905055507f0cb7dee909af79b2ff8a2a949f0669482ad197fa5dfc06f4c03e44f67750320c8185858560405161058e9493929190611b6f565b60405180910390a15050505050565b606060006060600080600080600660008981526020019081526020016000206040518060c0016040529081600082015481526020016001820180546105e190611a00565b80601f016020809104026020016040519081016040528092919081815260200182805461060d90611a00565b801561065a5780601f1061062f5761010080835404028352916020019161065a565b820191906000526020600020905b81548152906001019060200180831161063d57829003601f168201915b505050505081526020016002820154815260200160038201805461067d90611a00565b80601f01602080910402602001604051908101604052809291908181526020018280546106a990611a00565b80156106f65780601f106106cb576101008083540402835291602001916106f6565b820191906000526020600020905b8154815290600101906020018083116106d957829003601f168201915b505050505081526020016004820154815260200160058201548152505090508060200151816040015182606001518684608001518560a001519650965096509650965096505091939550919395565b6001600160a01b03821661077457604051633250574960e11b8152600060048201526024015b60405180910390fd5b6000610781838333610e79565b9050836001600160a01b0316816001600160a01b0316146107cf576040516364283d7b60e01b81526001600160a01b038086166004830152602482018490528216604482015260640161076b565b50505050565b6107f0838383604051806020016040528060008152506109cc565b505050565b60006103dc82610e19565b60006001600160a01b03821661082c576040516322718ad960e21b81526000600482015260240161076b565b506001600160a01b031660009081526003602052604090205490565b60008381526008602090815260408083203384529091529020548111156108b15760405162461bcd60e51b815260206004820152601860248201527f4e6f7420656e6f75676820736861726573206f776e65642e0000000000000000604482015260640161076b565b6001600160a01b0382166108fa5760405162461bcd60e51b815260206004820152601060248201526f24b73b30b634b21030b2323932b9b99760811b604482015260640161076b565b600083815260086020908152604080832033845290915281208054839290610923908490611bab565b909155505060008381526008602090815260408083206001600160a01b03861684529091528120805483929061095a908490611bbe565b9091555050604080518481523360208201526001600160a01b038416818301526060810183905290517f78dc4ab325d618a4100f0b44da2f25725cd94b780060f6b9e87065e9c0b12ebd9181900360800190a1505050565b6060600180546103f190611a00565b6104a8338383610f72565b6109d7848484610745565b6107cf3385858585611011565b60606109ef82610e19565b506000610a0760408051602081019091526000815290565b90506000815111610a275760405180602001604052806000815250610a52565b80610a318461113c565b604051602001610a42929190611bd1565b6040516020818303038152906040525b9392505050565b33610a63836107f5565b6001600160a01b031614610aca5760405162461bcd60e51b815260206004820152602860248201527f4f6e6c79207468652070726f7065727479206f776e65722063616e206d696e746044820152671039b430b932b99760c11b606482015260840161076b565b60008281526006602052604090206004015415610b3a5760405162461bcd60e51b815260206004820152602860248201527f53686172657320616c7265616479206d696e74656420666f72207468697320706044820152673937b832b93a3c9760c11b606482015260840161076b565b6000828152600660209081526040808320600481018590556005018490556008825280832033845282529182902083905581518481529081018390527f0a7d587acc3bafe631c58ed4a25eda1e905acfb47594d1b86b332ae63df22594910160405180910390a15050565b6001600160a01b03918216600090815260056020908152604080832093909416825291909152205460ff1690565b33610bdd826107f5565b6001600160a01b031614610c415760405162461bcd60e51b815260206004820152602560248201527f4f6e6c79207468652070726f7065727479206f776e65722063616e207472616e60448201526439b332b91760d91b606482015260840161076b565b6104a83383836111cf565b60066020526000908152604090208054600182018054919291610c6e90611a00565b80601f0160208091040260200160405190810160405280929190818152602001828054610c9a90611a00565b8015610ce75780601f10610cbc57610100808354040283529160200191610ce7565b820191906000526020600020905b815481529060010190602001808311610cca57829003601f168201915b505050505090806002015490806003018054610d0290611a00565b80601f0160208091040260200160405190810160405280929190818152602001828054610d2e90611a00565b8015610d7b5780601f10610d5057610100808354040283529160200191610d7b565b820191906000526020600020905b815481529060010190602001808311610d5e57829003601f168201915b5050505050908060040154908060050154905086565b33610d9b836107f5565b6001600160a01b031614610e045760405162461bcd60e51b815260206004820152602a60248201527f4f6e6c79207468652070726f7065727479206f776e65722063616e20736574206044820152693a343290383934b1b29760b11b606482015260840161076b565b60009182526006602052604090912060020155565b6000818152600260205260408120546001600160a01b0316806103dc57604051637e27328960e01b81526004810184905260240161076b565b6107f0838383600161127f565b6104a8828260405180602001604052806000815250611385565b6000828152600260205260408120546001600160a01b0390811690831615610ea657610ea681848661139d565b6001600160a01b03811615610ee457610ec360008560008061127f565b6001600160a01b038116600090815260036020526040902080546000190190555b6001600160a01b03851615610f13576001600160a01b0385166000908152600360205260409020805460010190555b60008481526002602052604080822080546001600160a01b0319166001600160a01b0389811691821790925591518793918516917fddf252ad1be2c89b69c2b068fc378daa952ba7f163c4a11628f55a4df523b3ef91a4949350505050565b6001600160a01b038216610fa457604051630b61174360e31b81526001600160a01b038316600482015260240161076b565b6001600160a01b03838116600081815260056020908152604080832094871680845294825291829020805460ff191686151590811790915591519182527f17307eab39ab6107e8899845ad3d59bd9653f200f220920489ca2b5937696c31910160405180910390a3505050565b6001600160a01b0383163b1561113557604051630a85bd0160e11b81526001600160a01b0384169063150b7a0290611053908890889087908790600401611c00565b6020604051808303816000875af192505050801561108e575060408051601f3d908101601f1916820190925261108b91810190611c3d565b60015b6110f7573d8080156110bc576040519150601f19603f3d011682016040523d82523d6000602084013e6110c1565b606091505b5080516000036110ef57604051633250574960e11b81526001600160a01b038516600482015260240161076b565b805181602001fd5b6001600160e01b03198116630a85bd0160e11b1461113357604051633250574960e11b81526001600160a01b038516600482015260240161076b565b505b5050505050565b6060600061114983611401565b600101905060008167ffffffffffffffff8111156111695761116961169c565b6040519080825280601f01601f191660200182016040528015611193576020820181803683370190505b5090508181016020015b600019016f181899199a1a9b1b9c1cb0b131b232b360811b600a86061a8153600a850494508461119d57509392505050565b6001600160a01b0382166111f957604051633250574960e11b81526000600482015260240161076b565b600061120783836000610e79565b90506001600160a01b03811661123357604051637e27328960e01b81526004810183905260240161076b565b836001600160a01b0316816001600160a01b0316146107cf576040516364283d7b60e01b81526001600160a01b038086166004830152602482018490528216604482015260640161076b565b808061129357506001600160a01b03821615155b156113555760006112a384610e19565b90506001600160a01b038316158015906112cf5750826001600160a01b0316816001600160a01b031614155b80156112e257506112e08184610ba5565b155b1561130b5760405163a9fbf51f60e01b81526001600160a01b038416600482015260240161076b565b81156113535783856001600160a01b0316826001600160a01b03167f8c5be1e5ebec7d5bd14f71427d1e84f3dd0314c0f7b2291e5b200ac8c7c3b92560405160405180910390a45b505b5050600090815260046020526040902080546001600160a01b0319166001600160a01b0392909216919091179055565b61138f83836114d9565b6107f0336000858585611011565b6113a883838361153e565b6107f0576001600160a01b0383166113d657604051637e27328960e01b81526004810182905260240161076b565b60405163177e802f60e01b81526001600160a01b03831660048201526024810182905260440161076b565b60008072184f03e93ff9f4daa797ed6e38ed64bf6a1f0160401b83106114405772184f03e93ff9f4daa797ed6e38ed64bf6a1f0160401b830492506040015b6d04ee2d6d415b85acef8100000000831061146c576d04ee2d6d415b85acef8100000000830492506020015b662386f26fc10000831061148a57662386f26fc10000830492506010015b6305f5e10083106114a2576305f5e100830492506008015b61271083106114b657612710830492506004015b606483106114c8576064830492506002015b600a83106103dc5760010192915050565b6001600160a01b03821661150357604051633250574960e11b81526000600482015260240161076b565b600061151183836000610e79565b90506001600160a01b038116156107f0576040516339e3563760e11b81526000600482015260240161076b565b60006001600160a01b0383161580159061159c5750826001600160a01b0316846001600160a01b0316148061157857506115788484610ba5565b8061159c57506000828152600460205260409020546001600160a01b038481169116145b949350505050565b6001600160e01b0319811681146115ba57600080fd5b50565b6000602082840312156115cf57600080fd5b8135610a52816115a4565b60005b838110156115f55781810151838201526020016115dd565b50506000910152565b600081518084526116168160208601602086016115da565b601f01601f19169290920160200192915050565b602081526000610a5260208301846115fe565b60006020828403121561164f57600080fd5b5035919050565b80356001600160a01b038116811461166d57600080fd5b919050565b6000806040838503121561168557600080fd5b61168e83611656565b946020939093013593505050565b634e487b7160e01b600052604160045260246000fd5b600067ffffffffffffffff808411156116cd576116cd61169c565b604051601f8501601f19908116603f011681019082821181831017156116f5576116f561169c565b8160405280935085815286868601111561170e57600080fd5b858560208301376000602087830101525050509392505050565b600082601f83011261173957600080fd5b610a52838335602085016116b2565b6000806000806080858703121561175e57600080fd5b61176785611656565b9350602085013567ffffffffffffffff8082111561178457600080fd5b61179088838901611728565b94506040870135935060608701359150808211156117ad57600080fd5b506117ba87828801611728565b91505092959194509250565b60c0815260006117d960c08301896115fe565b87602084015282810360408401526117f181886115fe565b6001600160a01b039690961660608401525050608081019290925260a0909101529392505050565b6000806040838503121561182c57600080fd5b8235915061183c60208401611656565b90509250929050565b60008060006060848603121561185a57600080fd5b61186384611656565b925061187160208501611656565b9150604084013590509250925092565b60006020828403121561189357600080fd5b610a5282611656565b6000806000606084860312156118b157600080fd5b8335925061187160208501611656565b600080604083850312156118d457600080fd5b6118dd83611656565b9150602083013580151581146118f257600080fd5b809150509250929050565b6000806000806080858703121561191357600080fd5b61191c85611656565b935061192a60208601611656565b925060408501359150606085013567ffffffffffffffff81111561194d57600080fd5b8501601f8101871361195e57600080fd5b6117ba878235602084016116b2565b6000806040838503121561198057600080fd5b50508035926020909101359150565b600080604083850312156119a257600080fd5b6119ab83611656565b915061183c60208401611656565b86815260c0602082015260006119d260c08301886115fe565b86604084015282810360608401526119ea81876115fe565b6080840195909552505060a00152949350505050565b600181811c90821680611a1457607f821691505b602082108103611a3457634e487b7160e01b600052602260045260246000fd5b50919050565b601f8211156107f057600081815260208120601f850160051c81016020861015611a615750805b601f850160051c820191505b8181101561113357828155600101611a6d565b815167ffffffffffffffff811115611a9a57611a9a61169c565b611aae81611aa88454611a00565b84611a3a565b602080601f831160018114611ae35760008415611acb5750858301515b600019600386901b1c1916600185901b178555611133565b600085815260208120601f198616915b82811015611b1257888601518255948401946001909101908401611af3565b5085821015611b305787850151600019600388901b60f8161c191681555b5050505050600190811b01905550565b634e487b7160e01b600052601160045260246000fd5b600060018201611b6857611b68611b40565b5060010190565b848152608060208201526000611b8860808301866115fe565b8460408401528281036060840152611ba081856115fe565b979650505050505050565b818103818111156103dc576103dc611b40565b808201808211156103dc576103dc611b40565b60008351611be38184602088016115da565b835190830190611bf78183602088016115da565b01949350505050565b6001600160a01b0385811682528416602082015260408101839052608060608201819052600090611c33908301846115fe565b9695505050505050565b600060208284031215611c4f57600080fd5b8151610a52816115a456fea2646970667358221220a7521bc90319b4a765693fc914564e342877d3a63f888cbe86617883078496ba64736f6c63430008140033",
  "linkReferences": {},
  "deployedLinkReferences": {}
}