{
  "_format": "hh-sol-artifact-1",
  "contractName": "RealEstateProperty",
  "sourceName": "contracts/RealEstateProperty.sol",
  "abi": [
    {
      "inputs": [],
      "stateMutability": "nonpayable",
      "type": "constructor"
    },
    {
      "inputs": [
        {
          "internalType": "address",
          "name": "sender",
          "type": "address"
        },
        {
          "internalType": "uint256",
          "name": "tokenId",
          "type": "uint256"
        },
        {
          "internalType": "address",
          "name": "owner",
          "type": "address"
        }
      ],
      "name": "ERC721IncorrectOwner",
      "type": "error"
    },
    {
      "inputs": [
        {
          "internalType": "address",
          "name": "operator",
          "type": "address"
        },
        {
          "internalType": "uint256",
          "name": "tokenId",
          "type": "uint256"
        }
      ],
      "name": "ERC721InsufficientApproval",
      "type": "error"
    },
    {
      "inputs": [
        {
          "internalType": "address",
          "name": "approver",
          "type": "address"
        }
      ],
      "name": "ERC721InvalidApprover",
      "type": "error"
    },
    {
      "inputs": [
        {
          "internalType": "address",
          "name": "operator",
          "type": "address"
        }
      ],
      "name": "ERC721InvalidOperator",
      "type": "error"
    },
    {
      "inputs": [
        {
          "internalType": "address",
          "name": "owner",
          "type": "address"
        }
      ],
      "name": "ERC721InvalidOwner",
      "type": "error"
    },
    {
      "inputs": [
        {
          "internalType": "address",
          "name": "receiver",
          "type": "address"
        }
      ],
      "name": "ERC721InvalidReceiver",
      "type": "error"
    },
    {
      "inputs": [
        {
          "internalType": "address",
          "name": "sender",
          "type": "address"
        }
      ],
      "name": "ERC721InvalidSender",
      "type": "error"
    },
    {
      "inputs": [
        {
          "internalType": "uint256",
          "name": "tokenId",
          "type": "uint256"
        }
      ],
      "name": "ERC721NonexistentToken",
      "type": "error"
    },
    {
      "anonymous": false,
      "inputs": [
        {
          "indexed": true,
          "internalType": "address",
          "name": "owner",
          "type": "address"
        },
        {
          "indexed": true,
          "internalType": "address",
          "name": "approved",
          "type": "address"
        },
        {
          "indexed": true,
          "internalType": "uint256",
          "name": "tokenId",
          "type": "uint256"
        }
      ],
      "name": "Approval",
      "type": "event"
    },
    {
      "anonymous": false,
      "inputs": [
        {
          "indexed": true,
          "internalType": "address",
          "name": "owner",
          "type": "address"
        },
        {
          "indexed": true,
          "internalType": "address",
          "name": "operator",
          "type": "address"
        },
        {
          "indexed": false,
          "internalType": "bool",
          "name": "approved",
          "type": "bool"
        }
      ],
      "name": "ApprovalForAll",
      "type": "event"
    },
    {
      "anonymous": false,
      "inputs": [
        {
          "indexed": false,
          "internalType": "uint256",
          "name": "propertyId",
          "type": "uint256"
        },
        {
          "indexed": false,
          "internalType": "string",
          "name": "location",
          "type": "string"
        },
        {
          "indexed": false,
          "internalType": "string",
          "name": "description",
          "type": "string"
        },
        {
          "indexed": false,
          "internalType": "string",
          "name": "ipfsHash",
          "type": "string"
        }
      ],
      "name": "PropertyListed",
      "type": "event"
    },
    {
      "anonymous": false,
      "inputs": [
        {
          "indexed": false,
          "internalType": "uint256",
          "name": "propertyId",
          "type": "uint256"
        },
        {
          "indexed": false,
          "internalType": "uint256",
          "name": "totalShares",
          "type": "uint256"
        }
      ],
      "name": "SharesMinted",
      "type": "event"
    },
    {
      "anonymous": false,
      "inputs": [
        {
          "indexed": false,
          "internalType": "uint256",
          "name": "propertyId",
          "type": "uint256"
        },
        {
          "indexed": false,
          "internalType": "address",
          "name": "from",
          "type": "address"
        },
        {
          "indexed": false,
          "internalType": "address",
          "name": "to",
          "type": "address"
        },
        {
          "indexed": false,
          "internalType": "uint256",
          "name": "shares",
          "type": "uint256"
        }
      ],
      "name": "SharesTransferred",
      "type": "event"
    },
    {
      "anonymous": false,
      "inputs": [
        {
          "indexed": true,
          "internalType": "address",
          "name": "from",
          "type": "address"
        },
        {
          "indexed": true,
          "internalType": "address",
          "name": "to",
          "type": "address"
        },
        {
          "indexed": true,
          "internalType": "uint256",
          "name": "tokenId",
          "type": "uint256"
        }
      ],
      "name": "Transfer",
      "type": "event"
    },
    {
      "inputs": [
        {
          "internalType": "address",
          "name": "to",
          "type": "address"
        },
        {
          "internalType": "uint256",
          "name": "tokenId",
          "type": "uint256"
        }
      ],
      "name": "approve",
      "outputs": [],
      "stateMutability": "nonpayable",
      "type": "function"
    },
    {
      "inputs": [
        {
          "internalType": "address",
          "name": "owner",
          "type": "address"
        }
      ],
      "name": "balanceOf",
      "outputs": [
        {
          "internalType": "uint256",
          "name": "",
          "type": "uint256"
        }
      ],
      "stateMutability": "view",
      "type": "function"
    },
    {
      "inputs": [
        {
          "internalType": "uint256",
          "name": "tokenId",
          "type": "uint256"
        }
      ],
      "name": "getApproved",
      "outputs": [
        {
          "internalType": "address",
          "name": "",
          "type": "address"
        }
      ],
      "stateMutability": "view",
      "type": "function"
    },
    {
      "inputs": [
        {
          "internalType": "uint256",
          "name": "propertyId",
          "type": "uint256"
        }
      ],
      "name": "getProperty",
      "outputs": [
        {
          "internalType": "address",
          "name": "owner",
          "type": "address"
        },
        {
          "internalType": "string",
          "name": "location",
          "type": "string"
        },
        {
          "internalType": "string",
          "name": "description",
          "type": "string"
        },
        {
          "internalType": "string",
          "name": "ipfsHash",
          "type": "string"
        },
        {
          "internalType": "uint256",
          "name": "totalShares",
          "type": "uint256"
        },
        {
          "internalType": "address[]",
          "name": "stakeholders",
          "type": "address[]"
        },
        {
          "internalType": "uint256[]",
          "name": "shares",
          "type": "uint256[]"
        }
      ],
      "stateMutability": "view",
      "type": "function"
    },
    {
      "inputs": [
        {
          "internalType": "uint256",
          "name": "propertyId",
          "type": "uint256"
        },
        {
          "internalType": "address",
          "name": "owner",
          "type": "address"
        }
      ],
      "name": "getSharesOwned",
      "outputs": [
        {
          "internalType": "uint256",
          "name": "",
          "type": "uint256"
        }
      ],
      "stateMutability": "view",
      "type": "function"
    },
    {
      "inputs": [
        {
          "internalType": "address",
          "name": "user",
          "type": "address"
        }
      ],
      "name": "getUserPropertiesWithShares",
      "outputs": [
        {
          "internalType": "uint256[]",
          "name": "",
          "type": "uint256[]"
        },
        {
          "internalType": "uint256[]",
          "name": "",
          "type": "uint256[]"
        }
      ],
      "stateMutability": "view",
      "type": "function"
    },
    {
      "inputs": [
        {
          "internalType": "address",
          "name": "owner",
          "type": "address"
        },
        {
          "internalType": "address",
          "name": "operator",
          "type": "address"
        }
      ],
      "name": "isApprovedForAll",
      "outputs": [
        {
          "internalType": "bool",
          "name": "",
          "type": "bool"
        }
      ],
      "stateMutability": "view",
      "type": "function"
    },
    {
      "inputs": [
        {
          "internalType": "address",
          "name": "owner",
          "type": "address"
        },
        {
          "internalType": "string",
          "name": "location",
          "type": "string"
        },
        {
          "internalType": "string",
          "name": "description",
          "type": "string"
        },
        {
          "internalType": "string",
          "name": "ipfsHash",
          "type": "string"
        }
      ],
      "name": "mintProperty",
      "outputs": [],
      "stateMutability": "nonpayable",
      "type": "function"
    },
    {
      "inputs": [
        {
          "internalType": "uint256",
          "name": "propertyId",
          "type": "uint256"
        },
        {
          "internalType": "uint256",
          "name": "totalShares",
          "type": "uint256"
        }
      ],
      "name": "mintShares",
      "outputs": [],
      "stateMutability": "nonpayable",
      "type": "function"
    },
    {
      "inputs": [],
      "name": "name",
      "outputs": [
        {
          "internalType": "string",
          "name": "",
          "type": "string"
        }
      ],
      "stateMutability": "view",
      "type": "function"
    },
    {
      "inputs": [
        {
          "internalType": "uint256",
          "name": "tokenId",
          "type": "uint256"
        }
      ],
      "name": "ownerOf",
      "outputs": [
        {
          "internalType": "address",
          "name": "",
          "type": "address"
        }
      ],
      "stateMutability": "view",
      "type": "function"
    },
    {
      "inputs": [
        {
          "internalType": "uint256",
          "name": "",
          "type": "uint256"
        }
      ],
      "name": "properties",
      "outputs": [
        {
          "internalType": "uint256",
          "name": "id",
          "type": "uint256"
        },
        {
          "internalType": "string",
          "name": "location",
          "type": "string"
        },
        {
          "internalType": "string",
          "name": "description",
          "type": "string"
        },
        {
          "internalType": "string",
          "name": "ipfsHash",
          "type": "string"
        },
        {
          "internalType": "uint256",
          "name": "totalShares",
          "type": "uint256"
        }
      ],
      "stateMutability": "view",
      "type": "function"
    },
    {
      "inputs": [],
      "name": "propertyCounter",
      "outputs": [
        {
          "internalType": "uint256",
          "name": "",
          "type": "uint256"
        }
      ],
      "stateMutability": "view",
      "type": "function"
    },
    {
      "inputs": [
        {
          "internalType": "address",
          "name": "from",
          "type": "address"
        },
        {
          "internalType": "address",
          "name": "to",
          "type": "address"
        },
        {
          "internalType": "uint256",
          "name": "tokenId",
          "type": "uint256"
        }
      ],
      "name": "safeTransferFrom",
      "outputs": [],
      "stateMutability": "nonpayable",
      "type": "function"
    },
    {
      "inputs": [
        {
          "internalType": "address",
          "name": "from",
          "type": "address"
        },
        {
          "internalType": "address",
          "name": "to",
          "type": "address"
        },
        {
          "internalType": "uint256",
          "name": "tokenId",
          "type": "uint256"
        },
        {
          "internalType": "bytes",
          "name": "data",
          "type": "bytes"
        }
      ],
      "name": "safeTransferFrom",
      "outputs": [],
      "stateMutability": "nonpayable",
      "type": "function"
    },
    {
      "inputs": [
        {
          "internalType": "address",
          "name": "operator",
          "type": "address"
        },
        {
          "internalType": "bool",
          "name": "approved",
          "type": "bool"
        }
      ],
      "name": "setApprovalForAll",
      "outputs": [],
      "stateMutability": "nonpayable",
      "type": "function"
    },
    {
      "inputs": [
        {
          "internalType": "bytes4",
          "name": "interfaceId",
          "type": "bytes4"
        }
      ],
      "name": "supportsInterface",
      "outputs": [
        {
          "internalType": "bool",
          "name": "",
          "type": "bool"
        }
      ],
      "stateMutability": "view",
      "type": "function"
    },
    {
      "inputs": [],
      "name": "symbol",
      "outputs": [
        {
          "internalType": "string",
          "name": "",
          "type": "string"
        }
      ],
      "stateMutability": "view",
      "type": "function"
    },
    {
      "inputs": [
        {
          "internalType": "uint256",
          "name": "tokenId",
          "type": "uint256"
        }
      ],
      "name": "tokenURI",
      "outputs": [
        {
          "internalType": "string",
          "name": "",
          "type": "string"
        }
      ],
      "stateMutability": "view",
      "type": "function"
    },
    {
      "inputs": [
        {
          "internalType": "address",
          "name": "from",
          "type": "address"
        },
        {
          "internalType": "address",
          "name": "to",
          "type": "address"
        },
        {
          "internalType": "uint256",
          "name": "tokenId",
          "type": "uint256"
        }
      ],
      "name": "transferFrom",
      "outputs": [],
      "stateMutability": "nonpayable",
      "type": "function"
    },
    {
      "inputs": [
        {
          "internalType": "address",
          "name": "to",
          "type": "address"
        },
        {
          "internalType": "uint256",
          "name": "propertyId",
          "type": "uint256"
        }
      ],
      "name": "transferProperty",
      "outputs": [],
      "stateMutability": "nonpayable",
      "type": "function"
    },
    {
      "inputs": [
        {
          "internalType": "uint256",
          "name": "propertyId",
          "type": "uint256"
        },
        {
          "internalType": "address",
          "name": "to",
          "type": "address"
        },
        {
          "internalType": "uint256",
          "name": "shares",
          "type": "uint256"
        }
      ],
      "name": "transferShares",
      "outputs": [],
      "stateMutability": "nonpayable",
      "type": "function"
    }
  ],
  "bytecode": "0x60806040523480156200001157600080fd5b50604051806040016040528060128152602001715265616c45737461746550726f706572747960701b815250604051806040016040528060068152602001650524550524f560d41b81525081600090816200006d91906200012a565b5060016200007c82826200012a565b505050620001f6565b634e487b7160e01b600052604160045260246000fd5b600181811c90821680620000b057607f821691505b602082108103620000d157634e487b7160e01b600052602260045260246000fd5b50919050565b601f8211156200012557600081815260208120601f850160051c81016020861015620001005750805b601f850160051c820191505b8181101562000121578281556001016200010c565b5050505b505050565b81516001600160401b0381111562000146576200014662000085565b6200015e816200015784546200009b565b84620000d7565b602080601f8311600181146200019657600084156200017d5750858301515b600019600386901b1c1916600185901b17855562000121565b600085815260208120601f198616915b82811015620001c757888601518255948401946001909101908401620001a6565b5085821015620001e65787850151600019600388901b60f8161c191681555b5050505050600190811b01905550565b61209780620002066000396000f3fe608060405234801561001057600080fd5b50600436106101425760003560e01c806395d89b41116100b8578063d090e47e1161007c578063d090e47e146102cc578063e3437888146102d5578063e7ebadfe146102e8578063e985e9c514610322578063f644c31814610335578063f7b108081461034857600080fd5b806395d89b4114610278578063a22cb46514610280578063a2bc47db14610293578063b88d4fde146102a6578063c87b56dd146102b957600080fd5b806323b872dd1161010a57806323b872dd146101e557806332665ffb146101f857806342842e0e1461021e5780636352211e1461023157806370a082311461024457806384b9a6e61461026557600080fd5b806301ffc9a71461014757806306fdde031461016f578063081812fc14610184578063095ea7b3146101af57806312b708b4146101c4575b600080fd5b61015a6101553660046118b8565b61036c565b60405190151581526020015b60405180910390f35b6101776103be565b6040516101669190611925565b610197610192366004611938565b610450565b6040516001600160a01b039091168152602001610166565b6101c26101bd36600461196d565b610479565b005b6101d76101d2366004611997565b610488565b6040516101669291906119ed565b6101c26101f3366004611a1b565b610618565b61020b610206366004611938565b6106a8565b6040516101669796959493929190611a57565b6101c261022c366004611a1b565b6109ca565b61019761023f366004611938565b6109ea565b610257610252366004611997565b6109f5565b604051908152602001610166565b6101c2610273366004611b03565b610a3d565b610177610bfa565b6101c261028e366004611b28565b610c09565b6101c26102a1366004611c10565b610c14565b6101c26102b4366004611ca9565b610d09565b6101776102c7366004611938565b610d21565b61025760075481565b6101c26102e3366004611d19565b610d96565b6102576102f6366004611d3b565b60008281526006602090815260408083206001600160a01b038516845260050190915290205492915050565b61015a610330366004611d67565b610ed8565b6101c261034336600461196d565b610f06565b61035b610356366004611938565b610f7f565b604051610166959493929190611d91565b60006001600160e01b031982166380ac58cd60e01b148061039d57506001600160e01b03198216635b5e139f60e01b145b806103b857506301ffc9a760e01b6001600160e01b03198316145b92915050565b6060600080546103cd90611de3565b80601f01602080910402602001604051908101604052809291908181526020018280546103f990611de3565b80156104465780601f1061041b57610100808354040283529160200191610446565b820191906000526020600020905b81548152906001019060200180831161042957829003601f168201915b5050505050905090565b600061045b82611146565b506000828152600460205260409020546001600160a01b03166103b8565b61048482823361117f565b5050565b606080600060015b60075481116104e45760008181526006602090815260408083206001600160a01b0389168452600501909152902054156104d257816104ce81611e33565b9250505b806104dc81611e33565b915050610490565b5060008167ffffffffffffffff81111561050057610500611b64565b604051908082528060200260200182016040528015610529578160200160208202803683370190505b50905060008267ffffffffffffffff81111561054757610547611b64565b604051908082528060200260200182016040528015610570578160200160208202803683370190505b509050600060015b600754811161060b5760008181526006602090815260408083206001600160a01b038c16845260050190915290205480156105f857818584815181106105c0576105c0611e4c565b602002602001018181525050808484815181106105df576105df611e4c565b6020908102919091010152826105f481611e33565b9350505b508061060381611e33565b915050610578565b5091969095509350505050565b6001600160a01b03821661064757604051633250574960e11b8152600060048201526024015b60405180910390fd5b600061065483833361118c565b9050836001600160a01b0316816001600160a01b0316146106a2576040516364283d7b60e01b81526001600160a01b038086166004830152602482018490528216604482015260640161063e565b50505050565b600081815260066020819052604082209081015460609182918291859183918291848167ffffffffffffffff8111156106e3576106e3611b64565b60405190808252806020026020018201604052801561070c578160200160208202803683370190505b50905060005b8281101561078e57600084600601828154811061073157610731611e4c565b60009182526020808320909101546001600160a01b03168083526005880190915260409091205484519192509084908490811061077057610770611e4c565b6020908102919091010152508061078681611e33565b915050610712565b506107988b6109ea565b836001018460020185600301866004015487600601868580546107ba90611de3565b80601f01602080910402602001604051908101604052809291908181526020018280546107e690611de3565b80156108335780601f1061080857610100808354040283529160200191610833565b820191906000526020600020905b81548152906001019060200180831161081657829003601f168201915b5050505050955084805461084690611de3565b80601f016020809104026020016040519081016040528092919081815260200182805461087290611de3565b80156108bf5780601f10610894576101008083540402835291602001916108bf565b820191906000526020600020905b8154815290600101906020018083116108a257829003601f168201915b505050505094508380546108d290611de3565b80601f01602080910402602001604051908101604052809291908181526020018280546108fe90611de3565b801561094b5780601f106109205761010080835404028352916020019161094b565b820191906000526020600020905b81548152906001019060200180831161092e57829003601f168201915b50505050509350818054806020026020016040519081016040528092919081815260200182805480156109a757602002820191906000526020600020905b81546001600160a01b03168152600190910190602001808311610989575b505050505091509950995099509950995099509950505050919395979092949650565b6109e583838360405180602001604052806000815250610d09565b505050565b60006103b882611146565b60006001600160a01b038216610a21576040516322718ad960e21b81526000600482015260240161063e565b506001600160a01b031660009081526003602052604090205490565b6000838152600660209081526040808320338452600501909152902054811115610aa95760405162461bcd60e51b815260206004820152601860248201527f4e6f7420656e6f75676820736861726573206f776e65642e0000000000000000604482015260640161063e565b6001600160a01b038216610af25760405162461bcd60e51b815260206004820152601060248201526f24b73b30b634b21030b2323932b9b99760811b604482015260640161063e565b60008381526006602090815260408083206001600160a01b038616845260058101909252822054909103610b5157600681018054600181018255600091825260209091200180546001600160a01b0319166001600160a01b0385161790555b33600090815260058201602052604081208054849290610b72908490611e62565b90915550506001600160a01b038316600090815260058201602052604081208054849290610ba1908490611e75565b9091555050604080518581523360208201526001600160a01b038516818301526060810184905290517f78dc4ab325d618a4100f0b44da2f25725cd94b780060f6b9e87065e9c0b12ebd9181900360800190a150505050565b6060600180546103cd90611de3565b610484338383611285565b60078054906000610c2483611e33565b9091555050600754600081815260066020526040902081815560018101610c4b8682611ece565b5060038101610c5a8482611ece565b5060028101610c698582611ece565b506103e8600482018190556001600160a01b0387166000818152600584016020908152604082209390935560068401805460018101825590825292902090910180546001600160a01b0319169091179055610cc48683611324565b7f5bef73c88db9e51f4b152de8382836dea7a081364997ff088736c3e30f05fa4582868686604051610cf99493929190611f8e565b60405180910390a1505050505050565b610d14848484610618565b6106a23385858585611389565b6060610d2c82611146565b506000610d4460408051602081019091526000815290565b90506000815111610d645760405180602001604052806000815250610d8f565b80610d6e846114b4565b604051602001610d7f929190611fd8565b6040516020818303038152906040525b9392505050565b33610da0836109ea565b6001600160a01b031614610e075760405162461bcd60e51b815260206004820152602860248201527f4f6e6c79207468652070726f7065727479206f776e65722063616e206d696e746044820152671039b430b932b99760c11b606482015260840161063e565b60008281526006602052604090206004015415610e775760405162461bcd60e51b815260206004820152602860248201527f53686172657320616c7265616479206d696e74656420666f72207468697320706044820152673937b832b93a3c9760c11b606482015260840161063e565b60008281526006602090815260408083206004810185905533845260050182529182902083905581518481529081018390527f0a7d587acc3bafe631c58ed4a25eda1e905acfb47594d1b86b332ae63df22594910160405180910390a15050565b6001600160a01b03918216600090815260056020908152604080832093909416825291909152205460ff1690565b33610f10826109ea565b6001600160a01b031614610f745760405162461bcd60e51b815260206004820152602560248201527f4f6e6c79207468652070726f7065727479206f776e65722063616e207472616e60448201526439b332b91760d91b606482015260840161063e565b610484338383611547565b60066020526000908152604090208054600182018054919291610fa190611de3565b80601f0160208091040260200160405190810160405280929190818152602001828054610fcd90611de3565b801561101a5780601f10610fef5761010080835404028352916020019161101a565b820191906000526020600020905b815481529060010190602001808311610ffd57829003601f168201915b50505050509080600201805461102f90611de3565b80601f016020809104026020016040519081016040528092919081815260200182805461105b90611de3565b80156110a85780601f1061107d576101008083540402835291602001916110a8565b820191906000526020600020905b81548152906001019060200180831161108b57829003601f168201915b5050505050908060030180546110bd90611de3565b80601f01602080910402602001604051908101604052809291908181526020018280546110e990611de3565b80156111365780601f1061110b57610100808354040283529160200191611136565b820191906000526020600020905b81548152906001019060200180831161111957829003601f168201915b5050505050908060040154905085565b6000818152600260205260408120546001600160a01b0316806103b857604051637e27328960e01b81526004810184905260240161063e565b6109e583838360016115f7565b6000828152600260205260408120546001600160a01b03908116908316156111b9576111b98184866116fd565b6001600160a01b038116156111f7576111d66000856000806115f7565b6001600160a01b038116600090815260036020526040902080546000190190555b6001600160a01b03851615611226576001600160a01b0385166000908152600360205260409020805460010190555b60008481526002602052604080822080546001600160a01b0319166001600160a01b0389811691821790925591518793918516917fddf252ad1be2c89b69c2b068fc378daa952ba7f163c4a11628f55a4df523b3ef91a4949350505050565b6001600160a01b0382166112b757604051630b61174360e31b81526001600160a01b038316600482015260240161063e565b6001600160a01b03838116600081815260056020908152604080832094871680845294825291829020805460ff191686151590811790915591519182527f17307eab39ab6107e8899845ad3d59bd9653f200f220920489ca2b5937696c31910160405180910390a3505050565b6001600160a01b03821661134e57604051633250574960e11b81526000600482015260240161063e565b600061135c8383600061118c565b90506001600160a01b038116156109e5576040516339e3563760e11b81526000600482015260240161063e565b6001600160a01b0383163b156114ad57604051630a85bd0160e11b81526001600160a01b0384169063150b7a02906113cb908890889087908790600401612007565b6020604051808303816000875af1925050508015611406575060408051601f3d908101601f1916820190925261140391810190612044565b60015b61146f573d808015611434576040519150601f19603f3d011682016040523d82523d6000602084013e611439565b606091505b50805160000361146757604051633250574960e11b81526001600160a01b038516600482015260240161063e565b805181602001fd5b6001600160e01b03198116630a85bd0160e11b146114ab57604051633250574960e11b81526001600160a01b038516600482015260240161063e565b505b5050505050565b606060006114c183611761565b600101905060008167ffffffffffffffff8111156114e1576114e1611b64565b6040519080825280601f01601f19166020018201604052801561150b576020820181803683370190505b5090508181016020015b600019016f181899199a1a9b1b9c1cb0b131b232b360811b600a86061a8153600a850494508461151557509392505050565b6001600160a01b03821661157157604051633250574960e11b81526000600482015260240161063e565b600061157f8383600061118c565b90506001600160a01b0381166115ab57604051637e27328960e01b81526004810183905260240161063e565b836001600160a01b0316816001600160a01b0316146106a2576040516364283d7b60e01b81526001600160a01b038086166004830152602482018490528216604482015260640161063e565b808061160b57506001600160a01b03821615155b156116cd57600061161b84611146565b90506001600160a01b038316158015906116475750826001600160a01b0316816001600160a01b031614155b801561165a57506116588184610ed8565b155b156116835760405163a9fbf51f60e01b81526001600160a01b038416600482015260240161063e565b81156116cb5783856001600160a01b0316826001600160a01b03167f8c5be1e5ebec7d5bd14f71427d1e84f3dd0314c0f7b2291e5b200ac8c7c3b92560405160405180910390a45b505b5050600090815260046020526040902080546001600160a01b0319166001600160a01b0392909216919091179055565b611708838383611839565b6109e5576001600160a01b03831661173657604051637e27328960e01b81526004810182905260240161063e565b60405163177e802f60e01b81526001600160a01b03831660048201526024810182905260440161063e565b60008072184f03e93ff9f4daa797ed6e38ed64bf6a1f0160401b83106117a05772184f03e93ff9f4daa797ed6e38ed64bf6a1f0160401b830492506040015b6d04ee2d6d415b85acef810000000083106117cc576d04ee2d6d415b85acef8100000000830492506020015b662386f26fc1000083106117ea57662386f26fc10000830492506010015b6305f5e1008310611802576305f5e100830492506008015b612710831061181657612710830492506004015b60648310611828576064830492506002015b600a83106103b85760010192915050565b60006001600160a01b038316158015906118975750826001600160a01b0316846001600160a01b0316148061187357506118738484610ed8565b8061189757506000828152600460205260409020546001600160a01b038481169116145b949350505050565b6001600160e01b0319811681146118b557600080fd5b50565b6000602082840312156118ca57600080fd5b8135610d8f8161189f565b60005b838110156118f05781810151838201526020016118d8565b50506000910152565b600081518084526119118160208601602086016118d5565b601f01601f19169290920160200192915050565b602081526000610d8f60208301846118f9565b60006020828403121561194a57600080fd5b5035919050565b80356001600160a01b038116811461196857600080fd5b919050565b6000806040838503121561198057600080fd5b61198983611951565b946020939093013593505050565b6000602082840312156119a957600080fd5b610d8f82611951565b600081518084526020808501945080840160005b838110156119e2578151875295820195908201906001016119c6565b509495945050505050565b604081526000611a0060408301856119b2565b8281036020840152611a1281856119b2565b95945050505050565b600080600060608486031215611a3057600080fd5b611a3984611951565b9250611a4760208501611951565b9150604084013590509250925092565b600060018060a01b03808a168352602060e081850152611a7a60e085018b6118f9565b8481036040860152611a8c818b6118f9565b90508481036060860152611aa0818a6118f9565b6080860189905285810360a0870152875180825283890192509083019060005b81811015611ade578351861683529284019291840191600101611ac0565b505085810360c0870152611af281886119b2565b9d9c50505050505050505050505050565b600080600060608486031215611b1857600080fd5b83359250611a4760208501611951565b60008060408385031215611b3b57600080fd5b611b4483611951565b915060208301358015158114611b5957600080fd5b809150509250929050565b634e487b7160e01b600052604160045260246000fd5b600067ffffffffffffffff80841115611b9557611b95611b64565b604051601f8501601f19908116603f01168101908282118183101715611bbd57611bbd611b64565b81604052809350858152868686011115611bd657600080fd5b858560208301376000602087830101525050509392505050565b600082601f830112611c0157600080fd5b610d8f83833560208501611b7a565b60008060008060808587031215611c2657600080fd5b611c2f85611951565b9350602085013567ffffffffffffffff80821115611c4c57600080fd5b611c5888838901611bf0565b94506040870135915080821115611c6e57600080fd5b611c7a88838901611bf0565b93506060870135915080821115611c9057600080fd5b50611c9d87828801611bf0565b91505092959194509250565b60008060008060808587031215611cbf57600080fd5b611cc885611951565b9350611cd660208601611951565b925060408501359150606085013567ffffffffffffffff811115611cf957600080fd5b8501601f81018713611d0a57600080fd5b611c9d87823560208401611b7a565b60008060408385031215611d2c57600080fd5b50508035926020909101359150565b60008060408385031215611d4e57600080fd5b82359150611d5e60208401611951565b90509250929050565b60008060408385031215611d7a57600080fd5b611d8383611951565b9150611d5e60208401611951565b85815260a060208201526000611daa60a08301876118f9565b8281036040840152611dbc81876118f9565b90508281036060840152611dd081866118f9565b9150508260808301529695505050505050565b600181811c90821680611df757607f821691505b602082108103611e1757634e487b7160e01b600052602260045260246000fd5b50919050565b634e487b7160e01b600052601160045260246000fd5b600060018201611e4557611e45611e1d565b5060010190565b634e487b7160e01b600052603260045260246000fd5b818103818111156103b8576103b8611e1d565b808201808211156103b8576103b8611e1d565b601f8211156109e557600081815260208120601f850160051c81016020861015611eaf5750805b601f850160051c820191505b818110156114ab57828155600101611ebb565b815167ffffffffffffffff811115611ee857611ee8611b64565b611efc81611ef68454611de3565b84611e88565b602080601f831160018114611f315760008415611f195750858301515b600019600386901b1c1916600185901b1785556114ab565b600085815260208120601f198616915b82811015611f6057888601518255948401946001909101908401611f41565b5085821015611f7e5787850151600019600388901b60f8161c191681555b5050505050600190811b01905550565b848152608060208201526000611fa760808301866118f9565b8281036040840152611fb981866118f9565b90508281036060840152611fcd81856118f9565b979650505050505050565b60008351611fea8184602088016118d5565b835190830190611ffe8183602088016118d5565b01949350505050565b6001600160a01b038581168252841660208201526040810183905260806060820181905260009061203a908301846118f9565b9695505050505050565b60006020828403121561205657600080fd5b8151610d8f8161189f56fea26469706673582212201e8917628ef86cd23237cd967566bafa16a2b245ac780d9ebd429575929f6cae64736f6c63430008140033",
  "linkReferences": {},
  "deployedLinkReferences": {}
}