{
  "_format": "hh-sol-artifact-1",
  "contractName": "DogeStaking",
  "sourceName": "contracts/DogeStake.sol",
  "abi": [
    {
      "inputs": [
        {
          "internalType": "address",
          "name": "_dogeToken",
          "type": "address"
        },
        {
          "internalType": "uint256",
          "name": "_rewardRate",
          "type": "uint256"
        }
      ],
      "stateMutability": "nonpayable",
      "type": "constructor"
    },
    {
      "anonymous": false,
      "inputs": [
        {
          "indexed": true,
          "internalType": "address",
          "name": "user",
          "type": "address"
        },
        {
          "indexed": false,
          "internalType": "uint256",
          "name": "reward",
          "type": "uint256"
        }
      ],
      "name": "RewardPaid",
      "type": "event"
    },
    {
      "anonymous": false,
      "inputs": [
        {
          "indexed": true,
          "internalType": "address",
          "name": "user",
          "type": "address"
        },
        {
          "indexed": false,
          "internalType": "uint256",
          "name": "amount",
          "type": "uint256"
        }
      ],
      "name": "Staked",
      "type": "event"
    },
    {
      "anonymous": false,
      "inputs": [
        {
          "indexed": true,
          "internalType": "address",
          "name": "user",
          "type": "address"
        },
        {
          "indexed": false,
          "internalType": "uint256",
          "name": "amount",
          "type": "uint256"
        }
      ],
      "name": "Unstaked",
      "type": "event"
    },
    {
      "inputs": [
        {
          "internalType": "address",
          "name": "stakerAddress",
          "type": "address"
        }
      ],
      "name": "checkReward",
      "outputs": [
        {
          "internalType": "uint256",
          "name": "",
          "type": "uint256"
        }
      ],
      "stateMutability": "view",
      "type": "function"
    },
    {
      "inputs": [],
      "name": "claimReward",
      "outputs": [],
      "stateMutability": "nonpayable",
      "type": "function"
    },
    {
      "inputs": [],
      "name": "dogeToken",
      "outputs": [
        {
          "internalType": "contract IERC20",
          "name": "",
          "type": "address"
        }
      ],
      "stateMutability": "view",
      "type": "function"
    },
    {
      "inputs": [],
      "name": "owner",
      "outputs": [
        {
          "internalType": "address",
          "name": "",
          "type": "address"
        }
      ],
      "stateMutability": "view",
      "type": "function"
    },
    {
      "inputs": [],
      "name": "rewardRate",
      "outputs": [
        {
          "internalType": "uint256",
          "name": "",
          "type": "uint256"
        }
      ],
      "stateMutability": "view",
      "type": "function"
    },
    {
      "inputs": [
        {
          "internalType": "uint256",
          "name": "newRewardRate",
          "type": "uint256"
        }
      ],
      "name": "setRewardRate",
      "outputs": [],
      "stateMutability": "nonpayable",
      "type": "function"
    },
    {
      "inputs": [
        {
          "internalType": "uint256",
          "name": "amount",
          "type": "uint256"
        }
      ],
      "name": "stake",
      "outputs": [],
      "stateMutability": "nonpayable",
      "type": "function"
    },
    {
      "inputs": [
        {
          "internalType": "address",
          "name": "",
          "type": "address"
        }
      ],
      "name": "stakers",
      "outputs": [
        {
          "internalType": "uint256",
          "name": "amountStaked",
          "type": "uint256"
        },
        {
          "internalType": "uint256",
          "name": "rewardDebt",
          "type": "uint256"
        },
        {
          "internalType": "uint256",
          "name": "lastUpdateBlock",
          "type": "uint256"
        }
      ],
      "stateMutability": "view",
      "type": "function"
    },
    {
      "inputs": [],
      "name": "totalStaked",
      "outputs": [
        {
          "internalType": "uint256",
          "name": "",
          "type": "uint256"
        }
      ],
      "stateMutability": "view",
      "type": "function"
    },
    {
      "inputs": [
        {
          "internalType": "uint256",
          "name": "amount",
          "type": "uint256"
        }
      ],
      "name": "unstake",
      "outputs": [],
      "stateMutability": "nonpayable",
      "type": "function"
    },
    {
      "inputs": [
        {
          "internalType": "uint256",
          "name": "amount",
          "type": "uint256"
        }
      ],
      "name": "withdrawExcess",
      "outputs": [],
      "stateMutability": "nonpayable",
      "type": "function"
    }
  ],
  "bytecode": "0x608060405234801561001057600080fd5b50604051610a6f380380610a6f83398101604081905261002f91610060565b600080546001600160a01b039093166001600160a01b0319938416179055600255600180549091163317905561009a565b6000806040838503121561007357600080fd5b82516001600160a01b038116811461008a57600080fd5b6020939093015192949293505050565b6109c6806100a96000396000f3fe608060405234801561001057600080fd5b50600436106100a95760003560e01c80639168ae72116100715780639168ae72146101265780639e447fc614610170578063a694fc3a14610183578063b88a802f14610196578063c3c90e641461019e578063e755ddd7146101b157600080fd5b806322d31977146100ae5780632e17de78146100de5780637b0a47ee146100f3578063817b1cd21461010a5780638da5cb5b14610113575b600080fd5b6000546100c1906001600160a01b031681565b6040516001600160a01b0390911681526020015b60405180910390f35b6100f16100ec36600461084f565b6101c4565b005b6100fc60025481565b6040519081526020016100d5565b6100fc60035481565b6001546100c1906001600160a01b031681565b610155610134366004610868565b60046020526000908152604090208054600182015460029092015490919083565b604080519384526020840192909252908201526060016100d5565b6100f161017e36600461084f565b610364565b6100f161019136600461084f565b610393565b6100f16104d4565b6100fc6101ac366004610868565b6105e4565b6100f16101bf36600461084f565b610674565b600081116102195760405162461bcd60e51b815260206004820152601760248201527f43616e6e6f7420756e7374616b65203020746f6b656e7300000000000000000060448201526064015b60405180910390fd5b33600090815260046020526040902080548211156102795760405162461bcd60e51b815260206004820152601960248201527f4e6f7420656e6f756768207374616b65642062616c616e6365000000000000006044820152606401610210565b610282336107ca565b8181600001600082825461029691906108ae565b9250508190555081600360008282546102af91906108ae565b909155505060005460405163a9059cbb60e01b8152336004820152602481018490526001600160a01b039091169063a9059cbb906044016020604051808303816000875af1158015610305573d6000803e3d6000fd5b505050506040513d601f19601f8201168201806040525081019061032991906108c7565b5060405182815233907f0f5bb82176feb1b5e747e28471aa92156a04d9f3ab9f45f28e2d704232b93f75906020015b60405180910390a25050565b6001546001600160a01b0316331461038e5760405162461bcd60e51b8152600401610210906108e9565b600255565b600081116103db5760405162461bcd60e51b815260206004820152601560248201527443616e6e6f74207374616b65203020746f6b656e7360581b6044820152606401610210565b6000546040516323b872dd60e01b8152336004820152306024820152604481018390526001600160a01b03909116906323b872dd906064016020604051808303816000875af1158015610432573d6000803e3d6000fd5b505050506040513d601f19601f8201168201806040525081019061045691906108c7565b5033600081815260046020526040902090610470906107ca565b81816000016000828254610484919061092b565b92505081905550816003600082825461049d919061092b565b909155505060405182815233907f9e71bc8eea02a63969f509818f2dafb9254532904319f9dbda79b67bd34a5f3d90602001610358565b336000818152600460205260409020906104ed906107ca565b6001810154806105355760405162461bcd60e51b81526020600482015260136024820152724e6f207265776172647320746f20636c61696d60681b6044820152606401610210565b6000600183018190555460405163a9059cbb60e01b8152336004820152602481018390526001600160a01b039091169063a9059cbb906044016020604051808303816000875af115801561058d573d6000803e3d6000fd5b505050506040513d601f19601f820116820180604052508101906105b191906108c7565b5060405181815233907fe2403640ba68fed3a2f88b7557551d1993f84b99bb10ff833f0cf8db0c5e048690602001610358565b6001600160a01b038116600090815260046020908152604080832081516060810183528154815260018201549381019390935260020154908201819052829061062d90436108ae565b6003548351600254929350600092610645908561093e565b61064f919061093e565b6106599190610955565b905080836020015161066b919061092b565b95945050505050565b6001546001600160a01b0316331461069e5760405162461bcd60e51b8152600401610210906108e9565b6000546040516370a0823160e01b815230600482015282916001600160a01b0316906370a0823190602401602060405180830381865afa1580156106e6573d6000803e3d6000fd5b505050506040513d601f19601f8201168201806040525081019061070a9190610977565b101561074d5760405162461bcd60e51b81526020600482015260126024820152714e6f7420656e6f7567682062616c616e636560701b6044820152606401610210565b60005460015460405163a9059cbb60e01b81526001600160a01b0391821660048201526024810184905291169063a9059cbb906044016020604051808303816000875af11580156107a2573d6000803e3d6000fd5b505050506040513d601f19601f820116820180604052508101906107c691906108c7565b5050565b6001600160a01b03811660009081526004602052604090208054156108455760008160020154436107fb91906108ae565b6003548354600254929350600092610813908561093e565b61081d919061093e565b6108279190610955565b90508083600101600082825461083d919061092b565b909155505050505b4360029091015550565b60006020828403121561086157600080fd5b5035919050565b60006020828403121561087a57600080fd5b81356001600160a01b038116811461089157600080fd5b9392505050565b634e487b7160e01b600052601160045260246000fd5b818103818111156108c1576108c1610898565b92915050565b6000602082840312156108d957600080fd5b8151801515811461089157600080fd5b60208082526022908201527f4f6e6c79206f776e65722063616e20706572666f726d2074686973206163746960408201526137b760f11b606082015260800190565b808201808211156108c1576108c1610898565b80820281158282048414176108c1576108c1610898565b60008261097257634e487b7160e01b600052601260045260246000fd5b500490565b60006020828403121561098957600080fd5b505191905056fea26469706673582212203e24fbe6a1f9cba2f0d14ad106859d0c2519bda3a78413502b6b690cd4e618cb64736f6c63430008140033",
  "linkReferences": {},
  "deployedLinkReferences": {}
}