{
  "_format": "hh-sol-artifact-1",
  "contractName": "DogeStaking",
  "sourceName": "contracts/DogeStake.sol",
  "abi": [
    {
      "inputs": [
        {
          "internalType": "address",
          "name": "_dogeToken",
          "type": "address"
        },
        {
          "internalType": "address",
          "name": "_xnbcToken",
          "type": "address"
        },
        {
          "internalType": "uint256",
          "name": "_rewardRate",
          "type": "uint256"
        }
      ],
      "stateMutability": "nonpayable",
      "type": "constructor"
    },
    {
      "anonymous": false,
      "inputs": [
        {
          "indexed": true,
          "internalType": "address",
          "name": "user",
          "type": "address"
        },
        {
          "indexed": false,
          "internalType": "uint256",
          "name": "reward",
          "type": "uint256"
        }
      ],
      "name": "RewardPaid",
      "type": "event"
    },
    {
      "anonymous": false,
      "inputs": [
        {
          "indexed": true,
          "internalType": "address",
          "name": "user",
          "type": "address"
        },
        {
          "indexed": false,
          "internalType": "uint256",
          "name": "amount",
          "type": "uint256"
        }
      ],
      "name": "Staked",
      "type": "event"
    },
    {
      "anonymous": false,
      "inputs": [
        {
          "indexed": true,
          "internalType": "address",
          "name": "user",
          "type": "address"
        },
        {
          "indexed": false,
          "internalType": "uint256",
          "name": "amount",
          "type": "uint256"
        }
      ],
      "name": "Unstaked",
      "type": "event"
    },
    {
      "inputs": [
        {
          "internalType": "address",
          "name": "stakerAddress",
          "type": "address"
        }
      ],
      "name": "checkReward",
      "outputs": [
        {
          "internalType": "uint256",
          "name": "",
          "type": "uint256"
        }
      ],
      "stateMutability": "view",
      "type": "function"
    },
    {
      "inputs": [],
      "name": "claimReward",
      "outputs": [],
      "stateMutability": "nonpayable",
      "type": "function"
    },
    {
      "inputs": [],
      "name": "dogeToken",
      "outputs": [
        {
          "internalType": "contract IERC20",
          "name": "",
          "type": "address"
        }
      ],
      "stateMutability": "view",
      "type": "function"
    },
    {
      "inputs": [],
      "name": "owner",
      "outputs": [
        {
          "internalType": "address",
          "name": "",
          "type": "address"
        }
      ],
      "stateMutability": "view",
      "type": "function"
    },
    {
      "inputs": [],
      "name": "rewardRate",
      "outputs": [
        {
          "internalType": "uint256",
          "name": "",
          "type": "uint256"
        }
      ],
      "stateMutability": "view",
      "type": "function"
    },
    {
      "inputs": [
        {
          "internalType": "uint256",
          "name": "newRewardRate",
          "type": "uint256"
        }
      ],
      "name": "setRewardRate",
      "outputs": [],
      "stateMutability": "nonpayable",
      "type": "function"
    },
    {
      "inputs": [
        {
          "internalType": "uint256",
          "name": "amount",
          "type": "uint256"
        }
      ],
      "name": "stake",
      "outputs": [],
      "stateMutability": "nonpayable",
      "type": "function"
    },
    {
      "inputs": [
        {
          "internalType": "address",
          "name": "",
          "type": "address"
        }
      ],
      "name": "stakers",
      "outputs": [
        {
          "internalType": "uint256",
          "name": "amountStaked",
          "type": "uint256"
        },
        {
          "internalType": "uint256",
          "name": "rewardDebt",
          "type": "uint256"
        },
        {
          "internalType": "uint256",
          "name": "lastUpdateBlock",
          "type": "uint256"
        }
      ],
      "stateMutability": "view",
      "type": "function"
    },
    {
      "inputs": [],
      "name": "totalStaked",
      "outputs": [
        {
          "internalType": "uint256",
          "name": "",
          "type": "uint256"
        }
      ],
      "stateMutability": "view",
      "type": "function"
    },
    {
      "inputs": [
        {
          "internalType": "uint256",
          "name": "amount",
          "type": "uint256"
        }
      ],
      "name": "unstake",
      "outputs": [],
      "stateMutability": "nonpayable",
      "type": "function"
    },
    {
      "inputs": [
        {
          "internalType": "uint256",
          "name": "amount",
          "type": "uint256"
        }
      ],
      "name": "withdrawExcess",
      "outputs": [],
      "stateMutability": "nonpayable",
      "type": "function"
    },
    {
      "inputs": [],
      "name": "xnbcToken",
      "outputs": [
        {
          "internalType": "contract XNBC",
          "name": "",
          "type": "address"
        }
      ],
      "stateMutability": "view",
      "type": "function"
    }
  ],
  "bytecode": "0x608060405234801561001057600080fd5b50604051610ab1380380610ab183398101604081905261002f91610092565b600080546001600160a01b039485166001600160a01b03199182161790915560018054939094169281169290921790925560039190915560028054909116331790556100ce565b80516001600160a01b038116811461008d57600080fd5b919050565b6000806000606084860312156100a757600080fd5b6100b084610076565b92506100be60208501610076565b9150604084015190509250925092565b6109d4806100dd6000396000f3fe608060405234801561001057600080fd5b50600436106100b45760003560e01c80639168ae72116100715780639168ae72146101445780639e447fc61461018e578063a694fc3a146101a1578063b88a802f146101b4578063c3c90e64146101bc578063e755ddd7146101cf57600080fd5b806322d31977146100b95780632e17de78146100e9578063631bd005146100fe5780637b0a47ee14610111578063817b1cd2146101285780638da5cb5b14610131575b600080fd5b6000546100cc906001600160a01b031681565b6040516001600160a01b0390911681526020015b60405180910390f35b6100fc6100f736600461085d565b6101e2565b005b6001546100cc906001600160a01b031681565b61011a60035481565b6040519081526020016100e0565b61011a60045481565b6002546100cc906001600160a01b031681565b610173610152366004610876565b60056020526000908152604090208054600182015460029092015490919083565b604080519384526020840192909252908201526060016100e0565b6100fc61019c36600461085d565b610382565b6100fc6101af36600461085d565b6103b1565b6100fc6104f2565b61011a6101ca366004610876565b6105f2565b6100fc6101dd36600461085d565b610682565b600081116102375760405162461bcd60e51b815260206004820152601760248201527f43616e6e6f7420756e7374616b65203020746f6b656e7300000000000000000060448201526064015b60405180910390fd5b33600090815260056020526040902080548211156102975760405162461bcd60e51b815260206004820152601960248201527f4e6f7420656e6f756768207374616b65642062616c616e636500000000000000604482015260640161022e565b6102a0336107d8565b818160000160008282546102b491906108bc565b9250508190555081600460008282546102cd91906108bc565b909155505060005460405163a9059cbb60e01b8152336004820152602481018490526001600160a01b039091169063a9059cbb906044016020604051808303816000875af1158015610323573d6000803e3d6000fd5b505050506040513d601f19601f8201168201806040525081019061034791906108d5565b5060405182815233907f0f5bb82176feb1b5e747e28471aa92156a04d9f3ab9f45f28e2d704232b93f75906020015b60405180910390a25050565b6002546001600160a01b031633146103ac5760405162461bcd60e51b815260040161022e906108f7565b600355565b600081116103f95760405162461bcd60e51b815260206004820152601560248201527443616e6e6f74207374616b65203020746f6b656e7360581b604482015260640161022e565b6000546040516323b872dd60e01b8152336004820152306024820152604481018390526001600160a01b03909116906323b872dd906064016020604051808303816000875af1158015610450573d6000803e3d6000fd5b505050506040513d601f19601f8201168201806040525081019061047491906108d5565b503360008181526005602052604090209061048e906107d8565b818160000160008282546104a29190610939565b9250508190555081600460008282546104bb9190610939565b909155505060405182815233907f9e71bc8eea02a63969f509818f2dafb9254532904319f9dbda79b67bd34a5f3d90602001610376565b3360008181526005602052604090209061050b906107d8565b6001810154806105535760405162461bcd60e51b81526020600482015260136024820152724e6f207265776172647320746f20636c61696d60681b604482015260640161022e565b6000600183810191909155546040516340c10f1960e01b8152336004820152602481018390526001600160a01b03909116906340c10f1990604401600060405180830381600087803b1580156105a857600080fd5b505af11580156105bc573d6000803e3d6000fd5b50506040518381523392507fe2403640ba68fed3a2f88b7557551d1993f84b99bb10ff833f0cf8db0c5e04869150602001610376565b6001600160a01b038116600090815260056020908152604080832081516060810183528154815260018201549381019390935260020154908201819052829061063b90436108bc565b6004548351600354929350600092610653908561094c565b61065d919061094c565b6106679190610963565b90508083602001516106799190610939565b95945050505050565b6002546001600160a01b031633146106ac5760405162461bcd60e51b815260040161022e906108f7565b6000546040516370a0823160e01b815230600482015282916001600160a01b0316906370a0823190602401602060405180830381865afa1580156106f4573d6000803e3d6000fd5b505050506040513d601f19601f820116820180604052508101906107189190610985565b101561075b5760405162461bcd60e51b81526020600482015260126024820152714e6f7420656e6f7567682062616c616e636560701b604482015260640161022e565b60005460025460405163a9059cbb60e01b81526001600160a01b0391821660048201526024810184905291169063a9059cbb906044016020604051808303816000875af11580156107b0573d6000803e3d6000fd5b505050506040513d601f19601f820116820180604052508101906107d491906108d5565b5050565b6001600160a01b038116600090815260056020526040902080541561085357600081600201544361080991906108bc565b6004548354600354929350600092610821908561094c565b61082b919061094c565b6108359190610963565b90508083600101600082825461084b9190610939565b909155505050505b4360029091015550565b60006020828403121561086f57600080fd5b5035919050565b60006020828403121561088857600080fd5b81356001600160a01b038116811461089f57600080fd5b9392505050565b634e487b7160e01b600052601160045260246000fd5b818103818111156108cf576108cf6108a6565b92915050565b6000602082840312156108e757600080fd5b8151801515811461089f57600080fd5b60208082526022908201527f4f6e6c79206f776e65722063616e20706572666f726d2074686973206163746960408201526137b760f11b606082015260800190565b808201808211156108cf576108cf6108a6565b80820281158282048414176108cf576108cf6108a6565b60008261098057634e487b7160e01b600052601260045260246000fd5b500490565b60006020828403121561099757600080fd5b505191905056fea2646970667358221220291fd2aa52b5130b900f243d41142ba0e907491926c6096b70be71ef37507a5664736f6c63430008140033",
  "linkReferences": {},
  "deployedLinkReferences": {}
}